:020000040800F2
:100000003811002005010008C725000879200008E4
:10001000C5250008ED04000871320008000000004A
:10002000000000000000000000000000432B00085A
:10003000EF04000800000000412B0008612D0008BB
:100040001F0100081F0100081F0100081F01000810
:100050001F0100081F0100081F0100081F01000800
:100060001F0100081F0100081F0100081F010008F0
:100070001F0100081F0100081F0100081F010008E0
:100080001F0100081F0100081F0100081F010008D0
:100090001F0100081F0100081F0100081F010008C0
:1000A0001F0100081F0100081F0100081F010008B0
:1000B0001F010008C52D00081F0100081F010008CE
:1000C0001F0100081F0100081F0100081F01000890
:1000D0001F010008313100083D3100084931000896
:1000E0001F0100081F0100081F010008DFF810D0E1
:1000F00000F08CF80048004709490008AFF3008081
:10010000381100200648804706480047FEE7FEE712
:10011000FEE7FEE7FEE7FEE7FEE7FEE7FEE7FEE7B7
:10012000C32D0008ED000008202A04DB203A21FA44
:1001300002F00021704721FA02F3D040C2F1200200
:100140009140084319467047D2B201E000F8012BF4
:10015000491EFBD270470022F6E710B513460A4647
:1001600004461946FFF7F0FF204610BD30B505469E
:100170002A460B4612F8010B13F8014B08B1A042B6
:10018000F8D01CB1002802D06D1CF1E7284630BD24
:1001900030B504460020034600E05B1C934203D2C6
:1001A000E05CCD5C401BF8D030BD2DE9F05F05462A
:1001B000002092469B4688460646814640241BE026
:1001C0002846414647462246FFF7AEFF53465A4669
:1001D000C01A914110D311461846224600F028F863
:1001E0002D1A67EB01084F4622460120002100F03E
:1001F0001FF817EB00094E41201EA4F10104DFDCBB
:10020000484631462A464346BDE8F09F064C074D16
:1002100006E0E06840F0010394E8070098471034D6
:10022000AC42F6D3FFF766FFA4550008C45500089A
:10023000202A04DB203A00FA02F1002070479140A6
:10024000C2F1200320FA03F319439040704770B5C0
:100250008D1810F8014B14F0030201D110F8012B96
:10026000231106D110F8013B03E010F8016B01F8EF
:10027000016B521EF9D1ABB110F8012B04F00C0444
:100280008A1A0C2C03D0A2EB84129B1C08E010F8F5
:10029000014BA2EB0422F8E712F8014B01F8014BE5
:1002A0005B1EF9D5A942D4D3002070BD2DE9F84FCB
:1002B000594E0024594F7088032806D358A002F0E5
:1002C000FDFF02F081F90E2016E0DFF874814FF493
:1002D000FA794FF47A7A4FF4C87B00BF03F0E8FA5A
:1002E0000D2806D0052C5DD2DFE804F0091B304C48
:1002F000620002F069F903203870BDE8F88F6D1CC8
:10030000EDB250A002F0DAFF02F061FBA8B90120C3
:1003100002F03FFB88B94EA002F0D0FF0025012477
:1003200026E06D1CEDB24DA002F0C8FF02F04FFBBD
:1003300018B9022002F02DFB10B102F041FC31E0AF
:1003400043A002F0BBFF0025022411E047A002F009
:10035000B5FF02F098FB04000ED048A002F0AEFFFB
:10036000204602F02DFC00252C46484603F01BFDDC
:10037000584603F018FDB1E743A002F09FFF0324A5
:1003800048460DE043A002F099FF484603F00BFDFC
:1003900002F093FB18BB43A002F090FF04245046E8
:1003A00003F001FD584603F0FEFC0A2D96D1A4E7A8
:1003B000002108464FEA080232F810309BB1401C79
:1003C0000328F9DB022002F092FB00907088401CA9
:1003D00081B2718038A002F071FF009848B100240A
:1003E00002F0EEFBDBE7012128F81010801C81B23F
:1003F000E8E736A002F062FF02F06AFC02F0E4F8DF
:100400000B20387001B03223BDE8F04F0F2233A12A
:10041000354801F0E3BD000010000020A8070020CF
:10042000C2BCC8EBD6B8CEC6CAA7B0DCA3ACD6BB9C
:10043000C4DCC2BCC8EB33B8F6D6B8CEC60D0A00D1
:1004400024000020C7EBB0B4CAD6D6B80D0A00000D
:10045000D6B8CEC6D5FDB3A30D0A0000C7EBD4D9DC
:10046000B0B4D2BBB4CE0D0A00000000B6D4B1C8FF
:10047000C1BDB4CED6B8CEC60D0A0000B6D4B1C840
:10048000CAA7B0DC0D0A0000B6D4B1C8B3C9B9A67A
:100490000D0A0000C9FAB3C9D6B8CEC6C4A3B0E5E8
:1004A0000D0A0000C9FAB3C9D6B8CEC6C4A3B0E5D8
:1004B000B3C9B9A60D0A0000C2BCC8EBD6B8CEC6F7
:1004C000B8F6CAFDCEAA2564200D0A00C2BCC8EB4E
:1004D000D6B8CEC6B3C9B9A60D0A0000616464736C
:1004E0007563636573730000BC080020FEE7704706
:1004F00070B5264C0546608800283ED0294624A0C9
:1005000002F0DCFE0121284602F014FA10B102F0DC
:1005100057FB35E0274800EB4500274D30F8041C19
:10052000012911D002F050F8618824A002F0C6FE23
:1005300027A002F0C3FE32230F222DA12E4801F086
:100540004DFD1020287070BD002120F8041C2BA048
:1005500002F0B4FE6088401E81B2618017A002F0F4
:10056000ADFE02F0B5FB0D202870BDE870403223CF
:100570000F2226A1204801F031BD28A002F09EFEE6
:10058000BDE8704040F2DC5003F00DBC10000020CC
:10059000B5A5B8F6C9BEB3FDD6B8CEC6BFAACABC0B
:1005A000A3ACC9BEB3FD4944CEAAA3BA25640D0AC3
:1005B0000000000024000020A8070020CAA3D3E008
:1005C000D6B8CEC6CAFDCEAAA3BA25640D0A0000CD
:1005D000C9BEB3FDD6B8CEC6CAA7B0DCA3ACB8C3FB
:1005E0004944CEB4C2BCC8EBD6B8CEC60D0A000092
:1005F0004E6F496400000000BC080020C9BEB3FD76
:10060000D6B8CEC6B3C9B9A6200D0A0064656C651C
:10061000746573756363657373000000C9BEB3FDD1
:10062000D6B8CEC6CAA7B0DCA3ACD6B8CEC6CAFD73
:10063000BEDDCEAABFD50D0A0000000021283CD2A5
:10064000DFE800F011131517191B1D1F21232527A3
:100650003B3B3B3B27293B3B3B2B3B3B2D2F31334C
:10066000353B3B37390016A070471AA070471EA0D3
:10067000704722A0704726A070472AA070472EA07E
:10068000704732A0704736A070473AA070473EA02E
:10069000704742A0704746A070474AA070474EA0DE
:1006A000704752A0704756A070475AA070475EA08E
:1006B000704762A0704766A070476AA0704700004C
:1006C000202020202020204F4B20202020202020D0
:1006D0000000000020CAFDBEDDB0FCBDD3CAD5B409
:1006E000EDCEF32000000000B4ABB8D0C6F7C9CF00
:1006F000C3BBD3D0CAD6D6B800000000C2BCC8EB7A
:10070000D6B8CEC6CDBCCFF1CAA7B0DC0000000081
:1007100020D6B8CEC6CCABB8C9BBF2CCABB5AD20F9
:100720000000000020D6B8CEC6CCABCAAABBF2CC23
:10073000ABBAFD20000000002020D6B8CEC6CDBC4C
:10074000CFF1CCABC2D220200000000020D6B8CE22
:10075000C6CCD8D5F7B5E3CCABC9D9200000000092
:100760002020D6B8CEC6B2BBC6A5C5E42020202026
:100770000000000020C3BBD3D0CBD1CBF7B5BDD692
:10078000B8CEC62000000000202020CCD8D5F7BA73
:10079000CFB2A2CAA7B0DC20000000002020C9BE52
:1007A000B3FDC4A3B0E5CAA7B0DC20200000000060
:1007B00020C7E5BFD5D6B8CEC6BFE2CAA7B0DC20F9
:1007C00000000000BBBAB3E5C7F8C4DACEDED3D070
:1007D000D0A7CDBC0000000020B6C1D0B4464C412B
:1007E0005348B3F6B4ED202000000000202020CEB6
:1007F000B4B6A8D2E5B4EDCEF3202020000000006E
:100800002020CEDED0A7BCC4B4E6C6F7BAC52020EF
:100810000000000020BCC4B4E6C6F7C4DAC8DDB4EA
:10082000EDCEF3200000000020BCC7CAC2B1BED28A
:10083000B3C2EBB4EDCEF320000000002020202056
:10084000D6B8CEC6BFE2C2FA2020202000000000A9
:1008500020202020B5D8D6B7B4EDCEF3202020201C
:100860000000000020B7B5BBD8C8B7C8CFC2EBD3D3
:10087000D0CEF3200000000072B6FEE7064900204B
:10088000C8610648016941F004010161016941F054
:100890004001016170470000500900200020024023
:1008A000064A0021D16106490A6942F002020A6142
:1008B0004861086940F04000086170475009002015
:1008C00000200240044B0022DA61044A136943F01D
:1008D000010313610180704750090020002002408D
:1008E00014480022C168CB06134904D5CA6942F0F6
:1008F0000202CA611022C3685B0705D5CB6943F0C9
:100900000103CB6142F00402C369DB0707D0CB6966
:1009100043F00403CB61C16921F00101C161A2F57B
:100920008071013901D0C2607047C16921F00101B5
:10093000C1617047002002405009002070B5054693
:1009400000F05EFA0646114C09E0681C07D025B19C
:1009500000F056FA801BA84201D9032070BDE06860
:10096000C007F2D1E068800601D52020E060E06891
:10097000C00605D4E069C00702D1E068400703D58E
:10098000FFF7AEFF012070BD002070BD00200240C7
:1009900010B501F0DBFC002803D0BDE8104004F0E6
:1009A0009FB810BD10B590F821100022022905D083
:1009B0000421816380F82020012010BD01680B68AC
:1009C00023F00E030B6001680B6823F001030B603A
:1009D00090F84030C46B012101FA03F3636080F8A2
:1009E000211080F82020104610BD000010B590F8AE
:1009F00021100024022903D00421816301243DE059
:100A000001680A6822F00E020A6001680A6822F092
:100A100001020A601A4A0168914201D1012121E0D4
:100A2000174A1432914201D110211BE0144A283296
:100A3000914201D1891515E0114A3C32914201D110
:100A400089140FE00E4A5032914202D14FF48031A6
:100A500008E00B4A6432914202D14FF4801101E068
:100A60004FF08071064A083A5160012180F8211048
:100A7000002180F82010416B01B18847204610BD4D
:100A80000800024070B5044600F0BAF90546601C43
:100A900002D004480078044400F0B2F9401BA042A0
:100AA000FAD370BD000000202DE9F0470546264826
:100AB0000F460126017E01290FD0012181460176D2
:100AC0002868DFF888804CF25034022808D0A2460B
:100AD0002046FFF733FFA8B131E00220BDE8F087E0
:100AE0002046FFF72BFF08BB0120FFF7C7FE20467B
:100AF000FFF724FFD8F81010064621F00401C8F8CB
:100B000010101CE04FF0FF303860AC6811E0204658
:100B1000FFF7C6FE5046FFF711FFD8F81010060089
:100B200021F00201C8F8101001D03C6007E004F584
:100B30008064D5E9020100EB8120A042E7D80021C2
:100B400089F818103046C9E75009002000200240FB
:100B50000348016941F080010161002070470000F5
:100B6000002002402DE9F05F07461C48884600241B
:100B7000017E15461E46012909D0012181460176D4
:100B80004CF2503A5046FFF7D9FE18B122E002204D
:100B9000BDE8F09F012F02D0022F00D00427D346DA
:100BA000DFF83CA0220128463146FFF7BDFA81B2AA
:100BB00008EB4400FFF786FE5846FFF7BFFEDAF861
:100BC000102022F00102CAF8102018B9641CE4B207
:100BD000BC42E7D3002289F81820D9E75009002049
:100BE00000200240064900200A69120607D5054A7E
:100BF0004A60054A4A600969090600D50120704724
:100C00000020024023016745AB89EFCD2DE9F84F65
:100C1000DFF8B8910024A9F1040B23460F2709F14E
:100C2000040AABF1040EC9E00125A5402A40AA42FE
:100C30007DD1674ED1F804C0ACEB0608B44532D084
:100C400014DCBCF1030F3AD009DCBCF1000F2AD050
:100C5000BCF1010F1CD0BCF1020F31D11DE0BCF181
:100C6000110F17D0BCF1120F2AD119E0B8F5881F67
:100C700019D006DCB8F5803F15D0B8F5801F1FD11C
:100C800011E0B8F5001F0ED0B8F5041F18D10AE026
:100C9000CB6815E0CB681B1D12E0CB6808330FE072
:100CA000CB680C330CE08B682BB1012B4FF00803A1
:100CB00003D0456104E0042302E0056100E0002365
:100CC000FF2A01D8064601E000F104064FEA840538
:100CD00001D9A5F12005D6F8008007FA05FC28EA1D
:100CE0000C0803FA05F548EA0508C6F800804D68C7
:100CF000ED0062D5374DAE6946F00106AE61AD69D3
:100D000024F0030605F001050095334D06EB050CB4
:100D1000DCF80850A607360F07FA06F825EA08059A
:100D2000DFF8B880404503D14FF0000817E044E0F9
:100D3000DFF8AC80404502D14FF001080FE0DFF84A
:100D4000A480404502D14FF0020808E0DFF8988007
:100D5000404502D14FF0030801E04FF0040808FAC3
:100D600006F848EA0508CCF808804D68D9F8006014
:100D7000ED024D4601D5164300E096432E604D68C6
:100D8000DAF80060AD02554601D5164300E09643FF
:100D90002E604D68DBF80060AD035D4601D516435B
:100DA00000E096432E604D68DEF80060ED03754666
:100DB00001D5164300E096432E60641C0D682A4658
:100DC000E5407FF431AFBDE8F88F00000804014032
:100DD0000000111000100240000001400008014016
:100DE000000C0140001001400014014080680840E0
:100DF00000D0012070470AB1016170470904FBE788
:100E000001488068704700000000002070B50400B1
:100E100025D094F83D00002520B984F83C502046A8
:100E200000F050F9242084F83D002068016821F08A
:100E3000010101602068016841F4004101602068FF
:100E4000016821F40041016000F098FA4D4A6168A0
:100E5000914201D84C4900E04C49884201D201201E
:100E600070BD4B492368B0FBF1F15E6826F03F0688
:100E70000E435E606368934206D94FF496735943FC
:100E80004FF47A73B1FBF3F12368491C1E6A26F014
:100E90003F06314319626168914210D84900401EF3
:100EA000B0FBF1F2521CC2F30B02042A01D204205F
:100EB00022E0B0FBF1F0401CC0F30B001CE0A26884
:100EC000F2B301EBC10303EB0116431EB3FBF6F3D0
:100ED0005B1C43F480431B0549D092B301EBC10274
:100EE00002EB0111401EB0FBF1F0401CC0F30B00FF
:100EF00040F4804040F400402168CA694CF6FF731A
:100F00009A431043C861D4E907100143206802687E
:100F100022F0C00211430160D4E9030101432068BB
:100F2000826848F2FF339A4311438160D4E9050196
:100F300008432168CA6822F0FF021043C86001E03C
:100F40000EE016E02068016841F0010101602564AF
:100F5000202084F83D00256384F83E50002070BDB9
:100F600001EB4106431EB3FBF6F35B1CB3E7012024
:100F7000C2E701EB4101401EB0FBF1F0401CC0F3A1
:100F80000B00B7E7A086010080841E0000093D0029
:100F900040420F002DE9FF4F83B09A46DDE91197DB
:100FA00093460446DDF84080FFF72AFF054694F893
:100FB0003D0020287FD11923012240492046009579
:100FC00001F0F2F8002876D194F83C00012872D0A4
:100FD000012084F83C0020680168C90703D101683A
:100FE00041F0010101602068016821F400610160A5
:100FF000212084F83D00402084F83E00002626642D
:10100000C4F82480A4F82A90608D20852C48E062E2
:10101000CDE9007553465A462046049901F044F83C
:1010200070B930E02A463946204601F063F958B1DC
:10103000206C042804D12068016841F4007101602B
:10104000012007B0BDE8F08F606A21680078086170
:10105000606A401C6062218D491E89B22185628DC3
:10106000521E628522685369DB435B070BD469B16A
:1010700000781061606A401C6062208D401E2085EF
:10108000608D401E6085208D0028CBD12A463946D0
:10109000204601F05DF80028CAD154F83D0B0168E4
:1010A00041F400710160202004F81E09E67766779C
:1010B0000020C6E7FFE70220C3E70000020010009F
:1010C0000000FFFF10B586B0002100910191029150
:1010D000039100680F4988421AD10F4CA06940F073
:1010E0000800A061A069694600F008000490C020D3
:1010F000009012200190032003900848FFF786FD1E
:10110000E06940F40010E061E06900F40010049030
:1011100006B010BD0054004000100240000C014019
:101120000248816802781144816070470000002005
:10113000074810B5016841F010010160032000F07C
:1011400075F80F2000F006F800F024F8002010BD1C
:101150000020024070B50D4D04464FF47A71287896
:10116000B1FBF0F00A490968B1FBF0F000F0DCFADD
:1011700048B9102C07D200222146501E00F036F844
:1011800000206C6070BD012070BD000000000020D8
:101190000C0000200C4808B5816941F00101816113
:1011A000816901F001010091C16941F08051C16183
:1011B000C06900F0805000900448416821F0E0616F
:1011C00041F00071416008BD001002400000014084
:1011D000002809DB00F01F02012191404009800036
:1011E00000F1E020C0F8001170470000F0B40E4B91
:1011F0001B680C46C3F30223C3F10705042D00D975
:101200000425191D072901D2002300E0DB1E012659
:1012100006FA05F1491E214099409E40761E16406F
:101220003143F0BC02F06EB80CED00E0064900F06E
:10123000070208684FF6FF03184040EA0220034AFD
:1012400010430860704700000CED00E00000FA0554
:101250002DE9F0470F46050061D0434E306800F09D
:101260000700B84209D2306820F0070038433060E8
:10127000306800F00700B84251D128683B4C810724
:1012800012D5400703D5606840F4E06060602878BC
:10129000000703D5606840F4605060606068A9682A
:1012A00020F0F000084360602878C00728D0686804
:1012B000012810D02168022810D0890700292EDAD1
:1012C000616821F0030101436160FFF799FD8046E9
:1012D00041F288390DE021688903EFE78901EDE7E4
:1012E000FFF78EFDA0EB0801494502D90320BDE8B8
:1012F000F0876068696800F00C00B0EB810FEFD1F7
:10130000306800F00700B8420BD9306820F00700C1
:1013100038433060306800F00700B84201D0012047
:10132000E5E72878400705D56068E96820F4E060C3
:10133000084360602878000706D56068296920F4B2
:10134000605040EAC100606000F038F86168084A07
:10135000C1F30311515CC8400649086006480068A3
:10136000FFF7F8FE0020C2E7002002400010024014
:10137000624D00080C0000200400002004480549CC
:1013800000684968044AC1F30221515CC8407047B3
:101390000C00002000100240724D0008044805496E
:1013A00000684968044AC1F3C221515CC8407047D3
:1013B0000C00002000100240724D00080E4A5168D7
:1013C0000E4801F00C03042B11D0082B0FD10C4850
:1013D000C1F38343C903C05C0AD55168084AC1F30D
:1013E0004041921E515C054A5043B0FBF1F07047FA
:1013F00004494843704700000010024000127A0080
:10140000524D000800093D002DE9F84F040070D04E
:101410002078C04DC00749D06868C0F3810001281A
:1014200007D06868C0F38100022809D16868C0034A
:1014300006D52868800339D560680028E7D035E0F4
:101440006068B0F5803F0BD010B1B0F5A02F11D07F
:10145000286820F480302860286820F4802002E08A
:10146000286840F480302860606890B1FFF7C8FCBD
:1014700006460AE0286840F480202860F0E700BFB4
:10148000FFF7BEFC801B642873D828688003F7D55B
:101490000CE0FFF7B5FC064605E000BFFFF7B0FC27
:1014A000801B6428F0D828688003F7D420789A4EEF
:1014B00080074FF001094FF0000839D5686810F037
:1014C0000C0F07D06868C0F38100022809D1686852
:1014D000C00306D42868800714D52069012808D1E4
:1014E00010E02069B0B1C6F80090FFF789FC07460C
:1014F00005E00AE1FFF784FCC01B0228C4D8286875
:101500008007F7D52868616920F0F80040EAC1003B
:1015100028600DE0C6F80080FFF772FC074604E083
:10152000FFF76EFCC01B022823D828688007F7D479
:10153000207800072CD57948A169D9B1C0F800906E
:10154000FFF75EFC074604E0FFF75AFCC01B0228C9
:101550000FD8686A8007F7D571484FF4FA510068D0
:10156000B0FBF1F0009000BF0098411E0091FAD24C
:101570000EE080E0C0F80080FFF742FC074604E080
:10158000FFF73EFCC01B022875D8686A8007F7D4B5
:101590002078400760D5E8690027C00008D4E869D2
:1015A00040F08050E861E869012700F08050009029
:1015B0005C480168C90513D40168834641F4807111
:1015C0000160FFF71DFC824606E000BFFFF718FC34
:1015D000A0EB0A0064284ED8DBF80000C005F5D562
:1015E000E06801280AD008B1052813D0286A20F045
:1015F00001002862286A20F0040002E0286A40F016
:1016000001002862E06841F2883B98B1FFF7F8FBDF
:1016100082460BE0286A40F004002862EEE700BF33
:10162000FFF7EEFBA0EB0A0159455AD8286A80075C
:10163000F6D50CE0FFF7E4FB824605E0FFF7E0FBA0
:10164000A0EB0A0159454CD8286A8007F6D41FB18F
:10165000E86920F08050E861E06988B36968C1F307
:101660008101022944D00228C6F8608004D0FFF727
:10167000C7FB044638E034E0FFF7C2FB074604E04E
:10168000FFF7BEFBC01B02282BD828688001F7D4C7
:10169000206AB0F5803F05D16868A16820F4003069
:1016A00008436860D4E908010843696821F47411AB
:1016B00008436860C6F86090FFF7A2FB044606E0A6
:1016C00025E000BFFFF79CFB001B022809D8286813
:1016D0008001F7D51BE000BFFFF792FB001B02283B
:1016E00002D90320BDE8F88F28688001F4D40EE009
:1016F0000128F7D06868226A00F48031914204D151
:10170000616A00F47010884201D00120EAE70020ED
:10171000E8E700000010024000004242800442421C
:101720000C0000200070004010B5401EB0F1807F1A
:1017300001D3012010BD4FF0E02460610F2160173C
:1017400001F0E0FD0020A06107202061002010BD15
:101750007047704770B590F83C20012A26D00124CC
:1017600080F83C40022280F83D2003685A689D685A
:1017700022F070060A6832435A600D4B02689A42A2
:1017800008D0B2F1804F05D00A4B9A4202D00A4BE2
:101790009A4204D1496825F080031943916080F88A
:1017A0003D40002180F83C10084670BD022070BD0D
:1017B000002C0140000400400008004010B5040067
:1017C00003D094F83D0010B107E0012010BD0020C7
:1017D00084F83C00204600F01FF8022084F83D0009
:1017E000211D206801F0F4FA012084F8460084F8F5
:1017F0003E0084F83F0084F8400084F8410084F8FB
:10180000420084F8430084F8440084F8450084F8DA
:101810003D00002010BD000008B500680B4988425B
:1018200012D10B48C16941F00201C161C0690022B7
:1018300000F00200009011461D20FFF7D7FCBDE824
:1018400008401D20FFF7C4BC08BD00000004004094
:101850000010024090F83D10012901D0012070478E
:10186000022180F83D100168CA6842F00102CA6096
:1018700000680B49884208D0B0F1804F05D0094973
:10188000884202D00849884204D1816801F00701EA
:10189000062903D0016841F0010101600020704772
:1018A000002C0140000400400008004070B50446D0
:1018B00090F83C000025012817D0012684F83C60F0
:1018C000022084F83D002068826822F0770222F42A
:1018D0007F4282600868502838D00DDC20284FD025
:1018E00005DC90B3102811D14AE0022070BD3028E9
:1018F00046D040280AD13BE060282FD070280DD078
:10190000B0F5805F03D0B0F5005F12D0012584F8F8
:101910003D60002084F83C00284670BDCB68D1E9CA
:101920000121206801F08AFA2068816841F077017E
:1019300009E0CB68D1E90121206801F07FFA206835
:10194000816841F480418160E1E719E0CA68496833
:10195000206801F085FA5021206806E0CA684968CD
:10196000206801F08EFA6021206801F071FACEE75C
:10197000CA684968206801F073FA40212068F4E7DA
:10198000226801461046F0E7704770B504460068CB
:1019900001694FF00005C943890715D4C168C943DF
:1019A000890711D4E91E0161012020772068806930
:1019B0008007204602D0FFF7E7FF04E000F098F828
:1019C000204600F096F8257720680169C943490749
:1019D00017D4C168C943490713D46FF004010161EA
:1019E000022020772068806910F4407F204602D0D2
:1019F000FFF7CAFF04E000F07BF8204600F079F81A
:101A0000257720680169C943090716D4C168C9430D
:101A1000090712D46FF008010161042020772068C3
:101A2000C0698007204602D0FFF7AEFF04E000F057
:101A30005FF8204600F05DF8257720680169C9430A
:101A4000C90617D4C168C943C90613D46FF0100181
:101A50000161082020772068C06910F4407F20468B
:101A600002D0FFF791FF04E000F042F8204600F0BA
:101A700040F8257720680169C943C90708D1C168C2
:101A8000C943C90704D1891E0161204600F032F81C
:101A900020680169C943090609D4C168C943090618
:101AA00005D46FF0800101612046FFF751FE2068E8
:101AB0000169C943490609D4C168C943490605D427
:101AC0006FF040010161204600F042F82068016992
:101AD000C94389060BD4C168C943890607D46FF08E
:101AE000200101612046BDE87040FFF732BE70BDA5
:101AF0007047704700681249884220D11148002180
:101B0000C268521CC260052A00D3C1600E4B1A780D
:101B1000012A07D18268521C8260B2F5967F01D1FA
:101B200081601970094A1278012A07D14268521C53
:101B30004260B2F5167F02D1012202704160704707
:101B400000040040C4070020A7070020AA070020C7
:101B50007047704770470000F8B501680446086890
:101B6000CA684B6910F00F0F4FF0000559D003F011
:101B7000010602F49077374365D0C10705D0D1053F
:101B800003D5616C41F001016164410705D5D907B6
:101B900003D0616C41F002016164810705D5D9076A
:101BA00003D0616C41F004016164010707D502F0C4
:101BB0002001314303D0616C41F008016164616C24
:101BC00000293AD0800604D5900602D5204601F0BF
:101BD00099F920684069616CC0F38010090700D44E
:101BE00060B3204601F067F920684069400621D5BE
:101BF0002068143050E8001F21F0400140E8001236
:101C0000002AF5D1E06BA8B16D494163E06BFEF7A6
:101C1000EDFE002811D0E06B416B01B0BDE8F04053
:101C2000084783060FD593060DD52046BDE8F8403A
:101C300001F068B92046FFF78DFFF8BD2046FFF799
:101C400089FF6564F8BD266B2023012E7CD1C60672
:101C50007AD5D60678D508684868009048694FF06C
:101C60000206400640D5E16B086840680004000C9D
:101C7000E8D0A28D8242E5D9E085886920282DD060
:101C800020680C3050E8001F21F4807140E80012F9
:101C9000002AF5D12068143050E8001F21F001011E
:101CA00040E80012002AF5D12068143050E8001FE7
:101CB00021F0400140E80012002AF5D184F84230BA
:101CC000256320680C3050E8001F21F0100140E827
:101CD0000012002AF5D1E06BFEF764FE6663A08D6A
:101CE000E18D401A81B22AE0A08DE18D401A81B2C7
:101CF000E08D0028A6D00029A4D022680C3252E83A
:101D0000000F20F4907042E80007002FF5D1206802
:101D1000143050E8002F22F0010240E80027002F85
:101D2000F5D184F84230256320680C3050E8002F4C
:101D300022F0100240E80023002BF5D16663204614
:101D4000FFF707FFF8BDFFE705062BD5150629D5D8
:101D500094F841002128F5D1A068B0F5805F01D149
:101D60002069B0B1206A411C216221680078486076
:101D7000E08C401E0004000CE084E3D12068C168C0
:101D800021F08001C1602068C16841F04001C1605C
:101D9000D8E7206A0088C0F308004860206A801CE9
:101DA0002062E5E74006CDD55006CBD5CA6820466F
:101DB00022F04002CA6084F8413000F05CF9C1E7CB
:101DC000A72E000870B5040004D094F84100002547
:101DD00010B106E0012070BD84F84050204600F0AC
:101DE00023F8242084F841002068C16821F40051C0
:101DF000C160204601F0E8F82068016921F49041B3
:101E000001612068416921F02A0141612068C168AF
:101E100041F40051C1606564202084F8410084F8D9
:101E200042006563002070BDF0B585B000240094C9
:101E30000194029403940368424F02204249032212
:101E4000424D4602BB4225D18B6943F480438B61EE
:101E50008B6903F4804304938B6943F004038B6123
:101E60008969039201F0040104910102CDE9001097
:101E700069462846FEF7CAFECDE900646946284651
:101E80000294FEF7C3FE002211462520FFF7AEF9AB
:101E9000252028E02E4FBB4229D1CB6943F40033E3
:101EA000CB61CB6903F4003304938B6943F00403E3
:101EB0008B618969039201F0040104910421CDE949
:101EC000001069462846FEF7A1FE0820CDE900046F
:101ED000694628460294FEF799FE00221146262004
:101EE000FFF784F92620FFF773F905B0F0BD194D0F
:101EF000AB42FAD1CB6943F48023CB61CB6903F4C5
:101F0000802304938B6943F008038B618969124D28
:101F100001F00801CDE90321CDE9006069462846BA
:101F2000FEF774FEE814CDE90004694628460294E1
:101F3000FEF76CFE002203212720FFF757F9272028
:101F4000D1E70000003801400010024000080140C5
:101F50000044004000480040000C014090F842302E
:101F6000202B01D00220704721B11AB10023036356
:101F700001F086B80120704770B505460068114928
:101F8000114C88420AD1114A2178A0785054491C3A
:101F900021700122A11C0E48FFF7E0FF0D492868BF
:101FA00088420ED1094A6078FF32E1781154401C12
:101FB0006070BDE8704004490122C91C0648FFF763
:101FC000CDBF70BD00440040C0070020340B00208E
:101FD000BC08002000380140740800202DE9F843B7
:101FE000044690F841001F4616460D46202802D0B0
:101FF0000220BDE8F8837DB176B100206064212025
:1020000084F84100FEF7FCFEA6848046E684A068C2
:10201000B0F5805F02D003E00120EAE7206910B14B
:102020002E4600250EE000260CE08021204601F01F
:1020300042F8A0B9AEB116F8010B21684860E08CF7
:10204000401EE084E08C43464FF0000200970028D9
:10205000EBD14FF04001204601F02DF830B10320C4
:10206000C7E735F8020BC0F30800E6E7202084F844
:1020700041000020BDE77047FEE701684A69D2438E
:1020800052050FD46FF480624A61002140F8301F7E
:10209000202242738173026942F0040202610173DB
:1020A00001207047002070472DE9F843044600687E
:1020B0000D46DDE9089701689846164641F480719F
:1020C00001604B4600224FF001112046009700F0BE
:1020D0006BF848B120680068C00502D54FF4007065
:1020E00020640320BDE8F883216805F0FE00086144
:1020F0003B464A461549204600F09EF888B92068BC
:102100004169806900903A464946204600F0F2F85D
:1021100048B1206C042804D12068016841F40071A2
:1021200001600120DEE7F5B2B8F1010F09D02168A6
:10213000300A08613A464946204600F0DBF800289C
:10214000E7D1206805610020CCE700000200010013
:1021500070B516460D4604461EE02046FFF78DFF7B
:1021600008B1012070BD681C16D0FEF749FE801B27
:10217000A84200D885B920684069C04340070BD504
:10218000002044F8300F20216173A073216941F0D1
:10219000200121612073E4E720684069C0434007C3
:1021A000DBD4002070BD00002DE9F04798461746AB
:1021B0000D460446C1F30746DDF820902AE000BF33
:1021C000B8F1FF3F26D0FEF71BFEA0EB0901414509
:1021D00002D8B8F1000F1DD12068012E16D08069F9
:1021E00025EA00000004000C12D00020B84211D1F2
:1021F000002044F8300F20216173A073216941F061
:102200002001216120730120BDE8F0874069E7E7E4
:102210000120EBE72068012E0AD0806925EA000042
:102220000004000C06D00020B842C9D00020EBE723
:102230004069F3E70120F7E72DE9F0479846164695
:102240000D4604464FF000094FF0200AC1F307473E
:1022500023E020684069C043400515D42068016828
:1022600041F40071016021686FF480604861C4F836
:10227000309084F83DA084F83E90216C41F0040138
:10228000216484F83C9021E0701C06D0FEF7B8FD74
:10229000A0EB0800B04203D816B1012F1FD021E0F7
:1022A0002068012F15D0806925EA00000004000C89
:1022B00018D000BF44F8309F84F80DA084F80E9029
:1022C000216941F02001216184F80C900120BDE8D2
:1022D000F087406925EA00000004000CEAD120687C
:1022E000406901E02068806925EA00000004000CD4
:1022F000AFD1ECE770B516460D4604461EE0204609
:10230000FFF7BBFE08B1012070BD681C16D0FEF7B8
:1023100077FD801BA84200D885B920684069C0437A
:1023200000060BD5002044F8300F20216173A07304
:10233000216941F0200121612073E4E720684069B0
:10234000C0430006DBD4002070BD00004FF40061E4
:102350000148FEF74BBD0000000801407CB5054672
:10236000EF208DF80000154C01208DF80100616808
:10237000080E8DF80200080C8DF80300080A8DF88D
:10238000040007208DF805108DF8060000268DF852
:10239000076026700BE0012001F005FD207830B1C8
:1023A000267069460648FDF7E1FE002804D16D1E3F
:1023B0002D042D0CEFD100207CBD0000100000206A
:1023C00070090020F0B585B00024204800940194E5
:1023D00002940394816941F010018161816901F0E7
:1023E00010010491816941F020018161816901F04E
:1023F00020010491816941F004018161816901F04A
:1024000004010491816941F0080181618069104FE4
:1024100000F008004FF4704604900122314638461F
:10242000FEF7E9FCF02001258DE8310069460948F6
:10243000FEF7ECFB0220CDE90240CDE900656946DC
:102440003846FEF7E3FB05B0F0BD00000010024087
:10245000000C0140000801400D4810B50B49016017
:102460000C49416000214FF480428160C0E90312B1
:1024700041618161C1610162FEF7C8FC002803D09F
:10248000BDE81040FEF7F8B910BD00000054004050
:10249000D8070020A086010010B586B00024174898
:1024A00000940194029403940494134905940160E8
:1024B00041F61F41C0E9011440F2E731C0E90314BD
:1024C0008461FFF77BF908B1FEF7D6F94FF480502D
:1024D000009069460948FFF7E9F908B1FEF7CCF921
:1024E000049404A905480594FFF734F9002801D0A5
:1024F000FEF7C2F906B010BD000400402C08002011
:102500000C4810B50A4901604FF416514160002192
:1025100081600C22C160C0E904128161C161FFF7D2
:1025200051FC002803D0BDE81040FEF7A5B910BD4E
:1025300000380140740800200C4810B50A490160B9
:102540004FF416514160002181600C22C160C0E946
:1025500004128161C161FFF735FC002803D0BDE89A
:102560001040FEF789B910BD00440040BC080020AF
:102570000C4810B50A4901604FF4614141600021E7
:1025800081600C22C160C0E904128161C161FFF762
:1025900019FC002803D0BDE81040FEF76DB910BD4E
:1025A000004800400409002001B5FF2301226946CC
:1025B0000348FFF713FD002800D0012008BD0000EC
:1025C00004090020FEE7FEE7002000F01DB870B50A
:1025D0000446861C14E004F1B000C0B200F04AFECC
:1025E000002000F047FE102000F044FE00250020EF
:1025F00000F052FE6D1CEDB2802DF8D3641CE4B2E5
:10260000B442E8D370BD000070B506465FF0000428
:1026100004F1B000C0B200F02DFE002000F02AFE50
:10262000102000F027FE0025304600F035FE6D1C1E
:10263000EDB2802DF8D3641CE4B2082CE8D370BD51
:1026400010B56420FEF71EFAAE2000F013FE202025
:1026500000F010FE102000F00DFEB02000F00AFE89
:10266000C82000F007FE002000F004FE102000F05B
:1026700001FE402000F0FEFD812000F0FBFDFF2068
:1026800000F0F8FDA12000F0F5FDA62000F0F2FD1D
:10269000A82000F0EFFD3F2000F0ECFDA42000F0AA
:1026A000E9FDD32000F0E6FD002000F0E3FDD52099
:1026B00000F0E0FDF02000F0DDFDD92000F0DAFDB3
:1026C000222000F0D7FDDA2000F0D4FD122000F027
:1026D000D1FDDB2000F0CEFD202000F0CBFD8D20D1
:1026E00000F0C8FD142000F0C5FDAF2000F0C2FDD1
:1026F000BDE810400020FFF787BF10B50446B03199
:10270000C8B200F0B7FD102040EA141000F0B2FD8E
:1027100004F00F00BDE8104040F0010000F0AABD39
:102720002DE9F0410F46804600255401FFF7E5FFF3
:102730000C4E305D00F0B0FD6D1CEDB2641C102D30
:10274000F7D37F1CF9B24046FFF7D7FF0025305D75
:1027500000F0A2FD6D1CEDB2641C102DF7D3BDE896
:10276000F0810000420000202DE9F041203A0024D1
:102770000D468046D6B27F2803D900208D1C8046A6
:10278000EDB2102B29460FD0FFF7B7FF164906EB25
:10279000460001EB4005285D00F07EFD641CE4B2BC
:1027A000062CF8D3BDE8F081FFF7A7FF0F4F00BF5D
:1027B00004EB0610385C00F06FFD641CE4B2082CDA
:1027C000F6D36D1CE9B24046FFF797FF5FF00004B7
:1027D00004EB06103844007A00F05EFD641CE4B29D
:1027E000082CF5D3DEE700007A4D0008A24F000860
:1027F0002DE9F05F0026DDF828901D4692468B46B5
:10280000804634464FEA590723E0281B401EC1B2D8
:102810000A2002F05CF9BAFBF0F00A21B0FBF1F2F9
:1028200001FB120026B9691E8C4201DA38B101267B
:102830003030C2B207FB0480C0B24B4604E007FB55
:102840000480C0B24B4620225946FFF78DFF641C1E
:10285000E4B2AC42D9D3BDE8F09F00002DE9F047C7
:10286000002591468A460446012B22D0DFF8BC8021
:10287000022B24D155E02038C7B27E2C04D90AF1AE
:102880000100002400F0FF0A51462046FFF735FF03
:1028900007EB4700002608EB4007B85D00F0FCFCA2
:1028A000761CF6B2062EF8D3A41D6D1CE4B2EDB270
:1028B00001E0DFF87C8019F805000028DBD1BDE8D5
:1028C000F0872038C7B2782C04D90AF1010000241F
:1028D00000F0FF0A51462046FFF70FFF5FF00006A9
:1028E00006EB071118F8010000F0D6FC761CF6B2D2
:1028F000082EF5D30AF10100C1B22046FFF7FDFE14
:102900005FF0000606EB071101EB0800007A00F00B
:10291000C3FC761CF6B2082EF4D308346D1CE4B266
:10292000EDB219F805000028CBD1C8E7A24F000886
:102930007A4D000870B50C46054600F025F900F008
:1029400001F90120FFF730FE072000F02DF90C20DF
:10295000FFF72AFE280AFFF727FEE8B2FFF724FE5A
:10296000200AFFF721FEE0B2FFF71EFEE8B200EBFF
:10297000152000EB1420E1B20844143000F0FAF8FE
:102980004FF4FA60FFF7EAFC08B1407A70BDFF200F
:1029900070BD10B5044600F0F7F800F0D3F8012040
:1029A000FFF702FE042000F0FFF80220FFF7FCFD15
:1029B0002046FFF7F9FDE01D00F0DCF84FF4FA6067
:1029C000FFF7CCFC08B1407A10BDFF2010BD10B558
:1029D00000F0DAF800F0B6F80120FFF7E5FD03207B
:1029E00000F0E2F80120FFF7DFFD052000F0C2F85B
:1029F0004FF4FA60FFF7B2FC08B1407A10BDFF2037
:102A000010BD2DE9F0411E4614460D46074600F064
:102A1000BBF800F097F80120FFF7C6FD082000F092
:102A2000C3F81B20FFF7C0FD3846FFF7BDFD280A9D
:102A3000FFF7BAFDE8B2FFF7B7FD200AFFF7B4FDD4
:102A4000E0B2FFF7B1FD07EB1520E9B2084400EB57
:102A50001420E1B20844243000F08CF84FF4FA60FE
:102A6000FFF77CFC58B1C27A837A417A02EB0322E9
:102A70003280427B007B02EB0020708000E0FF216F
:102A80000846BDE8F08110B500F07EF800F05AF875
:102A90000120FFF789FD032000F086F80320FFF7EF
:102AA00083FD072000F066F84FF4FA60FFF756FC4C
:102AB00008B1407A10BDFF2010BD10B500F064F8D9
:102AC00000F040F80120FFF76FFD032000F06CF8E4
:102AD0000520FFF769FD092000F04CF84FF4FA607B
:102AE000FFF73CFC08B1407A10BDFF2010BD70B567
:102AF0000C46054600F048F800F024F80120FFF7E6
:102B000053FD062000F050F80620FFF74DFD284643
:102B1000FFF74AFD200AFFF747FDE0B2FFF744FD4B
:102B200005EB1420E1B208440D3000F023F84FF417
:102B3000FA60FFF713FC08B1407A70BDFF2070BD4A
:102B40007047704710B50A4C6068000EFFF72CFD07
:102B50006068C0F30740FFF727FDA088C0F3072097
:102B6000FFF722FD2079BDE81040FFF71DBD0000F2
:102B70001000002010B50446000AFFF715FDE0B272
:102B8000BDE81040FFF710BD10B54FF4C8710548FF
:102B9000FDF7E1FAEF20FFF707FDBDE81040012047
:102BA000FFF702BD7009002010B50446C0F30720EE
:102BB000FFF7FAFCE0B2BDE81040FFF7F5BC0000FB
:102BC00010B5FDF73BFD0146BDE8104001A000F047
:102BD00075BB000025730D0A000000002DE9F041CF
:102BE000384D2888374E4AF2A554374F1A36A0423E
:102BF0003AD00121284601F053FAFDF7F3FF2246AF
:102C0000002329460120FDF7ADFF012401E0072C38
:102C100003D205EB4401224613E0E01F062806D24A
:102C200007EB440005EB440130F80E2C09E00D2CB5
:102C300012D0A4F10E00052807D200BF05EB440115
:102C4000002200230120FDF78DFF641C112CDED330
:102C5000BDE8F041FDF77CBF01223146002310465C
:102C6000FDF780FF0E24E9E7174A01200C3A01E046
:102C7000072806D235F8101002EB400323F8021C97
:102C800015E0C11F062906D235F8101007EB4003E6
:102C900023F80E1C0BE00D280FD00E2807D335F8B3
:102CA0001010094B123B03EB400323F81C1C401C83
:102CB00080B21128DCD3BDE8F0813188034B198044
:102CC000F5E7000000F000083600002012000020A8
:102CD00070B5204D0121284601F0E2F9FDF782FF91
:102CE0004AF2A552002329460120FDF73BFF0124AB
:102CF000194E01E0072C04D206EB440030F8022CF8
:102D000015E0E01F062806D213480C3000EB440003
:102D100030F80E2C0BE00D2C17D0A4F10E00052876
:102D20000BD20D48801F00EB440030F81C2C05EB43
:102D3000440100230120FDF715FF641CA4B2112CEF
:102D4000D8D3BDE87040FDF703BF044801491A31EC
:102D50000288EEE700F000082A00002012000020A0
:102D6000FEF7DEB930B58FB028216846FDF7F3F9DC
:102D700014210AA8FDF7EFF901210804CDE900109C
:102D80000024029402250491CDE907504FF4E0108D
:102D900009906846FEF738FB08B172B6FEE70F20CF
:102DA000CDE90A054FF48060CDE90C4002210AA864
:102DB0000E94FEF74DFA002801D072B6FEE70FB070
:102DC00030BD70470148FEF7E0BD00002C08002030
:102DD000F0B50268164B174C174D4FF080479842DC
:102DE00005D0B84203D0A04201D0A84203D122F0BE
:102DF00070064A683243984205D0B84203D0A042D8
:102E000001D0A84203D122F44074CA6822434C691D
:102E100022F08002224302608A68C2620A688262EB
:102E2000984201D10969016301214161F0BD0000AF
:102E3000002C0140000400400008004010B58468E8
:102E400042EA032224F47F440A432243826010BDF5
:102E5000826822F070020A4342F0070181607047E5
:102E600010B5036A046A24F001040462846924F042
:102E7000F00444EA021423F00A020A438461026265
:102E800010BD10B5036A046A24F01004046284695A
:102E900023F0A00324F4704444EA023243EA01110F
:102EA0008261016210BD10B5406A0021C185C184F4
:102EB000FEF750FE10BD01680C3151E8002F22F4DE
:102EC000907241E80023002BF5D10168143151E8DC
:102ED000002F22F0010241E80023002BF5D1016B05
:102EE000012909D101680C3151E8002F22F01002AC
:102EF00041E80023002BF5D1202180F84210002169
:102F00000163704708B590F84210222901D00220D1
:102F100008BD82684FF480539A4201D1016921B102
:102F2000816A9A421BD04AB10AE00268816A5268FB
:102F3000C2F308020A80816A891C08E0026972B142
:102F40000268526802F07F020A70816A491C81623D
:102F5000C18D491E0904090CC18503D01BE002681C
:102F60005268F1E70168CA6822F02002CA6001686D
:102F7000CA6822F48072CA6001684A6922F00102BC
:102F80004A61202180F8421000214163026B012A2E
:102F900003D0FEF7F1FF002008BD016301680C318A
:102FA00051E8002F22F0100241E80023002BF5D158
:102FB00001680A68D20602D50A6849680091818DC5
:102FC000FEF7C7FDE7E7000070B504460068016939
:102FD000E26821F44051114301612169A06808436E
:102FE000616908432168CA6841F20C639A4302434D
:102FF000CA6020684169A26921F4407111434161AE
:103000001E492068884202D1FEF7C8F901E0FEF7A8
:10301000B5F900EBC00101EB00126068642180008B
:10302000B2FBF0F3B3FBF1F36FF018067343B2FB9E
:10303000F0F5B2FBF0F605EB8305322303EB051543
:10304000B5FBF1F5B6FBF1F605F0F00505EB06155D
:10305000B2FBF0F6B2FBF0F0B0FBF1F06FF018024B
:10306000504306EB800003EB0010B0FBF1F0216849
:1030700000F00F002844886070BD00000038014057
:1030800081628285C28500214164222180F842103C
:10309000016921B10168CA6842F48072CA6001689E
:1030A0004A6942F001024A610068C16841F02001AA
:1030B000C160002070472DE9F041984617460E4642
:1030C0000446069D27E0681C25D02DB1FDF798FE2B
:1030D000A0EB0800A8421ED920680C3050E8001F61
:1030E00021F4D07140E80012002AF5D12068143094
:1030F00050E8001F21F0010140E80012002AF5D13C
:10310000202084F8410084F84200002084F8400028
:103110000320BDE8F0812068006836EA000004D092
:103120000020B842CFD00020F3E70120F9E70000EB
:103130000148FEF711BD0000740800200148FEF7A9
:103140000BBD0000BC0800200B4982B00868026873
:10315000D243D2060CD40268406800904FF4C87085
:10316000C8850648886206490120087002B0704789
:10317000014802B0FEF7F0BC0409002070090020ED
:103180001000002010B50C2202210020FFF7C8FA21
:10319000062202211020FFF7C3FA1222022120206A
:1031A000FFF7BEFA132202213020FFF7B9FA1622E8
:1031B00002214020FFF7B4FA092202215020FFF734
:1031C000AFFA142202216020FFF7AAFA1522022189
:1031D0007020FFF7A5FA1248C078D0B12322002151
:1031E0001020FFF79DFA242200212020FFF798FAF3
:1031F000322200213020FFF793FA382200214020AC
:10320000FFF78EFA39220021BDE810405020FFF769
:1032100087BAFDF7BDFBBDE810400020FFF7D7B926
:10322000A407002010B50C2202210020FFF778FA35
:10323000062202211020FFF773FA1022022120201B
:10324000FFF76EFA112202213020FFF769FA1722E8
:1032500006215A20FFF764FA182206216A20FFF798
:103260005FFA02480021C170417110BDA40700201F
:10327000FEE7000001B584B00121642204A88DE8B6
:1032800007000B46002278210248FDF783FE05B0B7
:1032900000BD0000D807002001B584B001216422E0
:1032A00004A88DE807000B46402278210248FDF76C
:1032B00071FE05B000BD0000D80700200FB4054B1B
:1032C00010B503A9044A029800F03CF810BC5DF860
:1032D00014FB000081400008D40700200FB4084B05
:1032E00010B504A902AA039800F02CF8044602A91C
:1032F000002000F087F9204610BC5DF814FB0000A8
:10330000053600080907090E002804DB00F1E0205B
:1033100080F80014704700F00F0000F1E02080F802
:10332000141D704702E008C8121F08C1002AFAD114
:1033300070477047002001E001C1121F002AFBD135
:10334000704700002DE9FF4F8DB09B460F460446A5
:10335000002606E025280BD05A460F999047641C9A
:10336000761C20780028F5D111B03046BDE8F08FEA
:103370000025A8460122984900E0054314F8013FC2
:10338000203B02FA03F00842F7D120782E2817D10B
:1033900014F8010F45F004052A280ED06FF02F0213
:1033A0002078A0F1300109290AD808EB880102EB46
:1033B000410100EB0108641CF2E757F8048B641C20
:1033C00020786C280DD004DC4C2812D06A2811D14A
:1033D00004E074280DD07A280CD10AE045F40015D9
:1033E00007E0617845F48015814202D1641C05F53F
:1033F0008015641C2078692844D008DC0028B3D0EC
:10340000582867D063280FD0642808D13AE0702884
:1034100065D0732812D075285AD078285AD05A46C9
:103420000F999047761CD5E017F8040B8DF8000033
:1034300000208DF80100E946012003E057F8049BC5
:103440004FF0FF3069074FF0000501D40AE06D1C12
:1034500045450DDA8542FADB19F805100029F6D149
:1034600006E06D1C8542FCDB19F805100029F8D137
:103470002E4404E019F8010B5A460F9990476D1E2F
:10348000F8D2A7E00A200021CDE90801C5F30250D7
:1034900002280CD001CFC117021E71F100020CDA14
:1034A0000023D0EB030063EB01012D2208E0FF1D98
:1034B00027F00707F7E80201EEE72A0504D52B22DB
:1034C0008DF8282001223CE0EA073AD02022F7E7D5
:1034D0000A2000E010200021CDE9080107E01020BB
:1034E000002145F00405CDE908014FF00808C5F3B7
:1034F0000250022810D001CF00214FF0000A2A0705
:1035000020D52278702A0DD0DDE908C38CF0100C8C
:103510005CEA030C0CD015E0FF1D27F00707F7E865
:103520000201EAE740228DF828204FF0010A0CE062
:1035300050EA010306D030238DF828308DF8292079
:10354000022292462278582A04D024A20DF12009A2
:103550000B9209E026A2F9E7DDE90823FCF725FE36
:103560000B9B9B5C09F8013D50EA0102F4D1ADEBE5
:10357000090020300890680701D44FF0010808992D
:10358000884503DD0898A8EB000000E00020804695
:10359000002506E00AA85A46405D0F9990476D1C29
:1035A000761C5545F6DB04E030205A460F999047CB
:1035B000761CB8F10001A8F10108F5DC05E019F866
:1035C000010B5A460F999047761C0899481E08909F
:1035D0000029F4DC641CC4E60928010030313233D0
:1035E000343536373839616263646566000000003F
:1035F0003031323334353637383941424344454629
:10360000000000000A68531C0B601070704710B572
:103610001E2202211020FFF783F81F220221202002
:10362000FFF77EF8122202213020FFF779F81322EB
:103630000221BDE810404020FFF772B810B500210C
:1036400009220846FFF76CF8272200211020FFF717
:1036500067F8282200212020FFF762F825220021A8
:103660003020FFF75DF8262200214020FFF758F8B0
:103670001E2202211020FFF753F81F2202212020D2
:10368000FFF74EF8292202213020FFF749F82322C4
:1036900002214020FFF744F8242202215020FFF7A6
:1036A0003FF82C2206215A20FFF73AF82D22062156
:1036B0006A20FFF735F8BDE81040FCF7F7BD10B5FC
:1036C0001E2202211020FFF72BF81F2202212020AA
:1036D000FFF726F8102202213020FFF721F81122EF
:1036E0000221BDE810404020FFF71AB810B55A4C2F
:1036F000A07800287ED00021102320220846FFF762
:1037000033F8192200211420FFF70AF81A220021A9
:103710002420FFF705F80C2200213420FFF700F8E1
:10372000062200214420FEF7FBFF0D220021542039
:10373000FEF7F6FF0E2200216420FEF7F1FFA078CD
:10374000012877D01023202202210020FFF70CF857
:10375000192202211020FEF7E3FF1A220221202065
:10376000FEF7DEFF1B2202213020FEF7D9FF1C22CC
:1037700002214020FEF7D4FF1D2202215020FEF737
:10378000CFFF0D2202216020FEF7CAFF0E22022188
:103790007020FEF7C5FFA078022851D01023202208
:1037A00004210020FEF7E0FF1E2204211020FEF776
:1037B000B7FF1F2204212020FEF7B2FF232204219D
:1037C0003020FEF7ADFF242204214020FEF7A8FFA1
:1037D000A07803283AD01023202206210020FEF7EB
:1037E000C3FF202206211020FEF79AFF2122062186
:1037F000202000E017E0FEF793FF2322062130206F
:10380000FEF78EFF242206214020FEF789FF2C229E
:1038100006215A20FEF784FF2D220621BDE8104024
:103820006A20FEF77DBF002122220846FEF778FFBE
:1038300067E7FFE7222202210020FEF771FF87E7FA
:10384000222204210020FEF76BFFADE72222062191
:103850000020FEF765FFC4E7A407002070B54FF411
:10386000C87210491048FEF779FB0F480068C1681C
:1038700041F01001C1600B4D01206872FFF784F91F
:10388000FFF760F9094E0024305DFEF78DFE641CE1
:103890000A2CF9DBC82000F086FA687A002800D0EC
:1038A000012070BD700900200409002018000020CC
:1038B0002DE9F05F0025032000F075FA4FF00108B4
:1038C000774EA9464FF4004ADFF8D8B1764C0AE0AB
:1038D000032000F068FA35B1012D07D0022D09D080
:1038E000032D0DD111E00022514606E000224FF4D5
:1038F000804102E000224FF400515846FDF77BFA68
:103900000027052000F04FFA0EE000224FF480510E
:10391000F3E7052000F047FA37B1012F17D0022F47
:1039200028D0032F42D138E010213046FDF75EFA4F
:1039300004EB850110B181F8009037E081F8008038
:1039400010213046FDF752FA0028F9D02EE0202150
:103950003046FDF74BFA04EB850110B181F8019078
:1039600024E081F8018020213046FDF73FFA00284D
:10397000F9D01BE040213046FDF738FA04EB850111
:1039800010B181F8029011E081F8028040213046A8
:10399000FDF72CFA0028F9D008E080213046FDF729
:1039A00025FA04EB850168B181F803907F1CFFB212
:1039B000042FAED37DB1012D10D0022D4BD0032D9D
:1039C00011D14BE081F8038080213046FDF70EFADB
:1039D0000028F9D0EAE70122514601E001229103D3
:1039E0005846FDF708FA6D1CEDB2042DFFF470AFD8
:1039F0002078012835D06078012834D0A0780128BB
:103A000033D0E078012832D02079012831D0607994
:103A1000012830D0A07901282FD0E07901282ED0BC
:103A2000207A01282DD0607A01282CD0A07A012894
:103A30002BD0E07A01282AD0207B012809D0607B96
:103A4000012826D0A07B012825D0E07B012824D0A6
:103A50000020BDE8F09F01225103C1E701221103BC
:103A6000BEE70D20F5E70E20F3E70F20F1E7102069
:103A7000EFE70920EDE70A20EBE70B20E9E70C2050
:103A8000E7E70520E5E70620E3E70720E1E7082070
:103A9000DFE70220DDE70320DBE70420D9E70000B1
:103AA00000080140000C0140000B002010B5092265
:103AB00000211020FEF734FE0A2200212020FEF70C
:103AC0002FFE0B2200213020FEF72AFE2B220021A0
:103AD0004020FEF725FE292200215020FEF720FE7F
:103AE0001B2202210020FEF71BFE1C2202211020B7
:103AF000FEF716FE1D2202212020FEF711FE0D22E8
:103B000002213020FEF70CFE0E2202214020FEF79B
:103B100007FE0F2202215020FEF702FE2C22062172
:103B20005A20FEF7FDFD2D2206216A20FEF7F8FD42
:103B30002E2206210020FEF7F3FD2F220621BDE8EC
:103B400010401020FEF7ECBD70B5104C104E002553
:103B50006078012802D002280ED012E0FEF734FD72
:103B6000082020710B48F16801603169416071697A
:103B70008160FFF7ADF803E0FEF726FD0A20207113
:103B800025702581F5603561756170BDA407002041
:103B9000100B00203600002010B500210922084635
:103BA000FEF7BEFD0A2200211020FEF7B9FD0B2210
:103BB00000212020FEF7B4FD2B2200213020FEF74B
:103BC000AFFD292200214020FEF7AAFD0C22022190
:103BD0001020FEF7A5FD062202212020FEF7A0FD01
:103BE0000D2202213020FEF79BFD0E2202214020F3
:103BF000FEF796FD0F2202215020FEF791FD2C22A8
:103C000006215A20FEF78CFD2D2206216A20FEF7A0
:103C100087FD2E2206210020FEF782FD2F2206219D
:103C2000BDE810401020FEF77BBD000070B5104CC1
:103C3000104E00252078012802D002280ED012E074
:103C4000FEF7C2FC082020710B48B1690160F169E0
:103C50004160316A8160FFF73BF803E0FEF7B4FC96
:103C60000920207125706581B561F561356270BDEF
:103C7000A4070020100B00202A00002010B51922F4
:103C800002210020FEF74CFD1A2202211020FEF72F
:103C900047FD122202212020FEF742FD13220221BD
:103CA0003020FEF73DFD162202214020FEF738FDB0
:103CB000092202215020FEF733FD14220221602048
:103CC000FEF72EFD152202216A20FEF729FD2E2285
:103CD00006210020FEF724FD2F2206211020FEF7EA
:103CE0001FFD2C2206215A20FEF71AFD2D22062147
:103CF000BDE810406A20FEF713BD10B5192202215D
:103D00000020FEF70DFD1A2202211020FEF708FD0B
:103D1000102202212020FEF703FD11220221BDE81E
:103D200010403020FEF7FCBC10B519220221002003
:103D3000FEF7F6FC1A2202211020FEF7F1FC1222F7
:103D400002212020FEF7ECFC132202213020FEF796
:103D5000E7FC162202214020FEF7E2FC09220221A4
:103D60005020FEF7DDFC142202216020FEF7D8FC73
:103D7000152202216A20FEF7D3FC2E220621002004
:103D8000FEF7CEFC2F2206211020FEF7C9FC2C22C4
:103D900006215A20FEF7C4FC2D220621BDE8104062
:103DA0006A20FEF7BDBC70B5054600244FF47A7654
:103DB00003E0304600F004F8641CAC42F9D370BD57
:103DC00071B54FF461754FF0E023104E009819E083
:103DD0002C46A04200D804469869614201EBC1011B
:103DE00010EBC10105D49A69824208DA8A42FADAF4
:103DF00005E08A1999698142FCDD9142FADC00985C
:103E0000001B00900028E3D178BD0000401901009C
:103E100010B5202202211020FEF782FC212202216F
:103E20002020FEF77DFC122202213020FEF778FCD4
:103E3000132202214020FEF773FC02230FA204216B
:103E40001020FEF70BFD372204212020FEF768FC2E
:103E50001E2204213020FEF763FC1F220421402093
:103E6000FEF75EFC232204215020FEF759FC242299
:103E70000421BDE810406020FEF752BC4944000018
:103E800038B5002109220846FEF74AFC0A22002123
:103E90001020FEF745FC0B2200212020FEF740FCFD
:103EA000252200213020FEF73BFC26220021402065
:103EB000FEF736FC202200215020FEF731FC2122A3
:103EC00000216020FEF72CFC292200217020FEF743
:103ED00027FC232202211020FEF722FC24220221AB
:103EE0002020FEF71DFC022317A219463020FEF702
:103EF000B5FC022310241A46194640200094FEF710
:103F000077FC10232D2202215020FEF72DFC0123E7
:103F10000422022158200094FEF76AFC2C2206217C
:103F20005A20FEF7FDFB2D2206216A20FEF7F8FB42
:103F3000302206210020FEF7F3FBBDE83840312295
:103F400006211020FEF7ECBB4944000010B52022EA
:103F500002211020FEF7E4FB212202212020FEF79F
:103F6000DFFB102202213020FEF7DAFB11220221B2
:103F7000BDE810404020FEF7D3BB000010B50C2276
:103F800008490948FCF704F9084C30B1FEF71CFB5E
:103F9000022020710020E06010BDFEF715FB01201B
:103FA000207110BD2A000020100B0020A407002063
:103FB00010B5202202211020FEF7B2FB212202219F
:103FC0002020FEF7ADFB122202213020FEF7A8FBD5
:103FD000132202214020FEF7A3FB372204211020E8
:103FE000FEF79EFB1E2204212020FEF799FB1F22D4
:103FF00004213020FEF794FB232204214020FEF709
:104000008FFB24220421BDE810405020FEF788BB1E
:1040100008B5322202211020FEF782FB1E22022167
:104020002020FEF77DFB1F2202213020FEF778FBC7
:10403000102002230090032219464020FEF7D8FBEF
:10404000332202215020FEF76BFB34220421202072
:10405000FEF766FB342204213020FEF761FB342298
:1040600004214020FEF75CFB1E2204215020FEF7B5
:1040700057FB1F220421BDE808406020FEF750BB1B
:1040800038B504468DF800004FF6FF7301226946EB
:104090000248FDF7A3FF204638BD00007408002049
:1040A00030B585B00C460546FCF79CFD002000901D
:1040B000CDE90105CDE9034072B604A96846FCF7D5
:1040C000F3FC62B6FCF744FD05B030BD2DE9F84FB6
:1040D000FB480168FB4EB269891A14297AD300683B
:1040E000B061FFF7E5FB0024306128B9307910B1E9
:1040F0000120B07100E0B471F34FF44D387801281D
:104100000CD1FEF761FA34713C70B4707481348163
:10411000AC61EC612C62EC602C616C613169B04681
:1041200071B198F804004646082820D00B281ED00C
:104130000D281CD00E281FD00F281DD010281BD0F2
:10414000E24E1020DFF888934FF0020B06F11807BB
:1041500006F10C0A11292DD2DFE801F02C191F5F9E
:10416000ABF2F0EFEEEDECEBEAE9E8E7E600B47075
:10417000FEF72AFA347104E0B470FEF725FA032042
:10418000307174813481AC61EC612C624EE298F83C
:10419000040001280ED1FF2103E398F8041051B167
:1041A000022908D004291AD0092918D0052925D0B8
:1041B0000A2923D0A1E3D8F80C100629FAD00090E0
:1041C00000EB0110C0B2022307220421FEF710FB0E
:1041D0000721E6E293E3401CC8F80C008DE3B8F831
:1041E0000A100629E6D2009000EB0110C0B20223AB
:1041F00007220421FEF7FCFA0721ECE2B8F80810C8
:104200000629D7D2009000EB0110C0B2022307228A
:104210000421FEF7EDFA0721F0E298F8041061B1ED
:1042200002290AD0072917D004291CD009291AD03D
:1042300005292BD00A2929D05FE3D8F80C100629CC
:10424000B8D0009000EB01100422C0B20223114646
:10425000FEF7CEFA0421A4E20421A9F800100223FB
:104260000A4600904DE1B8F80A100629A2D2009043
:1042700000EB01100422C0B202231146FEF7B8FA87
:104280000421A8E2401CA8F80A0036E3B8F8081098
:1042900006298FD2009000EB01100422C0B2022345
:1042A0001146FEF7A5FA0421A8E2401CA8F8080070
:1042B00023E398F8041051B1022908D0042915D03D
:1042C000092913D0052920D00A291ED015E3D8F8D2
:1042D0000C100629B0D0009000EB0110C0B20223F0
:1042E00001220421FEF784FA01215AE2B8F80A10EB
:1042F0000629A1D2009000EB0110C0B202230122D6
:104300000421FEF775FA012165E2B8F808100629C4
:1043100092D2009000EB0110C0B2022301220421CE
:10432000FEF766FA012169E2D7E2C7E29FE26AE29C
:1043300019E2DFE19BE10DE1B1E075E044E0FFE768
:1043400098F8041051B1022908D0042918D009297D
:1043500016D0052926D00A2924D0CEE2D8F80C1090
:10436000062992D0009000EB0110C0B20223002277
:104370000421FEF73DFAD8F80C0026F810402AE791
:10438000B8F80A10062993D2009000EB0110C0B2D1
:10439000022300220421FEF72BFAB8F80A0027F8BE
:1043A00010406FE7B8F8081006298FD2009000EB94
:1043B0000110C0B2022300220421FEF719FAB8F856
:1043C00008002AF8104070E798F80410082551B149
:1043D000022908D0042911D009290FD0052918D0A5
:1043E0000A2916D089E2D8F80C100629B5D0009019
:1043F00000EB01100223C0B208224FE1B8F80A1006
:104400000629AAD2009000EB01100223C0B20822B4
:1044100056E1B8F8081006299FD2009000EB011071
:104420000223C0B208225DE198F8041051B10229BC
:1044300008D0042915D0092913D0052920D00A292C
:104440001ED05AE2D8F80C10062986D0009000EB56
:104450000110C0B2022305220421FEF7C9F905218B
:104460009FE1B8F80A100629BCD2009000EB0110B9
:10447000C0B2022305220421FEF7BAF90521AAE100
:10448000B8F808100629ADD2009000EB0110C0B2B8
:10449000022305220421FEF7ABF90521AEE198F8CD
:1044A0000410B9B1022915D0072925D004292DD02F
:1044B00009292BD005293BD00A2939D01DE200005B
:1044C00008000020A4070020C4070020100B0020D3
:1044D00022000020D8F80C100629B2D0009000EB82
:1044E00001100223C0B21A460421FEF781F9D8F860
:1044F0000C0026F810B06EE6A9F800B002231A46A8
:10450000009004213020FEF773F9F6E1B8F80A10A4
:10451000062996D2009000EB01100223C0B21A4681
:104520000421FEF765F9B8F80A0027F810B0A9E6EB
:10453000B8F80810062984D2009000EB011002237D
:10454000C0B21A460421FEF753F9B8F808002AF859
:1045500010B0AAE698F804000B28AFD2DFE800F00C
:10456000061806274D5C176A174D5C00D8F80C003A
:10457000062806D0C8F80C40FEF726F888F804B0E4
:1045800002E0FFF7FBFC0FE02C606C60AC60B4E174
:10459000D8F80C00012807D13088FF2804D1FEF795
:1045A00013F8032088F80400C8F80C40ECE798F8EA
:1045B000020038B1012809D0D24D02280AD00328C0
:1045C000A3D110E0FEF700F8042013E0FDF7FCFF94
:1045D00005200FE0FDF7F8FF2888032801D30E20FF
:1045E00008E0062006E0FDF7EFFF288808B90F2055
:1045F00000E0072088F804007FE1B8F80A000628E8
:1046000029D0A8F80A4088F800B000BFFFF70EFBD9
:10461000AC61EC612C6270E1B8F80800062820D08B
:10462000A8F8084088F801B0FFF78EFAEC602C611A
:104630006C6162E1B9F80000801E022808D8FDF71D
:10464000C3FFB9F80000FBF753FFA9F8004054E19D
:10465000FDF7BAFFCDE7012088F80000A8F80A406E
:10466000D4E7012088F80100A8F80840DCE798F8B2
:104670000410092541B1022906D0042916D00929C0
:1046800014D0052924D038E1D8F80C1006293CD0E4
:10469000009000EB01100223C0B209220421FEF7B2
:1046A000A7F8D8F80C0026F8105094E5B8F80A10CE
:1046B00006292AD2009000EB01100223C0B2092281
:1046C0000421FEF795F8B8F80A0027F81050D9E54C
:1046D000B8F80810062918D2009000EB0110022348
:1046E000C0B209220421FEF783F8B8F808002AF8BE
:1046F0001050DAE598F8041041B1022906D00429D7
:1047000013D0092911D005291ED0F6E0D8F80C10D5
:10471000062937D0009000EB0110C0B20223062218
:104720000421FEF765F806213BE0B8F80A100629D7
:1047300028D2009000EB0110C0B20223062204210F
:10474000FEF756F8062146E0B8F80810062919D2F7
:10475000009000EB0110C0B2022306220421FEF7F4
:1047600047F806214AE098F8041061B102290AD0FE
:1047700007291BD0042920D009291ED005292FD0B4
:104780000A292DD0B9E0D8F80C1006294BD000909A
:1047900000EB0110C0B2022303220421FEF728F827
:1047A0000321D8F80C0026F8101014E50321A9F80D
:1047B000001002230A460090A3E6B8F80A10062962
:1047C00031D2009000EB0110C0B202230322042179
:1047D000FEF70EF80321B8F80A0027F8101051E58B
:1047E000B8F8081006291ED2009000EB0110C0B2E4
:1047F000022303220421FDF7FBFF0321B8F8080080
:104800002AF8101051E598F8040004280CD0052867
:104810000AD0062808D0072806D0032813D0092874
:1048200017D00A2815D068E0FDF7CEFE88F80240C0
:10483000A8F80A40A8F80840AC61EC612C62EC6072
:104840002C616C6111E0FDF7BFFE88F80240012089
:10485000D0E6A8F80A40A8F80840AC61EC612C62E8
:10486000EC602C616C61FDF7AFFE0320C2E698F8A6
:10487000040004280BD0052809D0092807D00A28ED
:1048800005D078B102280DD0072814D035E0A8F85B
:104890000A40A8F80840AC61EC612C62EC602C6125
:1048A0006C6104E0C8F80C402C606C60AC600420C3
:1048B000FDF78DFE21E0A9F80040F8E798F8040024
:1048C00003281AD1FDF780FE98F8020018B1401EA7
:1048D00088F8020011E00320FAE798F804000328A2
:1048E0000BD1FDF771FE98F80200401CC0B288F8A9
:1048F0000200042801D188F80240C8F81040BDE841
:10490000F88F000012000020FCF712FCFEF72AFAD4
:10491000FDF758FDFDF72CFEFDF7F2FDFDF79CFDC0
:10492000FDF70AFEFDF7B8FDFDF78AFEFEF756F922
:10493000012215491548FDF711FB012214491548BC
:10494000FDF70CFB1448FCF785FFFDF73DFE13A0B7
:10495000FEF7B4FCFEF782FFA0B116A0FEF7AEFC96
:104960001B4D00BF00F0B6F9FFF7B0FB2C78002C10
:10497000F8D00220FCF786F828788442F2D100F0C3
:104980002BF9EFE713A0E9E7C2070020BC080020DD
:10499000C3070020740800202C0800204153363043
:1049A00038D6B8CEC6C4A3BFE9B2E2CAD4BFAACA39
:1049B000BC0D0A004153363038D6B8CEC6C4A3BFAA
:1049C000E9B3F5CABCBBAFCAA7B0DC0D0A00000052
:1049D000C00700204153363038D6B8CEC6C4A3BF76
:1049E000E9B3F5CABCBBAFB3C9B9A60D0A00000054
:1049F00008B51023532200211846FDF7B5FE1023F9
:104A0000542200211820FDF7AFFE10234D22002173
:104A10002020FDF7A9FE1020009002232022002173
:104A20002620FDF7E5FE032200213620FDF778FE63
:104A3000042200214620FDF773FE052200215620A6
:104A4000FDF76EFE062200216620FDF769FE0922B1
:104A500002210020FDF764FE0A2202211020FDF74A
:104A60005FFE0B2202212020FDF75AFE0C220221BC
:104A70003020FDF755FE062202214020FDF750FEB2
:104A80000D2202215020FDF74BFE0E220221602054
:104A9000FDF746FE0F2202217020FDF741FE2E2277
:104AA00006210020FDF73CFE2F2206211020FDF7F5
:104AB00037FE302206216020FDF732FE312206212A
:104AC0007020FDF72DFEBDE80840FBF761BF0246F0
:104AD000012000E05043491EC9B2FBD270470000DC
:104AE000F0B5C3B0FDF773FF002809D120A0FEF791
:104AF000E5FB0120FDF74DFF20B122A0FEF7DEFB14
:104B000043B0F0BD41AB632200210120FDF779FFE6
:104B10001F4C204D01264FF47A7790B11EA0FEF76E
:104B2000CDFBFDF751FD022028702078401CC0B25B
:104B30002070032801D91B4806703846FBF7A2FFF6
:104B4000DEE719A0FEF7BAFB00202070287800905D
:104B5000BDF80631BDF8042117A101A8FEF7BEFB80
:104B600001A91BA0FEF7AAFBFDF72EFD2E70E4E7BE
:104B7000BBF1C8A1CDBCCFF1B3C9B9A6B3C9B9A621
:104B80000D0A0000C7EBB0B4CAD6D6B80D0A0000B3
:104B9000A9070020A8070020D1E9D6A4CAA7B0DC45
:104BA0000D0A0000A7070020D6B8CEC6D1E9D6A4CA
:104BB000B3C9B9A6000000002049443A256420B5D5
:104BC000C3B7D63A25642020766965773A25640014
:104BD00025730D0A000000002DE9F041304C314EE4
:104BE000314D217841291BD0442926D04F293DD071
:104BF00020464278303A94B28278303A93B2C27802
:104C0000303A95B20279303A96B242798079303AA8
:104C1000303892B287B255292DD052292DD035E0A7
:104C2000FDF7D2FC3088032805D30E2032232871EB
:104C30000F221EA116E006201BE0FDF7C5FC308800
:104C400048B16078A0F13201022908D8303880B22A
:104C5000FBF74EFC1AE032230F2216A102E03223AA
:104C60000F2216A11748FDF7B9F90FE0FDF7ACFCCC
:104C7000012028710AE0144800E0144804804380B1
:104C80008580C68002814781FEF722F81049002006
:104C90000870BDE8F041FF210148FBF75CBA000055
:104CA000340B002012000020A40700206164646619
:104CB000756C6C00656D70747900000069646572D4
:104CC000726F7200BC0800202A000020360000200D
:104CD000C00700201C490A681C484369D21A642A8C
:104CE00031D309684161007911282CD2DFE800F046
:104CF000090B0D0F11131517191B1D1F2123252734
:104D00002900FFF775BEFEF78DBAFEF73BBAFEF736
:104D1000EDBCFEF741BFFEF7C9BEFEF78FBCFFF743
:104D2000AFB8FEF7EABFFEF7FFBFFEF7A7BFFEF77B
:104D3000C6BCFEF76CBCFFF709B9FFF769B9FFF70E
:104D400037B9FFF765B8704708000020A4070020B6
:104D5000010202030405060708090A0B0C0D0E0FD9
:104D6000101000000000000000000102030406070C
:104D70000809000000000102030400000000000018
:104D80000000002F000000000700070000147F143F
:104D90007F1400242A7F2A1200626408132300363D
:104DA0004955225000000503000000001C2241006C
:104DB000000041221C000014083E08140008083EB0
:104DC0000808000000A060000008080808080000AB
:104DD00060600000002010080402003E5149453E7A
:104DE0000000427F40000042615149460021414598
:104DF0004B31001814127F10002745454539003CFF
:104E00004A494930000171090503003649494936CC
:104E100000064949291E00003636000000005636BB
:104E2000000000081422410000141414141400009F
:104E30004122140800020151090600324959513E2D
:104E4000007C1211127C007F49494936003E4141E5
:104E50004122007F4141221C007F49494941007F96
:104E600009090901003E4149497A007F0808087F85
:104E70000000417F4100002040413F01007F0814B5
:104E80002241007F40404040007F020C027F007FB3
:104E90000408107F003E4141413E007F0909090698
:104EA000003E4151215E007F0919294600464949CB
:104EB00049310001017F0101003F4040403F001F98
:104EC0002040201F003F4038403F00631408146317
:104ED00000070870080700615149454300007F4101
:104EE000410000552A552A55000041417F00000429
:104EF0000201020400404040404000000102040062
:104F0000002054545478007F4844443800384444C6
:104F1000442000384444487F003854545418000852
:104F20007E0901020018A4A4A47C007F0804047870
:104F30000000447D4000004080847D00007F1028F8
:104F400044000000417F4000007C04180478007C8D
:104F50000804047800384444443800FC242424180D
:104F60000018242418FC007C080404080048545449
:104F7000542000043F444020003C4040207C001C62
:104F80002040201C003C4030403C00442810284475
:104F9000001CA0A0A07C004464544C4414141414BD
:104FA00014140000000000000000000000000000D9
:104FB0000000000000F80000000000000033300096
:104FC000000000100C06100C06000000000000009D
:104FD000000040C07840C0784000043F04043F0413
:104FE0000400007088FC08300000001820FF211E1B
:104FF0000000F008F000E018000000211C031E2152
:105000001E0000F00888700000001E2123241927CC
:10501000211010160E00000000000000000000002B
:105020000000000000E01804020000000007182043
:10503000400000020418E0000000004020180700B3
:105040000000404080F0804040000202010F010259
:105050000200000000F0000000000101011F01013A
:105060000100000000000000000080B0700000009F
:10507000000000000000000000000001010101012B
:1050800001010000000000000000003030000000BE
:105090000000000000008060180400601806010095
:1050A000000000E010080810E000000F10202010A1
:1050B0000F00001010F8000000000020203F20200A
:1050C00000000070080808887000003028242221A1
:1050D0003000003008888848300000182020201157
:1050E0000E000000C02010F8000000070424243F38
:1050F000240000F8088888080800001921202011E1
:105100000E0000E0108888180000000F1120201108
:105110000E0000380808C83808000000003F0000F2
:1051200000000070880808887000001C22212122DD
:105130001C0000E010080810E000000031222211DD
:105140000F00000000C0C000000000000030300070
:1051500000000000008000000000000080600000EF
:105160000000000080402010080000010204081028
:105170002000404040404040400004040404040437
:1051800004000008102040800000002010080402E5
:105190000100007048080808F000000000303601E7
:1051A0000000C030C828E810E000071827242314A6
:1051B0000B000000C038E0000000203C2302022762
:1051C000382008F8888888700000203F20202011AF
:1051D0000E00C030080808083800071820202010EA
:1051E000080008F808080810E000203F20202010E0
:1051F0000F0008F88888E8081000203F20202320AE
:10520000180008F88888E8081000203F20000300F4
:105210000000C03008080838000007182020221EAF
:10522000020008F808000008F808203F21010121C9
:105230003F20000808F8080800000020203F202038
:10524000000000000808F8080800C08080807F0087
:10525000000008F888C028180800203F20012638E0
:10526000200008F8080000000000203F2020202037
:10527000300008F8F800F8F80800203F003F003F31
:10528000200008F830C00008F808203F2000071868
:105290003F00E01008080810E0000F102020201048
:1052A0000F0008F808080808F000203F210101015C
:1052B0000000E01008080810E0000F1824243850FF
:1052C0004F0008F8888888887000203F2000030C71
:1052D000302000708808080838000038202121227A
:1052E0001C00180808F8080818000000203F2000DB
:1052F000000008F808000008F808001F20202020FF
:105300001F000878880000C83808000007380E0120
:105310000000F80800F80008F800033C0700073C0C
:105320000300081868808068180820302C03032CBC
:1053300030200838C800C83808000000203F20008E
:10534000000010080808C83808002038262120204E
:105350001800000000FE020202000000007F404032
:105360004000000C30C000000000000000010638C2
:10537000C00000020202FE000000004040407F002A
:10538000000000000402020204000000000000000F
:10539000000000000000000000008080808080800D
:1053A00080800002020400000000000000000000F5
:1053B000000000008080808000000019242222224A
:1053C0003F2008F8008080000000003F11202011DD
:1053D0000E000000008080800000000E11202020C0
:1053E0001100000000808088F800000E11202010BD
:1053F0003F200000808080800000001F22222222A7
:105400001300008080F0888888180020203F20202A
:1054100000000000808080808000006B9494949352
:10542000600008F8008080800000203F21000020FC
:105430003F2000809898000000000020203F20209E
:105440000000000000809898000000C08080807FED
:10545000000008F8000080808000203F24022D30EA
:105460002000000808F8000000000020203F202055
:1054700000008080808080808000203F20003F20CE
:10548000003F8080008080800000203F21000020BD
:105490003F200000808080800000001F202020200E
:1054A0001F00808000808000000080FFA12020116C
:1054B0000E000000008080808000000E112020A0DF
:1054C000FF80808080008080800020203F2120009D
:1054D0000100000080808080800000332424242488
:1054E0001900008080E0808000000000001F202064
:1054F00000008080000000808000001F202020101D
:105500003F20808080000080808000010E300806EF
:10551000010080800080008080800F300C030C3000
:105520000F0000808000808080000020312E0E312E
:105530002000808080000080808080818E7018062E
:10554000010000808080808080000021302C22219A
:10555000300000000000807C020200000000003FDC
:10556000404000000000FF00000000000000FF00BD
:1055700000000002027C800000000040403F00006C
:105580000000000601010202040400000000000007
:105590000000000000000000000000010101010106
:1055A00001000000C455000800000020D8070000DA
:1055B0004E020008405B0008D80700206009000088
:1055C000343300085007010000001000013324F4B8
:1055D0000712FF0130050100071314621B1D900E16
:1055E0000100020003000400050006000802200775
:1055F00000040404FF540112FF0A201600001111D8
:105600008985939191FD9191938589111100404075
:10561000420132FE064340406A600440807F5810D9
:105620000C00F80C0B0808F840308F080711101315
:105630007F2101211F10054380403F9E100A945393
:10564000321E325210007E46427EA142490122FFA4
:10565000A1101008CC4A49484ACC18007F88888499
:1056600082E01E10051212529240527E104007F83E
:1056700001060000020122FE3E717A3186100F20E1
:10568000102CE7242400E22C20BF2028E6E8100F8D
:1056900001017F2111804F20100F10204F80A15356
:1056A000E2820142FEBD733F40016278C542FF14B1
:1056B00021DB3119627F241408004042CC000044F1
:1056C0001F167F25224422200B7F201000FF151576
:1056D000155595E6101688681FC80810C85452D191
:1056E000129408D01000091909FF05C5740592FF2E
:1056F000005F26540501E21CE02F100780402010B7
:105700000C03F91007030C30408080C0100DEC270B
:10571000F42CE00022920ED2221E20141F601F09DA
:105720003F89FF000A0909FF09090800108C440499
:10573000E40495A64424148444940C0A24067A4173
:105740004143424E26436F200A0484E45C44C40073
:1057500002F2E11150140802017F10103F008D2465
:105760000408488881F101C336361013F8880120F7
:10577000090808FF08090AC80880200D0010201F2A
:1057800080402116182641F84912F84C14081010D0
:10579000FF101010F0D0340B30101F088848300E66
:1057A0000140E040060040301E101E2A108A101BE7
:1057B00081814121110D0301030D112141818100DE
:1057C00000FE02FA02FE4020D8173F112220078077
:1057D00047300F10675F180B08162140800010102B
:1057E00014D47D1007FC525252D3122010094040AD
:1057F00050575555557F04275750802581229001D9
:105800003805FF101116EC000D113F1028603F10F5
:1058100010010E3040F0E0A358380E31401804401B
:10582000A09E0038059EA0202001140A90884043C5
:105830002C10284641301009001715D55557557DB5
:10584000043804D5151700217C21012905200F00FB
:105850004020F807F0A0904C5724A4544C301981F4
:10586000340A1F80925249292412088011012C0504
:10587000FC4030CC06033B08081F831008E03C10B6
:10588000886423A2A6AAA2BAA4A3A2262AA262A1DD
:1058900003324A01264BBF21402008FC848400FECD
:1058A00092920319D0100B60201F10104044444402
:1058B0007F0429704004C05E52012B5EC040180472
:1058C000808F404338050E101020DF2C0910600235
:1058D0008C0010925265031C04921210CF031C0618
:1058E0007E010021181C0344070830040931009C84
:1058F00015B94EF8A0033C058040300F3903100560
:105900007F202020072B80FE3831051300F8DC1D96
:10591000B403300520BF403F23224F28100CFE2245
:105920005A8620102824E32428731DA003100B049A
:105930000827110D41817F01055F19C9140902046F
:10594000091224489020CD3D87042C0920104824BA
:10595000120904029C04420080100690003F48484F
:10596000D36C094270000444827F0104041D0204C8
:105970001C062030AC6310410447090E3F74062218
:10598000672212923F1D20033008180AAAAAAA0A09
:10599000FE061F28180003100EFA0A0A7A0E0A7A69
:1059A0000A4A8A7A02027F36F23B253F12F20F4002
:1059B0000F000282929A566322324A464282028045
:1059C00020109020988888E98E8888A89800024244
:1059D00081F66C08844B28102847805A041004FE76
:1059E00002022E11016D10043DB6030E2106E004E3
:1059F000200B0000FC2424A4643DA624011E040FF7
:105A0000031C070F1013121212C7043A12D01C18ED
:105A1000445465C664544400FC4444C442400020DD
:105A2000124A827F020A926703316639A011442824
:105A300006A4242222A31F280E40201F20584750CE
:105A400048454245485000119C12F2514EF2FF0465
:105A500035B912276D3627BF49009DA00439009D36
:105A6000A004051EC04D40041C082010E82724E4B3
:105A70003488044D40042D86041809093F49897F64
:105A800000100C8B20044445C6062C0444140CC0A2
:105A9000041F1E20240331103D32050D1C60052E0D
:105AA00080F10418070804C304081022A7800061CD
:105AB0004D4C061D5E065C05C27E42C25F066D202F
:105AC0000531466A70E06D62042DAF061C0D7E0143
:105AD00041E151494543415161C1D606290049027E
