:020000040800F2
:10000000F811002005010008AB2600086121000856
:10001000A926000875050008393400080000000012
:10002000000000000000000000000000612C00083B
:1000300077050008000000005F2C0008FD2E000876
:100040001F0100081F0100081F0100081F01000810
:100050001F0100081F0100081F0100081F01000800
:100060001F0100081F0100081F0100081F010008F0
:100070001F0100081F0100081F0100081F010008E0
:100080001F0100081F0100081F0100081F010008D0
:100090001F0100081F0100081F0100081F010008C0
:1000A0001F0100081F0100081F0100081F010008B0
:1000B0001F010008612F00081F0100081F01000830
:1000C0001F0100081F0100081F0100081F01000890
:1000D0001F010008CD320008D9320008153300088E
:1000E0001F0100081F0100081F010008DFF810D0E1
:1000F00000F0A6F800480047F1510008AFF3008077
:10010000F81100200648804706480047FEE7FEE752
:10011000FEE7FEE7FEE7FEE7FEE7FEE7FEE7FEE7B7
:100120005F2F0008ED000008202A04DB203A21FAA6
:1001300002F00021704721FA02F3D040C2F1200200
:10014000914008431946704740EA01039B0703D0DA
:1001500009E008C9121F08C0042AFAD203E011F806
:10016000013B00F8013B521EF9D27047D2B201E0C8
:1001700000F8012B491EFBD270470022F6E710B5AC
:1001800013460A4604461946FFF7F0FF204610BD05
:1001900030B505462A460B4612F8010B13F8014B01
:1001A00008B1A042F8D01CB1002802D06D1CF1E7C4
:1001B000284630BD421C10F8011B0029FBD1801AD3
:1001C000704730B504460020034600E05B1C9342B4
:1001D00003D2E05CCD5C401BF8D030BD2DE9F05F70
:1001E0000546002092469B468846064681464024A6
:1001F0001BE02846414647462246FFF795FF5346F7
:100200005A46C01A914110D311461846224600F0B2
:1002100029F82D1A67EB01084F46224601200021DC
:1002200000F020F817EB00094E41201EA4F1010454
:10023000DFDC484631462A464346BDE8F09F0000D1
:10024000064C074D06E0E06840F0010394E8070023
:1002500098471034AC42F6D3FFF74CFF0C5F000810
:100260002C5F0008202A04DB203A00FA02F100206B
:1002700070479140C2F1200320FA03F319439040E4
:10028000704770B58D1810F8014B14F0030201D1BE
:1002900010F8012B231106D110F8013B03E010F8F0
:1002A000016B01F8016B521EF9D1ABB110F8012BB3
:1002B00004F00C048A1A0C2C03D0A2EB84129B1CB1
:1002C00008E010F8014BA2EB0422F8E712F8014B0A
:1002D00001F8014B5B1EF9D5A942D4D3002070BDB3
:1002E0002DE9F84FDFF8B09100256C4FB9F8020006
:1002F0006B4EA84603280CD36AA003F0C3F83068FD
:1003000018B1C6F80080BDE8F88F02F0CFF90E20D2
:1003100014E0DFF8B0B14FF0010A00BF05F0B6F805
:1003200003F058FC0D2806D0052D63D2DFE805F058
:10033000081B304F6F0002F0B9F903203870E2E774
:10034000641CE4B2214660A003F09CF802F0B1FB0B
:10035000A8B9012002F08FFB88B95FA003F092F8E2
:100360000024012527E0641CE4B25EA003F08AF8B3
:1003700002F09FFB18B9022002F07DFB10B102F0E1
:10038000EDFC37E054A003F07DF80024022512E0D4
:1003900058A003F077F802F0E8FB050010D059A050
:1003A00003F070F8284602F0D9FC002425464FF4EB
:1003B000FA7003F08AFE4FF4C87003F086FEADE7D2
:1003C00053A003F05FF803254FF4FA7010E053A038
:1003D00003F058F84FF4FA7003F077FE02F0DFFBF9
:1003E00070BB52A003F04EF85FF004054FF47A7032
:1003F00003F06BFE4FF4C87003F067FE192C8DD12B
:100400003068E8B302F052F987F800807BE70022F9
:100410001046594631F81030B3B1401C0328F9DBBF
:100420001146022002F0F2FB0090B9F8021044A03D
:10043000491C89B2A9F8021003F024F8009840B1D1
:10044000002502F08BFCD1E72BF810A0801C82B2B3
:10045000E6E740A003F016F802F008FD306870B13E
:100460004446C6F8008002F021F93C7001B0322306
:10047000BDE8F04F0A223BA13D4801F023BE00E059
:1004800004E002F013F90B203870EFE702F00EF9E8
:1004900087F800A037E7000010000020480800207F
:1004A00060080020C2BCC8EBD6B8CEC6CAA7B0DC74
:1004B000A3ACD6BBC4DCC2BCC8EB33B8F6D6B8CE4E
:1004C000C60D0A0024000020C7EBB0B4CAD6D6B8C7
:1004D00025640D0A00000000D6B8CEC6D5FDB3A332
:1004E0000D0A0000C7EBD4D9B0B4D2BBB4CE0D0A0C
:1004F00000000000B6D4B1C8C1BDB4CED6B8CEC6D7
:100500000D0A0000B6D4B1C8CAA7B0DC0D0A0000BD
:10051000B6D4B1C8B3C9B9A60D0A0000C9FAB3C9A7
:10052000D6B8CEC6C4A3B0E50D0A0000C9FAB3C957
:10053000D6B8CEC6C4A3B0E5B3C9B9A60D0A0000AB
:10054000C2BCC8EBD6B8CEC6B8F6CAFDCEAA2564E2
:10055000200D0A00C2BCC8EBD6B8CEC6B3C9B9A636
:100560000D0A000041646473756363657373000072
:1005700030090020FEE770472DE9F041254D044683
:10058000688800283DD0214623A002F07BFF01218E
:10059000204602F041FA10B102F0E0FB34E02748B7
:1005A000274F00EB4400002630F8041C254C01299D
:1005B0000AD0206800B326603223042222A1BDE8BD
:1005C000F041234801F07EBD20F8046C21A002F028
:1005D00059FF6888401E81B2698022A002F052FF54
:1005E00002F044FC206820B1266032230F2222A1B1
:1005F000E5E70D203870F8E702F058F81020387061
:10060000DAE721A002F03EFFBDE8F04140F2DC5005
:1006100003F05BBD10000020B5A5B8F6C9BEB3FD60
:10062000D6B8CEC6BFAACABCA3ACC9BEB3FD4944A6
:10063000CEAAA3BA25640D0A000000002400002001
:1006400048080020600800204E6F49640000000048
:1006500030090020C9BEB3FDD6B8CEC6B3C9B9A60D
:10066000200D0A00CAA3D3E0D6B8CEC6CAFDCEAAD2
:10067000A3BA25640D0A000044656C657465737542
:100680006363657373000000C9BEB3FDD6B8CEC600
:10069000CAA7B0DCA3ACD6B8CEC6CAFDBEDDCEAA12
:1006A000BFD50D0A0000000021283CD2DFE800F091
:1006B00011131517191B1D1F212325273B3B3B3BFE
:1006C00027293B3B3B2B3B3B2D2F3133353B3B37E6
:1006D000390016A070471AA070471EA0704722A0CC
:1006E000704726A070472AA070472EA0704732A0FE
:1006F000704736A070473AA070473EA0704742A0AE
:10070000704746A070474AA070474EA0704752A05D
:10071000704756A070475AA070475EA0704762A00D
:10072000704766A070476AA0704700002020202014
:100730002020204F4B2020202020202000000000DF
:1007400020CAFDBEDDB0FCBDD3CAD5B4EDCEF320CA
:1007500000000000B4ABB8D0C6F7C9CFC3BBD3D03C
:10076000CAD6D6B800000000C2BCC8EBD6B8CEC608
:10077000CDBCCFF1CAA7B0DC0000000020D6B8CEB7
:10078000C6CCABB8C9BBF2CCABB5AD200000000005
:1007900020D6B8CEC6CCABCAAABBF2CCABBAFD2031
:1007A000000000002020D6B8CEC6CDBCCFF1CCAB27
:1007B000C2D220200000000020D6B8CEC6CCD8D5AA
:1007C000F7B5E3CCABC9D920000000002020D6B893
:1007D000CEC6B2BBC6A5C5E4202020200000000084
:1007E00020C3BBD3D0CBD1CBF7B5BDD6B8CEC620B6
:1007F00000000000202020CCD8D5F7BACFB2A2CA82
:10080000A7B0DC20000000002020C9BEB3FDC4A3B7
:10081000B0E5CAA7B0DC20200000000020C7E5BF7B
:10082000D5D6B8CEC6BFE2CAA7B0DC200000000013
:10083000BBBAB3E5C7F8C4DACEDED3D0D0A7CDBCFF
:100840000000000020B6C1D0B4464C415348B3F676
:10085000B4ED202000000000202020CEB4B6A8D2A5
:10086000E5B4EDCEF3202020000000002020CEDEF5
:10087000D0A7BCC4B4E6C6F7BAC52020000000006B
:1008800020BCC4B4E6C6F7C4DAC8DDB4EDCEF320AC
:100890000000000020BCC7CAC2B1BED2B3C2EBB4D4
:1008A000EDCEF3200000000020202020D6B8CEC6D8
:1008B000BFE2C2FA202020200000000020202020DB
:1008C000B5D8D6B7B4EDCEF320202020000000002C
:1008D00020B7B5BBD8C8B7C8CFC2EBD3D0CEF320B2
:1008E0000000000072B6FEE706490020C861064815
:1008F000016941F004010161016941F040010161B8
:1009000070470000080A002000200240064A00212B
:10091000D16106490A6942F002020A614861086928
:1009200040F0400008617047080A002000200240A3
:10093000044B0022DA61044A136943F00103136196
:1009400001807047080A002000200240144800225D
:10095000C168CB06134904D5CA6942F00202CA61D4
:100960001022C3685B0705D5CB6943F00103CB6157
:1009700042F00402C369DB0707D0CB6943F00403EC
:10098000CB61C16921F00101C161A2F5807101391A
:1009900001D0C2607047C16921F00101C161704797
:1009A00000200240080A002070B5054600F05EFAFB
:1009B0000646114C09E0681C07D025B100F056FA34
:1009C000801BA84201D9032070BDE068C007F2D1A6
:1009D000E068800601D52020E060E068C00605D40C
:1009E000E069C00702D1E068400703D5FFF7AEFF1A
:1009F000012070BD002070BD0020024010B501F044
:100A000019FD002803D0BDE8104004F0ABBC10BDB8
:100A100010B590F821100022022905D0042181632D
:100A200080F82020012010BD01680B6823F00E0320
:100A30000B6001680B6823F001030B6090F84030F5
:100A4000C46B012101FA03F3636080F8211080F880
:100A50002020104610BD000010B590F82110002491
:100A6000022903D00421816301243DE001680A6862
:100A700022F00E020A6001680A6822F001020A6090
:100A80001A4A0168914201D1012121E0174A14322A
:100A9000914201D110211BE0144A2832914201D128
:100AA000891515E0114A3C32914201D189140FE0B9
:100AB0000E4A5032914202D14FF4803108E00B4A85
:100AC0006432914202D14FF4801101E04FF0807105
:100AD000064A083A5160012180F82110002180F86F
:100AE0002010416B01B18847204610BD080002402C
:100AF00070B5044600F0BAF90546601C02D00448FF
:100B00000078044400F0B2F9401BA042FAD370BD53
:100B1000000000202DE9F047054626480F46012633
:100B2000017E01290FD00121814601762868DFF876
:100B300088804CF25034022808D0A2462046FFF7A5
:100B400033FFA8B131E00220BDE8F0872046FFF76F
:100B50002BFF08BB0120FFF7C7FE2046FFF724FF4D
:100B6000D8F81010064621F00401C8F810101CE057
:100B70004FF0FF303860AC6811E02046FFF7C6FE4A
:100B80005046FFF711FFD8F81010060021F00201BF
:100B9000C8F8101001D03C6007E004F58064D5E986
:100BA000020100EB8120A042E7D8002189F818104B
:100BB0003046C9E7080A00200020024003480169C6
:100BC00041F08001016100207047000000200240D8
:100BD0002DE9F05F07461C4888460024017E154633
:100BE0001E46012909D00121814601764CF2503A76
:100BF0005046FFF7D9FE18B122E00220BDE8F09F71
:100C0000012F02D0022F00D00427D346DFF83CA0EA
:100C1000220128463146FFF787FA81B208EB4400EB
:100C2000FFF786FE5846FFF7BFFEDAF8102022F0E5
:100C30000102CAF8102018B9641CE4B2BC42E7D320
:100C4000002289F81820D9E7080A00200020024075
:100C5000064900200A69120607D5054A4A60054A76
:100C60004A600969090600D501207047002002404A
:100C700023016745AB89EFCD2DE9F84FDFF8B89137
:100C80000024A9F1040B23460F2709F1040AABF154
:100C9000040EC9E00125A5402A40AA427DD1674E35
:100CA000D1F804C0ACEB0608B44532D014DCBCF17A
:100CB000030F3AD009DCBCF1000F2AD0BCF1010FC0
:100CC0001CD0BCF1020F31D11DE0BCF1110F17D0C7
:100CD000BCF1120F2AD119E0B8F5881F19D006DC33
:100CE000B8F5803F15D0B8F5801F1FD111E0B8F5D9
:100CF000001F0ED0B8F5041F18D10AE0CB6815E02C
:100D0000CB681B1D12E0CB6808330FE0CB680C33B7
:100D10000CE08B682BB1012B4FF0080303D0456129
:100D200004E0042302E0056100E00023FF2A01D86B
:100D3000064601E000F104064FEA840501D9A5F159
:100D40002005D6F8008007FA05FC28EA0C0803FA0B
:100D500005F548EA0508C6F800804D68ED0062D543
:100D6000374DAE6946F00106AE61AD6924F0030669
:100D700005F001050095334D06EB050CDCF8085035
:100D8000A607360F07FA06F825EA0805DFF8B88047
:100D9000404503D14FF0000817E044E0DFF8AC8095
:100DA000404502D14FF001080FE0DFF8A480404534
:100DB00002D14FF0020808E0DFF89880404502D1E8
:100DC0004FF0030801E04FF0040808FA06F848EA7B
:100DD0000508CCF808804D68D9F80060ED024D4652
:100DE00001D5164300E096432E604D68DAF80060A6
:100DF000AD02554601D5164300E096432E604D687E
:100E0000DBF80060AD035D4601D5164300E0964374
:100E10002E604D68DEF80060ED03754601D516437F
:100E200000E096432E60641C0D682A46E5407FF47E
:100E300031AFBDE8F88F0000080401400000111038
:100E4000001002400000014000080140000C014079
:100E500000100140001401408068084000D00120CB
:100E600070470AB1016170470904FBE701488068D7
:100E7000704700000000002070B5040025D094F8F1
:100E80003D00002520B984F83C50204600F050F980
:100E9000242084F83D002068016821F001010160F0
:100EA0002068016841F4004101602068016821F474
:100EB0000041016000F098FA4D4A6168914201D802
:100EC0004C4900E04C49884201D2012070BD4B4999
:100ED0002368B0FBF1F15E6826F03F060E435E60CA
:100EE0006368934206D94FF4967359434FF47A736B
:100EF000B1FBF3F12368491C1E6A26F03F0631431B
:100F000019626168914210D84900401EB0FBF1F2AD
:100F1000521CC2F30B02042A01D2042022E0B0FBCF
:100F2000F1F0401CC0F30B001CE0A268F2B301EB2F
:100F3000C10303EB0116431EB3FBF6F35B1C43F442
:100F400080431B0549D092B301EBC10202EB0111B2
:100F5000401EB0FBF1F0401CC0F30B0040F4804099
:100F600040F400402168CA694CF6FF739A4310436D
:100F7000C861D4E9071001432068026822F0C0026A
:100F800011430160D4E9030101432068826848F2FB
:100F9000FF339A4311438160D4E905010843216876
:100FA000CA6822F0FF021043C86001E00EE016E0BC
:100FB0002068016841F0010101602564202084F867
:100FC0003D00256384F83E50002070BD01EB4106D2
:100FD000431EB3FBF6F35B1CB3E70120C2E701EB52
:100FE0004101401EB0FBF1F0401CC0F30B00B7E71D
:100FF000A086010080841E0000093D0040420F00D1
:101000002DE9FF4F83B09A46DDE9119793460446D8
:10101000DDF84080FFF72AFF054694F83D002028C0
:101020007FD11923012240492046009501F030F973
:10103000002876D194F83C00012872D0012084F871
:101040003C0020680168C90703D1016841F0010133
:1010500001602068016821F400610160212084F8AA
:101060003D00402084F83E0000262664C4F8248019
:10107000A4F82A90608D20852C48E062CDE90075A7
:1010800053465A462046049901F082F870B930E080
:101090002A463946204601F0A1F958B1206C0428AF
:1010A00004D12068016841F400710160012007B09B
:1010B000BDE8F08F606A216800780861606A401CB2
:1010C0006062218D491E89B22185628D521E628522
:1010D00022685369DB435B070BD469B10078106168
:1010E000606A401C6062208D401E2085608D401E1D
:1010F0006085208D0028CBD12A463946204601F054
:101100009BF80028CAD154F83D0B016841F40071E6
:101110000160202004F81E09E67766770020C6E704
:10112000FFE70220C3E70000020010000000FFFFFD
:1011300010B586B0002100910191029103910068E1
:101140000F4988421AD10F4CA06940F00800A061F5
:10115000A069694600F008000490C02000901220A9
:101160000190032003900848FFF786FDE06940F4F2
:101170000010E061E06900F40010049006B010BDBA
:101180000054004000100240000C014002488168F9
:10119000027811448160704700000020074810B5B4
:1011A000016841F010010160032000F075F80F2084
:1011B00000F006F800F024F8002010BD00200240E6
:1011C00070B50D4D04464FF47A712878B1FBF0F0FC
:1011D0000A490968B1FBF0F000F0DCFA48B9102CBC
:1011E00007D200222146501E00F036F800206C6025
:1011F00070BD012070BD0000000000200C00002028
:101200000C4808B5816941F001018161816901F0F3
:1012100001010091C16941F08051C161C06900F0D4
:10122000805000900448416821F0E06141F0007175
:10123000416008BD0010024000000140002809DBA9
:1012400000F01F02012191404009800000F1E020E0
:10125000C0F8001170470000F0B40E4B1B680C463C
:10126000C3F30223C3F10705042D00D90425191D7A
:10127000072901D2002300E0DB1E012606FA05F152
:10128000491E214099409E40761E16403143F0BCD5
:1012900002F008B90CED00E0064900F0070208680A
:1012A0004FF6FF03184040EA0220034A104308604B
:1012B000704700000CED00E00000FA052DE9F04752
:1012C0000F46050061D0434E306800F00700B84279
:1012D00009D2306820F0070038433060306800F0F1
:1012E0000700B84251D128683B4C810712D540070E
:1012F00003D5606840F4E06060602878000703D59B
:10130000606840F4605060606068A96820F0F00098
:10131000084360602878C00728D06868012810D08A
:101320002168022810D0890700292EDA616821F08F
:10133000030101436160FFF799FD804641F288395E
:101340000DE021688903EFE78901EDE7FFF78EFDE6
:10135000A0EB0801494502D90320BDE8F087606889
:10136000696800F00C00B0EB810FEFD1306800F03D
:101370000700B8420BD9306820F0070038433060CE
:10138000306800F00700B84201D00120E5E7287876
:10139000400705D56068E96820F4E06008436060B4
:1013A0002878000706D56068296920F4605040EA73
:1013B000C100606000F038F86168084AC1F30311A9
:1013C000515CC8400649086006480068FFF7F8FE0F
:1013D0000020C2E70020024000100240CA56000868
:1013E0000C000020040000200448054900684968FA
:1013F000044AC1F30221515CC84070470C00002030
:1014000000100240DA56000804480549006849689F
:10141000044AC1F3C221515CC84070470C0000204F
:1014200000100240DA5600080E4A51680E4801F0DA
:101430000C03042B11D0082B0FD10C48C1F38343AC
:10144000C903C05C0AD55168084AC1F34041921EE5
:10145000515C054A5043B0FBF1F0704704494843E2
:10146000704700000010024000127A00BA560008CF
:1014700000093D002DE9F84F040070D02078C04DE0
:10148000C00749D06868C0F38100012807D06868A8
:10149000C0F38100022809D16868C00306D5286816
:1014A000800339D560680028E7D035E06068B0F582
:1014B000803F0BD010B1B0F5A02F11D0286820F4D8
:1014C00080302860286820F4802002E0286840F4FA
:1014D00080302860606890B1FFF7C8FC06460AE0DB
:1014E000286840F480202860F0E700BFFFF7BEFCCA
:1014F000801B642873D828688003F7D50CE0FFF7B9
:10150000B5FC064605E000BFFFF7B0FC801B642871
:10151000F0D828688003F7D420789A4E80074FF0DF
:1015200001094FF0000839D5686810F00C0F07D09A
:101530006868C0F38100022809D16868C00306D436
:101540002868800714D52069012808D110E0206997
:10155000B0B1C6F80090FFF789FC074605E00AE144
:10156000FFF784FCC01B0228C4D828688007F7D581
:101570002868616920F0F80040EAC10028600DE0A9
:10158000C6F80080FFF772FC074604E0FFF76EFC28
:10159000C01B022823D828688007F7D420780007CA
:1015A0002CD57948A169D9B1C0F80090FFF75EFC4D
:1015B000074604E0FFF75AFCC01B02280FD8686AF0
:1015C0008007F7D571484FF4FA510068B0FBF1F08D
:1015D000009000BF0098411E0091FAD20EE080E01A
:1015E000C0F80080FFF742FC074604E0FFF73EFC2E
:1015F000C01B022875D8686A8007F7D42078400796
:1016000060D5E8690027C00008D4E86940F0805040
:10161000E861E869012700F0805000905C480168AB
:10162000C90513D40168834641F480710160FFF756
:101630001DFC824606E000BFFFF718FCA0EB0A0085
:1016400064284ED8DBF80000C005F5D5E068012815
:101650000AD008B1052813D0286A20F001002862BA
:10166000286A20F0040002E0286A40F001002862A5
:10167000E06841F2883B98B1FFF7F8FB82460BE047
:10168000286A40F004002862EEE700BFFFF7EEFB97
:10169000A0EB0A0159455AD8286A8007F6D50CE014
:1016A000FFF7E4FB824605E0FFF7E0FBA0EB0A0151
:1016B00059454CD8286A8007F6D41FB1E86920F054
:1016C0008050E861E06988B36968C1F3810102294B
:1016D00044D00228C6F8608004D0FFF7C7FB044658
:1016E00038E034E0FFF7C2FB074604E0FFF7BEFB3B
:1016F000C01B02282BD828688001F7D4206AB0F5D7
:10170000803F05D16868A16820F400300843686014
:10171000D4E908010843696821F47411084368603A
:10172000C6F86090FFF7A2FB044606E025E000BF84
:10173000FFF79CFB001B022809D828688001F7D519
:101740001BE000BFFFF792FB001B022802D9032019
:10175000BDE8F88F28688001F4D40EE00128F7D0A6
:101760006868226A00F48031914204D1616A00F411
:101770007010884201D00120EAE70020E8E700006D
:101780000010024000004242800442420C0000204F
:101790000070004010B5401EB0F1807F01D30120E1
:1017A00010BD4FF0E02460610F21601701F07AFE58
:1017B0000020A06107202061002010BD7047704705
:1017C00070B590F83C20012A26D0012480F83C40D6
:1017D000022280F83D2003685A689D6822F0700656
:1017E0000A6832435A600D4B02689A4208D0B2F13F
:1017F000804F05D00A4B9A4202D00A4B9A4204D13C
:10180000496825F080031943916080F83D4000212C
:1018100080F83C10084670BD022070BD002C0140CD
:10182000000400400008004010B5040003D094F804
:101830003D0010B107E0012010BD002084F83C00FD
:10184000204600F01FF8022084F83D00211D20688A
:1018500001F08CFB012084F8460084F83E0084F8F7
:101860003F0084F8400084F8410084F8420084F886
:10187000430084F8440084F8450084F83D000020CB
:1018800010BD000008B500680B49884212D10B4812
:10189000C16941F00201C161C069002200F002008B
:1018A000009011461D20FFF7D7FCBDE808401D2021
:1018B000FFF7C4BC08BD0000000400400010024057
:1018C00090F83D10012901D001207047022180F8D5
:1018D0003D100168CA6842F00102CA6000680B4905
:1018E000884208D0B0F1804F05D00949884202D023
:1018F0000849884204D1816801F00701062903D014
:10190000016841F00101016000207047002C014096
:10191000000400400008004070B5044690F83C0008
:101920000025012817D0012684F83C60022084F8A5
:101930003D002068826822F0770222F47F428260B4
:101940000868502838D00DDC20284FD005DC90B333
:10195000102811D14AE0022070BD302846D040281E
:101960000AD13BE060282FD070280DD0B0F5805F01
:1019700003D0B0F5005F12D0012584F83D6000204F
:1019800084F83C00284670BDCB68D1E9012120686D
:1019900001F022FB2068816841F0770109E0CB6803
:1019A000D1E90121206801F017FB2068816841F42A
:1019B00080418160E1E719E0CA684968206801F068
:1019C0001DFB5021206806E0CA684968206801F0C4
:1019D00026FB6021206801F009FBCEE7CA68496850
:1019E000206801F00BFB40212068F4E722680146E3
:1019F0001046F0E7704770B50446006801694FF083
:101A00000005C943890715D4C168C943890711D4A2
:101A1000E91E016101202077206880698007204647
:101A200002D0FFF7E7FF04E000F098F8204600F04E
:101A300096F8257720680169C943490717D4C1681A
:101A4000C943490713D46FF00401016102202077D4
:101A50002068806910F4407F204602D0FFF7CAFF5B
:101A600004E000F07BF8204600F079F82577206844
:101A70000169C943090716D4C168C943090712D4CB
:101A80006FF008010161042020772068C069800799
:101A9000204602D0FFF7AEFF04E000F05FF82046DA
:101AA00000F05DF8257720680169C943C90617D49D
:101AB000C168C943C90613D46FF010010161082041
:101AC00020772068C06910F4407F204602D0FFF7DD
:101AD00091FF04E000F042F8204600F040F825773E
:101AE00020680169C943C90708D1C168C943C9074A
:101AF00004D1891E0161204600F032F82068016996
:101B0000C943090609D4C168C943090605D46FF061
:101B1000800101612046FFF751FE20680169C94339
:101B2000490609D4C168C943490605D46FF040018C
:101B30000161204600F080F820680169C9438906E8
:101B40000BD4C168C943890607D46FF02001016135
:101B50002046BDE87040FFF732BE70BD7047704749
:101B6000F0B500682A49884247D12A4B00212A480B
:101B70001A78012A07D18268521C8260B2F5967FDA
:101B800001D181601970254E0A24012332784FF467
:101B90009575012A13D1C268521CB2FBF4F704FBFD
:101BA0001727C26017B907697F1C0761AA4206D9C7
:101BB000C1601B4A0161317011701A4A13701A4ECC
:101BC0003278012A13D14269521CB2FBF4F704FBAC
:101BD0001724426114B98469641C8461AA4206D93D
:101BE0004161124A816131701170114A1370114ABA
:101BF0001278012A02D041600170F0BD4268521C87
:101C00004260B2F52F7FF8D103704160F0BD000053
:101C10000004004047080020740800204A08002003
:101C2000490800204B0800204D0800204C080020E7
:101C30004E08002050080020704770477047000091
:101C4000F8B5016804460868CA684B6910F00F0FC0
:101C50004FF0000559D003F0010602F490773743A6
:101C600065D0C10705D0D10503D5616C41F00101F4
:101C70006164410705D5D90703D0616C41F00201C9
:101C80006164810705D5D90703D0616C41F0040177
:101C90006164010707D502F02001314303D0616C74
:101CA00041F008016164616C00293AD0800604D5D6
:101CB000900602D5204601F0F3F920684069616C76
:101CC000C0F38010090700D460B3204601F0C1F9C9
:101CD00020684069400621D52068143050E8001F74
:101CE00021F0400140E80012002AF5D1E06BA8B1D4
:101CF0006D494163E06BFEF7AFFE002811D0E06B49
:101D0000416B01B0BDE8F040084783060FD593064C
:101D10000DD52046BDE8F84001F0C2B92046FFF7D6
:101D20008DFFF8BD2046FFF789FF6564F8BD266B7F
:101D30002023012E7CD1C6067AD5D60678D5086830
:101D40004868009048694FF00206400640D5E16BB4
:101D5000086840680004000CE8D0A28D8242E5D9F2
:101D6000E085886920282DD020680C3050E8001FBD
:101D700021F4807140E80012002AF5D12068143067
:101D800050E8001F21F0010140E80012002AF5D1BF
:101D90002068143050E8001F21F0400140E8001294
:101DA000002AF5D184F84230256320680C3050E8D1
:101DB000001F21F0100140E80012002AF5D1E06B6D
:101DC000FEF726FE6663A08DE18D401A81B22AE0FF
:101DD000A08DE18D401A81B2E08D0028A6D00029A7
:101DE000A4D022680C3252E8000F20F4907042E830
:101DF0000007002FF5D12068143050E8002F22F0A2
:101E0000010240E80027002FF5D184F84230256315
:101E100020680C3050E8002F22F0100240E8002328
:101E2000002BF5D166632046FFF707FFF8BDFFE7FB
:101E300005062BD5150629D594F841002128F5D1A2
:101E4000A068B0F5805F01D12069B0B1206A411C63
:101E50002162216800784860E08C401E0004000C7C
:101E6000E084E3D12068C16821F08001C16020686E
:101E7000C16841F04001C160D8E7206A0088C0F322
:101E800008004860206A801C2062E5E74006CDD546
:101E90005006CBD5CA68204622F04002CA6084F8BA
:101EA000413000F05CF9C1E74330000870B5040030
:101EB00004D094F84100002510B106E0012070BD67
:101EC00084F84050204600F023F8242084F8410094
:101ED0002068C16821F40051C160204601F042F938
:101EE0002068016921F4904101612068416921F075
:101EF0002A0141612068C16841F40051C1606564F4
:101F0000202084F8410084F842006563002070BD01
:101F1000F0B585B000240094019402940394036802
:101F2000424F022042490322424D4602BB4225D184
:101F30008B6943F480438B618B6903F48043049382
:101F40008B6943F004038B618969039201F00401FA
:101F500004910102CDE9001069462846FEF78CFE87
:101F6000CDE90064694628460294FEF785FE00220A
:101F700011462520FFF770F9252028E02E4FBB429F
:101F800029D1CB6943F40033CB61CB6903F400332F
:101F900004938B6943F004038B618969039201F018
:101FA000040104910421CDE9001069462846FEF79A
:101FB00063FE0820CDE90004694628460294FEF736
:101FC0005BFE002203212620FFF746F92620FFF7BB
:101FD00035F905B0F0BD194DAB42FAD1CB6943F4E8
:101FE0008023CB61CB6903F4802304938B6943F096
:101FF00008038B618969124D01F00801CDE90321C5
:10200000CDE9006069462846FEF736FEE814CDE9C2
:102010000004694628460294FEF72EFE002211466F
:102020002720FFF719F92720D1E7000000380140E9
:1020300000100240000801400044004000480040F9
:10204000000C014090F84230202B01D00220704754
:1020500021B11AB10023036301F0E0B801207047F9
:1020600070B5054600681149114C88420AD1114AE1
:102070002178A0785054491C21700122A11C0E48DF
:10208000FFF7E0FF0D49286888420ED1094A6078C1
:10209000FF32E1781154401C6070BDE87040044983
:1020A0000122C91C0648FFF7CDBF70BD00480040A3
:1020B00070080020F80B0020C00900200038014003
:1020C000300900202DE9F843044690F841001F46EE
:1020D00016460D46202802D00220BDE8F8837DB1C7
:1020E00076B100206064212084F84100FEF7BEFE36
:1020F000A6848046E684A068B0F5805F02D003E045
:102100000120EAE7206910B12E4600250EE00026E6
:102110000CE08021204601F09CF8A0B9AEB116F881
:10212000010B21684860E08C401EE084E08C43464F
:102130004FF0000200970028EBD14FF040012046FD
:1021400001F087F830B10320C7E735F8020BC0F380
:102150000800E6E7202084F841000020BDE7704732
:10216000FEE701684A69D24352050FD46FF48062DA
:102170004A61002140F8301F2022427381730269B6
:1021800042F0040202610173012070470020704791
:102190002DE9F843044600680D46DDE9089701681B
:1021A0009846164641F4807101604B4600224FF07C
:1021B00001112046009700F06BF848B120680068D4
:1021C000C00502D54FF4007020640320BDE8F883F9
:1021D000216805F0FE0008613B464A461549204645
:1021E00000F09EF888B920684169806900903A46FD
:1021F0004946204600F0F2F848B1206C042804D18A
:102200002068016841F4007101600120DEE7F5B249
:10221000B8F1010F09D02168300A08613A464946F1
:10222000204600F0DBF80028E7D120680561002097
:10223000CCE700000200010070B516460D460446CA
:102240001EE02046FFF78DFF08B1012070BD681C1D
:1022500016D0FEF70BFE801BA84200D885B9206877
:102260004069C04340070BD5002044F8300F2021BF
:102270006173A073216941F0200121612073E4E7BB
:1022800020684069C0434007DBD4002070BD0000D7
:102290002DE9F047984617460D460446C1F3074618
:1022A000DDF820902AE000BFB8F1FF3F26D0FEF70E
:1022B000DDFDA0EB0901414502D8B8F1000F1DD1A9
:1022C0002068012E16D0806925EA00000004000C69
:1022D00012D00020B84211D1002044F8300F202144
:1022E0006173A073216941F02001216120730120F5
:1022F000BDE8F0874069E7E70120EBE72068012EA1
:102300000AD0806925EA00000004000C06D00020F5
:10231000B842C9D00020EBE74069F3E70120F7E7B6
:102320002DE9F047984616460D4604464FF0000941
:102330004FF0200AC1F3074723E020684069C043FB
:10234000400515D42068016841F4007101602168DE
:102350006FF480604861C4F8309084F83DA084F840
:102360003E90216C41F00401216484F83C9021E00E
:10237000701C06D0FEF77AFDA0EB0800B04203D82F
:1023800016B1012F1FD021E02068012F15D08069E0
:1023900025EA00000004000C18D000BF44F8309F6C
:1023A00084F80DA084F80E90216941F0200121618C
:1023B00084F80C900120BDE8F087406925EA000010
:1023C0000004000CEAD12068406901E020688069BF
:1023D00025EA00000004000CAFD1ECE770B516460A
:1023E0000D4604461EE02046FFF7BBFE08B1012063
:1023F00070BD681C16D0FEF739FD801BA84200D8BE
:1024000085B920684069C04300060BD5002044F818
:10241000300F20216173A073216941F020012161F7
:102420002073E4E720684069C0430006DBD4002045
:1024300070BD000001210148FEF70EBD00080140FB
:102440007CB50546EF208DF80000154C01208DF875
:1024500001006168080E8DF80200080C8DF8030079
:10246000080A8DF8040007208DF805108DF8060085
:1024700000268DF8076026700BE0012001F025FE94
:10248000207830B1267069460648FDF781FE0028A5
:1024900004D16D1E2D042D0CEFD100207CBD000059
:1024A00010000020280A0020F0B585B00024204844
:1024B0000094019402940394816941F010018161B8
:1024C000816901F010010491816941F0200181616D
:1024D000816901F020010491816941F00401816169
:1024E000816901F004010491816941F00801816171
:1024F0008069104F00F008004FF4704604900122EC
:1025000031463846FEF7ADFCF02001258DE831005C
:1025100069460948FEF7B0FB0220CDE90240CDE94B
:10252000006569463846FEF7A7FB05B0F0BD000020
:1025300000100240000C0140000801400D4810B599
:102540000B4901600C49416000214FF480428160D9
:10255000C0E9031241618161C1610162FEF78CFC37
:10256000002803D0BDE81040FEF7BCB910BD000044
:102570000054004094080020A086010010B586B0E9
:10258000002417480094019402940394049413497E
:102590000594016041F61F41C0E9011440F2E731A2
:1025A000C0E903148461FFF73FF908B1FEF79AF917
:1025B0004FF48050009069460948FFF7ADF908B123
:1025C000FEF790F9049404A905480594FFF7F8F87C
:1025D000002801D0FEF786F906B010BD00040040C7
:1025E000E80800200C4810B50A4901604FF4165164
:1025F0004160002181600C22C160C0E90412816148
:10260000C161FFF753FC002803D0BDE81040FEF77E
:1026100069B910BD00380140300900200C4810B5E0
:102620000A4901604FF461414160002181600C2240
:10263000C160C0E904128161C161FFF737FC002865
:1026400003D0BDE81040FEF74DB910BD0044004076
:10265000780900200C4810B50A4901604FF4165162
:102660004160002181600C22C160C0E904128161D7
:10267000C161FFF71BFC002803D0BDE81040FEF746
:1026800031B910BD00480040C009002001B5FF234A
:10269000012269460348FFF715FD002800D00120FC
:1026A00008BD000078090020FEE7FEE7002000F0EA
:1026B0001DB870B50446861C14E004F1B000C0B229
:1026C00000F0BCFE002000F0B9FE102000F0B6FEC5
:1026D0000025002000F0C4FE6D1CEDB2802DF8D363
:1026E000641CE4B2B442E8D370BD000070B5064685
:1026F0005FF0000404F1B000C0B200F09FFE0020C3
:1027000000F09CFE102000F099FE0025304600F0FD
:10271000A7FE6D1CEDB2802DF8D3641CE4B2082C2A
:10272000E8D370BD10B56420FEF7E2F9AE2000F0EA
:1027300085FE202000F082FE102000F07FFEB020F9
:1027400000F07CFEC82000F079FE002000F076FE4C
:10275000102000F073FE402000F070FE812000F099
:102760006DFEFF2000F06AFEA12000F067FEA620AB
:1027700000F064FEA82000F061FE3F2000F05EFE45
:10278000A42000F05BFED32000F058FE002000F0F3
:1027900055FED52000F052FEF02000F04FFED9206B
:1027A00000F04CFE222000F049FEDA2000F046FE48
:1027B000122000F043FEDB2000F040FE202000F05D
:1027C0003DFE8D2000F03AFE142000F037FEAF20D1
:1027D00000F034FEBDE810400020FFF787BF10B5C1
:1027E0000446B031C8B200F029FE102040EA1410AF
:1027F00000F024FE04F00F00BDE8104040F001009E
:1028000000F01CBE2DE9F0410F4680460025540122
:10281000FFF7E5FF0C4E305D00F022FE6D1CEDB2BF
:10282000641C102DF7D37F1CF9B24046FFF7D7FF89
:102830000025305D00F014FE6D1CEDB2641C102DFF
:10284000F7D3BDE8F0810000420000202DE9F041FF
:10285000203A00240D468046D6B27F2803D90020B6
:102860008D1C8046EDB2102B29460FD0FFF7B7FF25
:10287000164906EB460001EB4005285D00F0F0FD2F
:10288000641CE4B2062CF8D3BDE8F081FFF7A7FF83
:102890000F4F00BF04EB0610385C00F0E1FD641C34
:1028A000E4B2082CF6D36D1CE9B24046FFF797FF5F
:1028B0005FF0000404EB06103844007A00F0D0FD0D
:1028C000641CE4B2082CF5D3DEE70000E2560008F1
:1028D0000A5900082DE9F05F0026DDF828901D4612
:1028E00092468B46804634464FEA590723E0281B20
:1028F000401EC1B20A2002F02CFDBAFBF0F00A2102
:10290000B0FBF1F201FB120026B9691E8C4201DA1C
:1029100038B101263030C2B207FB0480C0B24B464A
:1029200004E007FB0480C0B24B4620225946FFF763
:102930008DFF641CE4B2AC42D9D3BDE8F09F000027
:102940002DE9F047002591468A460446012B22D006
:10295000DFF8BC80022B24D155E02038C7B27E2C92
:1029600004D90AF10100002400F0FF0A5146204674
:10297000FFF735FF07EB4700002608EB4007B85D7F
:1029800000F06EFD761CF6B2062EF8D3A41D6D1C69
:10299000E4B2EDB201E0DFF87C8019F80500002810
:1029A000DBD1BDE8F0872038C7B2782C04D90AF112
:1029B0000100002400F0FF0A51462046FFF70FFFF8
:1029C0005FF0000606EB071118F8010000F048FD63
:1029D000761CF6B2082EF5D30AF10100C1B22046EA
:1029E000FFF7FDFE5FF0000606EB071101EB0800A4
:1029F000007A00F035FD761CF6B2082EF4D30834C8
:102A00006D1CE4B2EDB219F805000028CBD1C8E77F
:102A10000A590008E256000870B50C46054600F059
:102A200081F900F05DF90120FFF730FE072000F08A
:102A300089F90C20FFF72AFE280AFFF727FEE8B2E3
:102A4000FFF724FE200AFFF721FEE0B2FFF71EFE8B
:102A5000E8B200EB152000EB1420E1B2084414307A
:102A600000F056F94FF4FA60FFF7EAFC08B1407A3B
:102A700070BDFF2070BD10B5044600F053F900F0A2
:102A80002FF90120FFF702FE042000F05BF902207D
:102A9000FFF7FCFD2046FFF7F9FDE01D00F038F9D7
:102AA0004FF4FA60FFF7CCFC08B1407A10BDFF206C
:102AB00010BD10B500F036F900F012F90120FFF753
:102AC000E5FD032000F03EF90120FFF7DFFD0520C2
:102AD00000F01EF94FF4FA60FFF7B2FC08B1407A3B
:102AE00010BDFF2010BD2DE9F0411E4614460D46D5
:102AF000074600F017F900F0F3F80120FFF7C6FDD4
:102B0000082000F01FF91B20FFF7C0FD3846FFF733
:102B1000BDFD280AFFF7BAFDE8B2FFF7B7FD200AAE
:102B2000FFF7B4FDE0B2FFF7B1FD07EB1520E9B206
:102B3000084400EB1420E1B20844243000F0E8F827
:102B40004FF4FA60FFF77CFC58B1C27A837A417A7D
:102B500002EB03223280427B007B02EB002070807C
:102B600000E0FF210846BDE8F08110B500F0DAF87A
:102B700000F0B6F80120FFF789FD032000F0E2F82D
:102B80000320FFF783FD072000F0C2F84FF4FA603E
:102B9000FFF756FC08B1407A10BDFF2010BD10B5FC
:102BA00000F0C0F800F09CF80120FFF76FFD032053
:102BB00000F0C8F80520FFF769FD092000F0A8F82B
:102BC0004FF4FA60FFF73CFC08B1407A10BDFF20DB
:102BD00010BD00000B4800B5816985B041F00401CB
:102BE00081618069694600F0040004900120009032
:102BF00000200190022002900348FEF73DF805B046
:102C000000BD0000001002400008014070B50C46F5
:102C1000054600F087F800F063F80120FFF736FD65
:102C2000062000F08FF80620FFF730FD2846FFF75A
:102C30002DFD200AFFF72AFDE0B2FFF727FD05EB87
:102C40001420E1B208440D3000F062F84FF4FA604D
:102C5000FFF7F6FB08B1407A70BDFF2070BD7047EA
:102C6000704700002DE9F041074600248EB08846E9
:102C700026460846FDF79EFAC5B2FD208DF80000F5
:102C800000208DF80100E81C8DF8020001208DF86D
:102C9000030000EB07108DF804006F46B85D761C4A
:102CA0004440052EFAD3002004E000BF18F80010BD
:102CB0004C40401CA842F9D32A464146781DFDF7F6
:102CC00043FA781942F210734471AA1D6946034809
:102CD000FFF7F8F90EB0BDE8F0810000C009002050
:102CE00010B50A4C6068000EFFF7D0FC6068C0F3B6
:102CF0000740FFF7CBFCA088C0F30720FFF7C6FC16
:102D00002079BDE81040FFF7C1BC00001000002092
:102D100010B50446000AFFF7B9FCE0B2BDE8104068
:102D2000FFF7B4BC10B54FF4C8710548FDF725FA9C
:102D3000EF20FFF7ABFCBDE810400120FFF7A6BC79
:102D4000280A002010B50446C0F30720FFF79EFCB8
:102D5000E0B2BDE81040FFF799BC000010B5FDF7E8
:102D6000A3FC0146BDE8104001A000F08BBB0000B1
:102D700025730D0A000000002DE9F041384D288828
:102D8000374E4AF2A554374F1A36A0423AD00121A5
:102D9000284601F0E7FBFDF75BFF224600232946AA
:102DA0000120FDF715FF012401E0072C03D205EBFC
:102DB0004401224613E0E01F062806D207EB440038
:102DC00005EB440130F80E2C09E00D2C12D0A4F1D3
:102DD0000E00052807D200BF05EB440100220023A6
:102DE0000120FDF7F5FE641C112CDED3BDE8F04197
:102DF000FDF7E4BE0122314600231046FDF7E8FE50
:102E00000E24E9E7174A01200C3A01E0072806D210
:102E100035F8101002EB400323F8021C15E0C11F27
:102E2000062906D235F8101007EB400323F80E1CD4
:102E30000BE00D280FD00E2807D335F81010094BE2
:102E4000123B03EB400323F81C1C401C80B21128EA
:102E5000DCD3BDE8F0813188034B1980F5E7000031
:102E600000F00008360000201200002070B5204D50
:102E70000121284601F076FBFDF7EAFE4AF2A55251
:102E8000002329460120FDF7A3FE0124194E01E08D
:102E9000072C04D206EB440030F8022C15E0E01FAA
:102EA000062806D213480C3000EB440030F80E2CF4
:102EB0000BE00D2C17D0A4F10E0005280BD20D4805
:102EC000801F00EB440030F81C2C05EB440100236C
:102ED0000120FDF77DFE641CA4B2112CD8D3BDE8FF
:102EE0007040FDF76BBE044801491A310288EEE7D5
:102EF00000F000082A00002012000020FEF746B96A
:102F000030B58FB028216846FDF737F914210AA89B
:102F1000FDF733F901210804CDE9001000240294E3
:102F200002250491CDE907504FF4E010099068465E
:102F3000FEF7A0FA08B172B6FEE70F20CDE90A0548
:102F40004FF48060CDE90C4002210AA80E94FEF7F0
:102F5000B5F9002801D072B6FEE70FB030BD70475A
:102F60000148FEF748BD0000E8080020F0B50268FF
:102F7000164B174C174D4FF08047984205D0B8427A
:102F800003D0A04201D0A84203D122F070064A68C3
:102F90003243984205D0B84203D0A04201D0A842A3
:102FA00003D122F44074CA6822434C6922F08002A3
:102FB000224302608A68C2620A688262984201D132
:102FC0000969016301214161F0BD0000002C01404D
:102FD000000400400008004010B5846842EA032263
:102FE00024F47F440A432243826010BD826822F0A9
:102FF00070020A4342F007018160704710B5036A0E
:10300000046A24F001040462846924F0F00444EAB0
:10301000021423F00A020A438461026210BD10B553
:10302000036A046A24F010040462846923F0A00394
:1030300024F4704444EA023243EA011182610162DD
:1030400010BD10B5406A0021C185C184FEF7F6FDB0
:1030500010BD01680C3151E8002F22F4907241E854
:103060000023002BF5D10168143151E8002F22F024
:10307000010241E80023002BF5D1016B012909D1A0
:1030800001680C3151E8002F22F0100241E80023C2
:10309000002BF5D1202180F84210002101637047F8
:1030A00008B590F84210222901D0022008BD82689C
:1030B0004FF480539A4201D1016921B1816A9A4249
:1030C0001BD04AB10AE00268816A5268C2F3080262
:1030D0000A80816A891C08E0026972B1026852683C
:1030E00002F07F020A70816A491C8162C18D491E0B
:1030F0000904090CC18503D01BE002685268F1E79E
:103100000168CA6822F02002CA600168CA6822F415
:103110008072CA6001684A6922F001024A61202176
:1031200080F8421000214163026B012A03D0FEF7B0
:1031300097FF002008BD016301680C3151E8002FA2
:1031400022F0100241E80023002BF5D101680A6843
:10315000D20602D50A6849680091818DFEF76DFD9F
:10316000E7E7000070B5044600680169E26821F4F1
:103170004051114301612169A06808436169084316
:103180002168CA6841F20C639A430243CA6020680E
:103190004169A26921F44071114341611E492068CF
:1031A000884202D1FEF730F901E0FEF71DF900EB8D
:1031B000C00101EB0012606864218000B2FBF0F3F3
:1031C000B3FBF1F36FF018067343B2FBF0F5B2FBFB
:1031D000F0F605EB8305322303EB0515B5FBF1F59E
:1031E000B6FBF1F605F0F00505EB0615B2FBF0F6BF
:1031F000B2FBF0F0B0FBF1F06FF01802504306EBB9
:10320000800003EB0010B0FBF1F0216800F00F002C
:103210002844886070BD00000038014081628285CA
:10322000C28500214164222180F84210016921B148
:103230000168CA6842F48072CA6001684A6942F053
:1032400001024A610068C16841F02001C1600020AC
:1032500070472DE9F041984617460E460446069DF4
:1032600027E0681C25D02DB1FDF700FEA0EB08007B
:10327000A8421ED920680C3050E8001F21F4D071FC
:1032800040E80012002AF5D12068143050E8001FF1
:1032900021F0010140E80012002AF5D1202084F835
:1032A000410084F84200002084F840000320BDE87B
:1032B000F0812068006836EA000004D00020B8429F
:1032C000CFD00020F3E70120F9E700000148FEF726
:1032D000B7BC0000300900200B4982B008680268C2
:1032E000D243D2060CD40268406800904FF4C870F4
:1032F000C8850648886206490120087002B07047F8
:10330000014802B0FEF79CBC78090020280A002082
:10331000100000200148FEF793BC0000C009002007
:1033200010B50C2202210020FFF76CFA06220221C0
:103330001020FFF767FA122202212020FFF762FA1D
:10334000132202213020FFF75DFA162202214020CD
:10335000FFF758FA092202215020FFF753FA1422EE
:1033600002216020FFF74EFA152202217020FFF79C
:1033700049FA1D48C178807901432ED023220021CB
:103380001020FFF73FFA242200212020FFF73AFA0D
:10339000322200213020FFF735FA38220021402068
:1033A000FFF730FA392200215020FFF72BFA2E22A6
:1033B00006210020FFF726FA2F2206211020FFF712
:1033C00021FA302206216020FFF71CFA3122062163
:1033D000BDE810407020FFF715BAFDF70FFB002085
:1033E000FFF767F9E3E700004408002010B50C225E
:1033F00002210020FFF706FA062202211020FFF723
:1034000001FA102202212020FFF7FCF911220221EB
:103410003020FFF7F7F9172206215A20FFF7F2F9BB
:10342000182206216A20FFF7EDF902480021C17039
:10343000C17210BD44080020FEE7000001B584B051
:103440000121642204A88DE807000B4600227821A0
:103450000248FDF7D5FD05B000BD0000940800202E
:1034600001B584B00121642204A88DE807000B4651
:10347000402278210248FDF7C3FD05B000BD0000E1
:10348000940800200FB4054B10B503A9044A029814
:1034900000F028F810BC5DF814FB0000454500085A
:1034A000900800200907090E002804DB00F1E02045
:1034B00080F80014704700F00F0000F1E02080F861
:1034C000141D704702E008C8121F08C1002AFAD173
:1034D00070477047002001E001C1121F002AFBD194
:1034E000704700002DE9FF4F8DB09B460F46044604
:1034F000002606E025280BD05A460F999047641CF9
:10350000761C20780028F5D111B03046BDE8F08F48
:103510000025A8460122984900E0054314F8013F20
:10352000203B02FA03F00842F7D120782E2817D169
:1035300014F8010F45F004052A280ED06FF02F0271
:103540002078A0F1300109290AD808EB880102EBA4
:10355000410100EB0108641CF2E757F8048B641C7E
:1035600020786C280DD004DC4C2812D06A2811D1A8
:1035700004E074280DD07A280CD10AE045F4001537
:1035800007E0617845F48015814202D1641C05F59D
:103590008015641C2078692844D008DC0028B3D04A
:1035A000582867D063280FD0642808D13AE07028E3
:1035B00065D0732812D075285AD078285AD05A4628
:1035C0000F999047761CD5E017F8040B8DF8000092
:1035D00000208DF80100E946012003E057F8049B24
:1035E0004FF0FF3069074FF0000501D40AE06D1C71
:1035F00045450DDA8542FADB19F805100029F6D1A8
:1036000006E06D1C8542FCDB19F805100029F8D195
:103610002E4404E019F8010B5A460F9990476D1E8D
:10362000F8D2A7E00A200021CDE90801C5F3025035
:1036300002280CD001CFC117021E71F100020CDA72
:103640000023D0EB030063EB01012D2208E0FF1DF6
:1036500027F00707F7E80201EEE72A0504D52B2239
:103660008DF8282001223CE0EA073AD02022F7E733
:103670000A2000E010200021CDE9080107E0102019
:10368000002145F00405CDE908014FF00808C5F315
:103690000250022810D001CF00214FF0000A2A0763
:1036A00020D52278702A0DD0DDE908C38CF0100CEB
:1036B0005CEA030C0CD015E0FF1D27F00707F7E8C4
:1036C0000201EAE740228DF828204FF0010A0CE0C1
:1036D00050EA010306D030238DF828308DF82920D8
:1036E000022292462278582A04D024A20DF1200901
:1036F0000B9209E026A2F9E7DDE90823FCF76EFD4D
:103700000B9B9B5C09F8013D50EA0102F4D1ADEB43
:10371000090020300890680701D44FF0010808998B
:10372000884503DD0898A8EB000000E000208046F3
:10373000002506E00AA85A46405D0F9990476D1C87
:10374000761C5545F6DB04E030205A460F99904729
:10375000761CB8F10001A8F10108F5DC05E019F8C4
:10376000010B5A460F999047761C0899481E0890FD
:103770000029F4DC641CC4E609280100303132332E
:10378000343536373839616263646566000000009D
:103790003031323334353637383941424344454687
:1037A0000000000010B51E2202211020FFF72AF8A9
:1037B0001F2202212020FFF725F8122202213020AB
:1037C000FFF720F813220221BDE810404020FFF748
:1037D00019B810B5002109220846FFF713F827226F
:1037E00000211020FFF70EF8282200212020FFF7EB
:1037F00009F8252200213020FFF704F826220021B5
:103800004020FEF7FFFF1E2202211020FEF7FAFFE4
:103810001F2202212020FEF7F5FF2922022130205D
:10382000FEF7F0FF232202214020FEF7EBFF2422C7
:1038300002215020FEF7E6FF2C2206215A20FEF737
:10384000E1FF2D2206216A20FEF7DCFFBDE81040D3
:10385000FCF746BD10B51E2202211020FEF7D2FF54
:103860001F2202212020FEF7CDFF1022022130204E
:10387000FEF7C8FF11220221BDE810404020FEF7EC
:10388000C1BF10B51B2200210820FEF7BBFF1C2280
:1038900000211820FEF7B6FF1D2200212820FEF788
:1038A000B1FF0D2200213820FEF7ACFF0E220021CF
:1038B0004820FEF7A7FF3A2200215820FEF7A2FF7A
:1038C0003B2200216820FEF79DFF092202213020C3
:1038D000FEF798FF142202214020FEF793FF1522E5
:1038E00002215020FEF78EFF2E2206210020FEF737
:1038F00089FF2F2206211020FEF784FF2C220621AB
:103900005A20FEF77FFF2D220621BDE810406A20D5
:10391000FEF778BF10B5092200212020FEF772FFC4
:103920000A2200213020FEF76DFF0B2200214020EB
:10393000FEF768FF1B2202210020FEF763FF1C2216
:1039400002211020FEF75EFF1D2202212020FEF73B
:1039500059FF0D2202213020FEF754FF0E220221D2
:103960004020FEF74FFF0F2202215020FEF74AFFB2
:103970002E2206210020FEF745FF2F2206211020CF
:10398000FEF740FF2C2206215A20FEF73BFF2D2296
:103990000621BDE810406A20FEF734BF70B50C2246
:1039A00019491A48FCF70DFC194C4FF47A7600259A
:1039B000B8B1FEF77BFE17A10220FFF753F930469E
:1039C000FDF796F8207A401CC0B22072032817D069
:1039D000132020710D48A5610C38C5600561456153
:1039E00070BDFEF763FE0320207111A10220FFF7D6
:1039F00039F9A5703046FDF77BF82572A571E9E726
:103A000001206072E6E7000036000020D40B0020A1
:103A1000440800205B76375D5B6D315D5B74355D1E
:103A2000B9DCC0EDD4B1C3DCC2EBB4EDCEF3000021
:103A30005B76375D5B6D315D5B74355DBDF8C8EB02
:103A4000B9DCC0EDD4B1C4A3CABD000010B55F4C51
:103A5000A07800287ED00021102320220846FEF7FF
:103A6000F5FE192200211420FEF7CCFE1A220021B7
:103A70002420FEF7C7FE0C2200213420FEF7C2FEF0
:103A8000062200214420FEF7BDFE0D220021542015
:103A9000FEF7B8FE0E2200216420FEF7B3FEA078E8
:103AA000012879D01023202202210020FEF7CEFE2B
:103AB000192202211020FEF7A5FE1A220221202041
:103AC000FEF7A0FE1B2202213020FEF79BFE1C22E7
:103AD00002214020FEF796FE1D2202215020FEF713
:103AE00091FE0D2202216020FEF78CFE0E220221A3
:103AF0007020FEF787FEA07802285AD010232022DB
:103B000004210020FEF7A2FE1E2204211020FEF751
:103B100079FE1F2204212020FEF774FE23220421B7
:103B20003020FEF76FFE242204214020FEF76AFEBB
:103B3000A078032843D01023202206210020FEF77E
:103B400085FE202206211020FEF75CFE21220621A0
:103B5000202000E021E0FEF755FE23220621302040
:103B6000FEF750FE242206214020FEF74BFE2C22B9
:103B700006215A20FEF746FE2D2206216A20FEF776
:103B800041FE13490020A061C8600861486160617E
:103B900008604860886010BD05E0002122220846C8
:103BA000FEF730FE5DE7222202210020FEF72AFE0A
:103BB0007EE7222204210020FEF724FEA4E7222231
:103BC00006210020FEF71EFEBBE70000440800208F
:103BD000C80B00202DE9F05F0025032000F075FAE6
:103BE0004FF00108774EA9464FF4004ADFF8D8B1EC
:103BF000764C0AE0032000F068FA35B1012D07D0B9
:103C0000022D09D0032D0DD111E00022514606E00E
:103C100000224FF4804102E000224FF40051584648
:103C2000FDF71FF90027052000F04FFA0EE00022F3
:103C30004FF48051F3E7052000F047FA37B1012F28
:103C400017D0022F28D0032F42D138E01021304660
:103C5000FDF702F904EB850110B181F8009037E01F
:103C600081F8008010213046FDF7F6F80028F9D0E1
:103C70002EE020213046FDF7EFF804EB850110B16E
:103C800081F8019024E081F8018020213046FDF781
:103C9000E3F80028F9D01BE040213046FDF7DCF8BE
:103CA00004EB850110B181F8029011E081F80280E7
:103CB00040213046FDF7D0F80028F9D008E08021F7
:103CC0003046FDF7C9F804EB850168B181F803902F
:103CD0007F1CFFB2042FAED37DB1012D10D0022D79
:103CE0004BD0032D11D14BE081F803808021304669
:103CF000FDF7B2F80028F9D0EAE70122514601E0C9
:103D0000012291035846FDF7ACF86D1CEDB2042D6D
:103D1000FFF470AF2078012835D06078012834D0C6
:103D2000A078012833D0E078012832D0207901280A
:103D300031D06079012830D0A07901282FD0E079E6
:103D400001282ED0207A01282DD0607A01282CD08D
:103D5000A07A01282BD0E07A01282AD0207B0128E4
:103D600009D0607B012826D0A07B012825D0E07BEC
:103D7000012824D00020BDE8F09F01225103C1E7B3
:103D800001221103BEE70D20F5E70E20F3E70F2017
:103D9000F1E71020EFE70920EDE70A20EBE70B2021
:103DA000E9E70C20E7E70520E5E70620E3E7072041
:103DB000E1E70820DFE70220DDE70320DBE704205E
:103DC000D9E7000000080140000C0140B80B0020BA
:103DD00010B5092200211020FEF714FD0A2200214F
:103DE0002020FEF70FFD0B2200213020FEF70AFDF8
:103DF0002B2200214020FEF705FD29220021502022
:103E0000FEF700FD1B2202210020FEF7FBFC1C2216
:103E100002211020FEF7F6FC1D2202212020FEF7D1
:103E2000F1FC0D2202213020FEF7ECFC0E220221D3
:103E30004020FEF7E7FC0F2202215020FEF7E2FCB3
:103E40002C2206215A20FEF7DDFC2D2206216A20B5
:103E5000FEF7D8FC2E2206210020FEF7D3FC2F22ED
:103E60000621BDE810401020FEF7CCBC70B5104C08
:103E7000104E00256078012802D002280ED012E0F2
:103E8000FEF714FC082020710B48B1690160F1694C
:103E90004160316A8160FEF7E9FF03E0FEF706FC4E
:103EA0000A2020712570E581B561F561356270BD2C
:103EB00044080020C80B00203600002010B5002167
:103EC00009220846FEF79EFC0A2200211020FEF778
:103ED00099FC0B2200212020FEF794FC2B220021CC
:103EE0003020FEF78FFC292200214020FEF78AFCBB
:103EF0000C2202211020FEF785FC06220221202040
:103F0000FEF780FC0D2202213020FEF77BFC0E2202
:103F100002214020FEF776FC0F2202215020FEF7FE
:103F200071FC2C2206215A20FEF76CFC2D22062162
:103F30006A20FEF767FC2E2206210020FEF762FCB5
:103F40002F220621BDE810401020FEF75BBC0000C8
:103F500070B5104C104E00252078012802D00228A0
:103F60000ED012E0FEF7A2FB082020710B48716A08
:103F70000160B16A4160F16A8160FEF777FF03E09A
:103F8000FEF794FB09202071257025827562B562C9
:103F9000F56270BD44080020C80B00202A000020F4
:103FA00010B5192202210020FEF72CFC1A22022152
:103FB0001020FEF727FC122202212020FEF722FC0F
:103FC000132202213020FEF71DFC16220221402080
:103FD000FEF718FC092202215020FEF713FC1422E0
:103FE00002216020FEF70EFC152202217020FEF750
:103FF00009FC2E2206210020FEF704FC2F220621B8
:104000001020FEF7FFFB2C2206215A20FEF7FAFBB8
:104010002D220621BDE810406A20FEF7F3BB10B543
:10402000192202210020FEF7EDFB1A2202211020A6
:10403000FEF7E8FB102202212020FEF7E3FB11220D
:104040000221BDE810403020FEF7DCBB10B519227C
:1040500002210020FEF7D6FB1A2202211020FEF7D3
:10406000D1FB122202212020FEF7CCFB13220221D9
:104070003020FEF7C7FB162202214020FEF7C2FBCC
:10408000092202215020FEF7BDFB142202216020EC
:10409000FEF7B8FB152202216A20FEF7B3FB2E22A1
:1040A00006210020FEF7AEFB2F2206211020FEF78E
:1040B000A9FB2C2206215A20FEF7A4FB2D22062163
:1040C000BDE810406A20FEF79DBB70B50546002490
:1040D0004FF47A7603E0304600F004F8641CAC42FA
:1040E000F9D370BD71B54FF461754FF0E023104EF8
:1040F000009819E02C46A04200D804469869614215
:1041000001EBC10110EBC10105D49A69824208DAC2
:104110008A42FADA05E08A1999698142FCDD914206
:10412000FADC0098001B00900028E3D178BD000065
:104130004019010010B5202202211020FEF762FB79
:10414000212202212020FEF75DFB122202213020D5
:10415000FEF758FB132202214020FEF753FB0223F7
:104160000FA204211020FEF7EBFB372204212020B0
:10417000FEF748FB1E2204213020FEF743FB1F22DE
:1041800004214020FEF73EFB232204215020FEF7AD
:1041900039FB24220421BDE810406020FEF732BB29
:1041A0004944000038B5002109220846FEF72AFBE1
:1041B0000A2200211020FEF725FB0B2200212020DF
:1041C000FEF720FB252200213020FEF71BFB2622D4
:1041D00000214020FEF716FB202200215020FEF790
:1041E00011FB212200216020FEF70CFB2922002177
:1041F0007020FEF707FB232202211020FEF702FBAE
:10420000242202212020FEF7FDFA022317A21946DC
:104210003020FEF795FB022310241A461946402051
:104220000094FEF757FB10232D2202215020FEF7A9
:104230000DFB01230422022158200094FEF74AFBC3
:104240002C2206215A20FEF7DDFA2D2206216A20B3
:10425000FEF7D8FA302206210020FEF7D3FABDE897
:104260003840312206211020FEF7CCBA4944000024
:1042700010B5202202211020FEF7C4FA21220221CB
:104280002020FEF7BFFA102202213020FEF7BAFAF2
:1042900011220221BDE810404020FEF7B3BA000011
:1042A00070B50C2216491748FBF78BFF164C0125F9
:1042B0004FF47A7688B1FEF7F9F914A10020FEF7E1
:1042C000D1FC3046FCF714FC6079401CC0B2607130
:1042D000032810D00220207170BDFEF7E7F9257188
:1042E00010A10220FEF7BEFC3046FCF701FC0020C6
:1042F0006071A07170BDA571FEF7D8F91120EAE7D1
:104300002A000020C80B0020440800205B76375D9F
:104310005B6D315D5B74355DBDE2CBF8CAA7B0DC87
:10432000000000005B76375D5B6D315D5B74355D71
:10433000BFAACBF8B3C9B9A60000000010B520226F
:1043400002211020FEF75EFA212202212020FEF732
:1043500059FA122202213020FEF754FA13220221C8
:104360004020FEF74FFA372204211020FEF74AFAC8
:104370001E2204212020FEF745FA1F2204213020AE
:10438000FEF740FA232204214020FEF73BFA2422C4
:104390000421BDE810405020FEF734BA08B532229F
:1043A00002211020FEF72EFA1E2202212020FEF705
:1043B00029FA1F2202213020FEF724FA10200223BE
:1043C0000090032219464020FEF784FA332202218E
:1043D0005020FEF717FA342204212020FEF712FAAB
:1043E000352204213020FEF70DFA36220421402028
:1043F000FEF708FA1E2204215020FEF703FA1F22BE
:104400000421BDE808406020FEF7FCB938B51B2246
:1044100000210820FEF7F6F91C2200211820FEF7E3
:10442000F1F91D2200212820FEF7ECF90D220021D0
:104430003820FEF7E7F90E2200214820FEF7E2F9C6
:104440003A2200215820FEF7DDF93B2200216820A6
:10445000FEF7D8F91024012303220221082000943A
:10446000FEF738FA3C2202211020FEF7CBF9092290
:1044700002212020FEF7C6F90F48009402230068AD
:104480001946C0F11E023020FEF724FA3D22022117
:104490004020FEF7B7F93E2202215020FEF7B2F984
:1044A000362202216020FEF7ADF9BDE83840152222
:1044B00002217020FEF7A6B98C08002038B50D2225
:1044C00000211020FEF79EF90E2200212020FEF789
:1044D00099F93A2200213020FEF794F93B2200217D
:1044E0004020FEF78FF910240123032200215020E1
:1044F0000094FEF7EFF93C2200215820FEF782F9E4
:104500000F480094022300681946C0F11E021020D3
:10451000FEF7E0F93D2202212020FEF773F93E224A
:1045200002213020FEF76EF9362202214020FEF7EC
:1045300069F9BDE83840152202215020FEF762B922
:104540008408002038B504468DF800004FF6FF734C
:10455000012269460248FDF7B5FD204638BD00003E
:104560003009002030B585B00C460546FCF770FBDD
:1045700000200090CDE90105CDE9034072B604A901
:104580006846FCF7C7FA62B6FCF718FB05B030BD09
:104590002DE9F84FF9480168F94FBA6A891A1429C8
:1045A00067D30068B862FFF715FB3862B87A002459
:1045B000012804D1FEF77AF812203871BC72F8791C
:1045C000012803D1FEF772F83C71FC71386A0126AC
:1045D00058B13C73B87901284BD0DFF8A883EA4D75
:1045E00098F80000012802D025E03E73F2E7387900
:1045F000F0B3FEF75BF8E5A10020FEF733FB3C715A
:104600007C61BC6188F80040BC707C71BC71FC723C
:10461000FC703C82FC812C606C60AC60EC602C61B6
:104620006C616C62AC62EC62AC61EC612C624FF468
:104630007A70FCF75DFA396AB84671B198F80400EF
:10464000474608282AD00B2828D00D2826D00E2827
:1046500041D00F283FD010283DD0DFF82CA31020E8
:104660004FF0020B0AF10C07DFF83493112901E037
:104670000CE0FCE361D2DFE801F060454FA1F9F8FE
:10468000F7F6F5F4F3F2F1F0EFEEED000420FEF7AB
:1046900010F87C612C606C60AC60CCE7BC70FEF7FD
:1046A00005F8BAA10020FEF7DDFA3C717C71BC71FF
:1046B000FC72FC703C82FC817C61BC612C606C6093
:1046C000AC60EC602C616C616C62AC62EC62AC6101
:1046D000EC612C62F3E3BC70FDF7E8FF0320387156
:1046E0007C71BC71FC72FC70BC613C82FC817C61A1
:1046F0002C606C60AC60EC602C616C616C62AC62D4
:10470000EC6217E398F80400012816D1D8F81400D9
:10471000FF222AF8102020E098F8041071B1022935
:104720000CD012291DD013291BD0042928D0092907
:1047300026D0052933D00A2931D01EE2D8F814102A
:104740000629FAD0009000EB0110C0B20223072224
:104750000421FEF7BFF80721D0E3401CC8F814007D
:104760000BE2D8F818100629E7D0009000EB0110F2
:10477000C0B2022307220421FEF7ACF80721CCE3E4
:10478000B8F810100629D8D2009000EB0110C0B282
:10479000022307220421FEF79DF80721CCE3B8F895
:1047A0000E100629C9D2009000EB0110C0B20223FE
:1047B00007220421FEF78EF80721CCE398F80410B5
:1047C00081B102290ED012291BD0132919D0072933
:1047D0002AD004292FD009292DD005294BD00A2908
:1047E00049D0CAE1D8F814100629A6D0009000EBF1
:1047F00001100422C0B202231146FEF76BF8042117
:10480000CCE3D8F81810062997D0009000EB0110DF
:104810000422C0B202231146FEF75CF80421D0E363
:10482000401CC8F81800A8E10421A9F800100223D0
:104830000A460090CBE1B8F81010062990D20090FB
:1048400000EB01100422C0B202231146FEF742F829
:104850000421D0E3FEE3FEE3FEE3E7E37CE32FE3A2
:10486000B1E2E0E176E127E1E7E075E016E0401C27
:10487000A8F8100081E1B8F80E100629B1D2009016
:1048800000EB01100422C0B202231146FEF722F809
:104890000421C4E3401CA8F80E006EE198F804104F
:1048A00071B102290CD012291CD013291AD0042965
:1048B0002AD0092928D005293AD00A2938D05CE124
:1048C000D8F8141006298CD0009000EB0110C0B26B
:1048D000022301220421FDF7FDFFD8F814002AF875
:1048E00010603AE7D8F8181006299CD0009000EB29
:1048F0000110C0B2022301220421FDF7EBFFD8F81A
:10490000180027F810608BE7B8F8101006298AD233
:10491000009000EB0110C0B2022301220421FDF738
:10492000D9FF1949B8F81000243121F810609EE72A
:10493000B8F80E1006299DD2009000EB0110C0B20D
:10494000022301220421FDF7C5FF0F49B8F80E002C
:10495000183121F810609DE798F8041011B302296E
:1049600020D0122930D013292ED004293ED0092975
:104970003CD005294DD00A294BD0FEE0080000208C
:104980004408002074080020C80B00205B76375DC7
:104990005B6D315D5B74355DD2D1C9CFCBF8000062
:1049A00022000020D8F81410062988D0009000EBCF
:1049B0000110C0B2022300220421FDF78BFFD8F8BA
:1049C00014002AF81040C8E6D8F818100629D4D0E8
:1049D000009000EB0110C0B2022300220421FDF779
:1049E00079FFD8F8180027F8104019E7B8F8101028
:1049F0000629C2D2009000EB0110C0B202230022AF
:104A00000421FDF767FFF849B8F8100021F81040BD
:104A10002DE7B8F80E100629AFD2009000EB011078
:104A2000C0B2022300220421FDF754FFEE49B8F87A
:104A30000E000C3921F810402CE798F804100825D6
:104A400071B102290CD0122915D0132913D00429D1
:104A50001CD009291AD0052923D00A2921D0C0E366
:104A6000D8F81410062988D0009000EB011002231A
:104A7000C0B20822E1E1D8F818100629EFD0009062
:104A800000EB01100223C0B20822E8E1B8F81010D0
:104A90000629E4D2009000EB01100223C0B20822E4
:104AA000F0E1B8F80E100629D9D2009000EB011001
:104AB0000223C0B20822F8E198F8041071B102296B
:104AC0000CD0122919D0132917D0042924D0092970
:104AD00022D005292FD00A292DD082E3D8F814102E
:104AE0000629BCD0009000EB0110C0B202230522C1
:104AF0000421FDF7EFFE052150E2D8F81810062931
:104B0000ADD0009000EB0110C0B2022305220421B9
:104B1000FDF7E0FE052154E2B8F8101006299ED2F8
:104B2000009000EB0110C0B2022305220421FDF722
:104B3000D1FE05215FE2B8F80E1006298FD2009051
:104B400000EB0110C0B2022305220421FDF7C2FED2
:104B5000052164E298F8041081B102290ED01229CF
:104B60001ED013291CD007292CD0042934D00929A0
:104B700032D0052943D00A2941D032E3D8F81410A5
:104B80000629AAD0009000EB01100223C0B21A46F9
:104B90000421FDF79FFED8F814002AF810B0DCE5D8
:104BA000D8F81810062998D0009000EB01100223C5
:104BB000C0B21A460421FDF78DFED8F8180027F878
:104BC00010B02DE6A9F800B002231A460090042187
:104BD0003020FDF77FFE04E3B8F810100629CCD290
:104BE000009000EB01100223C0B21A460421FDF729
:104BF00071FE7D4AB8F8100022F810B037E6B8F818
:104C00000E100629B9D2009000EB01100223C0B2A9
:104C10001A460421FDF75EFE734AB8F80E000C3AFE
:104C200022F810B036E698F8040013271428A4D20E
:104C3000DFE800F00A300A4167764084406776403A
:104C4000404040404040BABAD8F81400062814D07A
:104C5000FDF72CFD65A10020FEF704F84FF47A70F3
:104C6000FBF746FF98F80500401CC0B288F8050025
:104C7000032805D088F804B009E0FFF711FB06E02F
:104C8000FDF714FD112088F8040088F80660C8F8C4
:104C900014400CE0D8F81400012808D1BAF800003C
:104CA000FF2804D1FDF702FD122088F804002C60D3
:104CB0006C60AC6095E298F8020038B1012809D028
:104CC000504D02280AD0032885D110E0FDF7EEFCF4
:104CD000042013E0FDF7EAFC05200FE0FDF7E6FCF9
:104CE0002888032801D30E2008E0062006E0FDF7FF
:104CF000DDFC288808B90F2000E0072088F80400B0
:104D00006FE2B8F81000062829D0A8F8104088F8FB
:104D100000B000BFFFF71CF96C62AC62EC6260E2AD
:104D2000B8F80E0006281FD0A8F80E4088F801B089
:104D3000FFF79CF8AC61EC612C6252E2B9F800001C
:104D4000801E022808D8FDF7B1FCB9F80000FBF777
:104D500013FCA9F8004044E2FDF7A8FCCDE788F871
:104D60000060A8F81040D5E788F80160A8F80E4068
:104D7000DEE700BFFDF79AFC23A10020FDF772FFDC
:104D80004FF47A70FBF7B4FE98F80800401CC0B2EC
:104D900088F8080003280ED088F80470C8F8184076
:104DA000EC602C616C611CE2D8F818000628E1D197
:104DB000FEF7F4FDF2E7FDF779FC142088F8040013
:104DC00088F80960EAE798F80410092551B3022928
:104DD00029D0122939D0132937D0042948D00929DC
:104DE00046D0052957D0FCE1EC0B00205B76375DFF
:104DF0005B6D315D5B74355DBDE2CBF8CAA7B0DC9D
:104E000000000000120000205B76375D5B6D315DB5
:104E10005B74355DB9DCC0EDD4B1C3DCC2EBB4ED7D
:104E2000CEF30000FFE7D8F81410062985D00090D3
:104E300000EB01100223C0B209220421FDF74AFD54
:104E4000D8F814002AF8105087E4D8F8181006296A
:104E500045D0009000EB01100223C0B209220421CA
:104E6000FDF738FDD8F8180027F81050D8E4BAE15B
:104E7000B8F81010062932D2009000EB011002237E
:104E8000C0B209220421FDF725FDD849B8F8100069
:104E900021F81050EBE4B8F80E1006291FD200904C
:104EA00000EB01100223C0B209220421FDF712FD1C
:104EB000CE49B8F80E000C3921F81050EAE436E17A
:104EC00098F8041061B102290AD0122917D01329C9
:104ED00015D0042922D0092920D005292DD080E120
:104EE000D8F8141006294AD0009000EB0110C0B287
:104EF000022306220421FDF7EDFC06214EE0D8F83E
:104F0000181006293BD0009000EB0110C0B202231C
:104F100006220421FDF7DEFC062152E0B8F810104D
:104F200006292CD2009000EB0110C0B20223062209
:104F30000421FDF7CFFC06215DE0B8F80E1006292C
:104F40001DD2009000EB0110C0B202230622042102
:104F5000FDF7C0FC062162E098F8041081B1022937
:104F60000ED012291FD013291DD007292ED00429B5
:104F700033D0092931D0052943D00A2941D030E165
:104F8000D8F81410062968D0009000EB0110C0B2C8
:104F9000022303220421FDF79DFC0321D8F814000D
:104FA0002AF810109DE4D8F81810062955D0009062
:104FB00000EB0110C0B2022303220421FDF78AFC9A
:104FC0000321D8F8180027F8101029E40321A9F8C4
:104FD000001002230A460090F9E5B8F810100629DF
:104FE0003BD2009000EB0110C0B202230322042147
:104FF000FDF770FC03217D4AB8F8100022F810106C
:1050000035E4B8F80E10062927D2009000EB011005
:10501000C0B2022303220421FDF75CFC0321734A82
:10502000B8F80E000C3A22F8101033E498F8040097
:10503000042817D0052815D0062813D0072811D02A
:10504000032820D012281ED013281CD0092835D0C0
:105050000A2803E0B5E0A5E06EE0AFE02ED001281D
:1050600046D0BEE0FDF722FB88F80240A8F81040C9
:10507000A8F80E406C62AC62EC62AC61EC612C6230
:10508000C8F814402FE0FDF711FB88F80240A8F89B
:105090001040A8F80E406C62AC62EC62AC61EC614E
:1050A0002C62C8F81440C8F81840EC602C616C61A0
:1050B0002C606C60AC6088F8046092E0FDF7F6FA52
:1050C00088F80240A8F81040A8F80E406C62AC6264
:1050D000EC62AC61EC612C62C8F81440C8F818406E
:1050E000EC602C616C612C606C60AC60032005E6A8
:1050F000FDF7DCFAAFF26C710020FDF7B3FD88F824
:10510000044088F80240A8F81040A8F80E406C62ED
:10511000AC62EC62AC61EC612C62C8F81440C8F877
:105120001840EC602C616C612C606C60AC604FF4DA
:105130007A70FBF7DDFC54E098F8040004280FD0E7
:1051400005280DD009280BD00A2809D0C0B10228A3
:1051500016D012281DD013281BD007281FD040E0DE
:10516000A8F81040A8F80E40C8F814402C606C60F5
:10517000AC606C62AC62EC62AC61EC612C6204E02D
:10518000C8F814402C606C60AC600420FDF791FA04
:1051900027E0C8F81840EC602C616C61F5E7A9F8CD
:1051A0000040F2E798F8040003281AD1FDF77EFAD0
:1051B00098F8020018B1401E88F8020011E00320A0
:1051C000FAE798F8040003280BD1FDF76FFA98F876
:1051D0000200401CC0B288F80200042801D188F8FF
:1051E0000240C8F82040BDE8F88F0000EC0B00201A
:1051F000FBF7D4FFFDF784FEFDF756F9FDF72AFA19
:10520000FDF7F0F9FDF79AF9FDF708FAFDF7B6F9A1
:10521000FDF788FAFDF7B0FD012210491048FCF7B0
:1052200011FF01220F491048FCF70CFF0F48FCF753
:1052300047FBFDF7CFFCFDF739FA0D4D00F0F4F90F
:10524000FFF7A6F92C78002CF8D00220FBF750FCD1
:1052500028788442F2D100F03DF9EFE7720800208F
:10526000C00900207308002030090020E808002051
:105270007108002008B51023532200211846FDF7BD
:10528000E5FA1023542200211820FDF7DFFA10233D
:105290004D2200212020FDF7D9FA10200090022392
:1052A000202200212620FDF715FB032200213620B5
:1052B000FDF7A8FA042200214620FDF7A3FA0522F3
:1052C00000215620FDF79EFA062200216620FDF7F8
:1052D00099FA092202210020FDF794FA0A220221FC
:1052E0001020FDF78FFA0B2202212020FDF78AFA09
:1052F0000C2202213020FDF785FA062202214020EF
:10530000FDF780FA0D2202215020FDF77BFA0E22D4
:1053100002216020FDF776FA0F2202217020FDF7AE
:1053200071FA2E2206210020FDF76CFA2F220621A9
:105330001020FDF767FA302206216020FDF762FA9F
:10534000312206217020FDF75DFABDE80840FBF729
:1053500055BB0246012000E05043491EC9B2FBD2B2
:10536000704700002DE9F843FDF7A3FB002809D1A1
:1053700022A0FEF787F80120FDF77DFB20B124A0D5
:10538000FEF780F8BDE8F8836B4663220021012018
:10539000FDF7A9FB214E224D00244FF001084FF4E8
:1053A0007A79B8B1FDF782F90220307028781D4E65
:1053B000401CC0B21C4F2870032815D01BA102202E
:1053C000FDF750FC34603C607C60BC604846FBF7F5
:1053D0008FFBD7E72C70FDF769F91BA10020FDF7C3
:1053E00041FC86F80080F1E71E49022081F8008028
:1053F0001DA1FDF737FC2C70E4E70000BBF1C8A14C
:10540000CDBCCFF1B3C9B9A6B3C9B9A60D0A000086
:10541000C7EBB0B4CAD6D6B80D0A000048080020C1
:105420004F08002058080020C80B00205B76375D2D
:105430005B6D315D5B74355DD6B8CEC6D1E9D6A45F
:10544000CAA7B0DC000000005B76375D5B6D315DA4
:105450005B74355DD2D1BFAAC3C5A3ACC7EBC9CFBE
:10546000CBF80000470800205B76375D5B6D315D4F
:105470005B74355DD6B8CEC6D1E9D6A4CAA7B0DC78
:1054800020BDFBD3C3D6B8CEC60000000A480B4AE5
:10549000C169127811430DD1007938B1022805D0C5
:1054A0003223042206A10848FCF70CBE3223052251
:1054B00006A1F8E7704700004408002071080020AA
:1054C0004F70656E0000000030090020436C6F7360
:1054D000650000002DE9F0413A483B4D0126007877
:1054E0003A4C0027412822D036494978303944289F
:1054F00030D04FF47A754F283DD0432843D03149FE
:105500004A78303A96B28A78303A95B2CA78303AC8
:1055100094B20A79303A93B24A798979303A30397B
:1055200092B289B2552839D0522839D041E0FDF7DE
:10553000BDF8E06900283CD12888032803D3322332
:10554000072223A113E0062020713223052222A185
:10555000E6610CE0E06900BB288828B10220E06128
:1055600088B2FBF709F824E0322305221CA11E486B
:10557000FCF7A8FD1DE0FDF799F81CA10020FDF740
:1055800071FB267106E0FDF791F81FA10020FDF7E1
:1055900069FB27712846FBF7ABFA0AE01F4800E0D9
:1055A0001F48068045808480C38002814181FDF7C9
:1055B0005DFC1C48FF210770BDE8F0410148FAF787
:1055C000DCBD0000F70C0020120000204408002081
:1055D00041646466756C6C00507265737300000002
:1055E000456D707479000000300900205B76375DEE
:1055F0005B6D315D5B74355DD2D1BFAAC3C5A3AC11
:10560000C7EBC9CFCBF800005B76375D5B6D315DD2
:105610005B74355DD2D1C9CFCBF800002A000020E1
:10562000360000207108002021490A682148436A99
:10563000D21A642A3BD3096841620079152836D210
:10564000DFE800F00B0D0F11131517191B1D1F219B
:10565000232527292B2D2F313300FFF70BBEFDF714
:10566000C5BEFDF75DBEFEF7F1B9FEF727BCFEF73C
:10567000AFBBFEF7AEB8FEF795BDFEF7D0BCFEF7A8
:10568000E5BCFEF78DBCFEF7E5B8FEF78BB8FEF77C
:10569000EFBDFEF783BEFEF751BEFEF74BBDFEF732
:1056A0000DBFFEF737B9FEF7ECB8FEF7AFBE704797
:1056B0000800002044080020010202030405060738
:1056C00008090A0B0C0D0E0F10100000000000005E
:1056D000000001020304060708090000000001029F
:1056E00003040000000000000000002F0000000084
:1056F0000700070000147F147F1400242A7F2A1259
:105700000062640813230036495522500000050347
:10571000000000001C224100000041221C00001477
:10572000083E08140008083E0808000000A06000B9
:105730000008080808080000606000000020100849
:105740000402003E5149453E0000427F40000042B5
:1057500061514946002141454B31001814127F1018
:10576000002745454539003C4A4949300001710947
:10577000050300364949493600064949291E0000FB
:1057800036360000000056360000000814224100A2
:1057900000141414141400004122140800020151D2
:1057A000090600324959513E007C1211127C007FDB
:1057B00049494936003E41414122007F4141221C76
:1057C000007F49494941007F09090901003E4149DB
:1057D000497A007F0808087F0000417F41000020CF
:1057E00040413F01007F08142241007F404040407B
:1057F000007F020C027F007F0408107F003E4141C1
:10580000413E007F09090906003E4151215E007FAB
:10581000091929460046494949310001017F010122
:10582000003F4040403F001F2040201F003F4038C5
:10583000403F006314081463000708700807006104
:105840005149454300007F41410000552A552A55E2
:10585000000041417F00000402010204004040407A
:105860004040000001020400002054545478007F9E
:105870004844443800384444442000384444487F75
:1058800000385454541800087E0901020018A4A4DA
:10589000A47C007F080404780000447D40000040A0
:1058A00080847D00007F102844000000417F40007C
:1058B000007C04180478007C080404780038444410
:1058C000443800FC242424180018242418FC007CEC
:1058D0000804040800485454542000043F44402065
:1058E000003C4040207C001C2040201C003C4030FC
:1058F000403C004428102844001CA0A0A07C004488
:1059000064544C44141414141414000000000000D7
:1059100000000000000000000000000000F800008F
:105920000000000000333000000000100C06100CD6
:105930000600000000000000000040C07840C07871
:105940004000043F04043F040400007088FC083059
:105950000000001820FF211E0000F008F000E018F1
:10596000000000211C031E211E0000F008887000AA
:1059700000001E2123241927211010160E000000FC
:1059800000000000000000000000000000E018041B
:105990000200000000071820400000020418E00088
:1059A00000000040201807000000404080F08040C8
:1059B00040000202010F01020200000000F000009E
:1059C00000000101011F01010100000000000000B2
:1059D000000080B070000000000000000000000027
:1059E00000000001010101010101000000000000B0
:1059F0000000003030000000000000000000806067
:105A00001804006018060100000000E010080810EB
:105A1000E000000F102020100F00001010F8000010
:105A200000000020203F20200000007008080888A7
:105A30007000003028242221300000300888884877
:105A400030000018202020110E000000C02010F8A7
:105A5000000000070424243F240000F80888880878
:105A600008000019212020110E0000E0108888187D
:105A70000000000F112020110E0000380808C8385F
:105A800008000000003F000000000070880808883F
:105A90007000001C222121221C0000E010080810C8
:105AA000E0000000312222110F00000000C0C00001
:105AB0000000000000303000000000000080000006
:105AC0000000000080600000000000008040201006
:105AD00008000001020408102000404040404040FF
