:020000040800F2
:10000000F0110020050100087726000829210008CA
:100010007526000821050008F533000800000000DF
:100020000000000000000000000000002D2C00086F
:1000300023050008000000002B2C0008C92E000832
:100040001F0100081F0100081F0100081F01000810
:100050001F0100081F0100081F0100081F01000800
:100060001F0100081F0100081F0100081F010008F0
:100070001F0100081F0100081F0100081F010008E0
:100080001F0100081F0100081F0100081F010008D0
:100090001F0100081F0100081F0100081F010008C0
:1000A0001F0100081F0100081F0100081F010008B0
:1000B0001F0100082D2F00081F0100081F01000864
:1000C0001F0100081F0100081F0100081F01000890
:1000D0001F01000899320008A5320008B13200085B
:1000E0001F0100081F0100081F010008DFF810D0E1
:1000F00000F0A6F80048004729510008AFF300803F
:10010000F01100200648804706480047FEE7FEE75A
:10011000FEE7FEE7FEE7FEE7FEE7FEE7FEE7FEE7B7
:100120002B2F0008ED000008202A04DB203A21FADA
:1001300002F00021704721FA02F3D040C2F1200200
:10014000914008431946704740EA01039B0703D0DA
:1001500009E008C9121F08C0042AFAD203E011F806
:10016000013B00F8013B521EF9D27047D2B201E0C8
:1001700000F8012B491EFBD270470022F6E710B5AC
:1001800013460A4604461946FFF7F0FF204610BD05
:1001900030B505462A460B4612F8010B13F8014B01
:1001A00008B1A042F8D01CB1002802D06D1CF1E7C4
:1001B000284630BD421C10F8011B0029FBD1801AD3
:1001C000704730B504460020034600E05B1C9342B4
:1001D00003D2E05CCD5C401BF8D030BD2DE9F05F70
:1001E0000546002092469B468846064681464024A6
:1001F0001BE02846414647462246FFF795FF5346F7
:100200005A46C01A914110D311461846224600F0B2
:1002100029F82D1A67EB01084F46224601200021DC
:1002200000F020F817EB00094E41201EA4F1010454
:10023000DFDC484631462A464346BDE8F09F0000D1
:10024000064C074D06E0E06840F0010394E8070023
:1002500098471034AC42F6D3FFF74CFF145E000809
:10026000345E0008202A04DB203A00FA02F1002064
:1002700070479140C2F1200320FA03F319439040E4
:10028000704770B58D1810F8014B14F0030201D1BE
:1002900010F8012B231106D110F8013B03E010F8F0
:1002A000016B01F8016B521EF9D1ABB110F8012BB3
:1002B00004F00C048A1A0C2C03D0A2EB84129B1CB1
:1002C00008E010F8014BA2EB0422F8E712F8014B0A
:1002D00001F8014B5B1EF9D5A942D4D3002070BDB3
:1002E0002DE9F84F594E0024594F7088032806D342
:1002F00058A003F0A5F802F0BFF90E2016E0DFF8D1
:1003000074814FF4FA794FF47A7A4FF4C87B00BFC6
:1003100003F054FC0D2806D0052C5DD2DFE804F074
:10032000091B304C620002F0A7F903203870BDE8C9
:10033000F88F6D1CEDB250A003F082F802F09FFB25
:10034000A8B9012002F07DFB88B94EA003F078F82F
:100350000025012426E06D1CEDB24DA003F070F8DD
:1003600002F08DFB18B9022002F06BFB10B102F015
:10037000DBFC31E043A003F063F80025022411E028
:1003800047A003F05DF802F0D6FB04000ED048A0B1
:1003900003F056F8204602F0C7FC00252C464846DC
:1003A00003F087FE584603F084FEB1E743A003F054
:1003B00047F8032448460DE043A003F041F84846BF
:1003C00003F077FE02F0D1FB18BB43A003F038F82E
:1003D0000424504603F06DFE584603F06AFE0A2DD1
:1003E00096D1A4E7002108464FEA080232F81030FF
:1003F0009BB1401C0328F9DB022002F0EDFB0090CA
:100400007088401C81B2718038A003F019F8009800
:1004100048B1002402F088FCDBE7012128F8101025
:10042000801C81B2E8E736A003F00AF802F004FD70
:1004300002F022F90B20387001B03223BDE8F04FF2
:100440000F2233A1354801F021BE0000100000202A
:1004500048080020C2BCC8EBD6B8CEC6CAA7B0DCDC
:10046000A3ACD6BBC4DCC2BCC8EB33B8F6D6B8CE9E
:10047000C60D0A0024000020C7EBB0B4CAD6D6B817
:100480000D0A0000D6B8CEC6D5FDB3A30D0A0000F4
:10049000C7EBD4D9B0B4D2BBB4CE0D0A0000000073
:1004A000B6D4B1C8C1BDB4CED6B8CEC60D0A000010
:1004B000B6D4B1C8CAA7B0DC0D0A0000B6D4B1C822
:1004C000B3C9B9A60D0A0000C9FAB3C9D6B8CEC6D9
:1004D000C4A3B0E50D0A0000C9FAB3C9D6B8CEC6A8
:1004E000C4A3B0E5B3C9B9A60D0A0000C2BCC8EBED
:1004F000D6B8CEC6B8F6CAFDCEAA2564200D0A002D
:10050000C2BCC8EBD6B8CEC6B3C9B9A60D0A0000A6
:100510006164647375636365737300007009002020
:10052000FEE7704770B5264C0546608800283ED02F
:10053000294624A002F084FF0121284602F052FA45
:1005400010B102F0F1FB35E0274800EB4500274DE4
:1005500030F8041C012911D002F08EF8618824A023
:1005600002F06EFF27A002F06BFF32230F222DA1B5
:100570002E4801F08BFD1020287070BD002120F85E
:10058000041C2BA002F05CFF6088401E81B26180D9
:1005900017A002F055FF02F04FFC0D202870BDE8B7
:1005A000704032230F2226A1204801F06FBD28A001
:1005B00002F046FFBDE8704040F2DC5003F079BD28
:1005C00010000020B5A5B8F6C9BEB3FDD6B8CEC69A
:1005D000BFAACABCA3ACC9BEB3FD4944CEAAA3BA44
:1005E00025640D0A000000002400002048080020B7
:1005F000CAA3D3E0D6B8CEC6CAFDCEAAA3BA256494
:100600000D0A0000C9BEB3FDD6B8CEC6CAA7B0DC7D
:10061000A3ACB8C34944CEB4C2BCC8EBD6B8CEC6AE
:100620000D0A00004E6F49640000000070090020B0
:10063000C9BEB3FDD6B8CEC6B3C9B9A6200D0A004F
:1006400064656C657465737563636573730000003E
:10065000C9BEB3FDD6B8CEC6CAA7B0DCA3ACD6B867
:10066000CEC6CAFDBEDDCEAABFD50D0A0000000071
:1006700021283CD2DFE800F011131517191B1D1FAC
:10068000212325273B3B3B3B27293B3B3B2B3B3B4C
:100690002D2F3133353B3B37390016A070471AA058
:1006A00070471EA0704722A0704726A070472AA05E
:1006B00070472EA0704732A0704736A070473AA00E
:1006C00070473EA0704742A0704746A070474AA0BE
:1006D00070474EA0704752A0704756A070475AA06E
:1006E00070475EA0704762A0704766A070476AA01E
:1006F00070470000202020202020204F4B20202069
:10070000202020200000000020CAFDBEDDB0FCBD7E
:10071000D3CAD5B4EDCEF32000000000B4ABB8D0FE
:10072000C6F7C9CFC3BBD3D0CAD6D6B80000000025
:10073000C2BCC8EBD6B8CEC6CDBCCFF1CAA7B0DC20
:100740000000000020D6B8CEC6CCABB8C9BBF2CCF6
:10075000ABB5AD200000000020D6B8CEC6CCABCAE9
:10076000AABBF2CCABBAFD20000000002020D6B816
:10077000CEC6CDBCCFF1CCABC2D220200000000051
:1007800020D6B8CEC6CCD8D5F7B5E3CCABC9D920E6
:10079000000000002020D6B8CEC6B2BBC6A5C5E476
:1007A000202020200000000020C3BBD3D0CBD1CB21
:1007B000F7B5BDD6B8CEC62000000000202020CC62
:1007C000D8D5F7BACFB2A2CAA7B0DC20000000008B
:1007D0002020C9BEB3FDC4A3B0E5CAA7B0DC202069
:1007E0000000000020C7E5BFD5D6B8CEC6BFE2CA1C
:1007F000A7B0DC2000000000BBBAB3E5C7F8C4DA3C
:10080000CEDED3D0D0A7CDBC0000000020B6C1D032
:10081000B4464C415348B3F6B4ED2020000000002C
:10082000202020CEB4B6A8D2E5B4EDCEF32020200F
:10083000000000002020CEDED0A7BCC4B4E6C6F77E
:10084000BAC520200000000020BCC4B4E6C6F7C42E
:10085000DAC8DDB4EDCEF3200000000020BCC7CA2A
:10086000C2B1BED2B3C2EBB4EDCEF32000000000A3
:1008700020202020D6B8CEC6BFE2C2FA20202020F9
:100880000000000020202020B5D8D6B7B4EDCEF36C
:10089000202020200000000020B7B5BBD8C8B7C872
:1008A000CFC2EBD3D0CEF3200000000072B6FEE73B
:1008B00006490020C8610648016941F00401016150
:1008C000016941F04001016170470000000A002009
:1008D00000200240064A0021D16106490A6942F01F
:1008E00002020A614861086940F0400008617047EF
:1008F000000A002000200240044B0022DA61044A72
:10090000136943F00103136101807047000A00205E
:100910000020024014480022C168CB06134904D5C8
:10092000CA6942F00202CA611022C3685B0705D59A
:10093000CB6943F00103CB6142F00402C369DB07DA
:1009400007D0CB6943F00403CB61C16921F00101F9
:10095000C161A2F58071013901D0C2607047C169DF
:1009600021F00101C161704700200240000A00200F
:1009700070B5054600F05EFA0646114C09E0681CA9
:1009800007D025B100F056FA801BA84201D90320F8
:1009900070BDE068C007F2D1E068800601D5202074
:1009A000E060E068C00605D4E069C00702D1E068F5
:1009B000400703D5FFF7AEFF012070BD002070BDDA
:1009C0000020024010B501F019FD002803D0BDE859
:1009D000104004F097BC10BD10B590F82110002213
:1009E000022905D00421816380F82020012010BD58
:1009F00001680B6823F00E030B6001680B6823F09D
:100A000001030B6090F84030C46B012101FA03F33D
:100A1000636080F8211080F82020104610BD00008F
:100A200010B590F821100024022903D0042181631D
:100A300001243DE001680A6822F00E020A600168A4
:100A40000A6822F001020A601A4A0168914201D143
:100A5000012121E0174A1432914201D110211BE0FB
:100A6000144A2832914201D1891515E0114A3C32CD
:100A7000914201D189140FE00E4A5032914202D1C5
:100A80004FF4803108E00B4A6432914202D14FF4B6
:100A9000801101E04FF08071064A083A516001214F
:100AA00080F82110002180F82010416B01B18847A7
:100AB000204610BD0800024070B5044600F0BAF9A7
:100AC0000546601C02D004480078044400F0B2F9E6
:100AD000401BA042FAD370BD000000202DE9F04772
:100AE000054626480F460126017E01290FD0012127
:100AF000814601762868DFF888804CF2503402285D
:100B000008D0A2462046FFF733FFA8B131E002200B
:100B1000BDE8F0872046FFF72BFF08BB0120FFF759
:100B2000C7FE2046FFF724FFD8F81010064621F034
:100B30000401C8F810101CE04FF0FF303860AC68BA
:100B400011E02046FFF7C6FE5046FFF711FFD8F828
:100B50001010060021F00201C8F8101001D03C600E
:100B600007E004F58064D5E9020100EB8120A04292
:100B7000E7D8002189F818103046C9E7000A00209C
:100B8000002002400348016941F08001016100201A
:100B900070470000002002402DE9F05F07461C4826
:100BA00088460024017E15461E46012909D00121F0
:100BB000814601764CF2503A5046FFF7D9FE18B103
:100BC00022E00220BDE8F09F012F02D0022F00D0CA
:100BD0000427D346DFF83CA0220128463146FFF720
:100BE000A3FA81B208EB4400FFF786FE5846FFF7F0
:100BF000BFFEDAF8102022F00102CAF8102018B95E
:100C0000641CE4B2BC42E7D3002289F81820D9E77B
:100C1000000A002000200240064900200A6912064E
:100C200007D5054A4A60054A4A600969090600D5A0
:100C3000012070470020024023016745AB89EFCDBA
:100C40002DE9F84FDFF8B8910024A9F1040B2346F1
:100C50000F2709F1040AABF1040EC9E00125A540F4
:100C60002A40AA427DD1674ED1F804C0ACEB0608F9
:100C7000B44532D014DCBCF1030F3AD009DCBCF12E
:100C8000000F2AD0BCF1010F1CD0BCF1020F31D1F2
:100C90001DE0BCF1110F17D0BCF1120F2AD119E0E1
:100CA000B8F5881F19D006DCB8F5803F15D0B8F527
:100CB000801F1FD111E0B8F5001F0ED0B8F5041F3A
:100CC00018D10AE0CB6815E0CB681B1D12E0CB6899
:100CD00008330FE0CB680C330CE08B682BB1012B91
:100CE0004FF0080303D0456104E0042302E00561EE
:100CF00000E00023FF2A01D8064601E000F10406C7
:100D00004FEA840501D9A5F12005D6F8008007FA3D
:100D100005FC28EA0C0803FA05F548EA0508C6F8B8
:100D200000804D68ED0062D5374DAE6946F0010692
:100D3000AE61AD6924F0030605F001050095334D61
:100D400006EB050CDCF80850A607360F07FA06F884
:100D500025EA0805DFF8B880404503D14FF00008C8
:100D600017E044E0DFF8AC80404502D14FF00108C5
:100D70000FE0DFF8A480404502D14FF0020808E000
:100D8000DFF89880404502D14FF0030801E04FF0B2
:100D9000040808FA06F848EA0508CCF808804D6807
:100DA000D9F80060ED024D4601D5164300E09643A8
:100DB0002E604D68DAF80060AD02554601D5164345
:100DC00000E096432E604D68DBF80060AD035D46A1
:100DD00001D5164300E096432E604D68DEF80060B2
:100DE000ED03754601D5164300E096432E60641C62
:100DF0000D682A46E5407FF431AFBDE8F88F00006A
:100E000008040140000011100010024000000140E1
:100E100000080140000C0140001001400014014096
:100E20008068084000D0012070470AB10161704716
:100E30000904FBE7014880687047000000000020BB
:100E400070B5040025D094F83D00002520B984F841
:100E50003C50204600F050F9242084F83D002068E2
:100E6000016821F0010101602068016841F400413E
:100E700001602068016821F40041016000F098FAE7
:100E80004D4A6168914201D84C4900E04C49884282
:100E900001D2012070BD4B492368B0FBF1F15E68BF
:100EA00026F03F060E435E606368934206D94FF416
:100EB000967359434FF47A73B1FBF3F12368491CDD
:100EC0001E6A26F03F06314319626168914210D8CC
:100ED0004900401EB0FBF1F2521CC2F30B02042A7F
:100EE00001D2042022E0B0FBF1F0401CC0F30B0063
:100EF0001CE0A268F2B301EBC10303EB0116431E31
:100F0000B3FBF6F35B1C43F480431B0549D092B35B
:100F100001EBC10202EB0111401EB0FBF1F0401CDD
:100F2000C0F30B0040F4804040F400402168CA69DF
:100F30004CF6FF739A431043C861D4E9071001438C
:100F40002068026822F0C00211430160D4E9030165
:100F500001432068826848F2FF339A43114381605D
:100F6000D4E9050108432168CA6822F0FF02104352
:100F7000C86001E00EE016E02068016841F0010160
:100F800001602564202084F83D00256384F83E50EC
:100F9000002070BD01EB4106431EB3FBF6F35B1C62
:100FA000B3E70120C2E701EB4101401EB0FBF1F0C5
:100FB000401CC0F30B00B7E7A086010080841E0030
:100FC00000093D0040420F002DE9FF4F83B09A46D3
:100FD000DDE9119793460446DDF84080FFF72AFFCC
:100FE000054694F83D0020287FD11923012240496D
:100FF0002046009501F030F9002876D194F83C00A5
:10100000012872D0012084F83C0020680168C907DB
:1010100003D1016841F0010101602068016821F4F9
:1010200000610160212084F83D00402084F83E00EA
:1010300000262664C4F82480A4F82A90608D2085B8
:101040002C48E062CDE9007553465A462046049983
:1010500001F082F870B930E02A463946204601F0A6
:10106000A1F958B1206C042804D12068016841F42A
:1010700000710160012007B0BDE8F08F606A21684F
:1010800000780861606A401C6062218D491E89B247
:101090002185628D521E628522685369DB435B079E
:1010A0000BD469B100781061606A401C6062208DC9
:1010B000401E2085608D401E6085208D0028CBD18C
:1010C0002A463946204601F09BF80028CAD154F838
:1010D0003D0B016841F400710160202004F81E09F5
:1010E000E67766770020C6E7FFE70220C3E7000047
:1010F000020010000000FFFF10B586B00021009133
:1011000001910291039100680F4988421AD10F4C56
:10111000A06940F00800A061A069694600F00800DD
:101120000490C020009012200190032003900848F2
:10113000FFF786FDE06940F40010E061E06900F42B
:101140000010049006B010BD005400400010024092
:10115000000C0140024881680278114481607047A8
:1011600000000020074810B5016841F0100101603F
:10117000032000F075F80F2000F006F800F024F8C6
:10118000002010BD0020024070B50D4D04464FF404
:101190007A712878B1FBF0F00A490968B1FBF0F0E8
:1011A00000F0DCFA48B9102C07D200222146501E6C
:1011B00000F036F800206C6070BD012070BD0000AA
:1011C000000000200C0000200C4808B5816941F0A7
:1011D00001018161816901F001010091C16941F062
:1011E0008051C161C06900F080500090044841689E
:1011F00021F0E06141F00071416008BD0010024043
:1012000000000140002809DB00F01F02012191408D
:101210004009800000F1E020C0F800117047000094
:10122000F0B40E4B1B680C46C3F30223C3F1070551
:10123000042D00D90425191D072901D2002300E03F
:10124000DB1E012606FA05F1491E214099409E4009
:10125000761E16403143F0BC02F002B90CED00E0FE
:10126000064900F0070208684FF6FF03184040EAFD
:101270000220034A10430860704700000CED00E0B4
:101280000000FA052DE9F0470F46050061D0434EF6
:10129000306800F00700B84209D2306820F007003B
:1012A00038433060306800F00700B84251D12868F8
:1012B0003B4C810712D5400703D5606840F4E060DD
:1012C00060602878000703D5606840F46050606073
:1012D0006068A96820F0F000084360602878C007C3
:1012E00028D06868012810D02168022810D089070A
:1012F00000292EDA616821F0030101436160FFF7E4
:1013000099FD804641F288390DE021688903EFE7B5
:101310008901EDE7FFF78EFDA0EB0801494502D9F1
:101320000320BDE8F0876068696800F00C00B0EB4E
:10133000810FEFD1306800F00700B8420BD9306858
:1013400020F0070038433060306800F00700B842F2
:1013500001D00120E5E72878400705D56068E968F5
:1013600020F4E060084360602878000706D56068D4
:10137000296920F4605040EAC100606000F038F84C
:101380006168084AC1F30311515CC840064908600E
:1013900006480068FFF7F8FE0020C2E70020024080
:1013A00000100240D25500080C000020040000206C
:1013B0000448054900684968044AC1F30221515CA8
:1013C000C84070470C00002000100240E2550008A1
:1013D0000448054900684968044AC1F3C221515CC8
:1013E000C84070470C00002000100240E255000881
:1013F0000E4A51680E4801F00C03042B11D0082B43
:101400000FD10C48C1F38343C903C05C0AD55168AE
:10141000084AC1F34041921E515C054A5043B0FB5B
:10142000F1F0704704494843704700000010024043
:1014300000127A00C255000800093D002DE9F84F5E
:10144000040070D02078C04DC00749D06868C0F350
:101450008100012807D06868C0F38100022809D103
:101460006868C00306D52868800339D560680028FD
:10147000E7D035E06068B0F5803F0BD010B1B0F533
:10148000A02F11D0286820F480302860286820F42C
:10149000802002E0286840F480302860606890B1C5
:1014A000FFF7C8FC06460AE0286840F48020286060
:1014B000F0E700BFFFF7BEFC801B642873D82868E4
:1014C0008003F7D50CE0FFF7B5FC064605E000BF4A
:1014D000FFF7B0FC801B6428F0D828688003F7D49D
:1014E00020789A4E80074FF001094FF0000839D557
:1014F000686810F00C0F07D06868C0F381000228FC
:1015000009D16868C00306D42868800714D520690B
:10151000012808D110E02069B0B1C6F80090FFF7AB
:1015200089FC074605E00AE1FFF784FCC01B02289E
:10153000C4D828688007F7D52868616920F0F800CA
:1015400040EAC10028600DE0C6F80080FFF772FC99
:10155000074604E0FFF76EFCC01B022823D828686A
:101560008007F7D4207800072CD57948A169D9B134
:10157000C0F80090FFF75EFC074604E0FFF75AFC56
:10158000C01B02280FD8686A8007F7D571484FF44E
:10159000FA510068B0FBF1F0009000BF0098411EC6
:1015A0000091FAD20EE080E0C0F80080FFF742FC24
:1015B000074604E0FFF73EFCC01B022875D8686AA6
:1015C0008007F7D42078400760D5E8690027C0007D
:1015D00008D4E86940F08050E861E869012700F02C
:1015E000805000905C480168C90513D401688346A7
:1015F00041F480710160FFF71DFC824606E000BFE8
:10160000FFF718FCA0EB0A0064284ED8DBF80000B6
:10161000C005F5D5E06801280AD008B1052813D027
:10162000286A20F001002862286A20F0040002E005
:10163000286A40F001002862E06841F2883B98B1D6
:10164000FFF7F8FB82460BE0286A40F004002862AE
:10165000EEE700BFFFF7EEFBA0EB0A0159455AD8B1
:10166000286A8007F6D50CE0FFF7E4FB824605E028
:10167000FFF7E0FBA0EB0A0159454CD8286A800728
:10168000F6D41FB1E86920F08050E861E06988B3C2
:101690006968C1F38101022944D00228C6F860803C
:1016A00004D0FFF7C7FB044638E034E0FFF7C2FB85
:1016B000074604E0FFF7BEFBC01B02282BD82868B2
:1016C0008001F7D4206AB0F5803F05D16868A16831
:1016D00020F4003008436860D4E9080108436968D1
:1016E00021F4741108436860C6F86090FFF7A2FB0C
:1016F000044606E025E000BFFFF79CFB001B022824
:1017000009D828688001F7D51BE000BFFFF792FBDE
:10171000001B022802D90320BDE8F88F2868800149
:10172000F4D40EE00128F7D06868226A00F4803112
:10173000914204D1616A00F47010884201D0012006
:10174000EAE70020E8E70000001002400000424203
:10175000800442420C0000200070004010B5401E82
:10176000B0F1807F01D3012010BD4FF0E024606113
:101770000F21601701F074FE0020A0610720206196
:10178000002010BD7047704770B590F83C20012ACA
:1017900026D0012480F83C40022280F83D200368D6
:1017A0005A689D6822F070060A6832435A600D4BF1
:1017B00002689A4208D0B2F1804F05D00A4B9A4293
:1017C00002D00A4B9A4204D1496825F0800319439C
:1017D000916080F83D40002180F83C10084670BDC3
:1017E000022070BD002C01400004004000080040B1
:1017F00010B5040003D094F83D0010B107E00120BB
:1018000010BD002084F83C00204600F01FF80220A4
:1018100084F83D00211D206801F08EFB012084F832
:10182000460084F83E0084F83F0084F8400084F8C5
:10183000410084F8420084F8430084F8440084F8AE
:10184000450084F83D00002010BD000008B5006888
:101850000B49884212D10B48C16941F00201C161B4
:10186000C069002200F00200009011461D20FFF721
:10187000D7FCBDE808401D20FFF7C4BC08BD000030
:10188000000400400010024090F83D10012901D0F2
:1018900001207047022180F83D100168CA6842F0BB
:1018A0000102CA6000680B49884208D0B0F1804F3D
:1018B00005D00949884202D00849884204D181688C
:1018C00001F00701062903D0016841F00101016020
:1018D00000207047002C0140000400400008004038
:1018E00070B5044690F83C000025012817D0012669
:1018F00084F83C60022084F83D002068826822F071
:10190000770222F47F4282600868502838D00DDCCC
:1019100020284FD005DC90B3102811D14AE00220D6
:1019200070BD302846D040280AD13BE060282FD037
:1019300070280DD0B0F5805F03D0B0F5005F12D0F5
:10194000012584F83D60002084F83C00284670BDE5
:10195000CB68D1E90121206801F024FB206881686F
:1019600041F0770109E0CB68D1E90121206801F05D
:1019700019FB2068816841F480418160E1E719E04A
:10198000CA684968206801F01FFB5021206806E002
:10199000CA684968206801F028FB6021206801F0CE
:1019A0000BFBCEE7CA684968206801F00DFB4021B7
:1019B0002068F4E7226801461046F0E7704770B5EA
:1019C0000446006801694FF00005C943890715D432
:1019D000C168C943890711D4E91E0161012020773C
:1019E000206880698007204602D0FFF7E7FF04E007
:1019F00000F098F8204600F096F8257720680169F5
:101A0000C943490717D4C168C943490713D46FF0C4
:101A100004010161022020772068806910F4407F72
:101A2000204602D0FFF7CAFF04E000F07BF8204612
:101A300000F079F8257720680169C943090716D4B1
:101A4000C168C943090712D46FF00801016104207D
:101A500020772068C0698007204602D0FFF7AEFFDC
:101A600004E000F05FF8204600F05DF8257720687C
:101A70000169C943C90617D4C168C943C90613D44B
:101A80006FF010010161082020772068C06910F410
:101A9000407F204602D0FFF791FF04E000F042F8BB
:101AA000204600F040F8257720680169C943C9073E
:101AB00008D1C168C943C90704D1891E0161204604
:101AC00000F032F820680169C943090609D4C168E9
:101AD000C943090605D46FF0800101612046FFF774
:101AE00051FE20680169C943490609D4C168C94348
:101AF000490605D46FF040010161204600F080F8EE
:101B000020680169C94389060BD4C168C9438906A5
:101B100007D46FF0200101612046BDE87040FFF757
:101B200032BE70BD704770472DE9F04700682D49FF
:101B3000884254D12C4900252C4C08784FF49677D4
:101B4000012806D1A068401CA060B84201D1A56060
:101B50000D702749DFF89C904FF00A08087801289B
:101B600015D1E068401CB0FBF8F308FB1302E060FD
:101B700012B92269521C2261B84208D1E560256180
:101B80000D7000F079FD00F077FD89F800501A4ED5
:101B90003078012816D16069401CB0FBF8F208FBD0
:101BA0001201606111B9A169491CA161B84209D152
:101BB0006561A56100F060FD357000F05DFD1221EA
:101BC00089F800100D480078012807D16068401C92
:101BD0006060B0F5167F02D1012020706560BDE81D
:101BE000F087000000040040470800206C08002037
:101BF0004A080020480800204C0800204E08002019
:101C00007047704770470000F8B5016804460868DF
:101C1000CA684B6910F00F0F4FF0000559D003F060
:101C2000010602F49077374365D0C10705D0D1058E
:101C300003D5616C41F001016164410705D5D90705
:101C400003D0616C41F002016164810705D5D907B9
:101C500003D0616C41F004016164010707D502F013
:101C60002001314303D0616C41F008016164616C73
:101C700000293AD0800604D5900602D5204601F00E
:101C8000F5F920684069616CC0F38010090700D441
:101C900060B3204601F0C3F920684069400621D5B1
:101CA0002068143050E8001F21F0400140E8001285
:101CB000002AF5D1E06BA8B16D494163E06BFEF7F6
:101CC000AFFE002811D0E06B416B01B0BDE8F040E1
:101CD000084783060FD593060DD52046BDE8F8408A
:101CE00001F0C4B92046FFF78DFFF8BD2046FFF78D
:101CF00089FF6564F8BD266B2023012E7CD1C606C2
:101D00007AD5D60678D508684868009048694FF0BB
:101D10000206400640D5E16B086840680004000CEC
:101D2000E8D0A28D8242E5D9E085886920282DD0AF
:101D300020680C3050E8001F21F4807140E8001248
:101D4000002AF5D12068143050E8001F21F001016D
:101D500040E80012002AF5D12068143050E8001F36
:101D600021F0400140E80012002AF5D184F8423009
:101D7000256320680C3050E8001F21F0100140E876
:101D80000012002AF5D1E06BFEF726FE6663A08DF7
:101D9000E18D401A81B22AE0A08DE18D401A81B216
:101DA000E08D0028A6D00029A4D022680C3252E889
:101DB000000F20F4907042E80007002FF5D1206852
:101DC000143050E8002F22F0010240E80027002FD5
:101DD000F5D184F84230256320680C3050E8002F9C
:101DE00022F0100240E80023002BF5D16663204664
:101DF000FFF707FFF8BDFFE705062BD5150629D528
:101E000094F841002128F5D1A068B0F5805F01D198
:101E10002069B0B1206A411C2162216800784860C5
:101E2000E08C401E0004000CE084E3D12068C1680F
:101E300021F08001C1602068C16841F04001C160AB
:101E4000D8E7206A0088C0F308004860206A801C38
:101E50002062E5E74006CDD55006CBD5CA682046BE
:101E600022F04002CA6084F8413000F05CF9C1E71A
:101E70000F30000870B5040004D094F8410000252C
:101E800010B106E0012070BD84F84050204600F0FB
:101E900023F8242084F841002068C16821F400510F
:101EA000C160204601F044F92068016921F49041A5
:101EB00001612068416921F02A0141612068C168FF
:101EC00041F40051C1606564202084F8410084F829
:101ED00042006563002070BDF0B585B00024009419
:101EE0000194029403940368424F02204249032262
:101EF000424D4602BB4225D18B6943F480438B613E
:101F00008B6903F4804304938B6943F004038B6172
:101F10008969039201F0040104910102CDE90010E6
:101F200069462846FEF78CFECDE9006469462846DE
:101F30000294FEF785FE002211462520FFF770F976
:101F4000252028E02E4FBB4229D1CB6943F4003332
:101F5000CB61CB6903F4003304938B6943F0040332
:101F60008B618969039201F0040104910421CDE998
:101F7000001069462846FEF763FE0820CDE90004FC
:101F8000694628460294FEF75BFE00221146262091
:101F9000FFF746F92620FFF735F905B0F0BD194DDA
:101FA000AB42FAD1CB6943F48023CB61CB6903F414
:101FB000802304938B6943F008038B618969124D78
:101FC00001F00801CDE90321CDE90060694628460A
:101FD000FEF736FEE814CDE900046946284602946F
:101FE000FEF72EFE002203212720FFF719F92720F4
:101FF000D1E7000000380140001002400008014015
:102000000044004000480040000C014090F842307D
:10201000202B01D00220704721B11AB100230363A5
:1020200001F0E2B80120704770B50546006811491B
:10203000114C88420AD1114A2178A0785054491C89
:1020400021700122A11C0E48FFF7E0FF0D4928680E
:1020500088420ED1094A6078FF32E1781154401C61
:102060006070BDE8704004490122C91C0648FFF7B2
:10207000CDBF70BD0044004068080020F00B002078
:102080007009002000380140280900202DE9F8439C
:10209000044690F841001F4616460D46202802D0FF
:1020A0000220BDE8F8837DB176B100206064212074
:1020B00084F84100FEF7BEFEA6848046E684A06850
:1020C000B0F5805F02D003E00120EAE7206910B19B
:1020D0002E4600250EE000260CE08021204601F06F
:1020E0009EF8A0B9AEB116F8010B21684860E08CEB
:1020F000401EE084E08C43464FF000020097002829
:10210000EBD14FF04001204601F089F830B10320B7
:10211000C7E735F8020BC0F30800E6E7202084F893
:1021200041000020BDE77047FEE701684A69D243DD
:1021300052050FD46FF480624A61002140F8301FCD
:10214000202242738173026942F00402026101732A
:1021500001207047002070472DE9F84304460068CD
:102160000D46DDE9089701689846164641F48071EE
:1021700001604B4600224FF001112046009700F00D
:102180006BF848B120680068C00502D54FF40070B4
:1021900020640320BDE8F883216805F0FE00086193
:1021A0003B464A461549204600F09EF888B920680B
:1021B0004169806900903A464946204600F0F2F8AD
:1021C00048B1206C042804D12068016841F40071F2
:1021D00001600120DEE7F5B2B8F1010F09D02168F6
:1021E000300A08613A464946204600F0DBF80028EC
:1021F000E7D1206805610020CCE700000200010063
:1022000070B516460D4604461EE02046FFF78DFFCA
:1022100008B1012070BD681C16D0FEF70BFE801BB4
:10222000A84200D885B920684069C04340070BD553
:10223000002044F8300F20216173A073216941F020
:10224000200121612073E4E720684069C043400712
:10225000DBD4002070BD00002DE9F04798461746FA
:102260000D460446C1F30746DDF820902AE000BF82
:10227000B8F1FF3F26D0FEF7DDFDA0EB0901414597
:1022800002D8B8F1000F1DD12068012E16D0806948
:1022900025EA00000004000C12D00020B84211D141
:1022A000002044F8300F20216173A073216941F0B0
:1022B0002001216120730120BDE8F0874069E7E734
:1022C0000120EBE72068012E0AD0806925EA000092
:1022D0000004000C06D00020B842C9D00020EBE773
:1022E0004069F3E70120F7E72DE9F04798461646E5
:1022F0000D4604464FF000094FF0200AC1F307478E
:1023000023E020684069C043400515D42068016877
:1023100041F40071016021686FF480604861C4F885
:10232000309084F83DA084F83E90216C41F0040187
:10233000216484F83C9021E0701C06D0FEF77AFD01
:10234000A0EB0800B04203D816B1012F1FD021E046
:102350002068012F15D0806925EA00000004000CD8
:1023600018D000BF44F8309F84F80DA084F80E9078
:10237000216941F02001216184F80C900120BDE821
:10238000F087406925EA00000004000CEAD12068CB
:10239000406901E02068806925EA00000004000C23
:1023A000AFD1ECE770B516460D4604461EE0204658
:1023B000FFF7BBFE08B1012070BD681C16D0FEF708
:1023C00039FD801BA84200D885B920684069C04308
:1023D00000060BD5002044F8300F20216173A07354
:1023E000216941F0200121612073E4E72068406900
:1023F000C0430006DBD4002070BD00004FF4006134
:102400000148FEF70DBD0000000801407CB50546FF
:10241000EF208DF80000154C01208DF80100616857
:10242000080E8DF80200080C8DF80300080A8DF8DC
:10243000040007208DF805108DF8060000268DF8A1
:10244000076026700BE0012001F033FE207830B1E8
:10245000267069460648FDF79BFE002804D16D1ED4
:102460002D042D0CEFD100207CBD000010000020B9
:10247000200A0020F0B585B0002420480094019483
:1024800002940394816941F010018161816901F036
:1024900010010491816941F020018161816901F09D
:1024A00020010491816941F004018161816901F099
:1024B00004010491816941F0080181618069104F34
:1024C00000F008004FF4704604900122314638466F
:1024D000FEF7ABFCF02001258DE831006946094884
:1024E000FEF7AEFB0220CDE90240CDE9006569466A
:1024F0003846FEF7A5FB05B0F0BD00000010024015
:10250000000C0140000801400D4810B50B49016066
:102510000C49416000214FF480428160C0E9031200
:1025200041618161C1610162FEF78AFC002803D02C
:10253000BDE81040FEF7BAB910BD000000540040DD
:102540008C080020A086010010B586B00024174832
:102550000094019402940394049413490594016037
:1025600041F61F41C0E9011440F2E731C0E903140C
:102570008461FFF73DF908B1FEF798F94FF48050F8
:10258000009069460948FFF7ABF908B1FEF78EF9EC
:10259000049404A905480594FFF7F6F8002801D033
:1025A000FEF784F906B010BD00040040E0080020EA
:1025B0000C4810B50A4901604FF4165141600021E2
:1025C00081600C22C160C0E904128161C161FFF722
:1025D00051FC002803D0BDE81040FEF767B910BDDC
:1025E00000380140280900200C4810B50A49016054
:1025F0004FF416514160002181600C22C160C0E996
:1026000004128161C161FFF735FC002803D0BDE8E9
:102610001040FEF74BB910BD004400407009002087
:102620000C4810B50A4901604FF461414160002136
:1026300081600C22C160C0E904128161C161FFF7B1
:1026400019FC002803D0BDE81040FEF72FB910BDDB
:1026500000480040B809002001B5FF230122694667
:102660000348FFF713FD002800D0012008BD00003B
:10267000B8090020FEE7FEE7002000F01DB870B5A5
:102680000446861C14E004F1B000C0B200F0B4FEB1
:10269000002000F0B1FE102000F0AEFE002500206A
:1026A00000F0BCFE6D1CEDB2802DF8D3641CE4B2CA
:1026B000B442E8D370BD000070B506465FF0000478
:1026C00004F1B000C0B200F097FE002000F094FECC
:1026D000102000F091FE0025304600F09FFE6D1C9A
:1026E000EDB2802DF8D3641CE4B2082CE8D370BDA1
:1026F00010B56420FEF7E0F9AE2000F07DFE20204A
:1027000000F07AFE102000F077FEB02000F074FE9A
:10271000C82000F071FE002000F06EFE102000F0D6
:102720006BFE402000F068FE812000F065FEFF2077
:1027300000F062FEA12000F05FFEA62000F05CFE2B
:10274000A82000F059FE3F2000F056FEA42000F023
:1027500053FED32000F050FE002000F04DFED520A7
:1027600000F04AFEF02000F047FED92000F044FEC1
:10277000222000F041FEDA2000F03EFE122000F0A0
:102780003BFEDB2000F038FE202000F035FE8D20DF
:1027900000F032FE142000F02FFEAF2000F02CFEDF
:1027A000BDE810400020FFF787BF10B50446B031E8
:1027B000C8B200F021FE102040EA141000F01CFE08
:1027C00004F00F00BDE8104040F0010000F014BE1E
:1027D0002DE9F0410F46804600255401FFF7E5FF43
:1027E0000C4E305D00F01AFE6D1CEDB2641C102D15
:1027F000F7D37F1CF9B24046FFF7D7FF0025305DC5
:1028000000F00CFE6D1CEDB2641C102DF7D3BDE87A
:10281000F0810000420000202DE9F041203A002420
:102820000D468046D6B27F2803D900208D1C8046F5
:10283000EDB2102B29460FD0FFF7B7FF164906EB74
:10284000460001EB4005285D00F0E8FD641CE4B2A1
:10285000062CF8D3BDE8F081FFF7A7FF0F4F00BFAC
:1028600004EB0610385C00F0D9FD641CE4B2082CBF
:10287000F6D36D1CE9B24046FFF797FF5FF0000406
:1028800004EB06103844007A00F0C8FD641CE4B282
:10289000082CF5D3DEE70000EA55000812580008BE
:1028A0002DE9F05F0026DDF828901D4692468B4604
:1028B000804634464FEA590723E0281B401EC1B228
:1028C0000A2002F016FDBAFBF0F00A21B0FBF1F28B
:1028D00001FB120026B9691E8C4201DA38B10126CB
:1028E0003030C2B207FB0480C0B24B4604E007FBA5
:1028F0000480C0B24B4620225946FFF78DFF641C6E
:10290000E4B2AC42D9D3BDE8F09F00002DE9F04716
:10291000002591468A460446012B22D0DFF8BC8070
:10292000022B24D155E02038C7B27E2C04D90AF1FD
:102930000100002400F0FF0A51462046FFF735FF52
:1029400007EB4700002608EB4007B85D00F066FD86
:10295000761CF6B2062EF8D3A41D6D1CE4B2EDB2BF
:1029600001E0DFF87C8019F805000028DBD1BDE824
:10297000F0872038C7B2782C04D90AF1010000246E
:1029800000F0FF0A51462046FFF70FFF5FF00006F8
:1029900006EB071118F8010000F040FD761CF6B2B6
:1029A000082EF5D30AF10100C1B22046FFF7FDFE63
:1029B0005FF0000606EB071101EB0800007A00F05B
:1029C0002DFD761CF6B2082EF4D308346D1CE4B24B
:1029D000EDB219F805000028CBD1C8E7125800085D
:1029E000EA55000870B50C46054600F081F900F084
:1029F0005DF90120FFF730FE072000F089F90C2077
:102A0000FFF72AFE280AFFF727FEE8B2FFF724FEA9
:102A1000200AFFF721FEE0B2FFF71EFEE8B200EB4E
:102A2000152000EB1420E1B20844143000F056F9F0
:102A30004FF4FA60FFF7EAFC08B1407A70BDFF205E
:102A400070BD10B5044600F053F900F02FF90120D5
:102A5000FFF702FE042000F05BF90220FFF7FCFD07
:102A60002046FFF7F9FDE01D00F038F94FF4FA6059
:102A7000FFF7CCFC08B1407A10BDFF2010BD10B5A7
:102A800000F036F900F012F90120FFF7E5FD032010
:102A900000F03EF90120FFF7DFFD052000F01EF9F0
:102AA0004FF4FA60FFF7B2FC08B1407A10BDFF2086
:102AB00010BD2DE9F0411E4614460D46074600F0B4
:102AC00017F900F0F3F80120FFF7C6FD082000F029
:102AD0001FF91B20FFF7C0FD3846FFF7BDFD280A90
:102AE000FFF7BAFDE8B2FFF7B7FD200AFFF7B4FD24
:102AF000E0B2FFF7B1FD07EB1520E9B2084400EBA7
:102B00001420E1B20844243000F0E8F84FF4FA60F1
:102B1000FFF77CFC58B1C27A837A417A02EB032238
:102B20003280427B007B02EB0020708000E0FF21BE
:102B30000846BDE8F08110B500F0DAF800F0B6F80C
:102B40000120FFF789FD032000F0E2F80320FFF7E2
:102B500083FD072000F0C2F84FF4FA60FFF756FC3F
:102B600008B1407A10BDFF2010BD10B500F0C0F8CC
:102B700000F09CF80120FFF76FFD032000F0C8F87B
:102B80000520FFF769FD092000F0A8F84FF4FA606E
:102B9000FFF73CFC08B1407A10BDFF2010BD0000DB
:102BA0000B4800B5816985B041F0040181618069FD
:102BB000694600F0040004904FF40060009000208B
:102BC0000190022002900348FEF73AF805B000BDDC
:102BD000001002400008014070B50C46054600F0A8
:102BE00087F800F063F80120FFF736FD062000F0BB
:102BF0008FF80620FFF730FD2846FFF72DFD200A4D
:102C0000FFF72AFDE0B2FFF727FD05EB1420E1B244
:102C100008440D3000F062F84FF4FA60FFF7F6FB5D
:102C200008B1407A70BDFF2070BD7047704700004A
:102C30002DE9F041074600248EB088462646084616
:102C4000FDF7B8FAC5B2FD208DF8000000208DF820
:102C50000100E81C8DF8020001208DF8030000EB54
:102C600007108DF804006F46B85D761C4440052EB1
:102C7000FAD3002004E000BF18F800104C40401CBC
:102C8000A842F9D32A464146781DFDF75DFA781926
:102C900042F210734471AA1D69460348FFF7F6F922
:102CA0000EB0BDE8F08100002809002010B50A4CE4
:102CB0006068000EFFF7D0FC6068C0F30740FFF7C4
:102CC000CBFCA088C0F30720FFF7C6FC2079BDE845
:102CD0001040FFF7C1BC00001000002010B50446F2
:102CE000000AFFF7B9FCE0B2BDE81040FFF7B4BC42
:102CF00010B54FF4C8710548FDF73FFAEF20FFF714
:102D0000ABFCBDE810400120FFF7A6BC200A002064
:102D100010B50446C0F30720FFF79EFCE0B2BDE803
:102D20001040FFF799BC000010B5FDF7A1FC01466B
:102D3000BDE8104001A000F083BB000025730D0A20
:102D4000000000002DE9F041384D2888374E4AF246
:102D5000A554374F1A36A0423AD00121284601F037
:102D6000FDFBFDF759FF2246002329460120FDF710
:102D700013FF012401E0072C03D205EB4401224696
:102D800013E0E01F062806D207EB440005EB4401E0
:102D900030F80E2C09E00D2C12D0A4F10E000528FD
:102DA00007D200BF05EB4401002200230120FDF7FC
:102DB000F3FE641C112CDED3BDE8F041FDF7E2BE4A
:102DC0000122314600231046FDF7E6FE0E24E9E716
:102DD000174A01200C3A01E0072806D235F81010F6
:102DE00002EB400323F8021C15E0C11F062906D29E
:102DF00035F8101007EB400323F80E1C0BE00D28EC
:102E00000FD00E2807D335F81010094B123B03EBF7
:102E1000400323F81C1C401C80B21128DCD3BDE801
:102E2000F0813188034B1980F5E7000000F00008BD
:102E3000360000201200002070B5204D01212846E8
:102E400001F08CFBFDF7E8FE4AF2A552002329466B
:102E50000120FDF7A1FE0124194E01E0072C04D248
:102E600006EB440030F8022C15E0E01F062806D2DD
:102E700013480C3000EB440030F80E2C0BE00D2C06
:102E800017D0A4F10E0005280BD20D48801F00EBCF
:102E9000440030F81C2C05EB440100230120FDF711
:102EA0007BFE641CA4B2112CD8D3BDE87040FDF7A2
:102EB00069BE044801491A310288EEE700F00008B3
:102EC0002A00002012000020FEF744B930B58FB070
:102ED00028216846FDF751F914210AA8FDF74DF99C
:102EE00001210804CDE90010002402940225049178
:102EF000CDE907504FF4E01009906846FEF79EFABE
:102F000008B172B6FEE70F20CDE90A054FF48060E4
:102F1000CDE90C4002210AA80E94FEF7B3F900286F
:102F200001D072B6FEE70FB030BD70470148FEF722
:102F300046BD0000E0080020F0B50268164B174CB3
:102F4000174D4FF08047984205D0B84203D0A042B9
:102F500001D0A84203D122F070064A683243984259
:102F600005D0B84203D0A04201D0A84203D122F438
:102F70004074CA6822434C6922F0800222430260F6
:102F80008A68C2620A688262984201D10969016353
:102F900001214161F0BD0000002C0140000400400F
:102FA0000008004010B5846842EA032224F47F44FC
:102FB0000A432243826010BD826822F070020A43F5
:102FC00042F007018160704710B5036A046A24F07B
:102FD00001040462846924F0F00444EA021423F03A
:102FE0000A020A438461026210BD10B5036A046AD2
:102FF00024F010040462846923F0A00324F47044D4
:1030000044EA023243EA01118261016210BD10B547
:10301000406A0021C185C184FEF7F4FD10BD01683E
:103020000C3151E8002F22F4907241E80023002B6C
:10303000F5D10168143151E8002F22F0010241E876
:103040000023002BF5D1016B012909D101680C3156
:1030500051E8002F22F0100241E80023002BF5D1A7
:10306000202180F8421000210163704708B590F8D4
:103070004210222901D0022008BD82684FF48053FB
:103080009A4201D1016921B1816A9A421BD04AB1A9
:103090000AE00268816A5268C2F308020A80816A03
:1030A000891C08E0026972B10268526802F07F026E
:1030B0000A70816A491C8162C18D491E0904090C8C
:1030C000C18503D01BE002685268F1E70168CA6855
:1030D00022F02002CA600168CA6822F48072CA60C5
:1030E00001684A6922F001024A61202180F84210F9
:1030F00000214163026B012A03D0FEF795FF0020F7
:1031000008BD016301680C3151E8002F22F0100264
:1031100041E80023002BF5D101680A68D20602D5E8
:103120000A6849680091818DFEF76BFDE7E70000B2
:1031300070B5044600680169E26821F4405111430A
:1031400001612169A0680843616908432168CA6870
:1031500041F20C639A430243CA6020684169A26944
:1031600021F44071114341611E492068884202D117
:10317000FEF72EF901E0FEF71BF900EBC00101EBB1
:103180000012606864218000B2FBF0F3B3FBF1F33E
:103190006FF018067343B2FBF0F5B2FBF0F605EBE7
:1031A0008305322303EB0515B5FBF1F5B6FBF1F60C
:1031B00005F0F00505EB0615B2FBF0F6B2FBF0F0FA
:1031C000B0FBF1F06FF01802504306EB800003EB08
:1031D0000010B0FBF1F0216800F00F002844886077
:1031E00070BD00000038014081628285C2850021E7
:1031F0004164222180F84210016921B10168CA6846
:1032000042F48072CA6001684A6942F001024A6170
:103210000068C16841F02001C160002070472DE9BD
:10322000F041984617460E460446069D27E0681C66
:1032300025D02DB1FDF7FEFDA0EB0800A8421ED958
:1032400020680C3050E8001F21F4D07140E80012D3
:10325000002AF5D12068143050E8001F21F0010148
:1032600040E80012002AF5D1202084F8410084F8BB
:103270004200002084F840000320BDE8F08120686F
:10328000006836EA000004D00020B842CFD0002009
:10329000F3E70120F9E700000148FEF7B5BC0000A4
:1032A000280900200148FEF7AFBC0000700900208B
:1032B0000B4982B008680268D243D2060CD4026877
:1032C000406800904FF4C870C88506488862064977
:1032D0000120087002B07047014802B0FEF794BCAC
:1032E000B8090020200A00201000002010B50C2290
:1032F00002210020FFF76CFA062202211020FFF7BE
:1033000067FA122202212020FFF762FA132202211B
:103310003020FFF75DFA162202214020FFF758FA0D
:10332000092202215020FFF753FA142202216020C3
:10333000FFF74EFA152202217020FFF749FA1348D1
:10334000C178807901431AD0232200211020FFF791
:103350003FFA242200212020FFF73AFA32220021EE
:103360003020FFF735FA382200214020FFF730FAED
:1033700039220021BDE810405020FFF729BAFDF79F
:1033800021FBBDE810400020FFF779B94408002078
:1033900010B50C2202210020FFF71AFA06220221A2
:1033A0001020FFF715FA102202212020FFF710FA53
:1033B000112202213020FFF70BFA172206215A2092
:1033C000FFF706FA182206216A20FFF701FA0749DB
:1033D0000020074AC87048724861D060106150618F
:1033E000086110605060906010BD0000440800202B
:1033F000C00B0020FEE7000001B584B0012164226B
:1034000004A88DE807000B46002278210248FDF74A
:10341000DBFD05B000BD00008C08002001B584B0C4
:103420000121642204A88DE807000B464022782180
:103430000248FDF7C9FD05B000BD00008C08002062
:103440000FB4054B10B503A9044A029800F028F800
:1034500010BC5DF814FB00003D4500088808002002
:103460000907090E002804DB00F1E02080F80014B1
:10347000704700F00F0000F1E02080F8141D704745
:1034800002E008C8121F08C1002AFAD1704770472D
:10349000002001E001C1121F002AFBD1704700008B
:1034A0002DE9FF4F8DB09B460F460446002606E0EF
:1034B00025280BD05A460F999047641C761C20781B
:1034C0000028F5D111B03046BDE8F08F0025A846A0
:1034D0000122984900E0054314F8013F203B02FA1D
:1034E00003F00842F7D120782E2817D114F8010FE5
:1034F00045F004052A280ED06FF02F022078A0F1A5
:10350000300109290AD808EB880102EB410100EBE0
:103510000108641CF2E757F8048B641C20786C28BF
:103520000DD004DC4C2812D06A2811D104E0742894
:103530000DD07A280CD10AE045F4001507E0617837
:1035400045F48015814202D1641C05F58015641C88
:103550002078692844D008DC0028B3D0582867D0E8
:1035600063280FD0642808D13AE0702865D073280A
:1035700012D075285AD078285AD05A460F999047B9
:10358000761CD5E017F8040B8DF8000000208DF8AC
:103590000100E946012003E057F8049B4FF0FF309B
:1035A00069074FF0000501D40AE06D1C45450DDAAE
:1035B0008542FADB19F805100029F6D106E06D1CEA
:1035C0008542FCDB19F805100029F8D12E4404E0EF
:1035D00019F8010B5A460F9990476D1EF8D2A7E0D3
:1035E0000A200021CDE90801C5F3025002280CD0C1
:1035F00001CFC117021E71F100020CDA0023D0EBDB
:10360000030063EB01012D2208E0FF1D27F00707EF
:10361000F7E80201EEE72A0504D52B228DF82820D1
:1036200001223CE0EA073AD02022F7E70A2000E036
:1036300010200021CDE9080107E01020002145F00D
:103640000405CDE908014FF00808C5F3025002282F
:1036500010D001CF00214FF0000A2A0720D5227890
:10366000702A0DD0DDE908C38CF0100C5CEA030C65
:103670000CD015E0FF1D27F00707F7E80201EAE785
:1036800040228DF828204FF0010A0CE050EA010397
:1036900006D030238DF828308DF82920022292465A
:1036A0002278582A04D024A20DF120090B9209E0B7
:1036B00026A2F9E7DDE90823FCF790FD0B9B9B5C54
:1036C00009F8013D50EA0102F4D1ADEB09002030C8
:1036D0000890680701D44FF001080899884503DD78
:1036E0000898A8EB000000E000208046002506E0D6
:1036F0000AA85A46405D0F9990476D1C761C5545A7
:10370000F6DB04E030205A460F999047761CB8F15A
:103710000001A8F10108F5DC05E019F8010B5A4693
:103720000F999047761C0899481E08900029F4DCF0
:10373000641CC4E609280100303132333435363791
:1037400038396162636465660000000030313233ED
:10375000343536373839414243444546000000008D
:1037600010B51E2202211020FFF732F81F2202217D
:103770002020FFF72DF8122202213020FFF728F831
:1037800013220221BDE810404020FFF721B810B5F8
:10379000002109220846FFF71BF8272200211020EC
:1037A000FFF716F8282200212020FFF711F8252224
:1037B00000213020FFF70CF8262200214020FFF7DF
:1037C00007F81E2202211020FFF702F81F22022113
:1037D0002020FEF7FDFF292202213020FEF7F8FF0E
:1037E000232202214020FEF7F3FF24220221502051
:1037F000FEF7EEFF2C2206215A20FEF7E9FF2D22CC
:1038000006216A20FEF7E4FFBDE81040FCF768BD22
:1038100010B51E2202211020FEF7DAFF1F2202211E
:103820002020FEF7D5FF102202213020FEF7D0FF26
:1038300011220221BDE810404020FEF7C9BF10B59B
:103840001B2200211020FEF7C3FF1C220021202094
:10385000FEF7BEFF1D2200213020FEF7B9FF0D222A
:1038600000214020FEF7B4FF0E2200215020FEF779
:10387000AFFF3A2200216020FEF7AAFF3B22002181
:103880007020FEF7A5FF092202213020FEF7A0FFDD
:10389000142202214020FEF79BFF15220221BDE8E1
:1038A00010405020FEF794BF10B5092200212020BF
:1038B000FEF78EFF0A2200213020FEF789FF0B223F
:1038C00000214020FEF784FF1B2202210020FEF78A
:1038D0007FFF1C2202211020FEF77AFF1D22022109
:1038E0002020FEF775FF0D2202213020FEF770FF29
:1038F0000E2202214020FEF76BFF0F2202215020F2
:10390000FEF766FF2E2206210020FEF761FF2F2220
:1039100006211020FEF75CFF2C2206215A20FEF71C
:1039200057FF2D220621BDE810406A20FEF750BF48
:1039300070B50C2219491A48FCF743FC194C4FF496
:103940007A760025B8B1FEF797FE17A10220FFF79F
:103950006FF930466561FDF7AFF8E079401CC0B201
:10396000E071032816D0132020710D480C38C56073
:103970000561456170BDFEF77FFE0320207111A136
:103980000220FFF755F930466561FDF795F8E571BE
:10399000A571EAE701202072E7E700003600002069
:1039A000CC0B0020440800205B76375D5B6D315DF9
:1039B0005B74355DB9DCC0EDD4B1C3DCC2EBB4EDF2
:1039C000CEF300005B76375D5B6D315D5B74355D1A
:1039D000BDF8C8EBB9DCC0EDD4B1C4A3CABD0000CA
:1039E00010B55F4CA07800287ED000211023202243
:1039F0000846FEF711FF192200211420FEF7E8FE09
:103A00001A2200212420FEF7E3FE0C22002134209C
:103A1000FEF7DEFE062200214420FEF7D9FE0D222D
:103A200000215420FEF7D4FE0E2200216420FEF770
:103A3000CFFEA078012879D0102320220221002077
:103A4000FEF7EAFE192202211020FEF7C1FE1A221B
:103A500002212020FEF7BCFE1B2202213020FEF7AF
:103A6000B7FE1C2202214020FEF7B2FE1D220221D9
:103A70005020FEF7ADFE0D2202216020FEF7A8FEC9
:103A80000E2202217020FEF7A3FEA07802285AD051
:103A90001023202204210020FEF7BEFE1E22042156
:103AA0001020FEF795FE1F2204212020FEF790FE35
:103AB000232204213020FEF78BFE24220421402003
:103AC000FEF786FEA078032843D01023202206218B
:103AD0000020FEF7A1FE202206211020FEF778FE2E
:103AE00021220621202000E021E0FEF771FE2322A2
:103AF00006213020FEF76CFE242206214020FEF72E
:103B000067FE2C2206215A20FEF762FE2D22062196
:103B10006A20FEF75DFE134900206061C8600861FD
:103B20004861206108604860886010BD05E00021A0
:103B300022220846FEF74CFE5DE7222202210020E9
:103B4000FEF746FE7EE7222204210020FEF740FE1B
:103B5000A4E7222206210020FEF73AFEBBE7000080
:103B600044080020C00B002070B54FF4C872104903
:103B70001048FEF74BFA0F480068C16841F0100189
:103B8000C1600B4D01206872FFF7B2F8FFF78EF8A5
:103B9000094E0024305DFEF75FFD641C0A2CF9DB42
:103BA000C82000F086FA687A002800D0012070BD95
:103BB000200A0020B8090020180000202DE9F05F3D
:103BC0000025032000F075FA4FF00108774EA94652
:103BD0004FF4004ADFF8D8B1764C0AE0032000F039
:103BE00068FA35B1012D07D0022D09D0032D0DD172
:103BF00011E00022514606E000224FF4804102E02D
:103C000000224FF400515846FDF70FF90027052018
:103C100000F04FFA0EE000224FF48051F3E7052048
:103C200000F047FA37B1012F17D0022F28D0032F09
:103C300042D138E010213046FDF7F2F804EB85015F
:103C400010B181F8009037E081F8008010213046F3
:103C5000FDF7E6F80028F9D02EE020213046FDF7E8
:103C6000DFF804EB850110B181F8019024E081F8C0
:103C7000018020213046FDF7D3F80028F9D01BE061
:103C800040213046FDF7CCF804EB850110B181F8F6
:103C9000029011E081F8028040213046FDF7C0F823
:103CA0000028F9D008E080213046FDF7B9F804EB90
:103CB000850168B181F803907F1CFFB2042FAED359
:103CC0007DB1012D10D0022D4BD0032D11D14BE031
:103CD00081F8038080213046FDF7A2F80028F9D052
:103CE000EAE70122514601E0012291035846FDF71F
:103CF0009CF86D1CEDB2042DFFF470AF2078012804
:103D000035D06078012834D0A078012833D0E0780D
:103D1000012832D02079012831D06079012830D0B3
:103D2000A07901282FD0E07901282ED0207A01280F
:103D30002DD0607A01282CD0A07A01282BD0E07AEF
:103D400001282AD0207B012809D0607B012826D0B9
:103D5000A07B012825D0E07B012824D00020BDE8ED
:103D6000F09F01225103C1E701221103BEE70D209C
:103D7000F5E70E20F3E70F20F1E71020EFE7092029
:103D8000EDE70A20EBE70B20E9E70C20E7E7052049
:103D9000E5E70620E3E70720E1E70820DFE7022068
:103DA000DDE70320DBE70420D9E70000000801403D
:103DB000000C0140B00B002010B50922002110209A
:103DC000FEF706FD0A2200212020FEF701FD0B224E
:103DD00000213020FEF7FCFC2B2200214020FEF7C2
:103DE000F7FC292200215020FEF7F2FC1B220221C1
:103DF0000020FEF7EDFC1C2202211020FEF7E8FC5B
:103E00001D2202212020FEF7E3FC0D22022130209A
:103E1000FEF7DEFC0E2202214020FEF7D9FC0F2225
:103E200002215020FEF7D4FC2C2206215A20FEF756
:103E3000CFFC2D2206216A20FEF7CAFC2E22062185
:103E40000020FEF7C5FC2F220621BDE810401020FF
:103E5000FEF7BEBC70B5104C104E002560780128EE
:103E600002D002280ED012E0FEF706FC08202071D6
:103E70000B48B1690160F1694160316A8160FEF708
:103E8000DBFF03E0FEF7F8FB0A2020712570A58117
:103E9000B561F561356270BD44080020C00B00209B
:103EA0003600002010B5002109220846FEF790FCDC
:103EB0000A2200211020FEF78BFC0B22002120207B
:103EC000FEF786FC2B2200213020FEF781FC292200
:103ED00000214020FEF77CFC0C2202211020FEF77E
:103EE00077FC062202212020FEF772FC0D2202211F
:103EF0003020FEF76DFC0E2202214020FEF768FC08
:103F00000F2202215020FEF763FC2C2206215A20AA
:103F1000FEF75EFC2D2206216A20FEF759FC2E22B8
:103F200006210020FEF754FC2F220621BDE8104098
:103F30001020FEF74DBC000070B5104C104E00254F
:103F40002078012802D002280ED012E0FEF794FB60
:103F5000082020710B48716A0160B16A4160F16A02
:103F60008160FEF769FF03E0FEF786FB0920207100
:103F70002570E5817562B562F56270BD4408002068
:103F8000C00B00202A00002010B5192202210020B9
:103F9000FEF71EFC1A2202211020FEF719FC122245
:103FA00002212020FEF714FC132202213020FEF70C
:103FB0000FFC162202214020FEF70AFC09220221F2
:103FC0005020FEF705FC142202216020FEF700FCC1
:103FD000152202217020FEF7FBFB2E220621002075
:103FE000FEF7F6FB2F2206211020FEF7F1FB2C2214
:103FF00006215A20FEF7ECFB2D220621BDE81040D9
:104000006A20FEF7E5BB10B5192202210020FEF759
:10401000DFFB1A2202211020FEF7DAFB1022022118
:104020002020FEF7D5FB11220221BDE810403020F0
:10403000FEF7CEBB10B5192202210020FEF7C8FB07
:104040001A2202211020FEF7C3FB12220221202097
:10405000FEF7BEFB132202213020FEF7B9FB162229
:1040600002214020FEF7B4FB092202215020FEF776
:10407000AFFB142202216020FEF7AAFB15220221C9
:104080006A20FEF7A5FB2E2206210020FEF7A0FBEA
:104090002F2206211020FEF79BFB2C2206215A20FE
:1040A000FEF796FB2D220621BDE810406A20FEF7A0
:1040B0008FBB70B5054600244FF47A7603E0304696
:1040C00000F004F8641CAC42F9D370BD71B54FF434
:1040D00061754FF0E023104E009819E02C46A04285
:1040E00000D804469869614201EBC10110EBC1019F
:1040F00005D49A69824208DA8A42FADA05E08A1916
:1041000099698142FCDD9142FADC0098001B009025
:104110000028E3D178BD00004019010010B520222D
:1041200002211020FEF754FB212202212020FEF75D
:104130004FFB122202213020FEF74AFB13220221FC
:104140004020FEF745FB02230FA204211020FEF7BA
:10415000DDFB372204212020FEF73AFB1E2204213A
:104160003020FEF735FB1F2204214020FEF730FBF4
:10417000232204215020FEF72BFB24220421BDE83A
:1041800010406020FEF724BB4944000038B50021F0
:1041900009220846FEF71CFB0A2200211020FEF728
:1041A00017FB0B2200212020FEF712FB2522002105
:1041B0003020FEF70DFB262200214020FEF708FBF1
:1041C000202200215020FEF703FB21220021602045
:1041D000FEF7FEFA292200217020FEF7F9FA2322C9
:1041E00002211020FEF7F4FA242202212020FEF7FB
:1041F000EFFA022317A219463020FEF787FB0223AD
:1042000010241A46194640200094FEF749FB10235B
:104210002D2202215020FEF7FFFA01230422022161
:1042200058200094FEF73CFB2C2206215A20FEF772
:10423000CFFA2D2206216A20FEF7CAFA3022062183
:104240000020FEF7C5FABDE83840312206211020D3
:10425000FEF7BEBA4944000010B52022022110200A
:10426000FEF7B6FA212202212020FEF7B1FA102231
:1042700002213020FEF7ACFA11220221BDE81040E5
:104280004020FEF7A5BA00002DE9F0410C221A49A2
:104290001A48FBF796FF0126194C4FF47A77002550
:1042A000C0B1FEF7E9F917A10020FEF7C1FC3846BE
:1042B0002561FCF701FC6079401CC0B260710328E5
:1042C00015D0022020710D4805604560856025618C
:1042D000BDE8F081FEF7D0F9267110A10220FEF7AB
:1042E000A7FC3846FCF7E8FB6571A571EBE7A67102
:1042F000FEF7C2F91120E5E72A000020C00B0020DC
:10430000440800205B76375D5B6D315D5B74355D25
:10431000BDE2CBF8CAA7B0DC000000005B76375DD9
:104320005B6D315D5B74355DBFAACBF8B3C9B9A6CF
:104330000000000010B5202202211020FEF748FAEC
:10434000212202212020FEF743FA122202213020EE
:10435000FEF73EFA132202214020FEF739FA3722F7
:1043600004211020FEF734FA1E2204212020FEF73B
:104370002FFA1F2204213020FEF72AFA23220421DB
:104380004020FEF725FA24220421BDE810405020E9
:10439000FEF71EBA08B5322202211020FEF718FAE5
:1043A0001E2202212020FEF713FA1F2202213020B4
:1043B000FEF70EFA10200223009003221946402037
:1043C000FEF76EFA332202215020FEF701FA342262
:1043D00004212020FEF7FCF9342204213020FEF7CE
:1043E000F7F9342204214020FEF7F2F91E220421BD
:1043F0005020FEF7EDF91F220421BDE8084060209F
:10440000FEF7E6B938B51B2200211020FEF7E0F9CF
:104410001C2200212020FEF7DBF91D220021302084
:10442000FEF7D6F90D2200214020FEF7D1F90E2229
:1044300000215020FEF7CCF93A2200216020FEF73F
:10444000C7F93B2200217020FEF7C2F91024012396
:104450000322022100200094FEF722FA3C220221CE
:104460001020FEF7B5F9092202212020FEF7B0F94D
:104470000F480094022300681946C0F11E02302044
:10448000FEF70EFA3D2202214020FEF7A1F93E225E
:1044900002215020FEF79CF9362202216020FEF70F
:1044A00097F9BDE83840152202217020FEF790B937
:1044B0008408002038B50D2200211020FEF788F96D
:1044C0000E2200212020FEF783F93A22002130201D
:1044D000FEF77EF93B2200214020FEF779F91024F7
:1044E00001230322002150200094FEF7D9F93C2239
:1044F00000215820FEF76CF90F4800940223006851
:104500001946C0F11E021020FEF7CAF93D22022111
:104510002020FEF75DF93E2202213020FEF758F9F7
:10452000362202214020FEF753F9BDE8384015221B
:1045300002215020FEF74CB97C08002038B5044613
:104540008DF800004FF6FF73012269460248FDF71F
:104550009DFD204638BD00002809002030B585B0FB
:104560000C460546FCF758FB00200090CDE90105FC
:10457000CDE9034072B604A96846FCF7AFFA62B60B
:10458000FCF700FB05B030BD2DE9F84FFB48016892
:10459000FB4F3A6A891A14297ED300683862FFF704
:1045A0000DFBB861397A4FF0010640EA0102B97992
:1045B0004FF000040A4303D13A790AB1BE7201E018
:1045C00000B9BC72012967D0DFF8B883EE4D98F8C6
:1045D0000000012821D1FEF74FF8ECA10020FEF7E2
:1045E00027FB3C713C617C6188F80040BC707C71A9
:1045F000BC717C72FC70FC81BC812C606C60AC6016
:10460000EC602C616C616C62AC62EC62AC61EC6180
:104610002C624FF47A70FCF74FFAB969B84671B161
:1046200098F80400474608281FD00B281DD00D28F5
:104630001BD00E283CD00F283AD0102838D0D24FAB
:1046400010200C37DFF858934FF0020A07F1180BCF
:1046500011292CD2DFE801F02B43499BF3F2F1F052
:10466000EFEEEDECEBEAE9E8E700BC70FEF704F8EA
:10467000C6A10020FEF7DCFA3C717C71BC717C7233
:10468000FC70FC81BC813C617C612C606C60AC6026
:10469000EC602C616C6100E0F0E36C62AC62EC6297
:1046A000AC61EC612C624FF47A70FCF705FA2CE2F5
:1046B000BC70FDF7E1FF032038717C71BC717C7226
:1046C000FC707C61FC81BC813C612C606C60AC60E6
:1046D000EC602C616C616C62AC62EC62F4E298F8A4
:1046E00004000128E3D1FF21E7E398F8041071B139
:1046F00002290CD012291DD013291BD0042928D03F
:10470000092926D0052933D00A2931D0FDE1D8F86E
:1047100010100629CBD0009000EB0110C0B202238C
:1047200007220421FEF7BCF80721C6E3401CC8F8A5
:104730001000EAE1D8F814100629B8D0009000EB78
:104740000110C0B2022307220421FEF7A9F80721B5
:10475000C2E3B8F80E100629A9D2009000EB0110B0
:10476000C0B2022307220421FEF79AF80721C2E310
:10477000B8F80C1006299AD2009000EB0110C0B2D4
:10478000022307220421FEF78BF80721C2E398F8E1
:10479000041081B102290ED012291BD0132919D07F
:1047A00007292AD004292FD009292DD005294BD03B
:1047B0000A2949D0A9E1D8F810100629A6D00090FE
:1047C00000EB01100422C0B202231146FEF768F884
:1047D0000421C2E3D8F81410062997D0009000EB0A
:1047E00001100422C0B202231146FEF759F8042139
:1047F000C6E3401CC8F8140087E10421A9F80010A2
:1048000002230A460090AAE1B8F80E10062990D2B9
:10481000009000EB01100422C0B202231146FEF703
:104820003FF80421C6E3F1E3F1E3F1E3DBE372E3F4
:1048300025E3AAE2BDE155E106E1C6E055E016E058
:10484000401CA8F80E0060E1B8F80C100629B1D29F
:10485000009000EB01100422C0B202231146FEF7C3
:104860001FF80421B9E3401CA8F80C004DE198F8AA
:10487000041071B102290CD0122915D0132913D0BC
:1048800004291CD009291AD0052923D00A2921D0AE
:104890003BE1D8F8101006298CD0009000EB0110F5
:1048A0000223C0B20122AAE2D8F814100629A3D02C
:1048B000009000EB01100223C0B20122B1E2B8F86F
:1048C0000E10062998D2009000EB01100223C0B20E
:1048D0000122B8E2B8F80C1006298DD2009000EB46
:1048E00001100223C0B20122BFE298F8041071B196
:1048F00002290CD012291CD013291AD004292AD03D
:10490000092928D005294DD00A294BD0FDE0D8F837
:104910001010062997D0009000EB0110C0B20223BE
:1049200000220421FDF7BCFFD8F8100025F8104044
:10493000FCE6D8F81410062985D0009000EB011091
:10494000C0B2022300220421FDF7AAFFD8F8140008
:1049500027F810404DE7B8F80E10062986D20090CF
:1049600000EB0110C0B2022300220421FDF798FFE2
:10497000B8F80E002BF8104062E700000800002095
:10498000440800206C080020C00B00205B76375DD7
:104990005B6D315D5B74355DD2D1C9CFCBF8000062
:1049A00022000020B8F80C100629AFD2009000EBCE
:1049B0000110C0B2022300220421FDF771FFFB4960
:1049C000B8F80C0021F810404DE798F804100826BC
:1049D00071B102290CD0122915D0132913D0042942
:1049E0001CD009291AD0052923D00A2921D094E303
:1049F000D8F81010062989D0009000EB011002238E
:104A0000C0B20822FBE1D8F814100629EFD00090BC
:104A100000EB01100223C0B2082202E2B8F80E1027
:104A20000629E4D2009000EB01100223C0B2082254
:104A300009E2B8F80C100629D9D2009000EB011059
:104A40000223C0B2082210E298F8041071B10229C2
:104A50000CD0122919D0132917D0042924D00929E0
:104A600022D005292FD00A292DD056E3D8F81010CE
:104A70000629BCD0009000EB0110C0B20223052231
:104A80000421FDF70DFF052167E2D8F8141006296F
:104A9000ADD0009000EB0110C0B20223052204212A
:104AA000FDF7FEFE05216BE2B8F80E1006299ED236
:104AB000009000EB0110C0B2022305220421FDF793
:104AC000EFFE052176E2B8F80C1006298FD200908F
:104AD00000EB0110C0B2022305220421FDF7E0FE25
:104AE00005217AE298F8041081B102290ED012292A
:104AF0001ED013291CD007292CD0042934D0092911
:104B000032D0052942D00A2940D006E3D8F8101047
:104B10000629AAD0009000EB01100223C0B21A4669
:104B20000421FDF7BDFED8F8100025F810A0FDE522
:104B3000D8F81410062998D0009000EB0110022339
:104B4000C0B21A460421FDF7ABFED8F8140027F8CE
:104B500010A04EE6A9F800A002231A4600900421F6
:104B60003020FDF79DFED8E2B8F80E100629CCD211
:104B7000009000EB01100223C0B21A460421FDF799
:104B80008FFEB8F80E002BF810A059E6B8F80C10FC
:104B90000629BAD2009000EB01100223C0B21A46D7
:104BA0000421FDF77DFE814AB8F80C0022F810A020
:104BB00059E698F8040013274FF0140B1428A4D2D8
:104BC000DFE800F0372837446A782786276A782795
:104BD000272727272727A1BCFFF756FB26E000BF82
:104BE000C8F81040FDF748FD71A10020FEF720F83D
:104BF0004FF47A70FBF760FF98F80500401CC0B2D4
:104C000088F80500032819D088F804A02C606C608F
:104C1000AC6082E2D8F81000012807D12888FF286C
:104C200004D1FDF729FD122088F80400C8F81040CF
:104C3000ECE7D8F810000628D2D1CDE7FDF71CFD2F
:104C4000112088F8040088F80660DFE798F8020071
:104C500038B1012809D05C4D02280AD00328D8D1E8
:104C600010E0FDF709FD042013E0FDF705FD052028
:104C70000FE0FDF701FD2888032801D30E2008E08E
:104C8000062006E0FDF7F8FC288808B90F2000E0B0
:104C9000072088F8040040E2B8F80E00062828D063
:104CA000A8F80E4088F800A0FFF746F96C62AC62E5
:104CB000EC6232E2B8F80C0006281FD0A8F80C40CD
:104CC00088F801A0FFF7C6F8AC61EC612C6224E221
:104CD000B9F80000801E022808D8FDF7CDFCB9F80D
:104CE0000000FBF71FFCA9F8004016E2FDF7C4FC2A
:104CF000CEE788F80060A8F80E40D5E788F8016094
:104D0000A8F80C40DEE7D8F81400062831D0C8F81F
:104D10001440FDF7B1FC2DA10020FDF789FF4FF4F1
:104D20007A70FBF7C9FE98F80700401CC0B288F8FB
:104D3000070019E0EC602C616C61EEE1D8F814001A
:104D4000062816D0FDF798FC20A10020FDF770FF83
:104D50004FF47A70FBF7B0FE98F80700401CC0B221
:104D600088F80700C8F81440032807D088F80470B2
:104D7000E0E7FEF7DDFDC8F81440DBE7FDF77CFC5B
:104D800088F804B088F80860D4E798F80410092679
:104D900051B3022929D0122939D0132937D0042937
:104DA00047D0092945D0052955D0B6E1D80B0020B8
:104DB0005B76375D5B6D315D5B74355DBDE2CBF875
:104DC000CAA7B0DC00000000120000205B76375D4F
:104DD0005B6D315D5B74355DB9DCC0EDD4B1C3DCB6
:104DE000C2EBB4EDCEF30000FFE7D8F810100629AF
:104DF00054D0009000EB01100223C0B2092204211C
:104E0000FDF74EFDD8F8100025F810608EE4D8F8B4
:104E10001410062942D0009000EB01100223C0B20A
:104E200009220421FDF73CFDD8F8140027F8106092
:104E3000DFE4B8F80E10062930D2009000EB011024
:104E40000223C0B209220421FDF72AFDB8F80E00A2
:104E50002BF81060F4E4B8F80C1006291ED200906C
:104E600000EB01100223C0B209220421FDF718FD56
:104E7000AC49B8F80C0021F81060F4E44FE198F860
:104E8000041061B102290AD0122917D0132915D0B4
:104E9000042922D0092920D005292DD03DE1D8F8B8
:104EA000101006294AD0009000EB0110C0B2022376
:104EB00006220421FDF7F4FC06214EE0D8F8141078
:104EC00006293BD0009000EB0110C0B2022306225D
:104ED0000421FDF7E5FC062152E0B8F80E10062982
:104EE0002CD2009000EB0110C0B202230622042154
:104EF000FDF7D6FC06215DE0B8F80C1006291DD29E
:104F0000009000EB0110C0B2022306220421FDF73D
:104F1000C7FC062161E098F8041081B102290ED087
:104F200012291FD013291DD007292ED0042933D0D0
:104F3000092931D0052942D00A2940D0EDE0D8F81E
:104F40001010062961D0009000EB0110C0B20223BE
:104F500003220421FDF7A4FC0321D8F8100025F852
:104F60001010E5E4D8F8141006294ED0009000EB9C
:104F70000110C0B2022303220421FDF791FC03219A
:104F8000D8F8140027F8101033E40321A9F8001012
:104F900002230A460090E2E5B8F80E10062934D242
:104FA000009000EB0110C0B2022303220421FDF7A0
:104FB00077FC0321B8F80E002BF8101040E4B8F885
:104FC0000C10062921D2009000EB0110C0B2022380
:104FD00003220421FDF764FC0321524AB8F80C00B7
:104FE00022F810103FE498F80400042811D0052896
:104FF0000FD006280DD007280BD003281DD012286B
:105000001BD0092820D00A281ED086E075E064E075
:105010002DE0FDF731FB88F80240A8F80E40A8F813
:105020000C406C62AC62EC62AC61EC612C62C8F862
:1050300010402C606C60AC6017E0FDF71DFB88F839
:10504000024088F8046068E0A8F80E40A8F80C4018
:105050006C62AC62EC62AC61EC612C62C8F810402E
:105060002C606C60AC60FDF707FB032011E698F83C
:10507000040004280FD005280DD009280BD00A28D9
:1050800009D0C0B1022816D012281DD013281BD079
:1050900007281FD041E0A8F80E40A8F80C40C8F837
:1050A00010402C606C60AC606C62AC62EC62AC6115
:1050B000EC612C6204E0C8F810402C606C60AC60BD
:1050C0000420FDF7DCFA28E0C8F81440EC602C61FD
:1050D0006C61F5E7A9F80040F2E798F804000328AE
:1050E0001BD1FDF7C9FA98F8020020B1B0F1010018
:1050F00088F8020011E00320FAE798F8040003287A
:105100000BD1FDF7B9FA98F80200401CC0B288F83C
:105110000200042801D188F80240C8F81840BDE810
:10512000F88F0000D80B0020FCF71CF8FDF7CEFE2E
:10513000FDF7A0F9FDF774FAFDF73AFAFDF7E4F987
:10514000FDF752FAFDF700FAFDF7D2FAFDF7FAFD86
:10515000012216491648FCF759FF01221549164845
:10516000FCF754FF1548FCF78FFBFDF719FDFDF721
:1051700083FA13A0FEF764F9FEF7F6FCA0B116A0BF
:10518000FEF75EF91B4D00BF00F0D2F9FFF7FCF906
:105190002C78002CF8D00220FBF78EFC2878844273
:1051A000F2D100F033F9EFE713A0E9E76A08002035
:1051B000700900206B08002028090020E00800206A
:1051C0004153363038D6B8CEC6C4A3BFE9B2E2CA1E
:1051D000D4BFAACABC0D0A004153363038D6B8CE67
:1051E000C6C4A3BFE9B3F5CABCBBAFCAA7B0DC0D48
:1051F0000A000000680800204153363038D6B8CE87
:10520000C6C4A3BFE9B3F5CABCBBAFB3C9B9A60D49
:105210000A00000008B51023532200211846FDF7AC
:10522000FBFA1023542200211820FDF7F5FA102371
:105230004D2200212020FDF7EFFA102000900223DC
:10524000202200212620FDF72BFB032200213620FF
:10525000FDF7BEFA042200214620FDF7B9FA052227
:1052600000215620FDF7B4FA062200216620FDF742
:10527000AFFA092202210020FDF7AAFA0A22022130
:105280001020FDF7A5FA0B2202212020FDF7A0FA3D
:105290000C2202213020FDF79BFA06220221402039
:1052A000FDF796FA0D2202215020FDF791FA0E2209
:1052B00002216020FDF78CFA0F2202217020FDF7F9
:1052C00087FA2E2206210020FDF782FA2F220621DE
:1052D0001020FDF77DFA302206216020FDF778FAD4
:1052E000312206217020FDF773FABDE80840FBF774
:1052F00069BB0246012000E05043491EC9B2FBD2FF
:10530000704700002DE9F843FDF7B9FB002809D1EB
:105310001DA0FEF795F80120FDF793FB20B11FA01B
:10532000FEF78EF8BDE8F8836B466322002101206A
:10533000FDF7BFFB00251C4F1C4C01264FF47A786B
:1053400088B1FDF799F9022038702078401CC0B26E
:105350002070032810D016A10220FDF769FC4046FA
:10536000FBF7AAFBDEE72570FDF786F917A1002001
:10537000FDF75EFC3E70F2E71A481BA106700220A2
:10538000FDF756FC2570EAE7BBF1C8A1CDBCCFF113
:10539000B3C9B9A6B3C9B9A60D0A0000C7EBB0B42A
:1053A000CAD6D6B80D0A0000480800204D080020D3
:1053B0005B76375D5B6D315D5B74355DD6B8CEC6AF
:1053C000D1E9D6A4CAA7B0DC000000005B76375D47
:1053D0005B6D315D5B74355DBDE2CBF8B3C9B9A6D9
:1053E00000000000470800205B76375D5B6D315D93
:1053F0005B74355DD6B8CEC6D1E9D6A4CAA7B0DCF9
:1054000020BDFBD3C3D6B8CEC60000002DE9F041C5
:10541000344C354E354D217841291BD0442927D0B5
:105420004F293ED020464278303A94B28278303AC2
:1054300093B2C278303A95B20279303A96B2427954
:105440008079303A303892B287B2552936D0522915
:1054500036D03EE0FDF710F93088032805D30E2042
:10546000322328710F2222A117E00620287130E094
:10547000FDF702F9308848B16078A0F132010229C5
:1054800008D8303880B2FBF74DF822E032230F22E3
:1054900019A102E032230F2219A11B48FCF7F6FDE7
:1054A00017E0FDF7E9F819A10020FDF7C1FB012085
:1054B00028714FF47A70FBF7FFFA0AE0194800E010
:1054C0001948048043808580C68002814781FDF7AA
:1054D000B3FC164900200870BDE8F041FF210148E7
:1054E000FAF74BBEF00B0020120000204408002009
:1054F00061646466756C6C00656D707479000000A1
:1055000069646572726F7200700900205B76375DA6
:105510005B6D315D5B74355DBDE2CBF8B3C9B9A697
:10552000000000002A00002036000020680800204B
:1055300021490A682148C369D21A642A3BD3096801
:10554000C1610079152836D2DFE800F00B0D0F118C
:10555000131517191B1D1F21232527292B2D2F312B
:105560003300FFF757BEFDF713BFFDF7BFBEFEF7D1
:1055700037BAFEF797BCFEF71FBCFEF708B9FEF777
:1055800005BEFEF740BDFEF755BDFEF7FDBCFEF7BC
:105590003FB9FEF7E5B8FEF75FBEFEF7FBBEFEF7CC
:1055A000C9BEFEF7BBBDFEF785BFFEF77DB9FEF7AE
:1055B00046B9FEF727BF70470800002044080020C6
:1055C000010202030405060708090A0B0C0D0E0F61
:1055D0001010000000000000000001020304060794
:1055E00008090000000001020304000000000000A0
:1055F0000000002F000000000700070000147F14C7
:105600007F1400242A7F2A120062640813230036C4
:105610004955225000000503000000001C224100F3
:10562000000041221C000014083E08140008083E37
:105630000808000000A06000000808080808000032
:1056400060600000002010080402003E5149453E01
:105650000000427F4000004261514946002141451F
:105660004B31001814127F10002745454539003C86
:105670004A49493000017109050300364949493654
:1056800000064949291E0000363600000000563643
:105690000000000814224100001414141414000027
:1056A0004122140800020151090600324959513EB5
:1056B000007C1211127C007F49494936003E41416D
:1056C0004122007F4141221C007F49494941007F1E
:1056D00009090901003E4149497A007F0808087F0D
:1056E0000000417F4100002040413F01007F08143D
:1056F0002241007F40404040007F020C027F007F3B
:105700000408107F003E4141413E007F090909061F
:10571000003E4151215E007F091929460046494952
:1057200049310001017F0101003F4040403F001F1F
:105730002040201F003F4038403F0063140814639E
:1057400000070870080700615149454300007F4188
:10575000410000552A552A55000041417F000004B0
:1057600002010204004040404040000001020400E9
:10577000002054545478007F48444438003844444E
:10578000442000384444487F0038545454180008DA
:105790007E0901020018A4A4A47C007F08040478F8
:1057A0000000447D4000004080847D00007F102880
:1057B00044000000417F4000007C04180478007C15
:1057C0000804047800384444443800FC2424241895
:1057D0000018242418FC007C0804040800485454D1
:1057E000542000043F444020003C4040207C001CEA
:1057F0002040201C003C4030403C004428102844FD
:10580000001CA0A0A07C004464544C441414141444
:105810001414000000000000000000000000000060
:105820000000000000F8000000000000003330001D
:10583000000000100C06100C060000000000000024
:10584000000040C07840C0784000043F04043F049A
:105850000400007088FC08300000001820FF211EA2
:105860000000F008F000E018000000211C031E21D9
:105870001E0000F00888700000001E212324192754
:10588000211010160E0000000000000000000000B3
:105890000000000000E018040200000000071820CB
:1058A000400000020418E00000000040201807003B
:1058B0000000404080F0804040000202010F0102E1
:1058C0000200000000F0000000000101011F0101C2
:1058D0000100000000000000000080B07000000027
:1058E00000000000000000000000000101010101B3
:1058F0000101000000000000000000303000000046
:10590000000000000000806018040060180601001C
:10591000000000E010080810E000000F1020201028
:105920000F00001010F8000000000020203F202091
:105930000000007008080888700000302824222128
:1059400030000030088888483000001820202011DE
:105950000E000000C02010F8000000070424243FBF
:10596000240000F808888808080000192120201168
:105970000E0000E0108888180000000F1120201190
:105980000E0000380808C83808000000003F00007A
:1059900000000070880808887000001C2221212265
:1059A0001C0000E010080810E00000003122221165
:1059B0000F00000000C0C0000000000000303000F8
:1059C0000000000000800000000000008060000077
:1059D00000000000804020100800000102040810B0
:1059E00020004040404040404000040404040404BF
:1059F000040000081020408000000020100804026D
:105A00000100007048080808F0000000003036016E
:105A10000000C030C828E810E0000718272423142D
:105A20000B000000C038E0000000203C23020227E9
:105A3000382008F8888888700000203F2020201136
:105A40000E00C03008080808380007182020201071
:105A5000080008F808080810E000203F2020201067
:105A60000F0008F88888E8081000203F2020232035
:105A7000180008F88888E8081000203F200003007C
:105A80000000C03008080838000007182020221E37
:105A9000020008F808000008F808203F2101012151
:105AA0003F20000808F8080800000020203F2020C0
:105AB000000000000808F8080800C08080807F000F
:105AC000000008F888C028180800203F2001263868
:105AD000200008F8080000000000203F20202020BF
