:020000040800F2
:10000000F8110020050100087F26000835210008AE
:100010007D26000849050008E133000800000000C3
:10002000000000000000000000000000312C00086B
:100030004B050008000000002F2C0008CD2E000802
:100040001F0100081F0100081F0100081F01000810
:100050001F0100081F0100081F0100081F01000800
:100060001F0100081F0100081F0100081F010008F0
:100070001F0100081F0100081F0100081F010008E0
:100080001F0100081F0100081F0100081F010008D0
:100090001F0100081F0100081F0100081F010008C0
:1000A0001F0100081F0100081F0100081F010008B0
:1000B0001F010008312F00081F0100081F01000860
:1000C0001F0100081F0100081F0100081F01000890
:1000D0001F0100089D320008A9320008E53200081F
:1000E0001F0100081F0100081F010008DFF810D0E1
:1000F00000F0A6F80048004785510008AFF30080E3
:10010000F81100200648804706480047FEE7FEE752
:10011000FEE7FEE7FEE7FEE7FEE7FEE7FEE7FEE7B7
:100120002F2F0008ED000008202A04DB203A21FAD6
:1001300002F00021704721FA02F3D040C2F1200200
:10014000914008431946704740EA01039B0703D0DA
:1001500009E008C9121F08C0042AFAD203E011F806
:10016000013B00F8013B521EF9D27047D2B201E0C8
:1001700000F8012B491EFBD270470022F6E710B5AC
:1001800013460A4604461946FFF7F0FF204610BD05
:1001900030B505462A460B4612F8010B13F8014B01
:1001A00008B1A042F8D01CB1002802D06D1CF1E7C4
:1001B000284630BD421C10F8011B0029FBD1801AD3
:1001C000704730B504460020034600E05B1C9342B4
:1001D00003D2E05CCD5C401BF8D030BD2DE9F05F70
:1001E0000546002092469B468846064681464024A6
:1001F0001BE02846414647462246FFF795FF5346F7
:100200005A46C01A914110D311461846224600F0B2
:1002100029F82D1A67EB01084F46224601200021DC
:1002200000F020F817EB00094E41201EA4F1010454
:10023000DFDC484631462A464346BDE8F09F0000D1
:10024000064C074D06E0E06840F0010394E8070023
:1002500098471034AC42F6D3FFF74CFF005F00081C
:10026000205F0008202A04DB203A00FA02F1002077
:1002700070479140C2F1200320FA03F319439040E4
:10028000704770B58D1810F8014B14F0030201D1BE
:1002900010F8012B231106D110F8013B03E010F8F0
:1002A000016B01F8016B521EF9D1ABB110F8012BB3
:1002B00004F00C048A1A0C2C03D0A2EB84129B1CB1
:1002C00008E010F8014BA2EB0422F8E712F8014B0A
:1002D00001F8014B5B1EF9D5A942D4D3002070BDB3
:1002E0002DE9F84F614F0025614E7888032806D329
:1002F00060A003F09BF802F0C3F90E2018E0DFF8CD
:1003000094914FF4FA7A4FF001084FF47A7B00BFD2
:1003100005F0B8F803F046FC0D2806D0052D5FD295
:10032000DFE805F0091C314E690002F0A9F903204D
:100330003070BDE8F88F641CE4B2214656A003F08B
:1003400075F802F0A0FBA8B9012002F07EFB88B985
:1003500055A003F06BF80024012526E0641CE4B2EC
:1003600054A003F063F802F08EFB18B9022002F0EB
:100370006CFB10B102F0DAFC32E04BA003F056F84F
:100380000024022511E04FA003F050F802F0D7FB43
:1003900005000FD04FA003F049F8284602F0C6FC34
:1003A00000242546504603F078FE4FF4C87003F051
:1003B00074FEADE74AA003F039F8032550460DE07E
:1003C0004AA003F033F8504603F067FE02F0D1FB79
:1003D00040BB4AA003F02AF80425584603F05DFE0E
:1003E0004FF4C87003F059FE0F2C91D102F048F978
:1003F00086F800809DE700221046494631F810300B
:10040000A3B1401C0328F9DB1146022002F0E6FBF1
:1004100000907888401C81B279803DA003F006F8F6
:10042000009840B1002502F081FCD6E729F8108041
:10043000801C82B2E8E73BA002F0F8FF02F0FEFC6D
:100440003C48016869B10024046002F019F9347075
:1004500001B03223BDE8F04F0A2237A1394801F03C
:100460001BBE02F00DF90B203070F1E710000020E8
:1004700048080020C2BCC8EBD6B8CEC6CAA7B0DCBC
:10048000A3ACD6BBC4DCC2BCC8EB33B8F6D6B8CE7E
:10049000C60D0A0024000020C7EBB0B4CAD6D6B8F7
:1004A00025640D0A00000000D6B8CEC6D5FDB3A362
:1004B0000D0A0000C7EBD4D9B0B4D2BBB4CE0D0A3C
:1004C00000000000B6D4B1C8C1BDB4CED6B8CEC607
:1004D0000D0A0000B6D4B1C8CAA7B0DC0D0A0000EE
:1004E000B6D4B1C8B3C9B9A60D0A0000C9FAB3C9D8
:1004F000D6B8CEC6C4A3B0E50D0A0000C9FAB3C988
:10050000D6B8CEC6C4A3B0E5B3C9B9A60D0A0000DB
:10051000C2BCC8EBD6B8CEC6B8F6CAFDCEAA256412
:10052000200D0A00C2BCC8EBD6B8CEC6B3C9B9A666
:100530000D0A000060080020416464737563636500
:100540007373000030090020FEE770472DE9F04189
:10055000254D0446688800283DD0214623A002F09E
:1005600065FF0121204602F041FA10B102F0DEFBE6
:1005700034E02748274F00EB4400002630F8041CE5
:10058000254C01290AD0206800B3266032230422BA
:1005900022A1BDE8F041234801F07EBD20F8046CA3
:1005A00021A002F043FF6888401E81B2698022A02A
:1005B00002F03CFF02F042FC206820B126603223AA
:1005C0000F2222A1E5E70D203870F8E702F058F875
:1005D00010203870DAE721A002F028FFBDE8F041D2
:1005E00040F2DC5003F059BD10000020B5A5B8F66C
:1005F000C9BEB3FDD6B8CEC6BFAACABCA3ACC9BEDD
:10060000B3FD4944CEAAA3BA25640D0A0000000038
:100610002400002048080020600800204E6F496434
:100620000000000030090020C9BEB3FDD6B8CEC618
:10063000B3C9B9A6200D0A00CAA3D3E0D6B8CEC666
:10064000CAFDCEAAA3BA25640D0A000044656C65F4
:10065000746573756363657373000000C9BEB3FD91
:10066000D6B8CEC6CAA7B0DCA3ACD6B8CEC6CAFD33
:10067000BEDDCEAABFD50D0A0000000021283CD265
:10068000DFE800F011131517191B1D1F2123252763
:100690003B3B3B3B27293B3B3B2B3B3B2D2F31330C
:1006A000353B3B37390016A070471AA070471EA093
:1006B000704722A0704726A070472AA070472EA03E
:1006C000704732A0704736A070473AA070473EA0EE
:1006D000704742A0704746A070474AA070474EA09E
:1006E000704752A0704756A070475AA070475EA04E
:1006F000704762A0704766A070476AA0704700000C
:10070000202020202020204F4B202020202020208F
:100710000000000020CAFDBEDDB0FCBDD3CAD5B4C8
:10072000EDCEF32000000000B4ABB8D0C6F7C9CFBF
:10073000C3BBD3D0CAD6D6B800000000C2BCC8EB39
:10074000D6B8CEC6CDBCCFF1CAA7B0DC0000000041
:1007500020D6B8CEC6CCABB8C9BBF2CCABB5AD20B9
:100760000000000020D6B8CEC6CCABCAAABBF2CCE3
:10077000ABBAFD20000000002020D6B8CEC6CDBC0C
:10078000CFF1CCABC2D220200000000020D6B8CEE2
:10079000C6CCD8D5F7B5E3CCABC9D9200000000052
:1007A0002020D6B8CEC6B2BBC6A5C5E420202020E6
:1007B0000000000020C3BBD3D0CBD1CBF7B5BDD652
:1007C000B8CEC62000000000202020CCD8D5F7BA33
:1007D000CFB2A2CAA7B0DC20000000002020C9BE12
:1007E000B3FDC4A3B0E5CAA7B0DC20200000000020
:1007F00020C7E5BFD5D6B8CEC6BFE2CAA7B0DC20B9
:1008000000000000BBBAB3E5C7F8C4DACEDED3D02F
:10081000D0A7CDBC0000000020B6C1D0B4464C41EA
:100820005348B3F6B4ED202000000000202020CE75
:10083000B4B6A8D2E5B4EDCEF3202020000000002D
:100840002020CEDED0A7BCC4B4E6C6F7BAC52020AF
:100850000000000020BCC4B4E6C6F7C4DAC8DDB4AA
:10086000EDCEF3200000000020BCC7CAC2B1BED24A
:10087000B3C2EBB4EDCEF320000000002020202016
:10088000D6B8CEC6BFE2C2FA202020200000000069
:1008900020202020B5D8D6B7B4EDCEF320202020DC
:1008A0000000000020B7B5BBD8C8B7C8CFC2EBD393
:1008B000D0CEF3200000000072B6FEE7064900200B
:1008C000C8610648016941F004010161016941F014
:1008D0004001016170470000080A0020002002402A
:1008E000064A0021D16106490A6942F002020A6102
:1008F0004861086940F0400008617047080A00201C
:1009000000200240044B0022DA61044A136943F0DC
:100910000103136101807047080A00200020024093
:1009200014480022C168CB06134904D5CA6942F0B5
:100930000202CA611022C3685B0705D5CB6943F088
:100940000103CB6142F00402C369DB0707D0CB6926
:1009500043F00403CB61C16921F00101C161A2F53B
:100960008071013901D0C2607047C16921F0010175
:10097000C161704700200240080A002070B505469A
:1009800000F05EFA0646114C09E0681C07D025B15C
:1009900000F056FA801BA84201D9032070BDE06820
:1009A000C007F2D1E068800601D52020E060E06851
:1009B000C00605D4E069C00702D1E068400703D54E
:1009C000FFF7AEFF012070BD002070BD0020024087
:1009D00010B501F019FD002803D0BDE8104004F067
:1009E000BFBC10BD10B590F821100022022905D01F
:1009F0000421816380F82020012010BD01680B686C
:100A000023F00E030B6001680B6823F001030B60F9
:100A100090F84030C46B012101FA03F3636080F861
:100A2000211080F82020104610BD000010B590F86D
:100A300021100024022903D00421816301243DE018
:100A400001680A6822F00E020A6001680A6822F052
:100A500001020A601A4A0168914201D1012121E094
:100A6000174A1432914201D110211BE0144A283256
:100A7000914201D1891515E0114A3C32914201D1D0
:100A800089140FE00E4A5032914202D14FF4803166
:100A900008E00B4A6432914202D14FF4801101E028
:100AA0004FF08071064A083A5160012180F8211008
:100AB000002180F82010416B01B18847204610BD0D
:100AC0000800024070B5044600F0BAF90546601C03
:100AD00002D004480078044400F0B2F9401BA04260
:100AE000FAD370BD000000202DE9F04705462648E6
:100AF0000F460126017E01290FD001218146017692
:100B00002868DFF888804CF25034022808D0A246CA
:100B10002046FFF733FFA8B131E00220BDE8F0879F
:100B20002046FFF72BFF08BB0120FFF7C7FE20463A
:100B3000FFF724FFD8F81010064621F00401C8F88A
:100B400010101CE04FF0FF303860AC6811E0204618
:100B5000FFF7C6FE5046FFF711FFD8F81010060049
:100B600021F00201C8F8101001D03C6007E004F544
:100B70008064D5E9020100EB8120A042E7D8002182
:100B800089F818103046C9E7080A00200020024002
:100B90000348016941F080010161002070470000B5
:100BA000002002402DE9F05F07461C4888460024DB
:100BB000017E15461E46012909D001218146017694
:100BC0004CF2503A5046FFF7D9FE18B122E002200D
:100BD000BDE8F09F012F02D0022F00D00427D3469A
:100BE000DFF83CA0220128463146FFF79DFA81B28A
:100BF00008EB4400FFF786FE5846FFF7BFFEDAF821
:100C0000102022F00102CAF8102018B9641CE4B2C6
:100C1000BC42E7D3002289F81820D9E7080A00204F
:100C200000200240064900200A69120607D5054A3D
:100C30004A60054A4A600969090600D501207047E3
:100C40000020024023016745AB89EFCD2DE9F84F25
:100C5000DFF8B8910024A9F1040B23460F2709F10E
:100C6000040AABF1040EC9E00125A5402A40AA42BE
:100C70007DD1674ED1F804C0ACEB0608B44532D044
:100C800014DCBCF1030F3AD009DCBCF1000F2AD010
:100C9000BCF1010F1CD0BCF1020F31D11DE0BCF141
:100CA000110F17D0BCF1120F2AD119E0B8F5881F27
:100CB00019D006DCB8F5803F15D0B8F5801F1FD1DC
:100CC00011E0B8F5001F0ED0B8F5041F18D10AE0E6
:100CD000CB6815E0CB681B1D12E0CB6808330FE032
:100CE000CB680C330CE08B682BB1012B4FF0080361
:100CF00003D0456104E0042302E0056100E0002325
:100D0000FF2A01D8064601E000F104064FEA8405F7
:100D100001D9A5F12005D6F8008007FA05FC28EADC
:100D20000C0803FA05F548EA0508C6F800804D6886
:100D3000ED0062D5374DAE6946F00106AE61AD6992
:100D400024F0030605F001050095334D06EB050C74
:100D5000DCF80850A607360F07FA06F825EA08055A
:100D6000DFF8B880404503D14FF0000817E044E0B9
:100D7000DFF8AC80404502D14FF001080FE0DFF80A
:100D8000A480404502D14FF0020808E0DFF89880C7
:100D9000404502D14FF0030801E04FF0040808FA83
:100DA00006F848EA0508CCF808804D68D9F80060D4
:100DB000ED024D4601D5164300E096432E604D6886
:100DC000DAF80060AD02554601D5164300E09643BF
:100DD0002E604D68DBF80060AD035D4601D516431B
:100DE00000E096432E604D68DEF80060ED03754626
:100DF00001D5164300E096432E60641C0D682A4618
:100E0000E5407FF431AFBDE8F88F000008040140F1
:100E100000001110001002400000014000080140D5
:100E2000000C01400010014000140140806808409F
:100E300000D0012070470AB1016170470904FBE747
:100E400001488068704700000000002070B5040071
:100E500025D094F83D00002520B984F83C50204668
:100E600000F050F9242084F83D002068016821F04A
:100E7000010101602068016841F4004101602068BF
:100E8000016821F40041016000F098FA4D4A616860
:100E9000914201D84C4900E04C49884201D20120DE
:100EA00070BD4B492368B0FBF1F15E6826F03F0648
:100EB0000E435E606368934206D94FF496735943BC
:100EC0004FF47A73B1FBF3F12368491C1E6A26F0D4
:100ED0003F06314319626168914210D84900401EB3
:100EE000B0FBF1F2521CC2F30B02042A01D204201F
:100EF00022E0B0FBF1F0401CC0F30B001CE0A26844
:100F0000F2B301EBC10303EB0116431EB3FBF6F38F
:100F10005B1C43F480431B0549D092B301EBC10233
:100F200002EB0111401EB0FBF1F0401CC0F30B00BE
:100F300040F4804040F400402168CA694CF6FF73D9
:100F40009A431043C861D4E907100143206802683E
:100F500022F0C00211430160D4E90301014320687B
:100F6000826848F2FF339A4311438160D4E9050156
:100F700008432168CA6822F0FF021043C86001E0FC
:100F80000EE016E02068016841F00101016025646F
:100F9000202084F83D00256384F83E50002070BD79
:100FA00001EB4106431EB3FBF6F35B1CB3E70120E4
:100FB000C2E701EB4101401EB0FBF1F0401CC0F361
:100FC0000B00B7E7A086010080841E0000093D00E9
:100FD00040420F002DE9FF4F83B09A46DDE911979B
:100FE00093460446DDF84080FFF72AFF054694F853
:100FF0003D0020287FD11923012240492046009539
:1010000001F030F9002876D194F83C00012872D024
:10101000012084F83C0020680168C90703D10168F9
:1010200041F0010101602068016821F40061016064
:10103000212084F83D00402084F83E0000262664EC
:10104000C4F82480A4F82A90608D20852C48E062A2
:10105000CDE9007553465A462046049901F082F8BE
:1010600070B930E02A463946204601F0A1F958B15E
:10107000206C042804D12068016841F400710160EB
:10108000012007B0BDE8F08F606A21680078086130
:10109000606A401C6062218D491E89B22185628D83
:1010A000521E628522685369DB435B070BD469B12A
:1010B00000781061606A401C6062208D401E2085AF
:1010C000608D401E6085208D0028CBD12A46394690
:1010D000204601F09BF80028CAD154F83D0B016866
:1010E00041F400710160202004F81E09E67766775C
:1010F0000020C6E7FFE70220C3E70000020010005F
:101100000000FFFF10B586B000210091019102910F
:10111000039100680F4988421AD10F4CA06940F032
:101120000800A061A069694600F008000490C02092
:10113000009012200190032003900848FFF786FDDD
:10114000E06940F40010E061E06900F400100490F0
:1011500006B010BD0054004000100240000C0140D9
:1011600002488168027811448160704700000020C5
:10117000074810B5016841F010010160032000F03C
:1011800075F80F2000F006F800F024F8002010BDDC
:101190000020024070B50D4D04464FF47A71287856
:1011A000B1FBF0F00A490968B1FBF0F000F0DCFA9D
:1011B00048B9102C07D200222146501E00F036F804
:1011C00000206C6070BD012070BD00000000002098
:1011D0000C0000200C4808B5816941F001018161D3
:1011E000816901F001010091C16941F08051C16143
:1011F000C06900F0805000900448416821F0E0612F
:1012000041F00071416008BD001002400000014043
:10121000002809DB00F01F020121914040098000F5
:1012200000F1E020C0F8001170470000F0B40E4B50
:101230001B680C46C3F30223C3F10705042D00D934
:101240000425191D072901D2002300E0DB1E012619
:1012500006FA05F1491E214099409E40761E16402F
:101260003143F0BC02F0F2B80CED00E0064900F0AA
:10127000070208684FF6FF03184040EA0220034ABD
:1012800010430860704700000CED00E00000FA0514
:101290002DE9F0470F46050061D0434E306800F05D
:1012A0000700B84209D2306820F0070038433060A8
:1012B000306800F00700B84251D128683B4C8107E4
:1012C00012D5400703D5606840F4E060606028787C
:1012D000000703D5606840F4605060606068A968EA
:1012E00020F0F000084360602878C00728D06868C4
:1012F000012810D02168022810D0890700292EDA91
:10130000616821F0030101436160FFF799FD8046A8
:1013100041F288390DE021688903EFE78901EDE7A3
:10132000FFF78EFDA0EB0801494502D90320BDE877
:10133000F0876068696800F00C00B0EB810FEFD1B6
:10134000306800F00700B8420BD9306820F0070081
:1013500038433060306800F00700B84201D0012007
:10136000E5E72878400705D56068E96820F4E06083
:10137000084360602878000706D56068296920F472
:10138000605040EAC100606000F038F86168084AC7
:10139000C1F30311515CC840064908600648006863
:1013A000FFF7F8FE0020C2E70020024000100240D4
:1013B000BE5600080C000020040000200448054927
:1013C00000684968044AC1F30221515CC840704773
:1013D0000C00002000100240CE56000804480549C9
:1013E00000684968044AC1F3C221515CC840704793
:1013F0000C00002000100240CE5600080E4A516832
:101400000E4801F00C03042B11D0082B0FD10C480F
:10141000C1F38343C903C05C0AD55168084AC1F3CC
:101420004041921E515C054A5043B0FBF1F07047B9
:1014300004494843704700000010024000127A003F
:10144000AE56000800093D002DE9F84F040070D0A9
:101450002078C04DC00749D06868C0F381000128DA
:1014600007D06868C0F38100022809D16868C0030A
:1014700006D52868800339D560680028E7D035E0B4
:101480006068B0F5803F0BD010B1B0F5A02F11D03F
:10149000286820F480302860286820F4802002E04A
:1014A000286840F480302860606890B1FFF7C8FC7D
:1014B00006460AE0286840F480202860F0E700BF74
:1014C000FFF7BEFC801B642873D828688003F7D51B
:1014D0000CE0FFF7B5FC064605E000BFFFF7B0FCE7
:1014E000801B6428F0D828688003F7D420789A4EAF
:1014F00080074FF001094FF0000839D5686810F0F7
:101500000C0F07D06868C0F38100022809D1686811
:10151000C00306D42868800714D52069012808D1A3
:1015200010E02069B0B1C6F80090FFF789FC0746CB
:1015300005E00AE1FFF784FCC01B0228C4D8286834
:101540008007F7D52868616920F0F80040EAC100FB
:1015500028600DE0C6F80080FFF772FC074604E043
:10156000FFF76EFCC01B022823D828688007F7D439
:10157000207800072CD57948A169D9B1C0F800902E
:10158000FFF75EFC074604E0FFF75AFCC01B022889
:101590000FD8686A8007F7D571484FF4FA51006890
:1015A000B0FBF1F0009000BF0098411E0091FAD20C
:1015B0000EE080E0C0F80080FFF742FC074604E040
:1015C000FFF73EFCC01B022875D8686A8007F7D475
:1015D0002078400760D5E8690027C00008D4E86992
:1015E00040F08050E861E869012700F080500090E9
:1015F0005C480168C90513D40168834641F48071D1
:101600000160FFF71DFC824606E000BFFFF718FCF3
:10161000A0EB0A0064284ED8DBF80000C005F5D521
:10162000E06801280AD008B1052813D0286A20F004
:1016300001002862286A20F0040002E0286A40F0D5
:1016400001002862E06841F2883B98B1FFF7F8FB9F
:1016500082460BE0286A40F004002862EEE700BFF3
:10166000FFF7EEFBA0EB0A0159455AD8286A80071C
:10167000F6D50CE0FFF7E4FB824605E0FFF7E0FB60
:10168000A0EB0A0159454CD8286A8007F6D41FB14F
:10169000E86920F08050E861E06988B36968C1F3C7
:1016A0008101022944D00228C6F8608004D0FFF7E7
:1016B000C7FB044638E034E0FFF7C2FB074604E00E
:1016C000FFF7BEFBC01B02282BD828688001F7D487
:1016D000206AB0F5803F05D16868A16820F4003029
:1016E00008436860D4E908010843696821F474116B
:1016F00008436860C6F86090FFF7A2FB044606E066
:1017000025E000BFFFF79CFB001B022809D82868D2
:101710008001F7D51BE000BFFFF792FB001B0228FA
:1017200002D90320BDE8F88F28688001F4D40EE0C8
:101730000128F7D06868226A00F48031914204D110
:10174000616A00F47010884201D00120EAE70020AD
:10175000E8E70000001002400000424280044242DC
:101760000C0000200070004010B5401EB0F1807FDA
:1017700001D3012010BD4FF0E02460610F216017FC
:1017800001F064FE0020A06107202061002010BD50
:101790007047704770B590F83C20012A26D001248C
:1017A00080F83C40022280F83D2003685A689D681A
:1017B00022F070060A6832435A600D4B02689A4262
:1017C00008D0B2F1804F05D00A4B9A4202D00A4BA2
:1017D0009A4204D1496825F080031943916080F84A
:1017E0003D40002180F83C10084670BD022070BDCD
:1017F000002C0140000400400008004010B5040027
:1018000003D094F83D0010B107E0012010BD002086
:1018100084F83C00204600F01FF8022084F83D00C8
:10182000211D206801F08AFB012084F8460084F81D
:101830003E0084F83F0084F8400084F8410084F8BA
:10184000420084F8430084F8440084F8450084F89A
:101850003D00002010BD000008B500680B4988421B
:1018600012D10B48C16941F00201C161C069002277
:1018700000F00200009011461D20FFF7D7FCBDE8E4
:1018800008401D20FFF7C4BC08BD00000004004054
:101890000010024090F83D10012901D0012070474E
:1018A000022180F83D100168CA6842F00102CA6056
:1018B00000680B49884208D0B0F1804F05D0094933
:1018C000884202D00849884204D1816801F00701AA
:1018D000062903D0016841F0010101600020704732
:1018E000002C0140000400400008004070B5044690
:1018F00090F83C000025012817D0012684F83C60B0
:10190000022084F83D002068826822F0770222F4E9
:101910007F4282600868502838D00DDC20284FD0E4
:1019200005DC90B3102811D14AE0022070BD3028A8
:1019300046D040280AD13BE060282FD070280DD037
:10194000B0F5805F03D0B0F5005F12D0012584F8B8
:101950003D60002084F83C00284670BDCB68D1E98A
:101960000121206801F020FB2068816841F07701A7
:1019700009E0CB68D1E90121206801F015FB20685E
:10198000816841F480418160E1E719E0CA684968F3
:10199000206801F01BFB5021206806E0CA684968F6
:1019A000206801F024FB6021206801F007FBCEE7EE
:1019B000CA684968206801F009FB40212068F4E703
:1019C000226801461046F0E7704770B5044600688B
:1019D00001694FF00005C943890715D4C168C9439F
:1019E000890711D4E91E01610120207720688069F0
:1019F0008007204602D0FFF7E7FF04E000F098F8E8
:101A0000204600F096F8257720680169C943490708
:101A100017D4C168C943490713D46FF004010161A9
:101A2000022020772068806910F4407F204602D091
:101A3000FFF7CAFF04E000F07BF8204600F079F8D9
:101A4000257720680169C943090716D4C168C943CD
:101A5000090712D46FF00801016104202077206883
:101A6000C0698007204602D0FFF7AEFF04E000F017
:101A70005FF8204600F05DF8257720680169C943CA
:101A8000C90617D4C168C943C90613D46FF0100141
:101A90000161082020772068C06910F4407F20464B
:101AA00002D0FFF791FF04E000F042F8204600F07A
:101AB00040F8257720680169C943C90708D1C16882
:101AC000C943C90704D1891E0161204600F032F8DC
:101AD00020680169C943090609D4C168C9430906D8
:101AE00005D46FF0800101612046FFF751FE2068A8
:101AF0000169C943490609D4C168C943490605D4E7
:101B00006FF040010161204600F080F82068016913
:101B1000C94389060BD4C168C943890607D46FF04D
:101B2000200101612046BDE87040FFF732BE70BD64
:101B3000704770472DE9F04100682A4988424ED12C
:101B400029490025294C08784FF49672012806D1BE
:101B5000A068401CA060904201D1A5600D70244B8C
:101B60000A2101261878012813D1E068401CB0FB37
:101B7000F1F701FB1707E06017B927697F1C2761A0
:101B8000904206D1E5601B4825611D7005701A481A
:101B900006701A4F3878012815D16069401CB0FBD7
:101BA000F1F301FB1301606111B9A169491CA16145
:101BB000904208D16561A56100F062FD10483D705A
:101BC00005701048067010480078012806D160683A
:101BD000401C6060B0F5487F01D126706560BDE8AB
:101BE000F081000000040040470800207408002035
:101BF0004A080020490800204B0800204D0800201A
:101C00004C0800204E080020500800207047704704
:101C100070470000F8B5016804460868CA684B6957
:101C200010F00F0F4FF0000559D003F0010602F439
:101C30009077374365D0C10705D0D10503D5616CD6
:101C400041F001016164410705D5D90703D0616CFA
:101C500041F002016164810705D5D90703D0616CA9
:101C600041F004016164010707D502F0200131430E
:101C700003D0616C41F008016164616C00293AD0C5
:101C8000800604D5900602D5204601F0F1F92068BF
:101C90004069616CC0F38010090700D460B320462E
:101CA00001F0BFF920684069400621D52068143052
:101CB00050E8001F21F0400140E80012002AF5D151
:101CC000E06BA8B16D494163E06BFEF7AFFE002801
:101CD00011D0E06B416B01B0BDE8F04008478306CE
:101CE0000FD593060DD52046BDE8F84001F0C0B9E8
:101CF0002046FFF78DFFF8BD2046FFF789FF65649A
:101D0000F8BD266B2023012E7CD1C6067AD5D606D7
:101D100078D508684868009048694FF00206400688
:101D200040D5E16B086840680004000CE8D0A28D43
:101D30008242E5D9E085886920282DD020680C30C2
:101D400050E8001F21F4807140E80012002AF5D10C
:101D50002068143050E8001F21F0010140E8001213
:101D6000002AF5D12068143050E8001F21F040010E
:101D700040E80012002AF5D184F84230256320683B
:101D80000C3050E8001F21F0100140E80012002A3A
:101D9000F5D1E06BFEF726FE6663A08DE18D401A5B
:101DA00081B22AE0A08DE18D401A81B2E08D002839
:101DB000A6D00029A4D022680C3252E8000F20F4EB
:101DC000907042E80007002FF5D12068143050E8E9
:101DD000002F22F0010240E80027002FF5D184F8FF
:101DE0004230256320680C3050E8002F22F01002AA
:101DF00040E80023002BF5D166632046FFF707FF7C
:101E0000F8BDFFE705062BD5150629D594F8410046
:101E10002128F5D1A068B0F5805F01D12069B0B16B
:101E2000206A411C2162216800784860E08C401ED5
:101E30000004000CE084E3D12068C16821F0800137
:101E4000C1602068C16841F04001C160D8E7206AE4
:101E50000088C0F308004860206A801C2062E5E723
:101E60004006CDD55006CBD5CA68204622F04002A8
:101E7000CA6084F8413000F05CF9C1E71330000813
:101E800070B5040004D094F84100002510B106E0BC
:101E9000012070BD84F84050204600F023F8242033
:101EA00084F841002068C16821F40051C1602046D7
:101EB00001F040F92068016921F490410161206836
:101EC000416921F02A0141612068C16841F4005153
:101ED000C1606564202084F8410084F84200656395
:101EE000002070BDF0B585B00024009401940294E8
:101EF00003940368424F022042490322424D4602A6
:101F0000BB4225D18B6943F480438B618B6903F419
:101F1000804304938B6943F004038B6189690392C6
:101F200001F0040104910102CDE900106946284640
:101F3000FEF78CFECDE90064694628460294FEF760
:101F400085FE002211462520FFF770F9252028E0A4
:101F50002E4FBB4229D1CB6943F40033CB61CB690F
:101F600003F4003304938B6943F004038B618969A4
:101F7000039201F0040104910421CDE900106946A7
:101F80002846FEF763FE0820CDE90004694628468E
:101F90000294FEF75BFE002203212620FFF746F99C
:101FA0002620FFF735F905B0F0BD194DAB42FAD147
:101FB000CB6943F48023CB61CB6903F48023049382
:101FC0008B6943F008038B618969124D01F00801A8
:101FD000CDE90321CDE9006069462846FEF736FECB
:101FE000E814CDE90004694628460294FEF72EFE67
:101FF000002211462720FFF719F92720D1E700001A
:102000000038014000100240000801400044004038
:1020100000480040000C014090F84230202B01D0D5
:102020000220704721B11AB10023036301F0DEB82A
:102030000120704770B5054600681149114C88426F
:102040000AD1114A2178A0785054491C21700122EC
:10205000A11C0E48FFF7E0FF0D49286888420ED109
:10206000094A6078FF32E1781154401C6070BDE885
:10207000704004490122C91C0648FFF7CDBF70BD5E
:102080000048004070080020F80B0020C009002024
:1020900000380140300900202DE9F843044690F84B
:1020A00041001F4616460D46202802D00220BDE8FA
:1020B000F8837DB176B100206064212084F841006E
:1020C000FEF7BEFEA6848046E684A068B0F5805F79
:1020D00002D003E00120EAE7206910B12E46002576
:1020E0000EE000260CE08021204601F09AF8A0B90D
:1020F000AEB116F8010B21684860E08C401EE08408
:10210000E08C43464FF0000200970028EBD14FF0DF
:102110004001204601F085F830B10320C7E735F8CB
:10212000020BC0F30800E6E7202084F841000020FD
:10213000BDE77047FEE701684A69D24352050FD4F4
:102140006FF480624A61002140F8301F2022427300
:102150008173026942F00402026101730120704739
:10216000002070472DE9F843044600680D46DDE97C
:10217000089701689846164641F4807101604B4605
:1021800000224FF001112046009700F06BF848B193
:1021900020680068C00502D54FF400702064032059
:1021A000BDE8F883216805F0FE0008613B464A4619
:1021B0001549204600F09EF888B920684169806979
:1021C00000903A464946204600F0F2F848B1206CAB
:1021D000042804D12068016841F4007101600120E5
:1021E000DEE7F5B2B8F1010F09D02168300A0861C5
:1021F0003A464946204600F0DBF80028E7D120683F
:1022000005610020CCE700000200010070B5164611
:102210000D4604461EE02046FFF78DFF08B1012061
:1022200070BD681C16D0FEF70BFE801BA84200D8BC
:1022300085B920684069C04340070BD5002044F8A9
:10224000300F20216173A073216941F020012161C9
:102250002073E4E720684069C0434007DBD40020D6
:1022600070BD00002DE9F047984617460D4604461C
:10227000C1F30746DDF820902AE000BFB8F1FF3F28
:1022800026D0FEF7DDFDA0EB0901414502D8B8F1EB
:10229000000F1DD12068012E16D0806925EA0000AC
:1022A0000004000C12D00020B84211D1002044F8E4
:1022B000300F20216173A073216941F02001216159
:1022C00020730120BDE8F0874069E7E70120EBE7D4
:1022D0002068012E0AD0806925EA00000004000C65
:1022E00006D00020B842C9D00020EBE74069F3E7F0
:1022F0000120F7E72DE9F047984616460D460446BB
:102300004FF000094FF0200AC1F3074723E020688F
:102310004069C043400515D42068016841F400714C
:10232000016021686FF480604861C4F8309084F8DF
:102330003DA084F83E90216C41F00401216484F8B2
:102340003C9021E0701C06D0FEF77AFDA0EB08005F
:10235000B04203D816B1012F1FD021E02068012F11
:1023600015D0806925EA00000004000C18D000BFD9
:1023700044F8309F84F80DA084F80E90216941F054
:102380002001216184F80C900120BDE8F0874069AC
:1023900025EA00000004000CEAD12068406901E051
:1023A0002068806925EA00000004000CAFD1ECE74A
:1023B00070B516460D4604461EE02046FFF7BBFEEC
:1023C00008B1012070BD681C16D0FEF739FD801BD6
:1023D000A84200D885B920684069C04300060BD5E3
:1023E000002044F8300F20216173A073216941F06F
:1023F000200121612073E4E720684069C0430006A2
:10240000DBD4002070BD000002210148FEF70EBDA4
:10241000000801407CB50546EF208DF80000154C02
:1024200001208DF801006168080E8DF80200080C8B
:102430008DF80300080A8DF8040007208DF80510B8
:102440008DF8060000268DF8076026700BE001204D
:1024500001F023FE207830B1267069460648FDF76A
:1024600097FE002804D16D1E2D042D0CEFD1002005
:102470007CBD000010000020280A0020F0B585B0C7
:10248000002420480094019402940394816941F04F
:1024900010018161816901F010010491816941F0AD
:1024A00020018161816901F020010491816941F07D
:1024B00004018161816901F004010491816941F0A5
:1024C000080181618069104F00F008004FF47046E8
:1024D0000490012231463846FEF7ADFCF02001257C
:1024E0008DE8310069460948FEF7B0FB0220CDE9CE
:1024F0000240CDE9006569463846FEF7A7FB05B006
:10250000F0BD000000100240000C01400008014036
:102510000D4810B50B4901600C49416000214FF492
:1025200080428160C0E9031241618161C161016241
:10253000FEF78CFC002803D0BDE81040FEF7BCB9C4
:1025400010BD00000054004094080020A086010047
:1025500010B586B0002417480094019402940394A7
:10256000049413490594016041F61F41C0E9011428
:1025700040F2E731C0E903148461FFF73FF908B185
:10258000FEF79AF94FF48050009069460948FFF72A
:10259000ADF908B1FEF790F9049404A90548059433
:1025A000FFF7F8F8002801D0FEF786F906B010BD55
:1025B00000040040E80800200C4810B50A490160FA
:1025C0004FF416514160002181600C22C160C0E9C6
:1025D00004128161C161FFF753FC002803D0BDE8FC
:1025E0001040FEF769B910BD0038014030090020E5
:1025F0000C4810B50A4901604FF461414160002167
:1026000081600C22C160C0E904128161C161FFF7E1
:1026100037FC002803D0BDE81040FEF74DB910BDCF
:1026200000440040780900200C4810B50A490160B8
:102630004FF416514160002181600C22C160C0E955
:1026400004128161C161FFF71BFC002803D0BDE8C3
:102650001040FEF731B910BD00480040C00900200D
:1026600001B5FF23012269460348FFF715FD002845
:1026700000D0012008BD000078090020FEE7FEE739
:10268000002000F01DB870B50446861C14E004F16B
:10269000B000C0B200F0A6FE002000F0A3FE1020A3
:1026A00000F0A0FE0025002000F0AEFE6D1CEDB293
:1026B000802DF8D3641CE4B2B442E8D370BD0000AE
:1026C00070B506465FF0000404F1B000C0B200F03F
:1026D00089FE002000F086FE102000F083FE002519
:1026E000304600F091FE6D1CEDB2802DF8D3641CD5
:1026F000E4B2082CE8D370BD10B56420FEF7E2F90F
:10270000AE2000F06FFE202000F06CFE102000F0E4
:1027100069FEB02000F066FEC82000F063FE0020D5
:1027200000F060FE102000F05DFE402000F05AFE38
:10273000812000F057FEFF2000F054FEA12000F0A1
:1027400051FEA62000F04EFEA82000F04BFE3F20D8
:1027500000F048FEA42000F045FED32000F042FE29
:10276000002000F03FFED52000F03CFEF02000F0FD
:1027700039FED92000F036FE222000F033FEDA20A8
:1027800000F030FE122000F02DFEDB2000F02AFECB
:10279000202000F027FE8D2000F024FE142000F001
:1027A00021FEAF2000F01EFEBDE810400020FFF724
:1027B00087BF10B50446B031C8B200F013FE102038
:1027C00040EA141000F00EFE04F00F00BDE81040C7
:1027D00040F0010000F006BE2DE9F0410F468046B2
:1027E00000255401FFF7E5FF0C4E305D00F00CFEB4
:1027F0006D1CEDB2641C102DF7D37F1CF9B240465E
:10280000FFF7D7FF0025305D00F0FEFD6D1CEDB237
:10281000641C102DF7D3BDE8F081000042000020B9
:102820002DE9F041203A00240D468046D6B27F289B
:1028300003D900208D1C8046EDB2102B29460FD005
:10284000FFF7B7FF164906EB460001EB4005285D90
:1028500000F0DAFD641CE4B2062CF8D3BDE8F08188
:10286000FFF7A7FF0F4F00BF04EB0610385C00F026
:10287000CBFD641CE4B2082CF6D36D1CE9B24046D3
:10288000FFF797FF5FF0000404EB06103844007A6E
:1028900000F0BAFD641CE4B2082CF5D3DEE70000BA
:1028A000D6560008FE5800082DE9F05F0026DDF836
:1028B00028901D4692468B46804634464FEA59077B
:1028C00023E0281B401EC1B20A2002F040FDBAFBE3
:1028D000F0F00A21B0FBF1F201FB120026B9691EEB
:1028E0008C4201DA38B101263030C2B207FB0480D5
:1028F000C0B24B4604E007FB0480C0B24B46202226
:102900005946FFF78DFF641CE4B2AC42D9D3BDE851
:10291000F09F00002DE9F047002591468A460446C5
:10292000012B22D0DFF8BC80022B24D155E02038C7
:10293000C7B27E2C04D90AF10100002400F0FF0A7E
:1029400051462046FFF735FF07EB4700002608EB0E
:102950004007B85D00F058FD761CF6B2062EF8D39D
:10296000A41D6D1CE4B2EDB201E0DFF87C8019F823
:1029700005000028DBD1BDE8F0872038C7B2782CED
:1029800004D90AF10100002400F0FF0A5146204654
:10299000FFF70FFF5FF0000606EB071118F80100C4
:1029A00000F032FD761CF6B2082EF5D30AF10100D4
:1029B000C1B22046FFF7FDFE5FF0000606EB0711EF
:1029C00001EB0800007A00F01FFD761CF6B2082E1D
:1029D000F4D308346D1CE4B2EDB219F805000028F8
:1029E000CBD1C8E7FE580008D656000870B50C4693
:1029F000054600F07FF900F05BF90120FFF730FE9B
:102A0000072000F087F90C20FFF72AFE280AFFF7BD
:102A100027FEE8B2FFF724FE200AFFF721FEE0B20E
:102A2000FFF71EFEE8B200EB152000EB1420E1B228
:102A30000844143000F054F94FF4FA60FFF7EAFC50
:102A400008B1407A70BDFF2070BD10B5044600F09B
:102A500051F900F02DF90120FFF702FE042000F0EB
:102A600059F90220FFF7FCFD2046FFF7F9FDE01DB4
:102A700000F036F94FF4FA60FFF7CCFC08B1407A69
:102A800010BDFF2010BD10B500F034F900F010F9B2
:102A90000120FFF7E5FD032000F03CF90120FFF7DE
:102AA000DFFD052000F01CF94FF4FA60FFF7B2FCDF
:102AB00008B1407A10BDFF2010BD2DE9F0411E463F
:102AC00014460D46074600F015F900F0F1F8012014
:102AD000FFF7C6FD082000F01DF91B20FFF7C0FD21
:102AE0003846FFF7BDFD280AFFF7BAFDE8B2FFF749
:102AF000B7FD200AFFF7B4FDE0B2FFF7B1FD07EB29
:102B00001520E9B2084400EB1420E1B20844243057
:102B100000F0E6F84FF4FA60FFF77CFC58B1C27A97
:102B2000837A417A02EB03223280427B007B02EB04
:102B30000020708000E0FF210846BDE8F08110B55C
:102B400000F0D8F800F0B4F80120FFF789FD032069
:102B500000F0E0F80320FFF783FD072000F0C0F845
:102B60004FF4FA60FFF756FC08B1407A10BDFF2021
:102B700010BD10B500F0BEF800F09AF80120FFF784
:102B80006FFD032000F0C6F80520FFF769FD09205E
:102B900000F0A6F84FF4FA60FFF73CFC08B1407A69
:102BA00010BDFF2010BD00000A4800B5816985B046
:102BB00041F0040181618069002100F0040004906B
:102BC0000220CDE90001029069460348FEF73EF875
:102BD00005B000BD001002400008014070B50C4671
:102BE000054600F087F800F063F80120FFF738FD94
:102BF000062000F08FF80620FFF732FD2846FFF789
:102C00002FFD200AFFF72CFDE0B2FFF729FD05EBB1
:102C10001420E1B208440D3000F062F84FF4FA607D
:102C2000FFF7F8FB08B1407A70BDFF2070BD704718
:102C3000704700002DE9F041074600248EB0884619
:102C400026460846FDF7B6FAC5B2FD208DF800000D
:102C500000208DF80100E81C8DF8020001208DF89D
:102C6000030000EB07108DF804006F46B85D761C7A
:102C70004440052EFAD3002004E000BF18F80010ED
:102C80004C40401CA842F9D32A464146781DFDF726
:102C90005BFA781942F210734471AA1D6946034821
:102CA000FFF7FAF90EB0BDE8F0810000C00900207E
:102CB00010B50A4C6068000EFFF7D2FC6068C0F3E4
:102CC0000740FFF7CDFCA088C0F30720FFF7C8FC42
:102CD0002079BDE81040FFF7C3BC000010000020C1
:102CE00010B50446000AFFF7BBFCE0B2BDE8104097
:102CF000FFF7B6BC10B54FF4C8710548FDF73DFAB3
:102D0000EF20FFF7ADFCBDE810400120FFF7A8BCA5
:102D1000280A002010B50446C0F30720FFF7A0FCE6
:102D2000E0B2BDE81040FFF79BBC000010B5FDF716
:102D3000A5FC0146BDE8104001A000F077BB0000F3
:102D400025730D0A000000002DE9F041384D288858
:102D5000374E4AF2A554374F1A36A0423AD00121D5
:102D6000284601F0E7FBFDF75DFF224600232946D8
:102D70000120FDF717FF012401E0072C03D205EB2A
:102D80004401224613E0E01F062806D207EB440068
:102D900005EB440130F80E2C09E00D2C12D0A4F103
:102DA0000E00052807D200BF05EB440100220023D6
:102DB0000120FDF7F7FE641C112CDED3BDE8F041C5
:102DC000FDF7E6BE0122314600231046FDF7EAFE7C
:102DD0000E24E9E7174A01200C3A01E0072806D241
:102DE00035F8101002EB400323F8021C15E0C11F58
:102DF000062906D235F8101007EB400323F80E1C05
:102E00000BE00D280FD00E2807D335F81010094B12
:102E1000123B03EB400323F81C1C401C80B211281A
:102E2000DCD3BDE8F0813188034B1980F5E7000061
:102E300000F00008360000201200002070B5204D80
:102E40000121284601F076FBFDF7ECFE4AF2A5527F
:102E5000002329460120FDF7A5FE0124194E01E0BB
:102E6000072C04D206EB440030F8022C15E0E01FDA
:102E7000062806D213480C3000EB440030F80E2C24
:102E80000BE00D2C17D0A4F10E0005280BD20D4835
:102E9000801F00EB440030F81C2C05EB440100239C
:102EA0000120FDF77FFE641CA4B2112CD8D3BDE82D
:102EB0007040FDF76DBE044801491A310288EEE703
:102EC00000F000082A00002012000020FEF748B998
:102ED00030B58FB028216846FDF74FF914210AA8B4
:102EE000FDF74BF901210804CDE9001000240294FC
:102EF00002250491CDE907504FF4E010099068468F
:102F0000FEF7A2FA08B172B6FEE70F20CDE90A0576
:102F10004FF48060CDE90C4002210AA80E94FEF720
:102F2000B7F9002801D072B6FEE70FB030BD704788
:102F30000148FEF74ABD0000E8080020F0B502682D
:102F4000164B174C174D4FF08047984205D0B842AA
:102F500003D0A04201D0A84203D122F070064A68F3
:102F60003243984205D0B84203D0A04201D0A842D3
:102F700003D122F44074CA6822434C6922F08002D3
:102F8000224302608A68C2620A688262984201D162
:102F90000969016301214161F0BD0000002C01407D
:102FA000000400400008004010B5846842EA032293
:102FB00024F47F440A432243826010BD826822F0D9
:102FC00070020A4342F007018160704710B5036A3E
:102FD000046A24F001040462846924F0F00444EAE1
:102FE000021423F00A020A438461026210BD10B584
:102FF000036A046A24F010040462846923F0A003C5
:1030000024F4704444EA023243EA0111826101620D
:1030100010BD10B5406A0021C185C184FEF7F8FDDE
:1030200010BD01680C3151E8002F22F4907241E884
:103030000023002BF5D10168143151E8002F22F054
:10304000010241E80023002BF5D1016B012909D1D0
:1030500001680C3151E8002F22F0100241E80023F2
:10306000002BF5D1202180F8421000210163704728
:1030700008B590F84210222901D0022008BD8268CC
:103080004FF480539A4201D1016921B1816A9A4279
:103090001BD04AB10AE00268816A5268C2F3080292
:1030A0000A80816A891C08E0026972B1026852686C
:1030B00002F07F020A70816A491C8162C18D491E3B
:1030C0000904090CC18503D01BE002685268F1E7CE
:1030D0000168CA6822F02002CA600168CA6822F446
:1030E0008072CA6001684A6922F001024A612021A7
:1030F00080F8421000214163026B012A03D0FEF7E1
:1031000099FF002008BD016301680C3151E8002FD0
:1031100022F0100241E80023002BF5D101680A6873
:10312000D20602D50A6849680091818DFEF76FFDCD
:10313000E7E7000070B5044600680169E26821F421
:103140004051114301612169A06808436169084346
:103150002168CA6841F20C639A430243CA6020683E
:103160004169A26921F44071114341611E492068FF
:10317000884202D1FEF732F901E0FEF71FF900EBB9
:10318000C00101EB0012606864218000B2FBF0F323
:10319000B3FBF1F36FF018067343B2FBF0F5B2FB2B
:1031A000F0F605EB8305322303EB0515B5FBF1F5CE
:1031B000B6FBF1F605F0F00505EB0615B2FBF0F6EF
:1031C000B2FBF0F0B0FBF1F06FF01802504306EBE9
:1031D000800003EB0010B0FBF1F0216800F00F005D
:1031E0002844886070BD00000038014081628285FB
:1031F000C28500214164222180F84210016921B179
:103200000168CA6842F48072CA6001684A6942F083
:1032100001024A610068C16841F02001C1600020DC
:1032200070472DE9F041984617460E460446069D24
:1032300027E0681C25D02DB1FDF702FEA0EB0800A9
:10324000A8421ED920680C3050E8001F21F4D0712C
:1032500040E80012002AF5D12068143050E8001F21
:1032600021F0010140E80012002AF5D1202084F865
:10327000410084F84200002084F840000320BDE8AB
:10328000F0812068006836EA000004D00020B842CF
:10329000CFD00020F3E70120F9E700000148FEF756
:1032A000B9BC0000300900200B4982B008680268F0
:1032B000D243D2060CD40268406800904FF4C87024
:1032C000C8850648886206490120087002B0704728
:1032D000014802B0FEF79EBC78090020280A0020B1
:1032E000100000200148FEF795BC0000C009002036
:1032F00010B50C2202210020FFF76EFA06220221EF
:103300001020FFF769FA122202212020FFF764FA49
:10331000132202213020FFF75FFA162202214020FB
:10332000FFF75AFA092202215020FFF755FA14221A
:1033300002216020FFF750FA152202217020FFF7CA
:103340004BFA1348C178807901431AD02322002117
:103350001020FFF741FA242200212020FFF73CFA39
:10336000322200213020FFF737FA38220021402096
:10337000FFF732FA39220021BDE810405020FFF754
:103380002BBAFDF725FBBDE810400020FFF77BB905
:103390004408002010B50C2202210020FFF71CFA7F
:1033A000062202211020FFF717FA10220221202006
:1033B000FFF712FA112202213020FFF70DFA17222F
:1033C00006215A20FFF708FA182206216A20FFF783
:1033D00003FA02480021C170C17210BD44080020E8
:1033E000FEE7000001B584B00121642204A88DE845
:1033F00007000B46002278210248FDF7EBFD05B0DF
:1034000000BD00009408002001B584B001216422B1
:1034100004A88DE807000B46402278210248FDF7FA
:10342000D9FD05B000BD0000940800200FB4054B85
:1034300010B503A9044A029800F028F810BC5DF802
:1034400014FB000015450008900800200907090E2C
:10345000002804DB00F1E02080F80014704700F041
:103460000F0000F1E02080F8141D704702E008C84A
:10347000121F08C1002AFAD170477047002001E0EE
:1034800001C1121F002AFBD1704700002DE9FF4F38
:103490008DB09B460F460446002606E025280BD03B
:1034A0005A460F999047641C761C20780028F5D165
:1034B00011B03046BDE8F08F0025A846012298499A
:1034C00000E0054314F8013F203B02FA03F00842F4
:1034D000F7D120782E2817D114F8010F45F00405F4
:1034E0002A280ED06FF02F022078A0F13001092990
:1034F0000AD808EB880102EB410100EB0108641CCB
:10350000F2E757F8048B641C20786C280DD004DC9B
:103510004C2812D06A2811D104E074280DD07A28E2
:103520000CD10AE045F4001507E0617845F48015F8
:10353000814202D1641C05F58015641C207869283D
:1035400044D008DC0028B3D0582867D063280FD0B7
:10355000642808D13AE0702865D0732812D0752805
:103560005AD078285AD05A460F999047761CD5E001
:1035700017F8040B8DF8000000208DF80100E946D3
:10358000012003E057F8049B4FF0FF3069074FF02C
:10359000000501D40AE06D1C45450DDA8542FADBD1
:1035A00019F805100029F6D106E06D1C8542FCDBF8
:1035B00019F805100029F8D12E4404E019F8010B80
:1035C0005A460F9990476D1EF8D2A7E00A200021B5
:1035D000CDE90801C5F3025002280CD001CFC11774
:1035E000021E71F100020CDA0023D0EB030063EB42
:1035F00001012D2208E0FF1D27F00707F7E802016F
:10360000EEE72A0504D52B228DF8282001223CE084
:10361000EA073AD02022F7E70A2000E01020002134
:10362000CDE9080107E01020002145F00405CDE9AF
:1036300008014FF00808C5F30250022810D001CF4E
:1036400000214FF0000A2A0720D52278702A0DD0D9
:10365000DDE908C38CF0100C5CEA030C0CD015E01B
:10366000FF1D27F00707F7E80201EAE740228DF87F
:1036700028204FF0010A0CE050EA010306D0302365
:103680008DF828308DF82920022292462278582A77
:1036900004D024A20DF120090B9209E026A2F9E73B
:1036A000DDE90823FCF79AFD0B9B9B5C09F8013DC3
:1036B00050EA0102F4D1ADEB090020300890680710
:1036C00001D44FF001080899884503DD0898A8EB5C
:1036D000000000E000208046002506E00AA85A46C7
:1036E000405D0F9990476D1C761C5545F6DB04E054
:1036F00030205A460F999047761CB8F10001A8F186
:103700000108F5DC05E019F8010B5A460F999047BE
:10371000761C0899481E08900029F4DC641CC4E655
:103720000928010030313233343536373839616297
:10373000636465660000000030313233343536375B
:1037400038394142434445460000000010B51E226E
:1037500002211020FFF740F81F2202212020FFF74E
:103760003BF8122202213020FFF736F81322022103
:10377000BDE810404020FFF72FB810B50021092206
:103780000846FFF729F8272200211020FFF724F828
:10379000282200212020FFF71FF8252200213020B9
:1037A000FFF71AF8262200214020FFF715F81E2205
:1037B00002211020FFF710F81F2202212020FFF71E
:1037C0000BF8292202213020FFF706F823220221DC
:1037D0004020FFF701F8242202215020FEF7FCFFD1
:1037E0002C2206215A20FEF7F7FF2D2206216A20FF
:1037F000FEF7F2FFBDE81040FCF772BD10B51E22C7
:1038000002211020FEF7E8FF1F2202212020FEF7F0
:10381000E3FF102202213020FEF7DEFF11220221F9
:10382000BDE810404020FEF7D7BF10B51B22002195
:103830000820FEF7D1FF1C2200211820FEF7CCFF44
:103840001D2200212820FEF7C7FF0D22002138206D
:10385000FEF7C2FF0E2200214820FEF7BDFF3A22EC
:1038600000215820FEF7B8FF3B2200216820FEF718
:10387000B3FF092202213020FEF7AEFF14220221FD
:103880004020FEF7A9FF15220221BDE8104050207C
:10389000FEF7A2BF10B5092200212020FEF79CFFF1
:1038A0000A2200213020FEF797FF0B220021402042
:1038B000FEF792FF1B2202210020FEF78DFF1C2243
:1038C00002211020FEF788FF1D2202212020FEF792
:1038D00083FF0D2202213020FEF77EFF0E220221FF
:1038E0004020FEF779FF0F2202215020FEF774FFDF
:1038F0002E2206210020FEF76FFF2F220621102026
:10390000FEF76AFF2C2206215A20FEF765FF2D22C2
:103910000621BDE810406A20FEF75EBF70B50C229C
:1039200018491948FCF74DFC184C4FF47A760025DD
:10393000B8B1FEF7A5FE16A10220FFF77BF93046CD
:10394000FDF7C0F8207A401CC0B22072032816D0C0
:10395000132020710C48A5610C38C56005614561D4
:1039600070BDFEF78DFE0320207110A10220FFF72D
:1039700061F93046FDF7A6F82572A571EAE7012046
:103980006072E7E736000020D40B002044080020D6
:103990005B76375D5B6D315D5B74355DB9DCC0EDC9
:1039A000D4B1C3DCC2EBB4EDCEF300005B76375D7F
:1039B0005B6D315D5B74355DBDF8C8EBB9DCC0EDA6
:1039C000D4B1C4A3CABD000010B55F4CA0780028D4
:1039D0007ED00021102320220846FEF721FF192265
:1039E00000211420FEF7F8FE1A2200212420FEF701
:1039F000F3FE0C2200213420FEF7EEFE0622002109
:103A00004420FEF7E9FE0D2200215420FEF7E4FEDB
:103A10000E2200216420FEF7DFFEA078012879D075
:103A20001023202202210020FEF7FAFE1922022193
:103A30001020FEF7D1FE1A2202212020FEF7CCFE34
:103A40001B2202213020FEF7C7FE1C22022140204B
:103A5000FEF7C2FE1D2202215020FEF7BDFE0D2200
:103A600002216020FEF7B8FE0E2202217020FEF730
:103A7000B3FEA07802285AD010232022042100206F
:103A8000FEF7CEFE1E2204211020FEF7A5FE1F2207
:103A900004212020FEF7A0FE232204213020FEF77F
:103AA0009BFE242204214020FEF796FEA0780328E6
:103AB00043D01023202206210020FEF7B1FE202251
:103AC00006211020FEF788FE21220621202000E09A
:103AD00021E0FEF781FE232206213020FEF77CFE46
:103AE000242206214020FEF777FE2C2206215A20B0
:103AF000FEF772FE2D2206216A20FEF76DFE1349A5
:103B00000020A061C8600861486160610860486089
:103B1000886010BD05E0002122220846FEF75CFE09
:103B20005DE7222202210020FEF756FE7EE72222D8
:103B300004210020FEF750FEA4E7222206210020E7
:103B4000FEF74AFEBBE7000044080020C80B002037
:103B500070B54FF4C87210491048FEF75DFA0F486F
:103B60000068C16841F01001C1600B4D012068720E
:103B7000FFF7C0F8FFF79CF8094E0024305DFEF710
:103B80006FFD641C0A2CF9DBC82000F086FA687A05
:103B9000002800D0012070BD280A002078090020EC
:103BA000180000202DE9F05F0025032000F075FAD1
:103BB0004FF00108774EA9464FF4004ADFF8D8B11C
:103BC000764C0AE0032000F068FA35B1012D07D0E9
:103BD000022D09D0032D0DD111E00022514606E03F
:103BE00000224FF4804102E000224FF40051584679
:103BF000FDF721F90027052000F04FFA0EE0002222
:103C00004FF48051F3E7052000F047FA37B1012F58
:103C100017D0022F28D0032F42D138E01021304690
:103C2000FDF704F904EB850110B181F8009037E04D
:103C300081F8008010213046FDF7F8F80028F9D00F
:103C40002EE020213046FDF7F1F804EB850110B19C
:103C500081F8019024E081F8018020213046FDF7B1
:103C6000E5F80028F9D01BE040213046FDF7DEF8EA
:103C700004EB850110B181F8029011E081F8028017
:103C800040213046FDF7D2F80028F9D008E0802125
:103C90003046FDF7CBF804EB850168B181F803905D
:103CA0007F1CFFB2042FAED37DB1012D10D0022DA9
:103CB0004BD0032D11D14BE081F803808021304699
:103CC000FDF7B4F80028F9D0EAE70122514601E0F7
:103CD000012291035846FDF7AEF86D1CEDB2042D9C
:103CE000FFF470AF2078012835D06078012834D0F7
:103CF000A078012833D0E078012832D0207901283B
:103D000031D06079012830D0A07901282FD0E07916
:103D100001282ED0207A01282DD0607A01282CD0BD
:103D2000A07A01282BD0E07A01282AD0207B012814
:103D300009D0607B012826D0A07B012825D0E07B1C
:103D4000012824D00020BDE8F09F01225103C1E7E3
:103D500001221103BEE70D20F5E70E20F3E70F2047
:103D6000F1E71020EFE70920EDE70A20EBE70B2051
:103D7000E9E70C20E7E70520E5E70620E3E7072071
:103D8000E1E70820DFE70220DDE70320DBE704208E
:103D9000D9E7000000080140000C0140B80B0020EA
:103DA00010B5092200211020FEF716FD0A2200217D
:103DB0002020FEF711FD0B2200213020FEF70CFD24
:103DC0002B2200214020FEF707FD29220021502050
:103DD000FEF702FD1B2202210020FEF7FDFC1C2243
:103DE00002211020FEF7F8FC1D2202212020FEF700
:103DF000F3FC0D2202213020FEF7EEFC0E22022100
:103E00004020FEF7E9FC0F2202215020FEF7E4FCDF
:103E10002C2206215A20FEF7DFFC2D2206216A20E3
:103E2000FEF7DAFC2E2206210020FEF7D5FC2F2219
:103E30000621BDE810401020FEF7CEBC70B5104C36
:103E4000104E00256078012802D002280ED012E022
:103E5000FEF716FC082020710B48B1690160F1697A
:103E60004160316A8160FEF7E9FF03E0FEF708FC7C
:103E70000A2020712570E581B561F561356270BD5C
:103E800044080020C80B00203600002010B5002197
:103E900009220846FEF7A0FC0A2200211020FEF7A6
:103EA0009BFC0B2200212020FEF796FC2B220021F8
:103EB0003020FEF791FC292200214020FEF78CFCE7
:103EC0000C2202211020FEF787FC0622022120206E
:103ED000FEF782FC0D2202213020FEF77DFC0E222F
:103EE00002214020FEF778FC0F2202215020FEF72D
:103EF00073FC2C2206215A20FEF76EFC2D2206218F
:103F00006A20FEF769FC2E2206210020FEF764FCE1
:103F10002F220621BDE810401020FEF75DBC0000F6
:103F200070B5104C104E00252078012802D00228D0
:103F30000ED012E0FEF7A4FB082020710B48716A36
:103F40000160B16A4160F16A8160FEF777FF03E0CA
:103F5000FEF796FB09202071257025827562B562F7
:103F6000F56270BD44080020C80B00202A00002024
:103F700010B5192202210020FEF72EFC1A22022180
:103F80001020FEF729FC122202212020FEF724FC3B
:103F9000132202213020FEF71FFC162202214020AE
:103FA000FEF71AFC092202215020FEF715FC14220C
:103FB00002216020FEF710FC152202217020FEF77E
:103FC0000BFC2E2206210020FEF706FC2F220621E4
:103FD0001020FEF701FC2C2206215A20FEF7FCFBE4
:103FE0002D220621BDE810406A20FEF7F5BB10B572
:103FF000192202210020FEF7EFFB1A2202211020D5
:10400000FEF7EAFB102202212020FEF7E5FB112239
:104010000221BDE810403020FEF7DEBB10B51922AA
:1040200002210020FEF7D8FB1A2202211020FEF701
:10403000D3FB122202212020FEF7CEFB1322022105
:104040003020FEF7C9FB162202214020FEF7C4FBF8
:10405000092202215020FEF7BFFB1422022160201A
:10406000FEF7BAFB152202216A20FEF7B5FB2E22CD
:1040700006210020FEF7B0FB2F2206211020FEF7BC
:10408000ABFB2C2206215A20FEF7A6FB2D2206218F
:10409000BDE810406A20FEF79FBB70B505460024BE
:1040A0004FF47A7603E0304600F004F8641CAC422A
:1040B000F9D370BD71B54FF461754FF0E023104E28
:1040C000009819E02C46A04200D804469869614245
:1040D00001EBC10110EBC10105D49A69824208DAF3
:1040E0008A42FADA05E08A1999698142FCDD914237
:1040F000FADC0098001B00900028E3D178BD000096
:104100004019010010B5202202211020FEF764FBA7
:10411000212202212020FEF75FFB12220221302003
:10412000FEF75AFB132202214020FEF755FB022323
:104130000FA204211020FEF7EDFB372204212020DE
:10414000FEF74AFB1E2204213020FEF745FB1F220A
:1041500004214020FEF740FB232204215020FEF7DB
:104160003BFB24220421BDE810406020FEF734BB55
:104170004944000038B5002109220846FEF72CFB0F
:104180000A2200211020FEF727FB0B22002120200D
:10419000FEF722FB252200213020FEF71DFB262200
:1041A00000214020FEF718FB202200215020FEF7BE
:1041B00013FB212200216020FEF70EFB29220021A3
:1041C0007020FEF709FB232202211020FEF704FBDA
:1041D000242202212020FEF7FFFA022317A219460B
:1041E0003020FEF797FB022310241A461946402080
:1041F0000094FEF759FB10232D2202215020FEF7D8
:104200000FFB01230422022158200094FEF74CFBEF
:104210002C2206215A20FEF7DFFA2D2206216A20E1
:10422000FEF7DAFA302206210020FEF7D5FABDE8C3
:104230003840312206211020FEF7CEBA4944000052
:1042400010B5202202211020FEF7C6FA21220221F9
:104250002020FEF7C1FA102202213020FEF7BCFA1E
:1042600011220221BDE810404020FEF7B5BA00003F
:1042700070B50C2216491748FBF7A3FF164C012511
:104280004FF47A7688B1FEF7FBF914A10020FEF70F
:10429000D1FC3046FCF716FC6079401CC0B260715E
:1042A000032810D00220207170BDFEF7E9F92571B6
:1042B00010A10220FEF7BEFC3046FCF703FC0020F4
:1042C0006071A07170BDA571FEF7DAF91120EAE7FF
:1042D0002A000020C80B0020440800205B76375DD0
:1042E0005B6D315D5B74355DBDE2CBF8CAA7B0DCB8
:1042F000000000005B76375D5B6D315D5B74355DA2
:10430000BFAACBF8B3C9B9A60000000010B520229F
:1043100002211020FEF760FA212202212020FEF760
:104320005BFA122202213020FEF756FA13220221F4
:104330004020FEF751FA372204211020FEF74CFAF4
:104340001E2204212020FEF747FA1F2204213020DC
:10435000FEF742FA232204214020FEF73DFA2422F0
:104360000421BDE810405020FEF736BA08B53222CD
:1043700002211020FEF730FA1E2202212020FEF733
:104380002BFA1F2202213020FEF726FA10200223EA
:104390000090032219464020FEF786FA33220221BC
:1043A0005020FEF719FA342204212020FEF714FAD7
:1043B000352204213020FEF70FFA36220421402056
:1043C000FEF70AFA1E2204215020FEF705FA1F22EA
:1043D0000421BDE808406020FEF7FEB938B51B2275
:1043E00000210820FEF7F8F91C2200211820FEF712
:1043F000F3F91D2200212820FEF7EEF90D220021FD
:104400003820FEF7E9F90E2200214820FEF7E4F9F2
:104410003A2200215820FEF7DFF93B2200216820D4
:10442000FEF7DAF910240123032202210820009468
:10443000FEF73AFA3C2202211020FEF7CDF90922BC
:1044400002212020FEF7C8F90F48009402230068DB
:104450001946C0F11E023020FEF726FA3D22022145
:104460004020FEF7B9F93E2202215020FEF7B4F9B0
:10447000362202216020FEF7AFF9BDE83840152250
:1044800002217020FEF7A8B98C08002038B50D2253
:1044900000211020FEF7A0F90E2200212020FEF7B7
:1044A0009BF93A2200213020FEF796F93B220021A9
:1044B0004020FEF791F9102401230322002150200F
:1044C0000094FEF7F1F93C2200215820FEF784F910
:1044D0000F480094022300681946C0F11E02102004
:1044E000FEF7E2F93D2202212020FEF775F93E2277
:1044F00002213020FEF770F9362202214020FEF71B
:104500006BF9BDE83840152202215020FEF764B94E
:104510008408002038B504468DF800004FF6FF737C
:10452000012269460248FDF7B7FD204638BD00006C
:104530003009002030B585B00C460546FCF772FB0B
:1045400000200090CDE90105CDE9034072B604A931
:104550006846FCF7C9FA62B6FCF71AFB05B030BD35
:104560002DE9F84FF7480168F74FBA6A891A1429FC
:104570007ED30068B862FFF715FB3862B87A002472
:10458000012804D1FEF77CF812203871BC72F8794A
:10459000012803D1FEF774F83C71FC71797A386A0E
:1045A000BA79014311434FF0010603D1397909B1BA
:1045B0003E7301E000B93C73012A59D0DFF88C83C7
:1045C000E34D98F80000012821D1FEF759F8E1A148
:1045D0000020FEF72FFB3C717C61BC6188F8004035
:1045E000BC707C71BC71FC72FC703C82FC812C60E4
:1045F0006C60AC60EC602C616C616C62AC62EC6213
:10460000AC61EC612C624FF47A70FCF75BFA396AAA
:10461000B84671B198F80400474608281FD00B2807
:104620001DD00D281BD00E283CD00F283AD01028C2
:1046300038D0DFF81CA31020DFF82C934FF0020BCA
:104640000AF10C0711292CD2DFE801F02B43499B1A
:10465000F3F2F1F0EFEEEDECEBEAE9E8E700BC7025
:10466000FEF70EF8BBA10020FEF7E4FA3C7100E073
:10467000FEE37C71BC71FC72FC703C82FC817C614D
:10468000BC612C606C60AC60EC602C616C616C6235
:10469000AC62EC62AC61EC612C624FF47A70FCF7B6
:1046A00011FA58E2BC70FDF7EBFF032038717C7102
:1046B000BC71FC72FC70BC613C82FC817C612C6032
:1046C0006C60AC60EC602C616C616C62AC62EC6242
:1046D0001EE398F804000128E3D1FF22FBE398F8D9
:1046E000041071B102290CD012291DD013291BD03E
:1046F000042928D0092926D0052933D00A2931D008
:1047000029E2D8F814100629CBD0009000EB011054
:10471000C0B2022307220421FEF7C6F80721CFE129
:10472000401CC8F8140016E2D8F818100629B8D0B2
:10473000009000EB0110C0B2022307220421FEF713
:10474000B3F80721D6E3B8F810100629A9D20090D3
:1047500000EB0110C0B2022307220421FEF7A4F8E7
:104760000722D6E3B8F80E1006299AD2009000EB83
:104770000110C0B2022307220421FEF795F8072199
:10478000DBE398F8041081B102290ED012291BD066
:10479000132919D007292AD004292FD009292DD06F
:1047A00005294BD00A2949D0D5E1D8F8141006299B
:1047B000A6D0009000EB01100422C0B202231146E3
:1047C000FEF772F804217BE1D8F81810062997D07B
:1047D000009000EB01100422C0B202231146FEF744
:1047E00063F80421DFE3401CC8F81800B3E104219A
:1047F000A9F8001002230A460090D6E1B8F810107C
:10480000062990D2009000EB01100422C0B20223CE
:104810001146FEF749F80421DFE3F9E3F9E3F9E390
:10482000F9E38BE339E3BCE2EBE181E128E1E8E085
:1048300075E016E0401CA8F810008CE1B8F80E10E6
:104840000629B1D2009000EB01100422C0B202236D
:104850001146FEF729F80421D3E3401CA8F80E0006
:1048600079E198F8041071B102290CD012291CD0FA
:1048700013291AD004292AD0092928D005293AD089
:104880000A2938D067E1D8F8141006298CD0009096
:1048900000EB0110C0B2022301220421FEF704F84C
:1048A000D8F814002AF810603AE7D8F8181006294A
:1048B0009CD0009000EB0110C0B202230122042121
:1048C000FDF7F2FFD8F8180027F810608BE7B8F86A
:1048D000101006298AD2009000EB0110C0B202230A
:1048E00001220421FDF7E0FF1949B8F81000243136
:1048F00021F810609EE7B8F80E1006299DD20090AE
:1049000000EB0110C0B2022301220421FDF7CCFF0D
:104910000F49B8F80E00183121F810609DE798F89B
:10492000041071B1022921D0122931D013292FD0BE
:1049300004293FD009293DD005294ED00A294CD061
:1049400009E113E00800002044080020740800205A
:10495000C80B00205B76375D5B6D315D5B74355D48
:10496000D2D1C9CFCBF8000022000020D8F8141013
:10497000062987D0009000EB0110C0B2022300226C
:104980000421FDF791FFD8F814002AF81040C7E67B
:10499000D8F818100629D3D0009000EB0110C0B24F
:1049A000022300220421FDF77FFFD8F8180027F822
:1049B000104018E7B8F810100629C1D2009000EB9B
:1049C0000110C0B2022300220421FDF76DFFFD4952
:1049D000B8F8100021F810402CE7B8F80E1006299E
:1049E000AED2009000EB0110C0B2022300220421DD
:1049F000FDF75AFFF349B8F80E000C3921F81040C2
:104A00002BE798F80410082571B102290CD012295F
:104A100015D0132913D004291CD009291AD005292F
:104A200023D00A2921D0A6E3D8F81410062987D06C
:104A3000009000EB01100223C0B20822EBE1D8F88D
:104A400018100629EFD0009000EB01100223C0B22D
:104A50000822F2E1B8F810100629E4D2009000EB29
:104A600001100223C0B20822F9E1B8F80E1006299D
:104A7000D9D2009000EB01100223C0B2082202E25A
:104A800098F8041071B102290CD012291DD01329F5
:104A90001BD0042928D0092926D0052933D00A297A
:104AA00031D068E3D8F814100629BCD0009000EB90
:104AB0000110C0B2022305220421FDF7F5FE0521F5
:104AC000D8F814002AF810102AE6D8F81810062989
:104AD000A9D0009000EB0110C0B2022305220421EE
:104AE000FDF7E2FE05215EE2B8F8101006299AD221
:104AF000009000EB0110C0B2022305220421FDF753
:104B0000D3FE052169E2B8F80E1006298BD2009079
:104B100000EB0110C0B2022305220421FDF7C4FE00
:104B2000A8490522B8F80E000C3921F8102094E6A7
:104B300098F8041081B102290ED012291ED0132931
:104B40001CD007292CD0042934D0092932D00529BA
:104B500043D00A2941D00EE3D8F814100629A0D07A
:104B6000009000EB01100223C0B21A460421FDF7A9
:104B70009BFED8F814002AF810B0D1E5D8F8181028
:104B800006298ED0009000EB01100223C0B21A4615
:104B90000421FDF789FED8F8180027F810B022E6A6
:104BA000A9F800B002231A46009004213020FDF736
:104BB0007BFEE0E2B8F810100629CCD2009000EBA2
:104BC00001100223C0B21A460421FDF76DFE7D4A92
:104BD000B8F8100022F810B02CE6B8F80E1006292C
:104BE000B9D2009000EB01100223C0B21A46042192
:104BF000FDF75AFE734AB8F80E000C3A22F810B0CE
:104C00002BE698F8040013271428A4D2DFE800F05C
:104C10000A300A4167764084406776404040404011
:104C20004040BABAD8F81400062814D0FDF728FD81
:104C300065A10020FDF7FEFF4FF47A70FBF742FFFD
:104C400098F80500401CC0B288F80500032805D07C
:104C500088F804B009E0FFF70BFB06E0FDF710FD54
:104C6000112088F8040088F80660C8F814400CE0A9
:104C7000D8F81400012808D1BAF80000FF2804D1A0
:104C8000FDF7FEFC122088F804002C606C60AC601C
:104C900071E298F8020038B1012809D0504D02287D
:104CA0000AD0032885D110E0FDF7EAFC042013E0C8
:104CB000FDF7E6FC05200FE0FDF7E2FC288803285D
:104CC00001D30E2008E0062006E0FDF7D9FC288875
:104CD00008B90F2000E0072088F804004BE2B8F87C
:104CE0001000062829D0A8F8104088F800B000BFAE
:104CF000FFF716F96C62AC62EC623CE2B8F80E00A9
:104D000006281FD0A8F80E4088F801B0FFF796F8E3
:104D1000AC61EC612C622EE2B9F80000801E022822
:104D200008D8FDF7ADFCB9F80000FBF70FFCA9F8B7
:104D3000004020E2FDF7A4FCCDE788F80060A8F869
:104D40001040D5E788F80160A8F80E40DEE700BF04
:104D5000FDF796FC23A10020FDF76CFF4FF47A705D
:104D6000FBF7B0FE98F80800401CC0B288F80800B5
:104D700003280ED088F80470C8F81840EC602C6145
:104D80006C61F8E1D8F818000628E1D1FEF7C6FDFD
:104D9000F2E7FDF775FC142088F8040088F8096034
:104DA000EAE798F80410092551B3022929D01229FD
:104DB00039D0132937D0042947D0092945D00529EE
:104DC00057D0D8E1EC0B00205B76375D5B6D315D31
:104DD0005B74355DBDE2CBF8CAA7B0DC0000000013
:104DE000120000205B76375D5B6D315D5B74355D75
:104DF000B9DCC0EDD4B1C3DCC2EBB4EDCEF300003E
:104E0000FFE7D8F81410062956D0009000EB0110E7
:104E10000223C0B209220421FDF746FDD8F8140090
:104E20002AF810507CE4D8F81810062944D00090D5
:104E300000EB01100223C0B209220421FDF734FD6A
:104E4000D8F8180027F81050CDE4B8F8101006294B
:104E500032D2009000EB01100223C0B209220421DB
:104E6000FDF722FDC649B8F8100021F81050E1E422
:104E700083E1B8F80E1006291ED2009000EB011055
:104E80000223C0B209220421FDF70EFDBC49B8F887
:104E90000E000C3921F81050DFE498F8041061B1CD
:104EA00002290AD0122917D0132915D0042922D09B
:104EB000092920D0052932D05DE1D8F8141006293F
:104EC0004FD0009000EB0110C0B202230622042153
:104ED000FDF7EAFC062253E0D8F81810062940D066
:104EE000009000EB0110C0B2022306220421FDF75E
:104EF000DBFC062157E0B8F81010062931D20090EB
:104F000000EB0110C0B2022306220421FDF7CCFC05
:104F100006229B49B8F8100021F810208AE4B8F85E
:104F20000E1006291DD2009000EB0110C0B2022322
:104F300006220421FDF7B8FC062162E098F804106F
:104F400081B102290ED012291FD013291DD00729A3
:104F50002ED0042933D0092931D0052943D00A297C
:104F600041D008E1D8F81410062967D0009000EB72
:104F70000110C0B2022303220421FDF795FC032295
:104F8000D8F814002AF810208EE4D8F81810062952
:104F900054D0009000EB0110C0B202230322042180
:104FA000FDF782FC0321D8F8180027F810101AE446
:104FB0000321A9F8001002230A460090F5E5B8F88D
:104FC000101006293AD2009000EB0110C0B2022363
:104FD00003220421FDF768FC0321694AB8F8100098
:104FE00022F8101026E4B8F80E10062926D20090F8
:104FF00000EB0110C0B2022303220421FDF754FC90
:1050000003215F4AB8F80E000C3A22F8101024E48D
:10501000A1E090E059E0FFE798F8040004280ED0E2
:1050200005280CD006280AD0072808D0032817D056
:10503000122815D009282ED00A282CD09BE0FDF785
:105040001FFB88F80240A8F81040A8F80E406C62D8
:10505000AC62EC62AC61EC612C62C8F814402FE0E9
:10506000FDF70EFB88F80240A8F81040A8F80E40A3
:105070006C62AC62EC62AC61EC612C62C8F814400A
:10508000C8F81840EC602C616C612C606C60AC60FE
:1050900088F804606FE0FDF7F3FA88F80240A8F89A
:1050A0001040A8F80E406C62AC62EC62AC61EC613E
:1050B0002C62C8F81440C8F81840EC602C616C6190
:1050C0002C606C60AC60032006E698F804000428AD
:1050D0000FD005280DD009280BD00A2809D0C0B15F
:1050E000022816D012281DD013281BD007281FD045
:1050F00041E0A8F81040A8F80E40C8F814402C6011
:105100006C60AC606C62AC62EC62AC61EC612C62B5
:1051100004E0C8F814402C606C60AC600420FDF71B
:10512000B2FA28E0C8F81840EC602C616C61F5E731
:10513000A9F80040F2E798F8040003281BD1FDF716
:105140009FFA98F8020020B1B0F1010088F802003F
:1051500011E00320FAE798F8040003280BD1FDF7CB
:105160008FFA98F80200401CC0B288F802000428A8
:1051700001D188F80240C8F82040BDE8F88F00004F
:10518000EC0B0020FBF7F4FFFDF7A2FEFDF776F92C
:10519000FDF74AFAFDF710FAFDF7BAF9FDF728FA1C
:1051A000FDF7D6F9FDF7A8FAFDF7CEFD0122164965
:1051B0001648FCF731FF012215491648FCF72CFF71
:1051C0001548FCF767FBFDF7EFFCFDF759FA13A054
:1051D000FEF72CF9FEF7BCFCA0B116A0FEF726F9ED
:1051E0001B4D00BF00F01AFAFFF7BAF92C78002C1B
:1051F000F8D00220FBF766FC28788442F2D100F058
:1052000065F9EFE713A0E9E772080020C009002064
:105210007308002030090020E80800204153363090
:1052200038D6B8CEC6C4A3BFE9B2E2CAD4BFAACAB0
:10523000BC0D0A004153363038D6B8CEC6C4A3BF21
:10524000E9B3F5CABCBBAFCAA7B0DC0D0A000000C9
:10525000710800204153363038D6B8CEC6C4A3BF3B
:10526000E9B3F5CABCBBAFB3C9B9A60D0A000000CB
:1052700008B51023532200211846FDF7D1FA102358
:10528000542200211820FDF7CBFA10234D220021D3
:105290002020FDF7C5FA10200090022320220021D3
:1052A0002620FDF701FB032200213620FDF794FAAA
:1052B000042200214620FDF78FFA05220021562006
:1052C000FDF78AFA062200216620FDF785FA0922F9
:1052D00002210020FDF780FA0A2202211020FDF7AA
:1052E0007BFA0B2202212020FDF776FA0C22022104
:1052F0003020FDF771FA062202214020FDF76CFAFA
:105300000D2202215020FDF767FA0E2202216020B3
:10531000FDF762FA0F2202217020FDF75DFA2E22BE
:1053200006210020FDF758FA2F2206211020FDF754
:1053300053FA302206216020FDF74EFA3122062171
:105340007020FDF749FABDE80840FBF741BB024673
:10535000012000E05043491EC9B2FBD27047000053
:105360002DE9F843FDF78FFB002809D122A0FEF7B5
:105370005DF80120FDF769FB20B124A0FEF756F887
:10538000BDE8F8836B46632200210120FDF795FB01
:10539000214E224D00244FF001084FF47A79B8B124
:1053A000FDF76EF90220307028781D4E401CC0B207
:1053B0001C4F2870032815D01BA10220FDF73AFCD2
:1053C00034603C607C60BC604846FBF77BFBD7E701
:1053D0002C70FDF755F91BA10020FDF72BFC86F87A
:1053E0000080F1E71D49022081F800801CA1FDF733
:1053F00021FC2C70E4E70000BBF1C8A1CDBCCFF1CB
:10540000B3C9B9A6B3C9B9A60D0A0000C7EBB0B4B9
:10541000CAD6D6B80D0A0000480800204F08002060
:1054200058080020C80B00205B76375D5B6D315D4E
:105430005B74355DD6B8CEC6D1E9D6A4CAA7B0DCB8
:10544000000000005B76375D5B6D315D5B74355D40
:10545000BDE2CBF8B3C9B9A60000000047080020A0
:105460005B76375D5B6D315D5B74355DD6B8CEC6FE
:10547000D1E9D6A4CAA7B0DC20BDFBD3C3D6B8CE31
:10548000C60000000A480B4AC169127811430DD1C9
:10549000007938B1022805D03223042206A1084839
:1054A000FCF7FABD3223052206A1F8E77047000099
:1054B00044080020710800204F70656E0000000055
:1054C00030090020436C6F73650000002DE9F04146
:1054D0003A483B4D012600783A4C0027412822D01B
:1054E000364949783039442830D04FF47A754F28FE
:1054F0003DD0432843D031494A78303A96B28A7831
:10550000303A95B2CA78303A94B20A79303A93B2C6
:105510004A798979303A303992B289B2552839D0EE
:10552000522839D041E0FDF7ABF8E06900283CD1C2
:105530002888032803D33223072223A113E006205F
:1055400020713223052222A1E6610CE0E06900BB54
:10555000288828B10220E06188B2FAF7F7FF24E03A
:10556000322305221CA11E48FCF796FD1DE0FDF725
:1055700087F81CA10020FDF75DFB267106E0FDF712
:105580007FF81EA10020FDF755FB27712846FBF789
:1055900099FA0AE01E4800E01E4806804580848093
:1055A000C38002814181FDF749FC1B48FF21077040
:1055B000BDE8F0410148FAF7E0BD0000F70C00201B
:1055C000120000204408002041646466756C6C0081
:1055D0005072657373000000456D707479000000AF
:1055E000300900205B76375D5B6D315D5B74355D46
:1055F000BDE2CBF8B3C9B9A6000000005B76375D09
:105600005B6D315D5B74355DD2D1C9CFCBF80000E5
:105610002A000020360000207108002021490A6875
:105620002148436AD21A642A3BD30968416200794F
:10563000152836D2DFE800F00B0D0F1113151719DE
:105640001B1D1F21232527292B2D2F313300FFF769
:105650000FBEFDF79FBEFDF74BBEFEF7B5B9FEF7D7
:1056600015BCFEF79DBBFEF788B8FEF783BDFEF7BD
:10567000BEBCFEF7D3BCFEF77BBCFEF7BFB8FEF79F
:1056800065B8FEF7DDBDFEF771BEFEF73FBEFEF763
:1056900039BDFEF7FBBEFEF7FDB8FEF7C6B8FEF754
:1056A0009DBE70470800002044080020010202034C
:1056B0000405060708090A0B0C0D0E0F1010000058
:1056C00000000000000001020304060708090000B2
:1056D0000000010203040000000000000000002F91
:1056E000000000000700070000147F147F1400244E
:1056F0002A7F2A120062640813230036495522507B
:1057000000000503000000001C22410000004122AF
:105710001C000014083E08140008083E0808000099
:1057200000A0600000080808080800006060000091
:10573000002010080402003E5149453E0000427F0F
:105740004000004261514946002141454B3100185B
:1057500014127F10002745454539003C4A4949301D
:1057600000017109050300364949493600064949D7
:10577000291E0000363600000000563600000008E2
:1057800014224100001414141414000041221408BF
:1057900000020151090600324959513E007C1211A4
:1057A000127C007F49494936003E41414122007F39
:1057B0004141221C007F49494941007F09090901F3
:1057C000003E4149497A007F0808087F0000417F78
:1057D0004100002040413F01007F08142241007F2A
:1057E00040404040007F020C027F007F0408107F91
:1057F000003E4141413E007F09090906003E4151FA
:10580000215E007F091929460046494949310001B6
:10581000017F0101003F4040403F001F2040201F0A
:10582000003F4038403F00631408146300070870CD
:10583000080700615149454300007F414100005580
:105840002A552A55000041417F000004020102044C
:105850000040404040400000010204000020545439
:105860005478007F48444438003844444420003889
:105870004444487F00385454541800087E090102FB
:105880000018A4A4A47C007F080404780000447DD0
:105890004000004080847D00007F1028440000000C
:1058A000417F4000007C04180478007C08040478E0
:1058B00000384444443800FC2424241800182424CC
:1058C00018FC007C080404080048545454200004C8
:1058D0003F444020003C4040207C001C2040201CD5
:1058E000003C4030403C004428102844001CA0A04C
:1058F000A07C004464544C44141414141414000088
:105900000000000000000000000000000000000097
:1059100000F800000000000000333000000000101C
:105920000C06100C0600000000000000000040C043
:105930007840C0784000043F04043F040400007035
:1059400088FC08300000001820FF211E0000F0082D
:10595000F000E018000000211C031E211E0000F0D2
:105960000888700000001E2123241927211010161A
:105970000E00000000000000000000000000000019
:1059800000E0180402000000000718204000000298
:105990000418E0000000004020180700000040400C
:1059A00080F0804040000202010F0102020000006E
:1059B00000F0000000000101011F010101000000D2
:1059C00000000000000080B0700000000000000037
:1059D00000000000000000010101010101010000C0
:1059E0000000000000000030300000000000000057
:1059F000000080601804006018060100000000E04C
:105A000010080810E000000F102020100F000010F8
:105A100010F8000000000020203F2020000000704F
:105A20000808088870000030282422213000003047
:105A30000888884830000018202020110E0000003F
:105A4000C02010F8000000070424243F240000F8C0
:105A50000888880808000019212020110E0000E0A5
:105A6000108888180000000F112020110E00003847
:105A70000808C83808000000003F0000000000705F
:105A8000880808887000001C222121221C0000E0E8
:105A900010080810E0000000312222110F00000061
:105AA00000C0C00000000000003030000000000016
:105AB0000080000000000000806000000000000086
:105AC000804020100800000102040810200040401F
:105AD0004040404040000404040404040400000862
