:020000040800F2
:1000000028100020050100081B240008CD1E000850
:1000100019240008C5040008313000080000000061
:100020000000000000000000000000003929000866
:10003000C704000800000000372900085D2B0008F5
:100040001F0100081F0100081F0100081F01000810
:100050001F0100081F0100081F0100081F01000800
:100060001F0100081F0100081F0100081F010008F0
:100070001F0100081F0100081F0100081F010008E0
:100080001F0100081F0100081F0100081F010008D0
:100090001F0100081F0100081F0100081F010008C0
:1000A0001F0100081F0100081F0100081F010008B0
:1000B0001F010008C12B00081F0100081F010008D4
:1000C0001F0100081F0100081F0100081F01000890
:1000D0001F0100082D2F0008392F0008452F0008A8
:1000E0001F0100081F0100081F010008DFF810D0E1
:1000F00000F08CF800480047CD440008AFF30080C2
:10010000281000200648804706480047FEE7FEE723
:10011000FEE7FEE7FEE7FEE7FEE7FEE7FEE7FEE7B7
:10012000BF2B0008ED000008202A04DB203A21FA4A
:1001300002F00021704721FA02F3D040C2F1200200
:100140009140084319467047D2B201E000F8012BF4
:10015000491EFBD270470022F6E710B513460A4647
:1001600004461946FFF7F0FF204610BD30B505469E
:100170002A460B4612F8010B13F8014B08B1A042B6
:10018000F8D01CB1002802D06D1CF1E7284630BD24
:1001900030B504460020034600E05B1C934203D2C6
:1001A000E05CCD5C401BF8D030BD2DE9F05F05462A
:1001B000002092469B4688460646814640241BE026
:1001C0002846414647462246FFF7AEFF53465A4669
:1001D000C01A914110D311461846224600F028F863
:1001E0002D1A67EB01084F4622460120002100F03E
:1001F0001FF817EB00094E41201EA4F10104DFDCBB
:10020000484631462A464346BDE8F09F064C074D16
:1002100006E0E06840F0010394E8070098471034D6
:10022000AC42F6D3FFF766FFB0500008D05000088C
:10023000202A04DB203A00FA02F1002070479140A6
:10024000C2F1200320FA03F319439040704770B5C0
:100250008D1810F8014B14F0030201D110F8012B96
:10026000231106D110F8013B03E010F8016B01F8EF
:10027000016B521EF9D1ABB110F8012B04F00C0444
:100280008A1A0C2C03D0A2EB84129B1C08E010F8F5
:10029000014BA2EB0422F8E712F8014B01F8014BE5
:1002A0005B1EF9D5A942D4D3002070BD2DE9F047DB
:1002B000534F544E00244FF4FA784FF47A794FF4A8
:1002C000C87A00BF03F0D4F90D2806D0052C5FD200
:1002D000DFE804F007192E4A650002F09FF80320BA
:1002E0007FE06D1CEDB248A002F0C8FE02F06AFA91
:1002F000A8B9012002F048FA88B946A002F0BEFE73
:100300000025012426E06D1CEDB245A002F0B6FEEA
:1003100002F058FA18B9022002F036FA10B102F0D1
:100320004BFB35E03BA002F0A9FE0025022411E0C2
:100330003FA002F0A3FE02F0A1FA04000ED040A0FC
:1003400002F09CFE204602F037FB00252C4640467A
:1003500003F009FC504603F006FCB3E73BA002F0B3
:100360008DFE0324404611E03BA002F087FE40468C
:1003700003F0F9FB02F09CFA20B93BA002F07EFEEC
:1003800004243BE0002402F017FB37E003F0EBFB12
:10039000504603F0E8FB0A2D94D1BDE8F087798838
:1003A00036A0491C02F06AFE788805281FD2801CFE
:1003B00081B2022002F096FA7988491C79800028DF
:1003C000E0D133A002F05AFE3549002031F8102068
:1003D0004AB1401C0528F9DB02F076FB02F01EF85A
:1003E0000B203070D9E7012221F81020F4E72DA06E
:1003F00002F044FE02F012F80C2030704846C5E7C7
:1004000010000020A3060020C7EBB0B4CAD6D6B8AF
:100410000D0A0000D6B8CEC6D5FDB3A30D0A000064
:10042000C7EBD4D9B0B4D2BBB4CE0D0A00000000E3
:10043000B6D4B1C8C1BDB4CED6B8CEC60D0A000080
:10044000B6D4B1C8CAA7B0DC0D0A0000B6D4B1C892
:10045000B3C9B9A60D0A0000C9FAB3C9D6B8CEC649
:10046000C4A3B0E50D0A0000C9FAB3C9D6B8CEC618
:10047000C4A3B0E5B3C9B9A60D0A0000C2BCC8EB5D
:10048000D6B8CEC6B8F6CAFDCEAA2564200D0A009D
:10049000C2BCC8EBD6B8CEC6B3C9B9A60D0A000017
:1004A000E8090020C2BCC8EBD6B8CEC6CAA7B0DCEB
:1004B000A3ACD6BBC4DCC2BCC8EB35B8F6D6B8CE4C
:1004C000C60D0A00FEE7704721283CD2DFE800F0A5
:1004D00011131517191B1D1F212325273B3B3B3BE0
:1004E00027293B3B3B2B3B3B2D2F3133353B3B37C8
:1004F000390016A070471AA070471EA0704722A0AE
:10050000704726A070472AA070472EA0704732A0DF
:10051000704736A070473AA070473EA0704742A08F
:10052000704746A070474AA070474EA0704752A03F
:10053000704756A070475AA070475EA0704762A0EF
:10054000704766A070476AA07047000020202020F6
:100550002020204F4B2020202020202000000000C1
:1005600020CAFDBEDDB0FCBDD3CAD5B4EDCEF320AC
:1005700000000000B4ABB8D0C6F7C9CFC3BBD3D01E
:10058000CAD6D6B800000000C2BCC8EBD6B8CEC6EA
:10059000CDBCCFF1CAA7B0DC0000000020D6B8CE99
:1005A000C6CCABB8C9BBF2CCABB5AD2000000000E7
:1005B00020D6B8CEC6CCABCAAABBF2CCABBAFD2013
:1005C000000000002020D6B8CEC6CDBCCFF1CCAB09
:1005D000C2D220200000000020D6B8CEC6CCD8D58C
:1005E000F7B5E3CCABC9D920000000002020D6B875
:1005F000CEC6B2BBC6A5C5E4202020200000000066
:1006000020C3BBD3D0CBD1CBF7B5BDD6B8CEC62097
:1006100000000000202020CCD8D5F7BACFB2A2CA63
:10062000A7B0DC20000000002020C9BEB3FDC4A399
:10063000B0E5CAA7B0DC20200000000020C7E5BF5D
:10064000D5D6B8CEC6BFE2CAA7B0DC2000000000F5
:10065000BBBAB3E5C7F8C4DACEDED3D0D0A7CDBCE1
:100660000000000020B6C1D0B4464C415348B3F658
:10067000B4ED202000000000202020CEB4B6A8D287
:10068000E5B4EDCEF3202020000000002020CEDED7
:10069000D0A7BCC4B4E6C6F7BAC52020000000004D
:1006A00020BCC4B4E6C6F7C4DAC8DDB4EDCEF3208E
:1006B0000000000020BCC7CAC2B1BED2B3C2EBB4B6
:1006C000EDCEF3200000000020202020D6B8CEC6BA
:1006D000BFE2C2FA202020200000000020202020BD
:1006E000B5D8D6B7B4EDCEF320202020000000000E
:1006F00020B7B5BBD8C8B7C8CFC2EBD3D0CEF32094
:100700000000000072B6FEE706490020C8610648F6
:10071000016941F004010161016941F04001016199
:10072000704700003808002000200240064A0021DF
:10073000D16106490A6942F002020A61486108690A
:1007400040F0400008617047380800200020024057
:10075000044B0022DA61044A136943F00103136178
:100760000180704738080020002002401448002211
:10077000C168CB06134904D5CA6942F00202CA61B6
:100780001022C3685B0705D5CB6943F00103CB6139
:1007900042F00402C369DB0707D0CB6943F00403CE
:1007A000CB61C16921F00101C161A2F580710139FC
:1007B00001D0C2607047C16921F00101C161704779
:1007C000002002403808002070B5054600F05EFAAF
:1007D0000646114C09E0681C07D025B100F056FA16
:1007E000801BA84201D9032070BDE068C007F2D188
:1007F000E068800601D52020E060E068C00605D4EE
:10080000E069C00702D1E068400703D5FFF7AEFFFB
:10081000012070BD002070BD0020024010B501F025
:10082000BFFC002803D0BDE8104003F03BBF10BD63
:1008300010B590F821100022022905D0042181630F
:1008400080F82020012010BD01680B6823F00E0302
:100850000B6001680B6823F001030B6090F84030D7
:10086000C46B012101FA03F3636080F8211080F862
:100870002020104610BD000010B590F82110002473
:10088000022903D00421816301243DE001680A6844
:1008900022F00E020A6001680A6822F001020A6072
:1008A0001A4A0168914201D1012121E0174A14320C
:1008B000914201D110211BE0144A2832914201D10A
:1008C000891515E0114A3C32914201D189140FE09B
:1008D0000E4A5032914202D14FF4803108E00B4A67
:1008E0006432914202D14FF4801101E04FF08071E7
:1008F000064A083A5160012180F82110002180F851
:100900002010416B01B18847204610BD080002400D
:1009100070B5044600F0BAF90546601C02D00448E0
:100920000078044400F0B2F9401BA042FAD370BD35
:10093000000000202DE9F047054626480F46012615
:10094000017E01290FD00121814601762868DFF858
:1009500088804CF25034022808D0A2462046FFF787
:1009600033FFA8B131E00220BDE8F0872046FFF751
:100970002BFF08BB0120FFF7C7FE2046FFF724FF2F
:10098000D8F81010064621F00401C8F810101CE039
:100990004FF0FF303860AC6811E02046FFF7C6FE2C
:1009A0005046FFF711FFD8F81010060021F00201A1
:1009B000C8F8101001D03C6007E004F58064D5E968
:1009C000020100EB8120A042E7D8002189F818102D
:1009D0003046C9E73808002000200240034801697A
:1009E00041F08001016100207047000000200240BA
:1009F0002DE9F05F07461C4888460024017E154615
:100A00001E46012909D00121814601764CF2503A57
:100A10005046FFF7D9FE18B122E00220BDE8F09F52
:100A2000012F02D0022F00D00427D346DFF83CA0CC
:100A3000220128463146FFF777FB81B208EB4400DC
:100A4000FFF786FE5846FFF7BFFEDAF8102022F0C7
:100A50000102CAF8102018B9641CE4B2BC42E7D302
:100A6000002289F81820D9E7380800200020024029
:100A7000064900200A69120607D5054A4A60054A58
:100A80004A600969090600D501207047002002402C
:100A900023016745AB89EFCD2DE9F84FDFF8B89119
:100AA0000024A9F1040B23460F2709F1040AABF136
:100AB000040EC9E00125A5402A40AA427DD1674E17
:100AC000D1F804C0ACEB0608B44532D014DCBCF15C
:100AD000030F3AD009DCBCF1000F2AD0BCF1010FA2
:100AE0001CD0BCF1020F31D11DE0BCF1110F17D0A9
:100AF000BCF1120F2AD119E0B8F5881F19D006DC15
:100B0000B8F5803F15D0B8F5801F1FD111E0B8F5BA
:100B1000001F0ED0B8F5041F18D10AE0CB6815E00D
:100B2000CB681B1D12E0CB6808330FE0CB680C3399
:100B30000CE08B682BB1012B4FF0080303D045610B
:100B400004E0042302E0056100E00023FF2A01D84D
:100B5000064601E000F104064FEA840501D9A5F13B
:100B60002005D6F8008007FA05FC28EA0C0803FAED
:100B700005F548EA0508C6F800804D68ED0062D525
:100B8000374DAE6946F00106AE61AD6924F003064B
:100B900005F001050095334D06EB050CDCF8085017
:100BA000A607360F07FA06F825EA0805DFF8B88029
:100BB000404503D14FF0000817E044E0DFF8AC8077
:100BC000404502D14FF001080FE0DFF8A480404516
:100BD00002D14FF0020808E0DFF89880404502D1CA
:100BE0004FF0030801E04FF0040808FA06F848EA5D
:100BF0000508CCF808804D68D9F80060ED024D4634
:100C000001D5164300E096432E604D68DAF8006087
:100C1000AD02554601D5164300E096432E604D685F
:100C2000DBF80060AD035D4601D5164300E0964356
:100C30002E604D68DEF80060ED03754601D5164361
:100C400000E096432E60641C0D682A46E5407FF460
:100C500031AFBDE8F88F000008040140000011101A
:100C6000001002400000014000080140000C01405B
:100C700000100140001401408068084000D00120AD
:100C800070470AB1016170470904FBE701488068B9
:100C9000704700000000002070B5040025D094F8D3
:100CA0003D00002520B984F83C50204600F050F962
:100CB000242084F83D002068016821F001010160D2
:100CC0002068016841F4004101602068016821F456
:100CD0000041016000F098FA4D4A6168914201D8E4
:100CE0004C4900E04C49884201D2012070BD4B497B
:100CF0002368B0FBF1F15E6826F03F060E435E60AC
:100D00006368934206D94FF4967359434FF47A734C
:100D1000B1FBF3F12368491C1E6A26F03F063143FC
:100D200019626168914210D84900401EB0FBF1F28F
:100D3000521CC2F30B02042A01D2042022E0B0FBB1
:100D4000F1F0401CC0F30B001CE0A268F2B301EB11
:100D5000C10303EB0116431EB3FBF6F35B1C43F424
:100D600080431B0549D092B301EBC10202EB011194
:100D7000401EB0FBF1F0401CC0F30B0040F480407B
:100D800040F400402168CA694CF6FF739A4310434F
:100D9000C861D4E9071001432068026822F0C0024C
:100DA00011430160D4E9030101432068826848F2DD
:100DB000FF339A4311438160D4E905010843216858
:100DC000CA6822F0FF021043C86001E00EE016E09E
:100DD0002068016841F0010101602564202084F849
:100DE0003D00256384F83E50002070BD01EB4106B4
:100DF000431EB3FBF6F35B1CB3E70120C2E701EB34
:100E00004101401EB0FBF1F0401CC0F30B00B7E7FE
:100E1000A086010080841E0000093D0040420F00B2
:100E20002DE9FF4F83B09A46DDE9119793460446BA
:100E3000DDF84080FFF72AFF054694F83D002028A2
:100E40007FD11923012240492046009501F0D6F8B0
:100E5000002876D194F83C00012872D0012084F853
:100E60003C0020680168C90703D1016841F0010115
:100E700001602068016821F400610160212084F88C
:100E80003D00402084F83E0000262664C4F82480FB
:100E9000A4F82A90608D20852C48E062CDE9007589
:100EA00053465A462046049901F028F870B930E0BC
:100EB0002A463946204601F047F958B1206C0428EB
:100EC00004D12068016841F400710160012007B07D
:100ED000BDE8F08F606A216800780861606A401C94
:100EE0006062218D491E89B22185628D521E628504
:100EF00022685369DB435B070BD469B1007810614A
:100F0000606A401C6062208D401E2085608D401EFE
:100F10006085208D0028CBD12A463946204601F035
:100F200041F80028CAD154F83D0B016841F4007122
:100F30000160202004F81E09E67766770020C6E7E6
:100F4000FFE70220C3E70000020010000000FFFFDF
:100F500010B586B0002100910191029103910068C3
:100F60000F4988421AD10F4CA06940F00800A061D7
:100F7000A069694600F008000490C020009012208B
:100F80000190032003900848FFF786FDE06940F4D4
:100F90000010E061E06900F40010049006B010BD9C
:100FA0000054004000100240000C014002488168DB
:100FB000027811448160704700000020074810B596
:100FC000016841F010010160032000F075F80F2066
:100FD00000F006F800F024F8002010BD00200240C8
:100FE00070B50D4D04464FF47A712878B1FBF0F0DE
:100FF0000A490968B1FBF0F000F0DCFA48B9102C9E
:1010000007D200222146501E00F036F800206C6006
:1010100070BD012070BD0000000000200C00002009
:101020000C4808B5816941F001018161816901F0D5
:1010300001010091C16941F08051C161C06900F0B6
:10104000805000900448416821F0E06141F0007157
:10105000416008BD0010024000000140002809DB8B
:1010600000F01F02012191404009800000F1E020C2
:10107000C0F8001170470000F0B40E4B1B680C461E
:10108000C3F30223C3F10705042D00D90425191D5C
:10109000072901D2002300E0DB1E012606FA05F134
:1010A000491E214099409E40761E16403143F0BCB7
:1010B00002F008B80CED00E0064900F007020868ED
:1010C0004FF6FF03184040EA0220034A104308602D
:1010D000704700000CED00E00000FA052DE9F04734
:1010E0000F46050061D0434E306800F00700B8425B
:1010F00009D2306820F0070038433060306800F0D3
:101100000700B84251D128683B4C810712D54007EF
:1011100003D5606840F4E06060602878000703D57C
:10112000606840F4605060606068A96820F0F0007A
:10113000084360602878C00728D06868012810D06C
:101140002168022810D0890700292EDA616821F071
:10115000030101436160FFF799FD804641F2883940
:101160000DE021688903EFE78901EDE7FFF78EFDC8
:10117000A0EB0801494502D90320BDE8F08760686B
:10118000696800F00C00B0EB810FEFD1306800F01F
:101190000700B8420BD9306820F0070038433060B0
:1011A000306800F00700B84201D00120E5E7287858
:1011B000400705D56068E96820F4E0600843606096
:1011C0002878000706D56068296920F4605040EA55
:1011D000C100606000F038F86168084AC1F303118B
:1011E000515CC8400649086006480068FFF7F8FEF1
:1011F0000020C2E700200240001002407E480008A4
:101200000C000020040000200448054900684968DB
:10121000044AC1F30221515CC84070470C00002011
:10122000001002408E4800080448054900684968DB
:10123000044AC1F3C221515CC84070470C00002031
:10124000001002408E4800080E4A51680E4801F016
:101250000C03042B11D0082B0FD10C48C1F383438E
:10126000C903C05C0AD55168084AC1F34041921EC7
:10127000515C054A5043B0FBF1F0704704494843C4
:10128000704700000010024000127A006E4800080B
:1012900000093D002DE9F84F040070D02078C04DC2
:1012A000C00749D06868C0F38100012807D068688A
:1012B000C0F38100022809D16868C00306D52868F8
:1012C000800339D560680028E7D035E06068B0F564
:1012D000803F0BD010B1B0F5A02F11D0286820F4BA
:1012E00080302860286820F4802002E0286840F4DC
:1012F00080302860606890B1FFF7C8FC06460AE0BD
:10130000286840F480202860F0E700BFFFF7BEFCAB
:10131000801B642873D828688003F7D50CE0FFF79A
:10132000B5FC064605E000BFFFF7B0FC801B642853
:10133000F0D828688003F7D420789A4E80074FF0C1
:1013400001094FF0000839D5686810F00C0F07D07C
:101350006868C0F38100022809D16868C00306D418
:101360002868800714D52069012808D110E0206979
:10137000B0B1C6F80090FFF789FC074605E00AE126
:10138000FFF784FCC01B0228C4D828688007F7D563
:101390002868616920F0F80040EAC10028600DE08B
:1013A000C6F80080FFF772FC074604E0FFF76EFC0A
:1013B000C01B022823D828688007F7D420780007AC
:1013C0002CD57948A169D9B1C0F80090FFF75EFC2F
:1013D000074604E0FFF75AFCC01B02280FD8686AD2
:1013E0008007F7D571484FF4FA510068B0FBF1F06F
:1013F000009000BF0098411E0091FAD20EE080E0FC
:10140000C0F80080FFF742FC074604E0FFF73EFC0F
:10141000C01B022875D8686A8007F7D42078400777
:1014200060D5E8690027C00008D4E86940F0805022
:10143000E861E869012700F0805000905C4801688D
:10144000C90513D40168834641F480710160FFF738
:101450001DFC824606E000BFFFF718FCA0EB0A0067
:1014600064284ED8DBF80000C005F5D5E0680128F7
:101470000AD008B1052813D0286A20F0010028629C
:10148000286A20F0040002E0286A40F00100286287
:10149000E06841F2883B98B1FFF7F8FB82460BE029
:1014A000286A40F004002862EEE700BFFFF7EEFB79
:1014B000A0EB0A0159455AD8286A8007F6D50CE0F6
:1014C000FFF7E4FB824605E0FFF7E0FBA0EB0A0133
:1014D00059454CD8286A8007F6D41FB1E86920F036
:1014E0008050E861E06988B36968C1F3810102292D
:1014F00044D00228C6F8608004D0FFF7C7FB04463A
:1015000038E034E0FFF7C2FB074604E0FFF7BEFB1C
:10151000C01B02282BD828688001F7D4206AB0F5B8
:10152000803F05D16868A16820F4003008436860F6
:10153000D4E908010843696821F47411084368601C
:10154000C6F86090FFF7A2FB044606E025E000BF66
:10155000FFF79CFB001B022809D828688001F7D5FB
:101560001BE000BFFFF792FB001B022802D90320FB
:10157000BDE8F88F28688001F4D40EE00128F7D088
:101580006868226A00F48031914204D1616A00F4F3
:101590007010884201D00120EAE70020E8E700004F
:1015A0000010024000004242800442420C00002031
:1015B0000070004010B5401EB0F1807F01D30120C3
:1015C00010BD4FF0E02460610F21601701F07AFD3B
:1015D0000020A06107202061002010BD70477047E7
:1015E00070B590F83C20012A26D0012480F83C40B8
:1015F000022280F83D2003685A689D6822F0700638
:101600000A6832435A600D4B02689A4208D0B2F120
:10161000804F05D00A4B9A4202D00A4B9A4204D11D
:10162000496825F080031943916080F83D4000210E
:1016300080F83C10084670BD022070BD002C0140AF
:10164000000400400008004010B5040003D094F8E6
:101650003D0010B107E0012010BD002084F83C00DF
:10166000204600F01FF8022084F83D00211D20686C
:1016700001F0ACFA012084F8460084F83E0084F8BA
:101680003F0084F8400084F8410084F8420084F868
:10169000430084F8440084F8450084F83D000020AD
:1016A00010BD000008B500680B49884212D10B48F4
:1016B000C16941F00201C161C069002200F002006D
:1016C000009011461D20FFF7D7FCBDE808401D2003
:1016D000FFF7C4BC08BD0000000400400010024039
:1016E00090F83D10012901D001207047022180F8B7
:1016F0003D100168CA6842F00102CA6000680B49E7
:10170000884208D0B0F1804F05D00949884202D004
:101710000849884204D1816801F00701062903D0F5
:10172000016841F00101016000207047002C014078
:10173000000400400008004070B5044690F83C00EA
:101740000025012817D0012684F83C60022084F887
:101750003D002068826822F0770222F47F42826096
:101760000868502838D00DDC20284FD005DC90B315
:10177000102811D14AE0022070BD302846D0402800
:101780000AD13BE060282FD070280DD0B0F5805FE3
:1017900003D0B0F5005F12D0012584F83D60002031
:1017A00084F83C00284670BDCB68D1E9012120684F
:1017B00001F042FA2068816841F0770109E0CB68C6
:1017C000D1E90121206801F037FA2068816841F4ED
:1017D00080418160E1E719E0CA684968206801F04A
:1017E0003DFA5021206806E0CA684968206801F087
:1017F00046FA6021206801F029FACEE7CA684968F4
:10180000206801F02BFA40212068F4E722680146A5
:101810001046F0E7704770B50446006801694FF064
:101820000005C943890715D4C168C943890711D484
:10183000E91E016101202077206880698007204629
:1018400002D0FFF7E7FF04E000F098F8204600F030
:1018500096F8257720680169C943490717D4C168FC
:10186000C943490713D46FF00401016102202077B6
:101870002068806910F4407F204602D0FFF7CAFF3D
:1018800004E000F07BF8204600F079F82577206826
:101890000169C943090716D4C168C943090712D4AD
:1018A0006FF008010161042020772068C06980077B
:1018B000204602D0FFF7AEFF04E000F05FF82046BC
:1018C00000F05DF8257720680169C943C90617D47F
:1018D000C168C943C90613D46FF010010161082023
:1018E00020772068C06910F4407F204602D0FFF7BF
:1018F00091FF04E000F042F8204600F040F8257720
:1019000020680169C943C90708D1C168C943C9072B
:1019100004D1891E0161204600F032F82068016977
:10192000C943090609D4C168C943090605D46FF043
:10193000800101612046FFF751FE20680169C9431B
:10194000490609D4C168C943490605D46FF040016E
:101950000161204600F026F820680169C943890624
:101960000BD4C168C943890607D46FF02001016117
:101970002046BDE87040FFF732BE70BD704770472B
:1019800000680649884207D105490868401C08607C
:10199000052801D3002008607047000000040040C3
:1019A000BC0600207047704770470000F8B501681A
:1019B00004460868CA684B6910F00F0F4FF0000525
:1019C00059D003F0010602F49077374365D0C10780
:1019D00005D0D10503D5616C41F001016164410777
:1019E00005D5D90703D0616C41F00201616481071C
:1019F00005D5D90703D0616C41F00401616401078A
:101A000007D502F02001314303D0616C41F0080199
:101A10006164616C00293AD0800604D5900602D535
:101A2000204601F06DF920684069616CC0F38010B8
:101A3000090700D460B3204601F03BF920684069F3
:101A4000400621D52068143050E8001F21F04001E5
:101A500040E80012002AF5D1E06BA8B16D4941635E
:101A6000E06BFEF709FF002811D0E06B416B01B07D
:101A7000BDE8F040084783060FD593060DD52046F4
:101A8000BDE8F84001F03CB92046FFF78DFFF8BDF6
:101A90002046FFF789FF6564F8BD266B2023012EE1
:101AA0007CD1C6067AD5D60678D5086848680090F5
:101AB00048694FF00206400640D5E16B086840686F
:101AC0000004000CE8D0A28D8242E5D9E085886947
:101AD00020282DD020680C3050E8001F21F48071A0
:101AE00040E80012002AF5D12068143050E8001FA9
:101AF00021F0010140E80012002AF5D120681430DD
:101B000050E8001F21F0400140E80012002AF5D102
:101B100084F84230256320680C3050E8001F21F023
:101B2000100140E80012002AF5D1E06BFEF780FEBC
:101B30006663A08DE18D401A81B22AE0A08DE18D0F
:101B4000401A81B2E08D0028A6D00029A4D02268D6
:101B50000C3252E8000F20F4907042E80007002F8A
:101B6000F5D12068143050E8002F22F0010240E83F
:101B70000027002FF5D184F84230256320680C300F
:101B800050E8002F22F0100240E80023002BF5D18E
:101B900066632046FFF707FFF8BDFFE705062BD574
:101BA000150629D594F841002128F5D1A068B0F593
:101BB000805F01D12069B0B1206A411C2162216897
:101BC00000784860E08C401E0004000CE084E3D103
:101BD0002068C16821F08001C1602068C16841F0BF
:101BE0004001C160D8E7206A0088C0F3080048605F
:101BF000206A801C2062E5E74006CDD55006CBD593
:101C0000CA68204622F04002CA6084F8413000F0E1
:101C10005CF9C1E7A32C000870B5040004D094F867
:101C20004100002510B106E0012070BD84F840504D
:101C3000204600F023F8242084F841002068C16881
:101C400021F40051C160204601F0BCF82068016910
:101C500021F4904101612068416921F02A0141612C
:101C60002068C16841F40051C1606564202084F897
:101C7000410084F842006563002070BDF0B585B076
:101C8000002400940194029403940368424F0220BC
:101C900042490322424D4602BB4225D18B6943F49F
:101CA00080438B618B6903F4804304938B6943F019
:101CB00004038B618969039201F00401049101021C
:101CC000CDE9001069462846FEF7E6FECDE900643E
:101CD000694628460294FEF7DFFE002211462520C1
:101CE000FFF7CAF9252028E02E4FBB4229D1CB6946
:101CF00043F40033CB61CB6903F4003304938B6965
:101D000043F004038B618969039201F0040104919B
:101D10000421CDE9001069462846FEF7BDFE0820E3
:101D2000CDE90004694628460294FEF7B5FE00227C
:101D300011462620FFF7A0F92620FFF78FF905B0FE
:101D4000F0BD194DAB42FAD1CB6943F48023CB618E
:101D5000CB6903F4802304938B6943F008038B6100
:101D60008969124D01F00801CDE90321CDE9006038
:101D700069462846FEF790FEE814CDE9000469465E
:101D800028460294FEF788FE002203212720FFF751
:101D900073F92720D1E7000000380140001002400D
:101DA000000801400044004000480040000C014091
:101DB00090F84230202B01D00220704721B11AB197
:101DC0000023036301F05AB80120704770B505463F
:101DD00000681149114C88420AD1114A2178A07833
:101DE0005054491C21700122A11C0E48FFF7E0FF4E
:101DF0000D49286888420ED1094A6078FF32E1789F
:101E00001154401C6070BDE8704004490122C91C97
:101E10000648FFF7CDBF70BD00440040B806002063
:101E2000260A0020A8070020003801406007002093
:101E30002DE9F843044690F841001F4616460D462A
:101E4000202802D00220BDE8F8837DB176B10020C1
:101E50006064212084F84100FEF718FFA6848046C4
:101E6000E684A068B0F5805F02D003E00120EAE7D5
:101E7000206910B12E4600250EE000260CE08021DE
:101E8000204601F016F8A0B9AEB116F8010B216892
:101E90004860E08C401EE084E08C43464FF0000236
:101EA00000970028EBD14FF04001204601F001F8E7
:101EB00030B10320C7E735F8020BC0F30800E6E7AE
:101EC000202084F841000020BDE77047FEE701684C
:101ED0004A69D24352050FD46FF480624A610021EF
:101EE00040F8301F202242738173026942F00402DD
:101EF0000261017301207047002070472DE9F8430B
:101F0000044600680D46DDE90897016898461646C4
:101F100041F4807101604B4600224FF001112046D0
:101F2000009700F06BF848B120680068C00502D542
:101F30004FF4007020640320BDE8F883216805F0A9
:101F4000FE0008613B464A461549204600F09EF8CF
:101F500088B920684169806900903A464946204620
:101F600000F0F2F848B1206C042804D12068016820
:101F700041F4007101600120DEE7F5B2B8F1010F14
:101F800009D02168300A08613A464946204600F0E7
:101F9000DBF80028E7D1206805610020CCE70000CD
:101FA0000200010070B516460D4604461EE02046AC
:101FB000FFF78DFF08B1012070BD681C16D0FEF739
:101FC00065FE801BA84200D885B920684069C043DF
:101FD00040070BD5002044F8300F20216173A07317
:101FE000216941F0200121612073E4E72068406904
:101FF000C0434007DBD4002070BD00002DE9F0474E
:10200000984617460D460446C1F30746DDF8209072
:102010002AE000BFB8F1FF3F26D0FEF737FEA0EB65
:102020000901414502D8B8F1000F1DD12068012EE9
:1020300016D0806925EA00000004000C12D00020B0
:10204000B84211D1002044F8300F20216173A073F1
:10205000216941F02001216120730120BDE8F08752
:102060004069E7E70120EBE72068012E0AD080698C
:1020700025EA00000004000C06D00020B842C9D0B8
:102080000020EBE74069F3E70120F7E72DE9F0478F
:10209000984616460D4604464FF000094FF0200AB8
:1020A000C1F3074723E020684069C043400515D4C9
:1020B0002068016841F40071016021686FF480605C
:1020C0004861C4F8309084F83DA084F83E90216CBB
:1020D00041F00401216484F83C9021E0701C06D09A
:1020E000FEF7D4FDA0EB0800B04203D816B1012FD3
:1020F0001FD021E02068012F15D0806925EA00005B
:102100000004000C18D000BF44F8309F84F80DA0E4
:1021100084F80E90216941F02001216184F80C902F
:102120000120BDE8F087406925EA00000004000CAA
:10213000EAD12068406901E02068806925EA000052
:102140000004000CAFD1ECE770B516460D4604460E
:102150001EE02046FFF7BBFE08B1012070BD681CE1
:1021600016D0FEF793FD801BA84200D885B92068E1
:102170004069C04300060BD5002044F8300F2021F1
:102180006173A073216941F0200121612073E4E7AC
:1021900020684069C0430006DBD4002070BD000009
:1021A0004FF400610148FEF767BD000000080140E0
:1021B0007CB50546EF208DF80000154C01208DF808
:1021C0000100A168080E8DF80200080C8DF80300CC
:1021D000080A8DF8040007208DF805108DF8060018
:1021E00000268DF8076026700BE0012001F0BBFC93
:1021F000207830B1267069460648FDF7B7FF002801
:1022000004D16D1E2D042D0CEFD100207CBD0000EB
:102210001000002058080020F0B585B000242048A8
:102220000094019402940394816941F0100181614A
:10223000816901F010010491816941F020018161FF
:10224000816901F020010491816941F004018161FB
:10225000816901F004010491816941F00801816103
:102260008069104F00F008004FF47046049001227E
:1022700031463846FEF705FDF02001258DE8310096
:1022800069460948FEF708FC0220CDE90240CDE985
:10229000006569463846FEF7FFFB05B0F0BD00005B
:1022A00000100240000C0140000801400D4810B52C
:1022B0000B4901600C49416000214FF4804281606C
:1022C000C0E9031241618161C1610162FEF7E4FC72
:1022D000002803D0BDE81040FEF714BA10BD00007E
:1022E00000540040C4060020A086010010B586B04E
:1022F0000024174800940194029403940494134911
:102300000594016041F61F41C0E9011440F2E73134
:10231000C0E903148461FFF797F908B1FEF7F2F9F9
:102320004FF48050009069460948FFF705FA08B15C
:10233000FEF7E8F9049404A905480594FFF750F95D
:10234000002801D0FEF7DEF906B010BD0004004001
:10235000180700200C4810B50A4901604FF41651C7
:102360004160002181600C22C160C0E904128161DA
:10237000C161FFF751FC002803D0BDE81040FEF713
:10238000C1B910BD00380140600700200C4810B5ED
:102390000A4901604FF416514160002181600C220E
:1023A000C160C0E904128161C161FFF735FC0028FA
:1023B00003D0BDE81040FEF7A5B910BD00440040B1
:1023C000A80700200C4810B50A4901604FF461418C
:1023D0004160002181600C22C160C0E9041281616A
:1023E000C161FFF719FC002803D0BDE81040FEF7DB
:1023F00089B910BD00480040F007002001B5FF2357
:10240000012269460348FFF713FD002800D0012090
:1024100008BD0000F0070020FEE7FEE7002000F006
:102420001DB870B50446861C14E004F1B000C0B2BB
:1024300000F000FE002000F0FDFD102000F0FAFD8D
:102440000025002000F008FE6D1CEDB2802DF8D3B1
:10245000641CE4B2B442E8D370BD000070B5064617
:102460005FF0000404F1B000C0B200F0E3FD002012
:1024700000F0E0FD102000F0DDFD0025304600F00A
:10248000EBFD6D1CEDB2802DF8D3641CE4B2082C7A
:10249000E8D370BD10B56420FEF73AFAAE2000F024
:1024A000C9FD202000F0C6FD102000F0C3FDB020C3
:1024B00000F0C0FDC82000F0BDFD002000F0BAFD16
:1024C000102000F0B7FD402000F0B4FD812000F0A6
:1024D000B1FDFF2000F0AEFDA12000F0ABFDA62075
:1024E00000F0A8FDA82000F0A5FD3F2000F0A2FD0F
:1024F000A42000F09FFDD32000F09CFD002000F000
:1025000099FDD52000F096FDF02000F093FDD92034
:1025100000F090FD222000F08DFDDA2000F08AFD11
:10252000122000F087FDDB2000F084FD202000F069
:1025300081FD8D2000F07EFD142000F07BFDAF209A
:1025400000F078FDBDE810400020FFF787BF10B510
:102550000446B031C8B200F06DFD102040EA1410FE
:1025600000F068FD04F00F00BDE8104040F00100ED
:1025700000F060BD2DE9F0410F4680460025540172
:10258000FFF7E5FF0C4E305D00F066FD6D1CEDB20F
:10259000641C102DF7D37F1CF9B24046FFF7D7FF1C
:1025A0000025305D00F058FD6D1CEDB2641C102D4F
:1025B000F7D3BDE8F08100003E0000202DE9F04196
:1025C000203A00240D468046D6B27F2803D9002049
:1025D0008D1C8046EDB2102B29460FD0FFF7B7FFB8
:1025E000164906EB460001EB4005285D00F034FD7E
:1025F000641CE4B2062CF8D3BDE8F081FFF7A7FF16
:102600000F4F00BF04EB0610385C00F025FD641C82
:10261000E4B2082CF6D36D1CE9B24046FFF797FFF1
:102620005FF0000404EB06103844007A00F014FD5B
:10263000641CE4B2082CF5D3DEE7000096480008DD
:10264000BE4A00082DE9F05F0026DDF828901D46FF
:1026500092468B46804634464FEA590723E0281BB2
:10266000401EC1B20A2002F014F8BAFBF0F00A21B1
:10267000B0FBF1F201FB120026B9691E8C4201DAAF
:1026800038B101263030C2B207FB0480C0B24B46DD
:1026900004E007FB0480C0B24B4620225946FFF7F6
:1026A0008DFF641CE4B2AC42D9D3BDE8F09F0000BA
:1026B0002DE9F047002591468A460446012B22D099
:1026C000DFF8BC80022B24D155E02038C7B27E2C25
:1026D00004D90AF10100002400F0FF0A5146204607
:1026E000FFF735FF07EB4700002608EB4007B85D12
:1026F00000F0B2FC761CF6B2062EF8D3A41D6D1CB9
:10270000E4B2EDB201E0DFF87C8019F805000028A2
:10271000DBD1BDE8F0872038C7B2782C04D90AF1A4
:102720000100002400F0FF0A51462046FFF70FFF8A
:102730005FF0000606EB071118F8010000F08CFCB2
:10274000761CF6B2082EF5D30AF10100C1B220467C
:10275000FFF7FDFE5FF0000606EB071101EB080036
:10276000007A00F079FC761CF6B2082EF4D3083417
:102770006D1CE4B2EDB219F805000028CBD1C8E712
:10278000BE4A00089648000810B5044600F0F8F864
:1027900000F0D4F80120FFF731FE042000F000F92A
:1027A0000220FFF72BFE2046FFF728FEE01D00F079
:1027B000DDF84FF4FA60FFF7FBFC08B1407A10BD7A
:1027C000FF2010BD10B500F0DBF800F0B7F80120D5
:1027D000FFF714FE032000F0E3F80120FFF70EFEE0
:1027E000052000F0C3F84FF4FA60FFF7E1FC08B1F0
:1027F000407A10BDFF2010BD2DE9F0411E46144661
:102800000D46074600F0BCF800F098F80120FFF7ED
:10281000F5FD082000F0C4F81B20FFF7EFFD384657
:10282000FFF7ECFD280AFFF7E9FDE8B2FFF7E6FD48
:10283000200AFFF7E3FDE0B2FFF7E0FD07EB15200C
:10284000E9B2084400EB1420E1B20844243000F05F
:102850008DF84FF4FA60FFF7ABFC58B1C27A837A77
:10286000417A02EB03223280427B007B02EB0020A4
:10287000708000E0FF210846BDE8F08110B500F04F
:102880007FF800F05BF80120FFF7B8FD032000F0AF
:1028900087F80320FFF7B2FD072000F067F84FF438
:1028A000FA60FFF785FC08B1407A10BDFF2010BD2B
:1028B00010B500F065F800F041F80120FFF79EFD2B
:1028C000032000F06DF80520FFF798FD092000F0C7
:1028D0004DF84FF4FA60FFF76BFC08B1407A10BD79
:1028E000FF2010BD70B50C46054600F049F800F019
:1028F00025F80120FFF782FD062000F051F80620A0
:10290000FFF77CFD2846FFF779FD200AFFF776FDEB
:10291000E0B2FFF773FD05EB1420E1B208440D307F
:1029200000F024F84FF4FA60FFF742FC08B1407A57
:1029300070BDFF2070BD70477047000010B50A4C95
:10294000A068000EFFF75AFDA068C0F30740FFF72C
:1029500055FD2089C0F30720FFF750FD207ABDE820
:102960001040FFF74BBD00001000002010B50446DA
:10297000000AFFF743FDE0B2BDE81040FFF73EBD9F
:1029800010B54FF4C8710548FDF7E5FBEF20FFF7E0
:1029900035FDBDE810400120FFF730BD580800208C
:1029A00010B50446C0F30720FFF728FDE0B2BDE8EC
:1029B0001040FFF723BD000010B5FDF785FD01466F
:1029C000BDE8104001A000F059BB000025730D0ABE
:1029D000000000002DE9F041374D2888364E4AF2BC
:1029E000A554364F1A36A0423AD00121284601F0AC
:1029F0006BF9FEF73DF82246002329460120FDF73A
:102A0000F7FF012401E0072C03D205EB4401224625
:102A100013E0E01F062806D207EB440005EB440153
:102A200030F80E2C09E00D2C12D0A4F10E00052870
:102A300007D200BF05EB4401002200230120FDF76F
:102A4000D7FF641C132CDED3BDE8F041FDF7C6BFF1
:102A50000122314600231046FDF7CAFF0E24E9E7A4
:102A6000164A01200C3A01E0072806D235F810106A
:102A700002EB400323F8021C14E0C11F062906D212
:102A800035F8101007EB400323F80E1C0AE00D2860
:102A90000ED00E2806D335F81010094B03EB400377
:102AA00023F81C1C401C80B21328DDD3BDE8F08144
:102AB0003188044B1980F5E700F00008320000204F
:102AC000E80900201200002070B5204D01212846A1
:102AD00001F0FAF8FDF7CCFF4AF2A552002329468F
:102AE0000120FDF785FF0124194E01E0072C04D2D7
:102AF00006EB440030F8022C14E0E01F062806D252
:102B000013480C3000EB440030F80E2C0AE00D2C7A
:102B100016D0A4F10E0005280AD20E4800EB44009E
:102B200030F81C2C05EB440100230120FDF760FF69
:102B3000641CA4B2132CD9D3BDE87040FDF74EBF7E
:102B4000054802491A310288EEE7000000F000084B
:102B500026000020E809002012000020FEF726BA17
:102B600030B58FB028216846FDF7F5FA14210AA880
:102B7000FDF7F1FA01210804CDE9001000240294C8
:102B800002250491CDE907504FF4E0100990684602
:102B9000FEF780FB08B172B6FEE70F20CDE90A050B
:102BA0004FF48060CDE90C4002210AA80E94FEF794
:102BB00095FA002801D072B6FEE70FB030BD70471D
:102BC0000148FEF728BE000018070020F0B5026893
:102BD000164B174C174D4FF08047984205D0B8421E
:102BE00003D0A04201D0A84203D122F070064A6867
:102BF0003243984205D0B84203D0A04201D0A84247
:102C000003D122F44074CA6822434C6922F0800246
:102C1000224302608A68C2620A688262984201D1D5
:102C20000969016301214161F0BD0000002C0140F0
:102C3000000400400008004010B5846842EA032206
:102C400024F47F440A432243826010BD826822F04C
:102C500070020A4342F007018160704710B5036AB1
:102C6000046A24F001040462846924F0F00444EA54
:102C7000021423F00A020A438461026210BD10B5F7
:102C8000036A046A24F010040462846923F0A00338
:102C900024F4704444EA023243EA01118261016281
:102CA00010BD10B5406A0021C185C184FEF77CFECD
:102CB00010BD01680C3151E8002F22F4907241E8F8
:102CC0000023002BF5D10168143151E8002F22F0C8
:102CD000010241E80023002BF5D1016B012909D144
:102CE00001680C3151E8002F22F0100241E8002366
:102CF000002BF5D1202180F842100021016370479C
:102D000008B590F84210222901D0022008BD82683F
:102D10004FF480539A4201D1016921B1816A9A42EC
:102D20001BD04AB10AE00268816A5268C2F3080205
:102D30000A80816A891C08E0026972B102685268DF
:102D400002F07F020A70816A491C8162C18D491EAE
:102D50000904090CC18503D01BE002685268F1E741
:102D60000168CA6822F02002CA600168CA6822F4B9
:102D70008072CA6001684A6922F001024A6120211A
:102D800080F8421000214163026B012A03D0FFF753
:102D90001DF8002008BD016301680C3151E8002FC7
:102DA00022F0100241E80023002BF5D101680A68E7
:102DB000D20602D50A6849680091818DFEF7F3FDBD
:102DC000E7E7000070B5044600680169E26821F495
:102DD0004051114301612169A068084361690843BA
:102DE0002168CA6841F20C639A430243CA602068B2
:102DF0004169A26921F44071114341611E49206873
:102E0000884202D1FEF710FA01E0FEF7FDF900EB6F
:102E1000C00101EB0012606864218000B2FBF0F396
:102E2000B3FBF1F36FF018067343B2FBF0F5B2FB9E
:102E3000F0F605EB8305322303EB0515B5FBF1F541
:102E4000B6FBF1F605F0F00505EB0615B2FBF0F662
:102E5000B2FBF0F0B0FBF1F06FF01802504306EB5C
:102E6000800003EB0010B0FBF1F0216800F00F00D0
:102E70002844886070BD000000380140816282856E
:102E8000C28500214164222180F84210016921B1EC
:102E90000168CA6842F48072CA6001684A6942F0F7
:102EA00001024A610068C16841F02001C160002050
:102EB00070472DE9F041984617460E460446069D98
:102EC00027E0681C25D02DB1FDF7E0FEA0EB08003F
:102ED000A8421ED920680C3050E8001F21F4D071A0
:102EE00040E80012002AF5D12068143050E8001F95
:102EF00021F0010140E80012002AF5D1202084F8D9
:102F0000410084F84200002084F840000320BDE81E
:102F1000F0812068006836EA000004D00020B84242
:102F2000CFD00020F3E70120F9E700000148FEF7C9
:102F30003DBD0000600700200148FEF737BD0000DE
:102F4000A80700200B4982B008680268D243D20665
:102F50000CD40268406800904FF4C870C8850648D9
:102F6000886206490120087002B07047014802B02B
:102F7000FEF71CBDF00700205808002010000020BC
:102F8000174910B50220C87001460C220020FFF737
:102F9000F1FA062202211020FFF7ECFA1222022198
:102FA0002020FFF7E7FA132202213020FFF7E2FA90
:102FB000162202214020FFF7DDFA092202215020CB
:102FC000FFF7D8FA142202216020FFF7D3FA152266
:102FD00002217020FFF7CEFABDE81040FDF71EBCBD
:102FE000A006002010B50C2202210020FFF7C2FA33
:102FF000062202211020FFF7BDFA10220221202014
:10300000FFF7B8FA112202213020FFF7B3FA172296
:1030100004215A20FFF7AEFA182204216A20FFF794
:10302000A9FA02490120C87010BD0000A0060020C6
:10303000FEE7000001B584B00121642204A88DE8F8
:1030400007000B46002278210248FDF7E9FE05B093
:1030500000BD0000C406002001B584B00121642237
:1030600004A88DE807000B46402278210248FDF7AE
:10307000D7FE05B000BD0000C40600200FB4054B0C
:1030800010B503A9044A029800F03CF810BC5DF8A2
:1030900014FB0000A93C0008C00600200FB4084B38
:1030A00010B504A902AA039800F02CF8044602A95E
:1030B000002000F087F9204610BC5DF814FB0000EA
:1030C000C53300080907090E002804DB00F1E020E1
:1030D00080F80014704700F00F0000F1E02080F845
:1030E000141D704702E008C8121F08C1002AFAD157
:1030F00070477047002001E001C1121F002AFBD178
:10310000704700002DE9FF4F8DB09B460F460446E7
:10311000002606E025280BD05A460F999047641CDC
:10312000761C20780028F5D111B03046BDE8F08F2C
:103130000025A8460122984900E0054314F8013F04
:10314000203B02FA03F00842F7D120782E2817D14D
:1031500014F8010F45F004052A280ED06FF02F0255
:103160002078A0F1300109290AD808EB880102EB88
:10317000410100EB0108641CF2E757F8048B641C62
:1031800020786C280DD004DC4C2812D06A2811D18C
:1031900004E074280DD07A280CD10AE045F400151B
:1031A00007E0617845F48015814202D1641C05F581
:1031B0008015641C2078692844D008DC0028B3D02E
:1031C000582867D063280FD0642808D13AE07028C7
:1031D00065D0732812D075285AD078285AD05A460C
:1031E0000F999047761CD5E017F8040B8DF8000076
:1031F00000208DF80100E946012003E057F8049B08
:103200004FF0FF3069074FF0000501D40AE06D1C54
:1032100045450DDA8542FADB19F805100029F6D18B
:1032200006E06D1C8542FCDB19F805100029F8D179
:103230002E4404E019F8010B5A460F9990476D1E71
:10324000F8D2A7E00A200021CDE90801C5F3025019
:1032500002280CD001CFC117021E71F100020CDA56
:103260000023D0EB030063EB01012D2208E0FF1DDA
:1032700027F00707F7E80201EEE72A0504D52B221D
:103280008DF8282001223CE0EA073AD02022F7E717
:103290000A2000E010200021CDE9080107E01020FD
:1032A000002145F00405CDE908014FF00808C5F3F9
:1032B0000250022810D001CF00214FF0000A2A0747
:1032C00020D52278702A0DD0DDE908C38CF0100CCF
:1032D0005CEA030C0CD015E0FF1D27F00707F7E8A8
:1032E0000201EAE740228DF828204FF0010A0CE0A5
:1032F00050EA010306D030238DF828308DF82920BC
:10330000022292462278582A04D024A20DF12009E4
:103310000B9209E026A2F9E7DDE90823FCF745FF57
:103320000B9B9B5C09F8013D50EA0102F4D1ADEB27
:10333000090020300890680701D44FF0010808996F
:10334000884503DD0898A8EB000000E000208046D7
:10335000002506E00AA85A46405D0F9990476D1C6B
:10336000761C5545F6DB04E030205A460F9990470D
:10337000761CB8F10001A8F10108F5DC05E019F8A8
:10338000010B5A460F999047761C0899481E0890E1
:103390000029F4DC641CC4E6092801003031323312
:1033A0003435363738396162636465660000000081
:1033B000303132333435363738394142434445466B
:1033C000000000000A68531C0B601070704710B5B5
:1033D0001E2202211020FFF7CDF81F2202212020FB
:1033E000FFF7C8F8122202213020FFF7C3F813229A
:1033F0000221BDE810404020FFF7BCB810B5002105
:1034000009220846FFF7B6F8272200211020FFF70F
:10341000B1F8282200212020FFF7ACF82522002156
:103420003020FFF7A7F8262200214020FFF7A2F85E
:103430001E2202211020FFF79DF81F2202212020CA
:10344000FFF798F8292202213020FFF793F8232272
:1034500002214020FFF78EF8242202215020FFF79E
:1034600089F82C2206215A20FFF784F82D22062104
:103470006A20FFF77FF8BDE81040FCF717BF10B5D2
:103480001E2202211020FFF775F81F2202212020A2
:10349000FFF770F8102202213020FFF76BF811229D
:1034A0000221BDE810404020FFF764B810B55A4C27
:1034B000A07800287ED00021102320220846FFF7A4
:1034C0007DF8192200211420FFF754F81A22002158
:1034D0002420FFF74FF80C2200213420FFF74AF890
:1034E000062200214420FFF745F80D220021542038
:1034F000FFF740F80E2200216420FFF73BF8A07888
:10350000012877D01023202202210020FFF756F84F
:10351000192202211020FFF72DF81A220221202063
:10352000FFF728F81B2202213020FFF723F81C2286
:1035300002214020FFF71EF81D2202215020FFF734
:1035400019F80D2202216020FFF714F80E22022143
:103550007020FFF70FF8A078022851D01023202206
:1035600004210020FFF72AF81E2204211020FFF773
:1035700001F81F2204212020FEF7FCFF2322042152
:103580003020FEF7F7FF242204214020FEF7F2FF4F
:10359000A07803283AD01023202206210020FFF72C
:1035A0000DF8202206211020FEF7E4FF212206213B
:1035B000202000E017E0FEF7DDFF23220621302067
:1035C000FEF7D8FF242206214020FEF7D3FF2C224D
:1035D00006215A20FEF7CEFF2D220621BDE810401D
:1035E0006A20FEF7C7BF002122220846FEF7C2FF6D
:1035F00067E7FFE7222202210020FEF7BBFF87E7F3
:10360000222204210020FEF7B5FFADE72222062189
:103610000020FEF7AFFFC4E7A006002070B54FF40E
:10362000C87210491048FEF7C3FB0F480068C16814
:1036300041F01001C1600B4D01206872FFF7A0F945
:10364000FFF77CF9094E0024305DFEF7D7FE641CBD
:103650000A2CF9DBC82000F086FA687A002800D02E
:10366000012070BD58080020F00700201C00002039
:103670002DE9F05F0025032000F075FA4FF00108F6
:10368000774EA9464FF4004ADFF8D8B1764C0AE0ED
:10369000032000F068FA35B1012D07D0022D09D0C2
:1036A000032D0DD111E00022514606E000224FF417
:1036B000804102E000224FF400515846FDF7E1FA44
:1036C0000027052000F04FFA0EE000224FF4805151
:1036D000F3E7052000F047FA37B1012F17D0022F8A
:1036E00028D0032F42D138E010213046FDF7C4FA2C
:1036F00004EB850110B181F8009037E081F800807B
:1037000010213046FDF7B8FA0028F9D02EE020212C
:103710003046FDF7B1FA04EB850110B181F8019054
:1037200024E081F8018020213046FDF7A5FA002829
:10373000F9D01BE040213046FDF79EFA04EB8501ED
:1037400010B181F8029011E081F8028040213046EA
:10375000FDF792FA0028F9D008E080213046FDF705
:103760008BFA04EB850168B181F803907F1CFFB2EE
:10377000042FAED37DB1012D10D0022D4BD0032DDF
:1037800011D14BE081F8038080213046FDF774FAB7
:103790000028F9D0EAE70122514601E00122910315
:1037A0005846FDF76EFA6D1CEDB2042DFFF470AFB4
:1037B0002078012835D06078012834D0A0780128FD
:1037C00033D0E078012832D02079012831D06079D7
:1037D000012830D0A07901282FD0E07901282ED0FF
:1037E000207A01282DD0607A01282CD0A07A0128D7
:1037F0002BD0E07A01282AD0207B012809D0607BD9
:10380000012826D0A07B012825D0E07B012824D0E8
:103810000020BDE8F09F01225103C1E701221103FE
:10382000BEE70D20F5E70E20F3E70F20F1E71020AB
:10383000EFE70920EDE70A20EBE70B20E9E70C2092
:10384000E7E70520E5E70620E3E70720E1E70820B2
:10385000DFE70220DDE70320DBE70420D9E70000F3
:1038600000080140000C0140F209002010B50922B7
:1038700000211020FEF77EFE0A2200212020FEF704
:1038800079FE0B2200213020FEF774FE2B2200214E
:103890004020FEF76FFE292200215020FEF76AFE2D
:1038A0001B2202210020FEF765FE1C2202211020AF
:1038B000FEF760FE1D2202212020FEF75BFE0D2296
:1038C00002213020FEF756FE0E2202214020FEF794
:1038D00051FE0F2202215020FEF74CFE2C22062121
:1038E0005A20FEF747FE2D2206216A20FEF742FEEF
:1038F0002E2206210020FEF73DFE2F220621BDE8E4
:1039000010401020FEF736BE70B5104C104E00254A
:103910006078012802D002280ED012E0FEF77EFD6A
:103920000820E0700B48F1680160316941607169FD
:103930008160FFF7C9F803E0FEF770FD0A20E07030
:103940002570A580F5603561756170BDA006002009
:10395000020A00203200002010B50021092208468A
:10396000FEF708FE0A2200211020FEF703FE0B22BC
:1039700000212020FEF7FEFD2B2200213020FEF743
:10398000F9FD292200214020FEF7F4FD0C2202213E
:103990001020FEF7EFFD062202212020FEF7EAFDAF
:1039A0000D2202213020FEF7E5FD0E2202214020EB
:1039B000FEF7E0FD0F2202215020FEF7DBFD2C2256
:1039C00006215A20FEF7D6FD2D2206216A20FEF799
:1039D000D1FD2E2206210020FEF7CCFD2F2206214C
:1039E000BDE810401020FEF7C5BD000070B5104CBA
:1039F000104E00252078012802D002280ED012E0B7
:103A0000FEF70CFD0820E0700B48B1690160F16918
:103A10004160316A8160FFF757F803E0FEF7FEFC72
:103A20000920E0702570E580B561F561356270BDF3
:103A3000A0060020020A00202600002010B519224E
:103A400002210020FEF796FD1A2202211020FEF727
:103A500091FD122202212020FEF78CFD132202216B
:103A60003020FEF787FD162202214020FEF782FD5E
:103A7000092202215020FEF77DFD14220221602040
:103A8000FEF778FD152202216A20FEF773FD2E2233
:103A900006210020FEF76EFD2F2206211020FEF7E2
:103AA00069FD2C2206215A20FEF764FD2D220621F5
:103AB000BDE810406A20FEF75DBD10B51922022155
:103AC0000020FEF757FD1A2202211020FEF752FDBA
:103AD000102202212020FEF74DFD11220221BDE817
:103AE00010403020FEF746BD10B5192202210020FB
:103AF000FEF740FD1A2202211020FEF73BFD1222A4
:103B000002212020FEF736FD132202213020FEF78D
:103B100031FD162202214020FEF72CFD0922022150
:103B20005020FEF727FD142202216020FEF722FD1F
:103B3000152202216A20FEF71DFD2E2206210020FB
:103B4000FEF718FD2F2206211020FEF713FD2C2270
:103B500006215A20FEF70EFD2D220621BDE8104059
:103B60006A20FEF707BD70B5054600244FF47A764B
:103B700003E0304600F004F8641CAC42F9D370BD99
:103B800071B54FF461754FF0E023104E009819E0C5
:103B90002C46A04200D804469869614201EBC1015D
:103BA00010EBC10105D49A69824208DA8A42FADA36
:103BB00005E08A1999698142FCDD9142FADC00989E
:103BC000001B00900028E3D178BD000040190100DF
:103BD00010B5002109220846FEF7CCFC0A2200217C
:103BE0001020FEF7C7FC0B2200212020FEF7C2FCAC
:103BF000252200213020FEF7BDFC26220021402096
:103C0000FEF7B8FC202202211020FEF7B3FC21228F
:103C100002212020FEF7AEFC292202213020FEF7EF
:103C2000A9FC232202214020FEF7A4FC2422022129
:103C30005020FEF79FFC02230DA219466020FEF7DC
:103C400037FD2C2206215A20FEF794FC2D22062156
:103C50006A20FEF78FFC302206210020FEF78AFC46
:103C600031220621BDE810401020FEF783BC000081
:103C70004944000010B50C2208490948FCF788FAAD
:103C8000084C30B1FEF7CAFB0220E0700020A060B3
:103C900010BDFEF7C3FB0120E07010BD2600002020
:103CA000020A0020A006002038B504468DF8000066
:103CB0004FF6FF73012269460248FEF7B9F8204625
:103CC00038BD00006007002030B585B00C460546C1
:103CD000FCF7CEFE00200090CDE90105CDE90340C0
:103CE00072B604A96846FCF725FE62B6FCF776FEBC
:103CF00005B030BD2DE9F84FFC480268FC494B691E
:103D0000D21A322A70D3006888460C464861FFF701
:103D1000AFFCE060002420B198F803104546082964
:103D200018D0F44E1021F44A4FF0020A4FF0010B64
:103D300006F1180706F10C09354611280ED2DFE806
:103D400000F00D0E14549FFBF9F8F7F6F5F4F3F2BA
:103D5000F1F0EF00AC70FEF761FBEC70B1E398F8A6
:103D600003000128FAD1FF2100E398F8030050B1C5
:103D7000022808D0042819D0092817D0052824D0F3
:103D80000A2822D09DE3D8F808000628E6D001EBE7
:103D900000100091C0B2022307220421FEF752FC5A
:103DA0000721E3E2401CC8F808008AE3B8F80600DF
:103DB0000628D3D201EB00100091C0B202230722E3
:103DC0000421FEF73FFC0721E9E2B8F804000628C9
:103DD000C4D201EB00100091C0B2022307220421DB
:103DE000FEF730FC07219EE26DE398F8030060B116
:103DF00002280AD0072817D004281BD0092819D078
:103E000005282AD00A2828D05BE3D8F8080006281D
:103E1000A4D001EB001004220091C0B2022311468D
:103E2000FEF710FC0421A1E20420108002230246C8
:103E300000914CE0B8F8060006288FD201EB001084
:103E400004220091C0B202231146FEF7FBFB0421BD
:103E5000A5E2401CA8F8060033E3B8F804000628E1
:103E600090D201EB001004220091C0B2022311464F
:103E7000FEF7E8FB042156E2401CA8F8040020E30A
:103E800098F8030060B102280AD007281AD0042845
:103E900022D0092820D0052830D00A282ED010E3BF
:103EA000D8F808000628AFD001EB00100091C0B28E
:103EB000022301220421FEF7C5FBD8F8080026F8EA
:103EC00010B06FE7A2F800B0022301220091042194
:103ED0003020FEF7B7FBF4E2B8F80600062893D2CC
:103EE00001EB00100091C0B2022301220421FEF771
:103EF000A9FBB8F8060027F810B0AAE7B8F8040044
:103F00000628A9D201EB00100091C0B202230122C1
:103F10000421FEF797FBB8F8040029F810B0ABE7CE
:103F2000BFE2AEE288E252E202E2C4E180E10FE1E8
:103F3000B9E075E044E0FFE798F8030050B10228CB
:103F400008D0042818D0092816D0052826D00A2819
:103F500024D0B6E2D8F80800062890D001EB001073
:103F60000091C0B2022300220421FEF76BFBD8F8B7
:103F7000080026F8104015E7B8F8060006288ED28B
:103F800001EB00100091C0B2022300220421FEF7D1
:103F900059FBB8F8060027F810405AE7B8F80400B3
:103FA000062898D201EB00100091C0B20223002233
:103FB0000421FEF747FBB8F8040029F810405BE73E
:103FC00098F80300082550B1022808D0042811D021
:103FD00009280FD0052818D00A2816D071E2D8F881
:103FE00008000628B5D001EB00100223C0B2082259
:103FF000009134E1B8F806000628AAD201EB0010BF
:104000000223C0B2082200913BE1B8F80400062860
:104010009FD201EB00100223C0B20822009142E1BE
:1040200098F8030060B102280AD0072817D00428A6
:104030001BD0092819D0052826D00A2824D040E210
:10404000D8F80800062884D001EB00100091C0B217
:10405000022305220421FEF7F5FA052186E1052059
:10406000108002230246009131E7B8F806000628C6
:10407000B4D201EB00100091C0B20223052204214A
:10408000FEF7E0FA05218AE1B8F804000628A5D277
:1040900001EB00100091C0B2022305220421FEF7BB
:1040A000D1FA05213FE198F8030060B102280AD057
:1040B000072823D0042827D0092825D0052835D063
:1040C0000A2833D0FDE1D8F80800062886D001EB95
:1040D000001002230091C0B21A460421FEF7B2FA82
:1040E000D8F8080026F810A05CE6000008000020C0
:1040F000A0060020020A002014000020A2F800A060
:1041000002231A460091E2E6B8F80600062896D285
:1041100001EB001002230091C0B21A460421FEF701
:1041200091FAB8F8060027F810A092E6B8F8040053
:10413000062884D201EB001002230091C0B21A4677
:104140000421FEF77FFAB8F8040029F810A093E6DE
:1041500098F803000B28B5D2DFE800F00618062710
:104160004352171717435200D8F80800062806D004
:10417000C8F80840FEF752F988F803A002E0FFF7FC
:1041800079FD0FE02C606C60AC609AE1D8F8080013
:10419000012807D13088FF2804D1FEF73FF903201A
:1041A00088F80300C8F80840ECE798F8020030B13E
:1041B000012808D002280AD00328E6D10BE0FEF738
:1041C0002DF904200AE0FEF729F9052006E0FEF7A4
:1041D00025F9062002E0FEF721F9072088F8030000
:1041E0006FE1B8F80600062818D0A8F8064088F84D
:1041F00000A000BFFFF7FAFBAC61EC612C6260E14C
:10420000B8F8040006280ED0A8F8044088F801A0E9
:10421000FFF77AFBEC602C616C6152E188F800B02A
:10422000A8F80640E6E788F801B0A8F80440EFE7F0
:1042300098F80300092540B1022806D0042816D0BA
:10424000092814D0052824D03BE1D8F80800062816
:104250003CD001EB00100223C0B2092200910421DE
:10426000FEF7F0F9D8F8080026F810509AE5B8F8EB
:10427000060006282AD201EB00100223C0B2092250
:1042800000910421FEF7DEF9B8F8060027F8105077
:10429000DFE5B8F80400062818D201EB001002236D
:1042A000C0B2092200910421FEF7CCF9B8F804004D
:1042B00029F81050E0E598F8030040B1022806D034
:1042C000042813D0092811D005281ED0F9E0D8F809
:1042D000080006283BD001EB00100091C0B2022379
:1042E00006220421FEF7AEF906213FE0B8F80600E9
:1042F00006282CD201EB00100091C0B20223062246
:104300000421FEF79FF9062149E0B8F804000628C9
:104310001DD201EB00100091C0B20223062204213D
:10432000FEF790F90621B8F8040029F81010A3E56B
:1043300098F8030060B102280AD007281BD004288F
:104340001FD009281DD005282ED00A282CD0B8E06F
:10435000D8F8080006284AD001EB00100091C0B23E
:10436000022303220421FEF76DF90321D8F8080087
:1043700026F8101016E50320108002230246009153
:10438000A5E5B8F80600062831D201EB001000912F
:10439000C0B2022303220421FEF754F90321B8F826
:1043A000060027F8101054E5B8F8040006281ED2BD
:1043B00001EB00100091C0B2022303220421FEF79A
:1043C00041F9B8F80400032229F8102054E598F8C0
:1043D000030004280CD005280AD0062808D0072896
:1043E00006D0032813D0092818D00A2816D068E070
:1043F000FEF714F888F80240A8F80640A8F8044030
:10440000AC61EC612C62EC602C616C6112E0FEF737
:1044100005F888F8024088F803B052E0A8F8064092
:10442000A8F80440AC61EC612C62EC602C616C611A
:10443000FDF7F4FF0320D1E698F80300042805D027
:10444000052803D0092801D00A280CD1A8F8064075
:10445000A8F80440AC61EC612C62EC602C616C61EA
:104460000420FDF7DEFF98F8030008B1022828D1E8
:10447000C8F808402C606C60AC600420FDF7D1FFE8
:104480001FE098F8030003281BD1FDF7C7FF98F839
:10449000020020B1B0F1010088F8020011E0032011
:1044A000FAE798F8030003280BD1FDF7B7FF98F857
:1044B0000200401CC0B288F80200042801D188F82C
:1044C0000240C8F80C40BDE8F88F0000FCF776FD0C
:1044D000FEF746FBFDF7A0FEFDF774FFFDF73AFF80
:1044E000FDF7E4FEFDF752FFFDF700FFFDF7D2FFF9
:1044F000FEF770FA012215491548FDF759FC012213
:1045000014491548FDF754FC1448FDF7E9F8FDF788
:1045100085FF13A0FEF7B2FDFFF780F8A0B116A04B
:10452000FEF7ACFD1B4D00BF00F06CF9FFF7E2FB9E
:104530002C78002CF8D00220FCF7EAF92878844285
:10454000F2D100F00FF9EFE713A0E9E7BA06002077
:10455000A8070020BB0600206007002018070020E5
:104560004153363038D6B8CEC6C4A3BFE9B2E2CA8A
:10457000D4BFAACABC0D0A004153363038D6B8CED3
:10458000C6C4A3BFE9B3F5CABCBBAFCAA7B0DC0DB4
:104590000A000000B80600204153363038D6B8CEA5
:1045A000C6C4A3BFE9B3F5CABCBBAFB3C9B9A60DB6
:1045B0000A00000008B51023532200211846FDF719
:1045C000FDFF1023542200211820FDF7F7FF1023D0
:1045D0004D2200212020FDF7F1FF10200090022342
:1045E000202200212620FEF72DF80322002136206C
:1045F000FDF7C0FF042200214620FDF7BBFF052286
:1046000000215620FDF7B6FF062200216620FDF7A7
:10461000B1FF092202210020FDF7ACFF0A2202218E
:104620001020FDF7A7FF0B2202212020FDF7A2FF9B
:104630000C2202213020FDF79DFF0622022140209E
:10464000FDF798FF0D2202215020FDF793FF0E2267
:1046500002216020FDF78EFF0F2202217020FDF75E
:1046600089FF2E2206210020FDF784FF2F2206213C
:104670001020FDF77FFF302206216020FDF77AFF32
:10468000312206217020FDF775FFBDE80840FCF7D8
:10469000C5B80246012000E05043491EC9B2FBD212
:1046A0007047000030B5C3B0FEF78CF8002818D171
:1046B0000120FEF769F888B941AB6322002101208F
:1046C000FEF79AF8144C4FF47A7560B113A0FEF718
:1046D000D5FC022020702846FCF71AF912A0FEF73C
:1046E000CDFC43B030BD13A0FEF7C8FC207800908D
:1046F000BDF80631BDF8042112A101A8FEF7CEFCD9
:1047000001A916A0FEF7BAFCFDF788FE0120207073
:104710002846FCF7FDF8E4E7A3060020D1E9D6A47B
:10472000CAA7B0DC0D0A0000C7EBB0B4CAD6D6B831
:104730000D0A0000D6B8CEC6D1E9D6A4B3C9B9A631
:10474000000000002049443A256420B5C3B7D63A9A
:1047500025642020766965773A25640025730D0A63
:104760000000000010B5204920A0FEF787FC1E487D
:10477000204C0178412908D044290AD04F290CD077
:1047800055290FD0522910D024E0FDF747FE06200E
:1047900006E0FDF743FE072002E0FDF73FFE0120A3
:1047A000E07017E04278144901E042781349303A4A
:1047B0000A808278303A4A80C278303A8A80027918
:1047C000303ACA804279303A0A818079303848815B
:1047D000FEF77AF90A4900200870BDE81040FF2171
:1047E0000148FBF7B8BC0000260A002025730D0A1B
:1047F00000000000A006002026000020320000205B
:10480000B806002017490A6817480369D21A642AB3
:1048100027D309680161C0780D2822D2DFE800F0B3
:1048200007090B0D0F11131517191B1D1F00FFF79B
:10483000C1BEFEF7D7BBFEF7A3BBFEF737BEFFF73F
:104840008BB8FFF713B8FEF7D9BDFFF7C1B9FFF773
:1048500034B9FFF749B9FFF7F1B8FEF710BEFEF71C
:10486000B6BD704708000020A00600200102020328
:104870000405060708090A0B0C0D0E0F10100000A6
:104880000000000000000102030406070809000000
:104890000000010203040000000000000000002FDF
:1048A000000000000700070000147F147F1400249C
:1048B0002A7F2A12006264081323003649552250C9
:1048C00000000503000000001C22410000004122FE
:1048D0001C000014083E08140008083E08080000E8
:1048E00000A06000000808080808000060600000E0
:1048F000002010080402003E5149453E0000427F5E
:104900004000004261514946002141454B310018A9
:1049100014127F10002745454539003C4A4949306B
:104920000001710905030036494949360006494925
:10493000291E000036360000000056360000000830
:10494000142241000014141414140000412214080D
:1049500000020151090600324959513E007C1211F2
:10496000127C007F49494936003E41414122007F87
:104970004141221C007F49494941007F0909090141
:10498000003E4149497A007F0808087F0000417FC6
:104990004100002040413F01007F08142241007F78
:1049A00040404040007F020C027F007F0408107FDF
:1049B000003E4141413E007F09090906003E415148
:1049C000215E007F09192946004649494931000105
:1049D000017F0101003F4040403F001F2040201F59
:1049E000003F4038403F006314081463000708701C
:1049F000080700615149454300007F4141000055CF
:104A00002A552A55000041417F000004020102049A
:104A10000040404040400000010204000020545487
:104A20005478007F484444380038444444200038D7
:104A30004444487F00385454541800087E09010249
:104A40000018A4A4A47C007F080404780000447D1E
:104A50004000004080847D00007F1028440000005A
:104A6000417F4000007C04180478007C080404782E
:104A700000384444443800FC24242418001824241A
:104A800018FC007C08040408004854545420000416
:104A90003F444020003C4040207C001C2040201C23
:104AA000003C4030403C004428102844001CA0A09A
:104AB000A07C004464544C441414141414140000D6
:104AC00000000000000000000000000000000000E6
:104AD00000F800000000000000333000000000106B
:104AE0000C06100C0600000000000000000040C092
:104AF0007840C0784000043F04043F040400007084
:104B000088FC08300000001820FF211E0000F0087B
:104B1000F000E018000000211C031E211E0000F020
:104B20000888700000001E21232419272110101668
:104B30000E00000000000000000000000000000067
:104B400000E01804020000000007182040000002E6
:104B50000418E0000000004020180700000040405A
:104B600080F0804040000202010F010202000000BC
:104B700000F0000000000101011F01010100000020
:104B800000000000000080B0700000000000000085
:104B9000000000000000000101010101010100000E
:104BA00000000000000000303000000000000000A5
:104BB000000080601804006018060100000000E09A
:104BC00010080810E000000F102020100F00001047
:104BD00010F8000000000020203F2020000000709E
:104BE0000808088870000030282422213000003096
:104BF0000888884830000018202020110E0000008E
:104C0000C02010F8000000070424243F240000F80E
:104C10000888880808000019212020110E0000E0F3
:104C2000108888180000000F112020110E00003895
:104C30000808C83808000000003F000000000070AD
:104C4000880808887000001C222121221C0000E036
:104C500010080810E0000000312222110F000000AF
:104C600000C0C00000000000003030000000000064
:104C700000800000000000008060000000000000D4
:104C8000804020100800000102040810200040406D
:104C900040404040400004040404040404000008B0
:104CA0001020408000000020100804020100007065
:104CB00048080808F0000000003036010000C0304D
:104CC000C828E810E0000718272423140B00000070
:104CD000C038E0000000203C23020227382008F8FA
:104CE000888888700000203F202020110E00C030EE
:104CF000080808083800071820202010080008F8C5
:104D000008080810E000203F202020100F0008F8BD
:104D10008888E8081000203F20202320180008F889
:104D20008888E8081000203F200003000000C03001
:104D300008080838000007182020221E020008F882
:104D400008000008F808203F210101213F20000849
:104D500008F8080800000020203F20200000000084
:104D60000808F8080800C08080807F00000008F86C
:104D700088C028180800203F20012638200008F8A5
:104D8000080000000000203F20202020300008F80C
:104D9000F800F8F80800203F003F003F200008F826
:104DA00030C00008F808203F200007183F00E0103E
:104DB00008080810E0000F10202020100F0008F84D
:104DC00008080808F000203F210101010000E01060
:104DD00008080810E0000F18242438504F0008F885
:104DE000888888887000203F2000030C30200070E5
:104DF0008808080838000038202121221C001808E3
:104E000008F8080818000000203F2000000008F8FB
:104E100008000008F808001F202020201F00087844
:104E2000880000C83808000007380E010000F808A4
:104E300000F80008F800033C0700073C03000818CE
:104E400068808068180820302C03032C3020083834
:104E5000C800C83808000000203F200000001008EB
:104E60000808C83808002038262120201800000033
:104E700000FE020202000000007F40404000000CE3
:104E800030C000000000000000010638C000000231
:104E90000202FE000000004040407F0000000000D1
:104EA00004020202040000000000000000000000F4
:104EB00000000000000080808080808080800002F0
:104EC00002040000000000000000000000000000DC
:104ED0008080808000000019242222223F2008F8D0
:104EE000008080000000003F112020110E00000013
:104EF000008080800000000E1120202011000000A2
:104F000000808088F800000E112020103F20000053
:104F1000808080800000001F222222221300008057
:104F200080F0888888180020203F202000000000A2
:104F3000808080808000006B94949493600008F8D7
:104F4000008080800000203F210000203F20008062
:104F50009898000000000020203F20200000000062
:104F600000809898000000C08080807F000008F8D2
:104F7000000080808000203F24022D3020000008A7
:104F800008F8000000000020203F20200000808062
:104F9000808080808000203F20003F20003F808074
:104FA000008080800000203F210000203F20000082
:104FB000808080800000001F202020201F00808033
:104FC00000808000000080FFA12020110E00000062
:104FD000008080808000000E112020A0FF80808053
:104FE00080008080800020203F2120000100000000
:104FF00080808080800000332424242419000080D5
:1050000080E0808000000000001F202000008080E1
:10501000000000808000001F202020103F208080A2
:1050200080000080808000010E3008060100808032
:105030000080008080800F300C030C300F00008057
:105040008000808080000020312E0E312000808082
:1050500080000080808080818E70180601000080B2
:105060008080808080000021302C222130000000D0
:105070000000807C020200000000003F4040000071
:105080000000FF00000000000000FF000000000220
:10509000027C800000000040403F0000000000064D
:1050A00001010202040400000000000000000000F2
:1050B000D050000800000020C40600004E02000886
:1050C000B0550008C406002064090000F430000850
:1050D0005007010000001000011324F40E211210EB
:1050E000040000FF0130050100071318900F1B0199
:1050F000000200030004000500060008022007006B
:10510000040404FF540112FF0A2016000011118943
:1051100085939191FD9191938589111100404042B1
:105120000132FE0643404066600440807F71100CEF
:1051300000F80C0B0808F840308F08071110137F97
:105140002101211F10054380403F9A100A945332D9
:105150001E325210007E46427E9942490122FF993A
:10516000101008CC4A49484ACC18007F88888482AD
:10517000E01E10051212529240527E104007F801B4
:10518000060000020122FE3E717A3186100F2010C7
:105190002CE7242400E22C20BF2028E6FC100F017D
:1051A000017F2111804F20100F10204F80A153E26A
:1051B000820142FEBD733F40016278C542FF142167
:1051C000DB3119627F241408004042CC0000441FE8
:1051D000167F25224422200B7F201000FF15151575
:1051E0005595E6101688681FC80810C85452D11289
:1051F0009408D01000091909FF05C5740592FF0035
:105200005F26540501E21CE02F1007804020100C9F
:1052100003F91007030C30408080C0100DEC27F418
:105220002CE00022920ED2221E20141F601F093F84
:1052300089FF000A0909FF09090800108C4404E4E9
:105240000495A64424148444940C0A24067A41410B
:1052500043424E26436F200A0484E45C44C40002A7
:10526000F2E11150140802017F10103F008D240458
:1052700008488881F101C336361013F888012009E7
:105280000808FF08090AC80880200D0010201F80A8
:10529000402116182641F84912F84C14081010FF46
:1052A000101010F0D0340B30101F088848300E0159
:1052B00040E040060040301E101E2A1086101B8160
:1052C000814121110D0301030D1121418181000054
:1052D000FE02FA02FE4020D8173F11222007804725
:1052E000300F10675F180B08162140800010101453
:1052F000D47D1007FC525252D31220100940405066
:10530000575555557F0427575080258122900138E5
:1053100005FF101116E8000D113F1028603F101016
:10532000010E3040F0E0A358380E3140180440A080
:105330009E0038059EA0202001140A908840432C2E
:1053400010284641301009001715D55557557D04D2
:105350003804D5151700217C21012905200F0040B4
:1053600020F807F0A0904C5724A4544C30198134F5
:105370000A1F80925249292412088011012C05FC31
:105380004030CC06033B08081F831008E03C10881F
:105390006423A2A6AAA2BAA4A3A2262AA26299035F
:1053A000324A01264BBF21402008FC848400FE9233
:1053B000920319D0100B60201F1010404444447F0A
:1053C0000429704004C05E52012B5EC04018048066
:1053D0008F404338050E101020DF2C091060028C1E
:1053E0000010925265031C04921210CF031C067E1B
:1053F000010021181C0344070830040931009C15E2
:10540000B94EF8A0033C058040300F390310057FEA
:10541000202020072B80FE3831051300F8DC1DB456
:1054200003300520BF403F23224F28100CFE225A94
:105430008620102824E32428731DA003100B0408E1
:1054400027110D41817F01055F19C9140902040963
:105450001224489020CD3D83044C0920104824128A
:1054600009040286043180100690003F4848D36C3E
:10547000094270000444827F0104041D02041C06DA
:105480002030AC6310410447090E3F7406226722A6
:1054900012923F1D20033008180AAAAAAA0AFE0683
:1054A0001F28180003100EFA0A0A7A0E0A7A0A4A0E
:1054B0008A7A02027F36F23B253F12F20F400F003C
:1054C0000282929A566322324A4642820280201019
:1054D0009020988888E98E8888A89800024281F6F2
:1054E0006C08844B28102847805A041004FE0202DE
:1054F0002E11016D10043DB6030E2106E004200BB1
:105500000000FC2424A4643DA624011E040F031CF7
:10551000070F1013121212C7043A12D01C18445469
:1055200065C664544400FC4444C442400020124A0E
:10553000827F020A926703316639A011442806A4CB
:10554000242222A31F280E40201F205847504845E0
:105550004245485000119C12F2514EF2FF0435B9F9
:1055600012276D3627BF49009DA00439009DA00475
:10557000051EC04D40041C082010E82724E4348890
:10558000044D40042D86041809093F49897F001005
:105590000C8B20044445C6062C0444140CC0041F84
:1055A0001E20240331106D1006013F010000000091
:04000005080000ED02
:00000001FF
